:020000040800F2
:10000000B0270020CD01000819060008B905000836
:1000100015060008650300083F50000800000000B6
:10002000000000000000000000000000794B000804
:100030009D04000800000000E70200088D4C000845
:10004000E7010008E7010008E7010008E7010008F0
:10005000E7010008E7010008E7010008E7010008E0
:10006000E7010008E7010008E7010008E7010008D0
:10007000E7010008E7010008E7010008E7010008C0
:10008000E7010008E7010008E7010008E7010008B0
:10009000E7010008E7010008E7010008E7010008A0
:1000A000E7010008E7010008E7010008E701000890
:1000B000E7010008E7010008E7010008E701000880
:1000C000E7010008E7010008E7010008E701000870
:1000D000E7010008154E0008E7010008E7010008E5
:1000E000E7010008E7010008E7010008E701000850
:1000F000E7010008E7010008E7010008E701000840
:10010000E7010008E7010008E7010008E70100082F
:10011000E7010008E7010008E7010008E70100081F
:10012000E7010008E7010008E7010008E70100080F
:1001300000F002F800F03AF80AA090E8000C8244BF
:100140008344AAF10107DA4501D100F02FF8AFF29C
:10015000090EBAE80F0013F0010F18BFFB1A43F0A5
:10016000010318476852000088520000103A24BF6B
:1001700078C878C1FAD8520724BF30C830C144BF0C
:1001800004680C607047000000230024002500264E
:10019000103A28BF78C1FBD8520728BF30C148BFEA
:1001A0000B6070471FB51FBD10B510BD00F04DF8B6
:1001B0001146FFF7F7FF04F081FF00F06BF803B47E
:1001C000FFF7F2FF03BC04F03CFF00000948804742
:1001D00009480047FEE7FEE7FEE7FEE7FEE7FEE729
:1001E000FEE7FEE7FEE7FEE704480549054A064B41
:1001F00070470000A94C000831010008B021002020
:10020000B0270020B0230020B023002072B6704732
:1002100062B67047EFF3108072B6704780F31088B3
:10022000704730BF704720BF7047B0FA80F070470A
:1002300090FAA0F0B0FA80F0704790FAA0F0704702
:1002400070477047704770477047754600F02CF84C
:10025000AE4605006946534620F00700854618B0B3
:1002600020B5FFF7C1FFBDE820404FF000064FF07A
:1002700000074FF000084FF0000B21F00701AC46DB
:10028000ACE8C009ACE8C009ACE8C009ACE8C009FA
:100290008D46704710B50446AFF300802046BDE898
:1002A0001040FFF78CBF0000004870474C21002031
:1002B0001D484FF6FF710170002080F309881B482C
:1002C000016881F308881A484FF08051016062B6D6
:1002D000FEE717484FF080510160704714484FF017
:1002E00080510160704772B6EFF3098028B1203861
:1002F00080E8F00F0F490968086000B50E48804794
:100300005DF804EB0D480E490A78027009480D4962
:100310000A680260106890E8F00F203080F30988C6
:100320004EF0040E62B6704722ED00E0500000204F
:1003300004ED00E02001002079160008AE00002046
:10034000AF0000202401002010B504F07FFE4FF420
:10035000A06000F09BF94FF4E13004F0DFFE00F004
:100360002DF910BD00BFFEE701460846044A126899
:10037000904203D9024A1268801A00E000207047B8
:100380004400002070B5002500BFFFF743FF05467D
:1003900000BF0648046800BF2846FFF73FFF00BFC4
:1003A0002046FFF7E1FF0646304670BD48000020BA
:1003B00070B50025FFF7E6FF044600BFFFF72AFFF0
:1003C000054600BF00200449086000BF2846FFF72B
:1003D00025FF00BF204670BD4800002070B50025F5
:1003E00000BFFFF717FF054600BF0648046800BFBF
:1003F0002846FFF713FF00BF2046FFF7B5FF06466C
:10040000304670BD4C00002010B509480088401CE3
:10041000074908800748008818B900F039F80649EC
:10042000086004480088401C0249088010BD000094
:10043000380000203A0000203C00002010B50F4892
:100440000088401E0D49088008460088A0B900F0C9
:100450001FF80B490860084600680A490968441AF1
:1004600009480068A04201D20748046007480068B4
:10047000A04201D20548046010BD00003A000020EF
:10048000400000203C000020480000204C000020DC
:100490000149486870470000001000E070472DE9EE
:1004A000F0410246002500260020002300240027FA
:1004B00091F803C00CF00F0591F803C00CF0100C7C
:1004C000BCF1000F03D091F802C04CEA050591F889
:1004D00000C0BCF1000F31D0146800202BE04FF0B9
:1004E000010C0CFA00F3B1F800C00CEA03069E42BE
:1004F00020D183004FF00F0C0CFA03F7BC4305FA30
:1005000003FC4CEA040491F803C0BCF1280F06D1A7
:100510004FF0010C0CFA00FCC2F814C00AE091F88C
:1005200003C0BCF1480F05D14FF0010C0CFA00FCE0
:10053000C2F810C0401C0828D1D31460B1F800C024
:10054000BCF1FF0F34DD546800202EE000F1080CF0
:100550004FF0010808FA0CF3B1F800C00CEA0306EA
:100560009E4221D183004FF00F0C0CFA03F7BC43DD
:1005700005FA03FC4CEA040491F803C0BCF1280F0F
:1005800005D100F1080C08FA0CF8C2F8148091F8B3
:1005900003C0BCF1480F07D100F1080C4FF001086F
:1005A00008FA0CF8C2F81080401C0828CED354601A
:1005B000BDE8F0810161704700BFFEE708B5012189
:1005C000482004F05FFA10208DF8030003208DF816
:1005D00002002020ADF8000069460C48FFF75FFFDD
:1005E00020210A48FFF7E6FF10208DF803000320C2
:1005F0008DF802002020ADF8000069460448FFF79E
:100600004EFF20210248FFF7D5FF08BD000C014036
:100610000018014000BFFEE77047000070B50021E0
:1006200000230F22C47804B3154C246804F4E0645A
:10063000C4F5E064210AC1F10403CA40447804FA15
:1006400003F184781440214309010E4C0678A1552A
:10065000047804F01F050124AC4005786D11AD004D
:1006600005F1E025C5F8004109E0047804F01F0514
:100670000124AC40044D0678761145F8264070BD43
:100680000CED00E000E400E080E100E002490143FD
:10069000024A1160704700000000FA050CED00E00E
:1006A0007047000010B50348006810B101480068A9
:1006B000804710BD6400002070B5044600F0C2F809
:1006C000002048490870484908704849087048495E
:1006D0000860484908604849087048490870484916
:1006E0000870484908604849086048490860484916
:1006F0000870484800680A21B0FBF1F046490860DC
:100700004648006858B14648056845B14348066800
:1007100003E0761E002028602D1D002EF9D1002058
:100720004049086040490860404908604049086005
:1007300040490860404908604049086040490870E5
:1007400002F050F902F04EFA204601F0ABFA208890
:1007500000B170BD204601F0C5FE208800B1F8E769
:10076000204601F0CBFE208800B1F2E7204601F0E0
:10077000AFFF208800B1ECE7204602F063F9208843
:1007800000B1E6E7204602F0B3FB208800B1E0E7C5
:10079000204602F01DFF208800B1DAE7204601F074
:1007A0000DFE208800B1D4E7204601F017FC208818
:1007B00000B1CEE7204603F073FF208800B1C8E700
:1007C000204602F049FE208800B1C2E7204603F02F
:1007D000C3FF208800B1BCE701F08AF9FFF760FF92
:1007E00000BFB6E77800002080000020C80000208D
:1007F0002001002024010020AE000020AF000020D6
:10080000B0000020BC000020C0000020C400002078
:10081000D00000201C520008CC000020EC51000841
:10082000E8510008580000205C0000206000002013
:1008300064000020680000206C0000207000002090
:10084000FE0000200A4A1168002002E0002204C1D4
:10085000401C084A12689042F8D3054A1268054BBA
:100860001B6802EB8302121F034B1A6070470000E3
:10087000E8510008EC5100085000002008480078BA
:10088000012800D0704707480078FA2800DBF9E714
:1008900004480078401C0349087000BFF2E70000DC
:1008A000800000207800002010B500242E48007839
:1008B000012800D010BD00BFFFF7ACFC044600BF0C
:1008C0002A48007828B900BF2046FFF7A7FC00BFE0
:1008D000F0E726480078401E244908700846007852
:1008E000002805DD00BF2046FFF798FC00BFE1E7C8
:1008F0001F480078002805DD00BF2046FFF78EFC6A
:1009000000BFD7E702F05AF81A4908700846007885
:1009100000EB4000184951F82000184908600846CB
:10092000006817490968884205D100BF2046FFF7D3
:1009300075FC00BFBEE711480068D0F89000401C6D
:100940000E490968C1F890000E480068401C0D4926
:1009500008604FF080500C49086000BF2046FFF748
:100960005DFC00BF00BFA5E78000002078000020EC
:10097000C8000020AF000020741D002024010020CA
:1009800020010020F400002004ED00E010B5002458
:1009900020480078002800DD10BD1F48007800289E
:1009A00000DDF9E700BFFFF735FC044600BF02F0A9
:1009B00005F81A4908700846007800EB400018490D
:1009C00051F8200017490860084600681649096870
:1009D000884205D100BF2046FFF720FC00BFDBE7BF
:1009E00010480068D0F89000401C0E490968C1F812
:1009F00090000E480068401C0C4908604FF0805081
:100A00000B49086000BF2046FFF708FC00BF00BF8D
:100A1000C2E7000078000020C8000020AF000020DE
:100A2000741D00202401002020010020F40000207B
:100A300004ED00E070B5044600251A48007800284F
:100A400003DD46F66250208070BD1748007801280B
:100A500003D045F689602080F6E714480078FA282C
:100A600003DB45F209202080EEE700BF00BFFFF75F
:100A7000D1FB054600BFFFF7C7FC00BF0B4800785D
:100A8000401C0A49087002F091F900BFFFF7D6FC3C
:100A900000BF2846FFF7C2FB00BF00BF0020208038
:100AA00000BFD1E77800002080000020C8000020AF
:100AB0002DE9F04105460C461646002700BF00BF51
:100AC000FFF7A8FB074600BFFFF79EFC00BF012D04
:100AD00003D000200E49087002E001200C49087084
:100AE00014B10C48046006E00B4800680A21B0FB12
:100AF000F1F00849086000BFFFF7A0FC00BF3846CE
:100B0000FFF78CFB00BF00BF00203080BDE8F08104
:100B1000D0000020CC0000201C52000870B5044614
:100B2000002523480078002803DD46F66550208024
:100B300070BD20480078012803D045F689602080E8
:100B4000F6E71D48007818B946F664502080EFE7B4
:100B500000BF00BFFFF75EFB054600BFFFF754FC78
:100B600000BF15480078401E1349087008460078F9
:100B700000280CDD00BFFFF761FC00BF2846FFF72F
:100B80004DFB00BF00BF46F663502080D0E702F067
:100B90001BF900BFFFF752FC00BF2846FFF73EFBE2
:100BA00000BF00BFFFF7F2FE0020208000BFBFE7BC
:100BB0007800002080000020C800002010B5044606
:100BC00012480078E8B901F0F9FE114908700846AA
:100BD0000078104908700E48007800EB40000E497C
:100BE00051F820000D490860084600680C4908606B
:100BF000012006490870FFF75BFB43F6992020802F
:100C000002E045F68A60208010BD000080000020D0
:100C1000AF000020AE000020741D00202401002041
:100C2000200100202DE9F04107464FF0000800BFE9
:100C300000BFFFF7EFFA804600BFFFF7E5FB00BFFC
:100C400000204749086047490880474908804749CC
:100C500008604749086047490860474908604749B4
:100C600008604749088100BFFFF7E8FB00BF404626
:100C7000FFF7D4FA00BF00BF00BF00BFFFF7CAFAFA
:100C8000804600BFFFF7C0FB00BF3E48046800BFBE
:100C9000FFF7D4FB00BF4046FFF7C0FA00BF00BF1C
:100CA00026E000BF00BFFFF7B5FA804600BFFFF7A0
:100CB000ABFB00BF00207834E06320642060206339
:100CC000A061A082E0826062A062FFF7E1FB206287
:100CD000783C04F164060020B081D4F8C04000BF25
:100CE000FFF7ACFB00BF4046FFF798FA00BF00BF1C
:100CF000002CD6D100BF00BFFFF78CFA804600BFA2
:100D0000FFF782FB00BF2048056800BFFFF796FB96
:100D100000BF4046FFF782FA00BF00BF16E000BFE9
:100D200000BFFFF777FA804600BFFFF76DFB00BFFB
:100D300005F120060020B081AD6900BFFFF77EFB02
:100D400000BF4046FFF76AFA00BF00BF002DE6D1A2
:100D500003F06EFB03F0FCFD00203880BDE8F0815D
:100D6000940000208E000020DE000020F000002013
:100D700004010020100100207C000020C0000020A1
:100D8000681D0020F8000020B400002010B50348C2
:100D9000006810B101480068804710BD680000205D
:100DA0002DE9FF4F87B004469046DDE91BA5DDE93C
:100DB0001496179F0020039095480078002805DDC1
:100DC00047F24A1028800BB0BDE8F08F1CB947F2FB
:100DD000AD102880F7E7B8F1000F03D147F24F10AC
:100DE0002880F0E71EB946F62F602880EBE7894897
:100DF0000068874203D246F630602880E3E7169801
:100E0000B84203D346F631602880DCE7B9F1200F01
:100E100003D346F273202880D5E7B9F1000F06D13D
:100E20007D48844203D046F273202880CBE7B9F195
:100E30001F0F06D17948844203D046F273202880E0
:100E4000C1E7204602F0D4FB002028800AF0010010
:100E500090B10AF0020078B105960020069008E0F3
:100E60000021059801600598001D05900698401C1A
:100E700006900698B842F3D3169806EB80000490CB
:100E8000CDE9007A32464046049B0A9900F094FB73
:100E90000590C4F828800A98E0620898206284F8D7
:100EA0003790059820600498A0601998606519989B
:100EB00018B95B480068A06501E01998A0651A9808
:100EC00060606662A763A4F83CA04FF0000B08E0E6
:100ED000002104F17C0040F82B100BF1010000F020
:100EE000FF0BBBF1000FF3D004F16400189901F07F
:100EF00065FB204600F09EF800BF00BF00BFFFF773
:100F000089F9039000BFFFF77FFA00BF45480078DA
:100F1000401C4449087008460078012801D101F0BE
:100F200045FF00BFFFF78AFA00BF0398FFF776F985
:100F300000BF00BF00BF94F8370001F05FFD2046FE
:100F400001F098FE204602F009FB37480088401C5B
:100F50003549088035480078012837D000BF00BFE8
:100F600000BFFFF757F9039000BFFFF74DFA00BF2E
:100F70002C480078401E2B49087008460078D0B9EC
:100F800001F022FF2A48008800280BDD00BFFFF790
:100F900055FA00BF0398FFF741F900BF00BF01F009
:100FA000D7FE11E000BFFFF749FA00BF0398FFF733
:100FB00035F900BF08E000BFFFF740FA00BF039813
:100FC000FFF72CF900BF00BF00BFFCE600BF00BF69
:100FD00000BFFFF71FF9039000BFFFF715FA00BF2E
:100FE00010480078401E0F4908700846007808B97C
:100FF00001F0EAFE00BFFFF721FA00BF0398FFF7F8
:101000000DF900BF00BF00BFFFF7C0FC00BFDAE66C
:101010007800002018520008A01C0020D81B0020D7
:10102000CC000020C8000020FC0000208000002030
:101030008C00002010B504460348006818B1204613
:1010400001490968884710BD5800002070B5044662
:101050000D46002678480078002803DD47F24E1040
:10106000288070BD7548844203D147F24C10288017
:10107000F7E77348844203D147F24D102880F0E728
:101080009CB900BF00BFFFF7C5F8064600BFFFF7D9
:10109000BBF900BF6B48046800BFFFF7CFF900BF82
:1010A0003046FFF7BBF800BF00BF00BF00BF00BF66
:1010B000FFF7B0F8064600BFFFF7A6F900BF624889
:1010C0000078401C6049087008460078012801D16A
:1010D00001F06CFE00BFFFF7B1F900BF3046FFF72B
:1010E0009DF800BF00BF00BF94F8360008282DD23D
:1010F000DFE800F004090E10080A0F11204601F085
:10110000F9FD5EE05DE000BF204603F075F958E0B0
:1011100000BF00BF00BF204603F06EF994F8340012
:10112000082810D2DFE800F004070508090A0B06BA
:1011300000BF00BF08E000BF00BF00BF00BF2046E7
:1011400001F08DFB00E000BF00BF3AE000BF00BF30
:1011500000BFFFF75FF8064600BFFFF755F900BF75
:1011600039480078401E3849087008460078D0B9E0
:1011700001F02AFE3548008800280BDD00BFFFF78C
:101180005DF900BF3046FFF749F800BF00BF01F02E
:10119000DFFD11E000BFFFF751F900BF3046FFF758
:1011A0003DF800BF08E000BFFFF748F900BF304638
:1011B000FFF734F800BF00BF00BF46F62D6028805F
:1011C0004FE700BF04F1640001F0D6F9204600F0BB
:1011D00041F8204602F0DAF91D480088401E1C49FB
:1011E0000880204602F004FAFF2084F8360000BF91
:1011F00000BF00BFFFF70EF8064600BFFFF704F977
:1012000000BF11480078401E0F490870084600785A
:1012100008B901F0D9FD00BFFFF710F900BF304653
:10122000FEF7FCFF00BF00BF00BF00202880FFF7D3
:10123000ADFB00BF15E7000078000020D81B0020A0
:10124000A01C002020010020C80000208C000020ED
:10125000FC00002010B504460348006818B1204681
:1012600001490968884710BD5C00002010B504469C
:101270000348006818B1204601490968884710BD35
:10128000600000202DE9F04780460E4614461D46BA
:101290004FF000098C480078002805DD46F2AE10BA
:1012A00028800020BDE8F0871EB1B6F5004F02D1BE
:1012B00000E000BF04E045F6256028800020F1E74B
:1012C00000BF0CB10020206000BF00BFFEF7A2FFEE
:1012D000814600BFFFF798F800BF7C480068406C6B
:1012E000B8B37A480068406C401E78490968486481
:1012F00076480068476C1CB174480068006C206038
:10130000FFF7C6F871490968096C401A6F49096806
:10131000C1F8A4006D480068D0F8A8006B490968BE
:10132000D1F8A410884207D268480068D0F8A40019
:1013300066490968C1F8A80000BFFFF77FF800BF41
:101340004846FEF76BFF00BF00BF002028803846EC
:10135000A8E7FFE706F4004068B100BFFFF76EF8AA
:1013600000BF4846FEF75AFF00BF00BF46F2B0106C
:101370002880002096E75648007800280DDD00BF41
:10138000FFF75CF800BF4846FEF748FF00BF00BF0C
:1013900046F663502880002084E700BF4C48007860
:1013A000401C4B49087008460078012801D101F023
:1013B000FDFC00BFFFF742F800BF4846FEF72EFFD6
:1013C00000BF00BF00BF434607220021084601F0CE
:1013D0008BF900BF00BF00BFFEF71CFF814600BFB6
:1013E000FFF712F800BF3A480078401E38490870ED
:1013F0000846007808B901F0E7FC00BFFFF71EF8C7
:1014000000BF4846FEF70AFF00BF00BF00BFFFF75E
:10141000BDFA00BF00BFFEF7FDFE814600BFFEF72C
:10142000F3FF00BF2948006890F8350020B101287B
:1014300026D0032834D12CE0FCB124480068006C8D
:101440002060FFF725F821490968096C401A1F49F7
:101450000968C1F8A4001D480068D0F8A8001B491D
:101460000968D1F8A410884207D218480068D0F85B
:10147000A40016490968C1F8A8000020288013E0DC
:101480001CB112480068006C206046F2A910288048
:101490000AE00CB10020206047F2D920288003E048
:1014A00046F62E60288000BF00BF08480068476CE1
:1014B00000BFFEF7C3FF00BF4846FEF7AFFE00BF08
:1014C00000BF3846EEE60000780000202001002032
:1014D000C80000202DE9F04705460E4617461C4679
:1014E0004FF0000A32480078002804DD47F2591016
:1014F0002080BDE8F0871EB946F2D5202080F8E7AD
:101500001FB946F2D5202080F3E700BF00BFFEF7E9
:1015100081FE824600BFFEF777FF00BF0DB9254868
:101520000568286878B900BFFEF788FF00BF5046FD
:10153000FEF774FE00BF00BF00203060386047F245
:1015400052102080D5E795F83C0000F0010078B9F2
:1015500000BFFEF773FF00BF5046FEF75FFE00BFFF
:1015600000BF00203060386047F254102080C0E790
:1015700000BFFEF763FF00BF5046FEF74FFE00BFFF
:1015800000BF4FF00008D5F8249003E009F10409EA
:1015900008F10108D9F800000028F7D0C6F800804B
:1015A000A86BA0EB080038600020208000BFA0E7F7
:1015B0007800002020010020F0B50446DDE9055642
:1015C00002EB85004FF0807C071F3846C7F800C04B
:1015D000071F38463C60DFF89CC0071F3846C7F835
:1015E00000C04FF0123C071F3846C7F800C04FF04C
:1015F000033C071F3846C7F800C04FF0023C071FE6
:101600003846C7F800C0071F38463B60071F3846FA
:1016100039604FF0113C071F3846C7F800C04FF043
:10162000103C071F3846C7F800C04FF0093C071FA1
:101630003846C7F800C04FF0083C071F3846C7F8C7
:1016400000C04FF0073C071F3846C7F800C04FF0F6
:10165000063C071F3846C7F800C04FF0053C071F7F
:101660003846C7F800C04FF0043C071F3846C7F89B
:1016700000C0F0BDC53A000870B52448006810B13C
:10168000224800688047FEF703FF044620480068B0
:1016900020490968884215D01D480068D0F8980094
:1016A000201A1B490968C1F8940019480068D0F84D
:1016B0009C0017490968D1F8941008441449096836
:1016C000C1F89C0013480068C0F89840FEF770FE0F
:1016D00005460F480068D0F8B400A84203D20C4871
:1016E0000068C0F8B4500A480068D0F8B8000A4949
:1016F0000968884205D20848006805490968C1F8A8
:10170000B80000200449086070BD00006C00002093
:101710002001002024010020C40000202DE9F04118
:1017200005460E46144600274D480078002804DD83
:1017300047F275202080BDE8F0814A4800780028F3
:1017400003DD46F663502080F5E736B1022E05D062
:10175000042E0AD0082E09D101E000BF00BF1DB938
:1017600047F27E202080E6E704E003E045F62560AE
:101770002080E0E700BF00BF00BF00BFFEF74AFDCA
:10178000074600BFFEF740FE00BF36480078401C09
:101790003449087008460078012801D101F006FBA1
:1017A00000BFFEF74BFE00BF3846FEF737FD00BF17
:1017B00000BF00BF01202C49096881F8360023468C
:1017C000324629462848006802F038FD2088F0B1EA
:1017D00000BF00BF00BFFEF71DFD074600BFFEF7BC
:1017E00013FE00BF1F480078401E1E4908700846BF
:1017F000007808B901F0E8FA00BFFEF71FFE00BF4D
:101800003846FEF70BFD00BF00BF00BF93E7164848
:10181000006801F06FFA00BF00BF00BFFEF7FAFCDE
:10182000074600BFFEF7F0FD00BF0E480078401EDF
:101830000C4908700846007808B901F0C5FA00BFE5
:10184000FEF7FCFD00BF3846FEF7E8FC00BF00BF16
:1018500000BFFFF79BF80020208000BF6BE700006F
:1018600078000020C8000020200100202DE9FF5F43
:1018700005460E4617469846DDE90EA40020009066
:1018800081480078002804DD47F275202080BDE8FB
:10189000FF9F7E480078002803DD46F663502080D5
:1018A000F5E70AF00E0BBBF1000F09D0BBF1020FF8
:1018B00007D0BBF1040F10D0BBF1080F0ED101E02F
:1018C00000BF00BFB8F1000F06D12FB926B91DB96E
:1018D00047F27E202080DAE704E003E045F6256049
:1018E0002080D4E700BF2AF01E0008B1012000E0EC
:1018F000002003900398012803D145F6256020803D
:10190000C5E7CAF3001002900298C0B9B8F57A7F13
:1019100003D347F27B202080B9E73B2F03DD47F25A
:101920007A202080B3E73B2E03DD47F27920208028
:10193000ADE7632D12DD47F278202080A7E742F261
:101940000F70864203DD47F2792020809FE7B5F5CE
:101950007A7F03DB47F27820208098E74C48D0F864
:1019600000904FF4FA70B0FBF9F0404400FB09F02E
:101970004FF47A71B0FBF1F14FF461606843C6EB4C
:10198000061200EB8200384400FB09100190019818
:10199000002873D000BF00BF00BFFEF73BFC0090E3
:1019A00000BFFEF731FD00BF38480078401C3749C2
:1019B000087008460078012801D101F0F7F900BF4E
:1019C000FEF73CFD00BF0098FEF728FC00BF00BFFB
:1019D00000BF01202F49096881F8360023465A4686
:1019E0002C480199006802F029FC2088F0B100BF62
:1019F00000BF00BFFEF70EFC009000BFFEF704FD25
:101A000000BF22480078401E204908700846007830
:101A100008B901F0D9F900BFFEF710FD00BF00982A
:101A2000FEF7FCFB00BF00BF00BF30E719480068AD
:101A300001F060F900BF00BF00BFFEF7EBFB0090B4
:101A400000BFFEF7E1FC00BF10480078401E0F49C0
:101A500008700846007808B901F0B6F900BFFEF733
:101A6000EDFC00BF0098FEF7D9FB00BF00BF00BF30
:101A7000FEF78CFF0020208003E0FFE747F27E2086
:101A8000208000BF03E7000078000020C80000208D
:101A90001C5200082001002010B586B000F01EF88E
:101AA000FEF7F6FC044605A800210091CDE90114DB
:101AB00003900748007800EB4000064A02EB8001E3
:101AC00000231A46044800F0C1FA06B010BD000019
:101AD000AE000020741D00205449434B10B503484C
:101AE000006810B101480068804710BD70000020F8
:101AF000254A2649264A274A2749284A2848294A62
:101B0000294A2A4A2A4A2B482B482C482C4A2D4835
:101B10002D4A2E482E4A2F482F4830483048314A07
:101B2000314A324A3248334A334A344834483548D5
:101B30003548364836483748374A384A384A394AA5
:101B400039483A483A483B4A3B4A3C4A3C483D4877
:101B50003D483E493E483F4A3F4A404A404A414A42
:101B6000414A424A4248434A434A44484448454A13
:101B7000454A4648464A474A47484848484800BFB9
:101B800000BF00BF7047000060520008C853000843
:101B9000615200086252000864520008685200084E
:101BA0006C520008695200089452000895520008CF
:101BB00096520008985200089A5200089C52000859
:101BC0009E520008A0520008C0520008C2520008ED
:101BD000C4520008C6520008C8520008CA52000881
:101BE000CC520008F8520008F9520008FA520008D6
:101BF000FC520008FE520008FF5200080053000883
:101C00000253000804530008065300080853000854
:101C10000A5300080C5300083C5300083D530008C9
:101C20003E5300083F530008405300084253000849
:101C3000445300086C5300086D5300086E530008AD
:101C40006F53000870530008725300087453000863
:101C500078530008795300087A5300087B53000832
:101C60007C5300087D5300087E5300087F53000812
:101C700080530008825300088353000884530008EF
:101C80008653000888530008895300088C530008C5
:101C9000C0530008C1530008C2530008C4530008D1
:101CA000C65300080021034A1160034A11800180D5
:101CB00070470000980000209C0000202DE9F04FA4
:101CC00085B00446894692469B46DDF83880002060
:101CD000009000BF00BFFEF79DFA009000BFFEF726
:101CE00093FB00BFBAF1000F0AD0BAF1010F0DD07B
:101CF000BAF5004F05D06FF40040504460B906E0DB
:101D000000BF206A40EA0900206216E000BF206A96
:101D100020EA0900206210E000BFFEF78FFB00BF41
:101D20000098FEF77BFA00BF00BF45F62560A8F8D3
:101D30000000002005B0BDE8F08F00BFC4F824B05B
:101D400004F1080001900198008968B900BFFEF70E
:101D500075FB00BF0098FEF761FA00BF00BF0020CE
:101D6000A8F80000206AE5E700BF71480078401C31
:101D70006F49087008460078012801D101F016F873
:101D800000BFFEF75BFB00BF0098FEF747FA00BFFD
:101D900000BF00BF01980768BD6889E078680290BD
:101DA00095F8880000F00F0003900398012821D0D7
:101DB00002282ED0042802D0082836D10EE0206A4E
:101DC000D5F8801000EA0106D5F88000B04204D1B1
:101DD0005A463146284600F0AFF863E0206AD5F84D
:101DE000801000EA010626B15A463146284600F026
:101DF000A3F857E0D5F88000216A20EA0106D5F85B
:101E00008000B04204D15A463146284600F094F88A
:101E100048E0D5F88000216A20EA010626B15A463A
:101E20003146284600F088F83CE000BF00BF00BF04
:101E3000FEF7F0F9009000BFFEF7E6FA00BF3C485D
:101E40000078401E3A49087008460078D0B900F082
:101E5000BBFF3848008800280BDD00BFFEF7EEFA14
:101E600000BF0098FEF7DAF900BF00BF00F070FF76
:101E700011E000BFFEF7E2FA00BF0098FEF7CEF9CE
:101E800000BF08E000BFFEF7D9FA00BF0098FEF7D8
:101E9000C5F900BF00BF00BF43F6FF20A8F800004F
:101EA000002047E700BF029F0FB1BD6800E000259A
:101EB000002D7FF473AF00BF00BF00BFFEF7AAF98B
:101EC000009000BFFEF7A0FA00BF19480078401E3E
:101ED000174908700846007808B900F075FF00BF80
:101EE000FEF7ACFA00BF0098FEF798F900BF00BFFC
:101EF00000BF0AF4004008B9FEF748FD00BF00BF6C
:101F0000FEF788F9009000BFFEF77EFA00BF206A56
:101F1000049000BFFEF792FA00BF0098FEF77EF92A
:101F200000BF00BF0020A8F80000049802E70000EE
:101F3000C80000208C00002070B504460E461546EF
:101F400034342665002060702070E560A078343C51
:101F5000082816D2DFE800F004050809070610116A
:101F600000BF00BF00BF0DE000BF204601F0DEFC57
:101F7000002084F8360005E000BF042084F8360015
:101F800000E000BF00BF204600F069FC70BD00000B
:101F9000002400BF1DE000BF00BFFEF73BF9044670
:101FA00000BFFEF731FA00BF0A480068401C09492B
:101FB000086009480068401C0749086000BFFEF738
:101FC0003DFA00BF2046FEF729F900BF00BFFEF72B
:101FD00069FBE0E774000020E000002010B58AB043
:101FE000044600200E4908600B2000210591CDE930
:101FF0000704069108460B4909680B4A12680B4B07
:102000001B68CDE90132CDE903101F200023084AE7
:1020100008A100900C48FEF7C3FE0AB010BD0000F6
:1020200074000020C4510008C0510008BC510008D1
:10203000911F000875432F4F532D4949492049648A
:102040006C65205461736B00D81B00202DE9F84F9C
:1020500004460D4616461F46DDE90BABDDF8289019
:10206000DDF834800020009000BF00BFFEF7D2F8FA
:10207000009000BFFEF7C8F900BF2C4800882C492B
:10208000098888423EDA29480088401C2749088090
:10209000284800880988884203DA244800882549AE
:1020A000088025480068046023480068856022484D
:1020B0000068C6602048006807821F480068C0F8B2
:1020C00014901D480068A0F818A01B480068C0F8CC
:1020D0001CB019480068406817490860012017497A
:1020E0000881174808604860002000F087FC154808
:1020F000007818B113480078134908700020A8F838
:10210000000008E011480088401C1049088044F293
:102110005360A8F8000000BFFEF790F900BF0098D8
:10212000FEF77CF800BF00BFBDE8F88F8C000020F0
:10213000D05100088E00002084000020741D002073
:10214000A01C0020AE000020B00000209000002065
:102150003EB5594800680068584A811A904279D0C3
:102160000FDC5749084400283ED056490844A8B11E
:1021700055490844002860D05449084400286AD1D1
:102180003FE053480844002850D0524908440028F2
:1021900062D0514908440028F1D110E002A8464D10
:1021A00000902D68EB69444D2D682A8B424D2D68B7
:1021B0006969414D2D68A868FFF780FD7AE002A9A2
:1021C0003D480068C0693C4DCDE900012D682B8B6E
:1021D000394D2D682A8A384D2D68E968364D2D68AD
:1021E000A86800F03BFC65E0334B1B68DA69324BB2
:1021F0001B68198B304B1B68986802AB00F084FE9B
:1022000058E002A92C480068C0692B4DCDE90001B7
:102210002D682B8B284D2D682A8A274D2D68E9685B
:10222000254D2D68A86801F04BFA43E02249096862
:10223000886802A901F088FB3CE01F4B1B68DA6943
:102240001D4B1B68198B1C4B1B68986802AB01F077
:1022500045FC2FE007E02CE017490968886802A9CF
:1022600001F010FF26E01D49097801EB41011C4AED
:1022700002EB810000F0C6FD0F48006802AB0021B0
:10228000C269184801F02AFC17480068401E164928
:1022900008600846006858B9144800680860FEF7EE
:1022A000F7F8044602AB22460021114801F016FC63
:1022B00000E000BF00BF3EBD880000205449434BF2
:1022C000ADBAB2BE0DF90BFAF2F8F7FF0006F6FF51
:1022D00000F7FDF700FFEFFF03FE0FFEB000002048
:1022E000741D0020BC1F00201C01002018010020CC
:1022F00084200020002700BF56E0002652E000BFE7
:1023000000BFFDF787FF074600BFFEF77DF800BF5F
:102310002648008898B9002025490881086048604F
:1023200000F07EFB00BFFEF789F800BF3846FDF7DE
:1023300075FF00BF00BFFEF729FB012632E000BF9A
:10234000FEF77CF800BF3846FDF768FF00BF00BF0E
:10235000FEF79EF80546FFF7FBFEFEF799F8441BD3
:1023600014480068A04201D21248046000BF00BFB8
:10237000FDF750FF074600BFFEF746F800BF0E48C6
:10238000006840680C49086008480088401E0749FA
:10239000088000BFFEF752F800BF3846FDF73EFF49
:1023A00000BF00BF002EAAD0A7E700008C000020CD
:1023B000741D00209400002088000020F0B589B032
:1023C00005460020314908803148006820B944F2B0
:1023D0005260288009B0F0BD2E480088022803DA38
:1023E00044F254602880F5E700202B490860284813
:1023F00004682646203600270CE02848206000208C
:10240000A060E06020826061208366602034203616
:10241000781C87B21F4800888742EEDB203C1C48AE
:10242000066866601E4806601E48066000201E4959
:1024300008801E4908801E48006818B944F255609B
:102440002880C7E71B4800681B490968884203D2F7
:1024500044F256602880BDE7032000210591CDE9B4
:102460000705069113480068144A1268104B1B6850
:10247000CDE90301CDE9013200910B46104A11A1CB
:102480001748FEF78DFC00BFA4E700009000002075
:10249000CC510008D0510008940000204E4F4E450A
:1024A00084000020880000208C0000208E00002086
:1024B000D8510008E051000818520008DC5100080B
:1024C000F522000875432F4F532D494949204953A0
:1024D00052205175657565205461736B00000000D2
:1024E000A01C00200021034A1160034A11800180D2
:1024F00070470000A0000020A400002070B5014635
:102500001A4D2D681DB945F21E750D8070BD184D10
:102510002D881DB945F21D750D80F7E7134D28680C
:102520002A681032124D2D886D1EACB2002308E0CF
:102530000260002545600581C560103010325D1CC9
:10254000ABB2A342F4DB0025056045600581C560A0
:10255000064D2D68074E3560054D2D88B580002548
:10256000F58035810D8000BFD0E70000FC510008E8
:10257000F4510008681D002010B5014648894B89B8
:10258000002B17DD0A680C4B1B6813600A4C4B6864
:1025900023602346DB884C891B1B074CE3802346C2
:1025A0009B884C892344044CA38000234B818B815E
:1025B0000B604B6010BD0000681D002001810022EF
:1025C0004281828102604260704700002DE9F04143
:1025D0000D46DDE90674B0F80AC0B0F80880C445BD
:1025E00005DB46F2935CA4F800C0BDE8F081DFF89B
:1025F000DCC0BCF804C0BCF1000F04D145F21D7C66
:10260000A4F800C0F1E7DFF8C4C0DCF80010DFF880
:10261000BC80D1F800C0C8F800C0C446BCF804C0F3
:10262000ACF1010CA8F804C0C446BCF806C00CF11B
:10263000010CA8F806C0C446BCF808C0B8F806806B
:10264000C44507DADFF884C0BCF806C0DFF87C8038
:10265000A8F808C0B0F80AC0BCF1000F0AD10160A8
:1026600041604FF0010CA0F80AC04FF0000CC1F817
:1026700000C017E003F0100CBCF1000F07D1066892
:10268000316001604FF0000CC1F800C004E0D0F8E8
:1026900004C0C1F800C04160B0F80AC00CF1010CE0
:1026A000A0F80AC0B0F80CC0B0F80A80C44503DA3C
:1026B000B0F80AC0A0F80CC04D600A81CF604FF09E
:1026C000000CA4F800C000BF8FE70000681D0020C8
:1026D0000021034A1160034A118001807047000005
:1026E000A8000020AC0000202DE9F04105460C4672
:1026F00016461F461548006880F8346000201349CC
:10270000096881F8350039461048006800F00AFF72
:102710006CB104F10808EC60012229460B480068FE
:1027200000F016F82946404600F066F806E0002062
:1027300006490968C88705490968086303480168AC
:10274000204600F019F8BDE8F081000020010020CB
:1027500010B5C287016300230AE000244C600C60BE
:102760000C614C610C83CC61886020315C1CA3B28D
:102770009342F2DB10BD000030B548B14568C1F8A6
:10278000C45000F10804226893681D6AC56113E013
:1027900091F83450022D02D0072D08D103E007A58F
:1027A000C1F8C45007E007A5C1F8C45003E008A56C
:1027B000C1F8C45000BF00BF30BD00005461736B4E
:1027C000205100005461736B2053656D00000000C0
:1027D0002000000030B507A5C1F8C45000F108047E
:1027E00022681AB193681D6AC56101E001A5C5613F
:1027F00030BD000020000000F0B58E6896F837501C
:1028000007893FB90127078100274F600F600160EA
:10281000416023E007897F1C0781026806E0946815
:1028200094F83770AF4200DD02E05268002AF6D11A
:1028300000BF32B900274F6043680B6059604160A8
:102840000CE017682FB9116000270F604A60016023
:1028500004E013680B604A6059601160F0BD2DE917
:10286000F0410446256BE68F0AE0D5F80C8008F1AC
:1028700008072946384600F00AF82035701E86B24F
:10288000002EF2DC0020E0872063BDE8F08110B567
:102890000489012C03D100240460446011E00C6819
:1028A00024B94A680024146002600AE04C6824B924
:1028B0000B6800245C60436003E00B684A685A6060
:1028C00013600489641E048100244C600C6010BDF8
:1028D0002DE9F84306460C4617469846089D94F89D
:1028E0003600082850D2DFE800F004050809060782
:1028F0002B2C00BF00BF00BF47E000BF94F834009E
:10290000032807D143463A4621463046009500F059
:102910003FF803E0E765A4F86080256436B12046FF
:10292000FFF79DFF21463046FFF754FF204600F099
:10293000FDFF00203434A070607004F8340924E0F6
:1029400000BF94F83400032807D143463A46214695
:102950003046009500F01CF803E0E765A4F86080BD
:102960002564204601F048FD36B12046FFF777FF89
:1029700021463046FFF72EFF04203434A07000209B
:10298000607004F8340900E000BF00BFBDE8F883C0
:10299000F0B50446059E086BCD8F0AE0C768A742D4
:1029A00004D1046142610383C66104E020306F1EDC
:1029B000BDB2002DF2DC00BFF0BD000070B50025F7
:1029C000074C03E005F12000C5B2241D2068002853
:1029D000F8D02068FDF729FC2844C5B2284670BD10
:1029E00054000020002004E00021034A42F8201097
:1029F000401C0028F8D070475400002030B5420930
:102A000000F01F030121C3F11F04A140034C54F83F
:102A100022400C43014D45F8224030BD54000020B7
:102A200030B5420900F01F030121C3F11F04A1408A
:102A3000034C54F822408C43014D45F8224030BDF0
:102A4000540000200021034A1160034A11800180D4
:102A500070470000B4000020B80000202DE9F04FBE
:102A600085B007468A4693461C460020029000BF68
:102A700000BF00BFFDF7CEFB029000BFFDF7C4FC16
:102A800000BF56480078401C54490870084600783A
:102A9000012801D100F08AF900BFFDF7CFFC00BF8B
:102AA0000298FDF7BBFB00BF00BF00BF07F108069F
:102AB000308900284CD104F0100010B94FF0000804
:102AC00001E04FF01008DDE90E0143465A46CDE91A
:102AD0000001514607F12000FFF778FD00BF00BF5D
:102AE00000BFFDF797FB029000BFFDF78DFC00BF14
:102AF0003A480078401E3949087008460078D0B935
:102B000000F062F93648008800280BDD00BFFDF7B1
:102B100095FC00BF0298FDF781FB00BF00BF00F0ED
:102B200017F911E000BFFDF789FC00BF0298FDF71F
:102B300075FB00BF08E000BFFDF780FC00BF0298F6
:102B4000FDF76CFB00BF00BF00BF05B0BDE8F08F14
:102B500004F4007008B1358900E00125D6F8009032
:102B600011E0D9F808000390D9F8040004900E98F9
:102B70005B465246009038460399FFF7A9FEDDF800
:102B80001090681E85B2002DEBD100BF00BF00BFC2
:102B9000FDF740FB029000BFFDF736FC00BF0F4879
:102BA0000078401E0D4908700846007808B900F00A
:102BB0000BF900BFFDF742FC00BF0298FDF72EFBAA
:102BC00000BF00BF00BF04F4004008B9FDF7DEFEFF
:102BD00000210F98018000BFB7E70000C800002067
:102BE0008C00002000210AE001EB4102054B03EBC1
:102BF000820000220281026042604A1CD1B2202978
:102C0000F2D37047741D002010B5044694F83700C5
:102C1000FFF7F4FE94F8370005490978884203D19C
:102C2000204600F027F802E0204600F003F810BD2F
:102C3000AE00002010B590F8373003EB43030C4C86
:102C400004EB83010B893BB901230B810023C36093
:102C500003610860486009E00B895B1C0B810B680D
:102C6000C360002303610A681061086010BD0000A2
:102C7000741D002010B590F8373003EB43030B4C64
:102C800004EB83010B893BB901230B810023C36053
:102C900003610860486008E00B895B1C0B8100231E
:102CA000C3604A680261D060486010BD741D002096
:102CB00010B501460C8924B1012C03D0022C0CD193
:102CC00001E000BF14E008684A6802610024C460A3
:102CD0001461D0600A6048600AE008684A68C36806
:102CE00000241C61C4600261D0600B60486000BFBA
:102CF00000BF10BD2DE9F041054695F8370000EB07
:102D00004000124901EB80042F69EE6887B946B98B
:102D1000002020812060606095F83700FFF780FE7A
:102D20000EE02089401E208100203061266007E0EF
:102D30002089401E2081FE600EB9676000E0376187
:102D400000202861E860BDE8F0810000741D0020CB
:102D500010B5002400BFFDF75DFA044600BF002057
:102D60000D4908700D480E49086008460068D0F803
:102D70009000401C0968C1F890000A480068401C97
:102D8000084908604FF080500749086000BF20469E
:102D9000FDF744FA00BF10BDAF000020A01C0020CA
:102DA00024010020F400002004ED00E010B50448E8
:102DB0000078012803D1FDF76BFB0249086010BDC4
:102DC000C8000020BC00002010B50A48007880B977
:102DD000FDF75EFB08490968441A08480068A042EC
:102DE00001D20648046006480068A04201D20448A7
:102DF000046010BDC8000020BC000020C0000020FE
:102E0000C400002070B5054600263548007801282A
:102E100000D070BD00BF00BFFDF7FCF9064600BF43
:102E2000FDF7F2FA00BF2C684CB900BFFDF706FBB6
:102E300000BF3046FDF7F2F900BF00BFE9E72948BF
:102E4000844209D100BFFDF7F9FA00BF3046FDF713
:102E5000E5F900BF00BFDCE7A06D10B1A06D401E1A
:102E6000A065A06D48B100BFFDF7E8FA00BF30468D
:102E7000FDF7D4F900BF00BFCBE72889022809DAA3
:102E800000BFFDF7DBFA00BF3046FDF7C7F900BF12
:102E900000BFBEE714480078002809DD00BFFDF739
:102EA000CDFA00BF3046FDF7B9F900BF00BFB0E76B
:102EB0002846FFF7FDFE2C68606D18B90B480068C6
:102EC000A06501E0606DA06500BFFDF7B7FA00BF27
:102ED0003046FDF7A3F900BF00BF00BF99E700002F
:102EE000D0000020D81B0020C8000020CC0000200B
:102EF0000021034A1160034A1180018070470000DD
:102F0000D4000020D80000202DE9FF5F0446884649
:102F100091461D460020019000BF00BFFDF77AF9E1
:102F2000019000BFFDF770FA00BF04F1080738896F
:102F3000002857D10420012804D0022816D00428E4
:102F40003AD127E0206AFF280FD100BFFDF776FABB
:102F500000BF0198FDF762F900BF00BF46F6C550FB
:102F60002880002004B0BDE8F09F26E04FF6FF71F6
:102F7000206A88420DD100BFFDF760FA00BF0198BA
:102F8000FDF74CF900BF00BF46F6C5502880002071
:102F9000E8E712E0206A401C68B900BFFDF74EFA6E
:102FA00000BF0198FDF73AF900BF00BF46F6C550D3
:102FB00028800020D6E700E000BF00BF206A401C48
:102FC0002062D4F820A0C4F8249000BFFDF736FAA0
:102FD00000BF0198FDF722F900BF00BF0020288044
:102FE0005046BFE700BF2D480078401C2B490870B1
:102FF00008460078012801D1FFF7D8FE00BFFDF791
:103000001DFA00BF0198FDF709F900BF00BF00BF1E
:1030100008F4007008B13E8900E00126D7F800B03E
:1030200011E0DBF808000290DBF8040003900023B5
:103030001A46CDF8009020460299FFF749FCDDF8CA
:103040000CB0701E86B2002EEBD1D4F820A000BFC9
:1030500000BF00BFFDF7DEF8019000BFFDF7D4F917
:1030600000BF0E480078401E0C49087008460078E2
:1030700008B9FFF7A9FE00BFFDF7E0F900BF01980E
:10308000FDF7CCF800BF00BF00BF08F4004008B94E
:10309000FDF77CFC00202880504663E7C800002034
:1030A00086B00020009000BF06E0D94909684800BA
:1030B00001AA0021FEF732FBD64800780128F4D19E
:1030C00001A8FDF7AFFD0027D3480068D049096883
:1030D000884205D9D0480068CD490968B0FBF1F7AE
:1030E00027B9CD4800680A21B0FBF1F78EE1FDF762
:1030F000CFF98246FDF772F9C849086000BF00BFEA
:10310000FDF788F8009000BFFDF77EF900BFC448C6
:103110000068C44908600020C149086000BFFDF78D
:103120008DF900BF0098FDF779F800BF00BFBE48D9
:103130000068BC490968884248D9BB480068BB4957
:10314000884205D242F2107003900120029023E0E1
:10315000B5480068B649884205D24FF47A700390AA
:103160000A20029018E0B0480068B249884203D2B1
:103170006420039002900FE0AB480068AE4988429B
:1031800005D20A2003904FF47A70029004E00120E7
:10319000039042F210700290A34801680298B1FBBC
:1031A000F0F9A049039809684843B0FBF9F042F2EE
:1031B0001071081AA1490880A1480088098888422E
:1031C00008DA9E4800889E49088003E042F21070A9
:1031D0009A490880FDF7DAFD002500BF00BFFDF722
:1031E00019F8009000BFFDF70FF900BF954804687B
:1031F00000BFFDF723F900BF0098FDF70FF800BFEF
:1032000000BF72E000BF00BF00BFFDF703F80090F1
:1032100000BFFDF7F9F800BF8B480078401C8A49D1
:10322000087008460078012801D1FFF7BFFD00BFF4
:10323000FDF704F900BF0098FCF7F0FF00BF00BFE6
:1032400000BF54F89C0F6060002044F89C0900BF48
:1032500000BF00BFFCF7DEFF009000BFFDF7D4F811
:1032600000BF79480078401E77490870084600780A
:10327000D0B9FFF7A9FD7548008800280BDD00BF15
:10328000FDF7DCF800BF0098FCF7C8FF00BF00BFE7
:10329000FFF75EFD11E000BFFDF7D0F800BF00981A
:1032A000FCF7BCFF00BF08E000BFFDF7C7F800BF98
:1032B0000098FCF7B3FF00BF00BF00BFD4F8A00028
:1032C000054400BF00BFFCF7A5FF009000BFFDF75D
:1032D0009BF800BFD4F8C04000BFFDF7AFF800BFB7
:1032E0000098FCF79BFF00BF00BF002C8AD145B3BC
:1032F0004E48854205D242F2107005904FF0010B06
:103300001BE04B48854205D24FF47A7005904FF090
:103310000A0B12E04748854203D264200590834699
:103320000BE04548854204D20A2005904FF47A7B91
:1033300003E00120059042F2107BB5FBFBF0049006
:1033400003E0002005900120049000BF00BFFCF7BF
:1033500061FF009000BFFDF757F800BF39480468CF
:1033600000BFFDF76BF800BF0098FCF757FF00BFE8
:1033700000BF2FE0D4F8A000059948430499B0FBA2
:10338000F1F086B242F21070864200D90646A4F8E7
:103390008C60B4F88E00B04201DAA4F88E6001AB04
:1033A00004F1AC02111D2046FEF794F800BF00BFE7
:1033B000FCF730FF009000BFFDF726F800BFD4F8FF
:1033C000C04000BFFDF73AF800BF0098FCF726FFA9
:1033D00000BF00BF002CCDD11D480078012805D1C9
:1033E00000201B49087001A8FDF71CFCFDF750F8F0
:1033F000A0EB0A0817480068404502D21548C0F8FB
:10340000008001AA00213846FEF788F96FE6000027
:1034100004520008EC0000201C5200087C00002030
:10342000E0000020E8000020E4000020801A0600F0
:1034300000093D00005A62020084D717DC0000201A
:10344000DE000020F8000020C80000208C000020D2
:10345000DA000020F000002010B58AB004460020F9
:103460001F4908601F4908601F4908601F4908700C
:103470001F4908701F48006820B946F62B6020805D
:103480000AB010BD1C4800681C490968884203D274
:1034900046F62C602080F3E7194800781F2803D3F4
:1034A00046F62A602080EBE7032000210591CDE954
:1034B00007040691084610490968124A12680D4B24
:1034C0001B68CDE90132CDE903100D4800780023D7
:1034D0000D4A0EA100901248FDF762FC00BFCFE735
:1034E000E0000020E8000020E4000020EC000020C4
:1034F000DA00002008520008105200081852000894
:10350000005200080C520008A130000875432F4FEC
:10351000532D4949492053746174205461736B00E1
:10352000F41E002038B504460D4685B16B460222D4
:103530002946204600F082FEBDF8000018B903209D
:1035400084F8360006E0022084F8360002E002200B
:1035500084F836002046FFF7CDFB38BD0021C0F8C7
:10356000BC100949096819B90021C0F8C01007E06A
:1035700005490968C0F8C01003490968C1F8BC00D2
:103580000149086070470000F8000020D0F8BC2016
:10359000D0F8C0104AB90D4B196011B10023C1F821
:1035A000BC300023C0F8C0300FE029B90023C2F8B6
:1035B000C030C0F8BC3008E0C2F8C010C1F8BC2070
:1035C0000023C0F8C030C0F8BC307047F8000020BD
:1035D0000021044A1160044A1180044A11600180EC
:1035E00070470000F8000020FC000020F4000020DC
:1035F00070B5044600202060A0606060E06020613B
:103600006061A061E0612BA0206200206062A06286
:10361000E0622063E0872064E065A4F86000002198
:1036200004F16400FEF7CAFF002044F8740F6060E4
:10363000E060A0822061743C002506E0002104F1D6
:103640007C0040F82510681CC5B2002DF6D0002083
:103650003434206120676067606084F85600E0675A
:10366000A06720814FF0004060610020A061E06110
:1036700020626062A4F85800A4F85A00E065206651
:10368000FCF706FF064666660020A066C4F88000C8
:10369000C4F8840020706070A0702020E0700020CA
:1036A000C4F88800C4F88C0004A0C4F89000343C2E
:1036B00070BD00003F5461736B00000020000000EB
:1036C0002DE9FC4704460F4690469946DDE90A6518
:1036D0004FF0000A00BF00BF00BFFCF79BFD824611
:1036E00000BFFCF791FE00BF8D480078401C8C495C
:1036F000087008460078012801D1FFF757FB00BF8A
:10370000FCF79CFE00BF5046FCF788FD00BF00BFE1
:1037100000BF0CB9834804680020288094F8360064
:1037200008287CD2DFE800F00405484906074A4B28
:1037300000BF00BF00BF4B464246394604F164005B
:10374000CDE90065FEF742FF00BF00BF00BFFCF7F8
:1037500061FD824600BFFCF757FE00BF704800784D
:10376000401E6F49087008460078D0B9FFF72CFB5F
:103770006D48008800280BDD00BFFCF75FFE00BF2E
:103780005046FCF74BFD00BF00BFFFF7E1FA11E028
:1037900000BFFCF753FE00BF5046FCF73FFD00BFE3
:1037A00008E000BFFCF74AFE00BF5046FCF736FDBC
:1037B00000BF00BF00BFAFE000BF00BF00BF94F874
:1037C000340002282CD143463A4621460020009678
:1037D000FFF77EF800BF00BF00BFFCF71BFD82466D
:1037E00000BFFCF711FE00BF4D480078401E4C4959
:1037F00008700846007808B9FFF7E6FA00BFFCF742
:103800001DFE00BF5046FCF709FD00BF00BF00BF12
:1038100009F40040002843D1FDF7B8F840E040E04B
:103820004B464246394604F16400CDE90065FEF797
:10383000CDFE00BF00BF00BFFCF7ECFC824600BF1E
:10384000FCF7E2FD00BF36480078401E344908709E
:1038500008460078D0B9FFF7B7FA33480088002847
:103860000BDD00BFFCF7EAFD00BF5046FCF7D6FCBD
:1038700000BF00BFFFF76CFA11E000BFFCF7DEFDF0
:1038800000BF5046FCF7CAFC00BF08E000BFFCF7D1
:10389000D5FD00BF5046FCF7C1FC00BF00BF00BF14
:1038A0003AE000BF00BF00BFFCF7B4FC824600BF97
:1038B000FCF7AAFD00BF1A480078401E184908709E
:1038C00008460078D0B9FFF77FFA1748008800282B
:1038D0000BDD00BFFCF7B2FD00BF5046FCF79EFCBD
:1038E00000BF00BFFFF734FA11E000BFFCF7A6FDF0
:1038F00000BF5046FCF792FC00BF08E000BFFCF799
:103900009DFD00BF5046FCF789FC00BF00BF00BF13
:1039100046F62D60288000BF00BFBDE8FC87000090
:10392000C8000020200100208C00002010B50446B3
:10393000204600F061FD94F8360000F0040010B954
:103940002046FFF761F910BD70B504460D4600260C
:1039500000BF00BFFCF75EFC064600BFFCF754FD4D
:1039600000BF0020288094F8360008287ED2DFE8C7
:1039700000F00405060714566A8000BF00BF00BFB0
:1039800000BFFCF75BFD00BF3046FCF747FC00BF03
:1039900000BF47F2531028808CE000BF48480078F1
:1039A000401C4749087008460078012801D1FFF7FC
:1039B000FDF900BFFCF742FD00BF3046FCF72EFCCE
:1039C00000BF00BF00BF14F88A0F401E207014F81B
:1039D0008A0928B9002084F836002046FFF7A6FFA0
:1039E00000BF00BF00BFFCF715FC064600BFFCF798
:1039F0000BFD00BF32480078401E31490870084670
:103A0000007808B9FFF7E0F900BFFCF717FD00BF29
:103A10003046FCF703FC00BF00BF00BF4AE014F8CB
:103A20008A0F401E207014F88A0910B9012084F80A
:103A3000360000BFFCF702FD00BF3046FCF7EEFB8E
:103A400000BF00BF36E014F88A0F401E207014F843
:103A50008A0910B9022084F8360000BFFCF7EEFC9A
:103A600000BF3046FCF7DAFB00BF00E015E000BF06
:103A700020E014F88A0F401E207014F88A0910B94B
:103A8000032084F8360000BFFCF7D8FC00BF3046A6
:103A9000FCF7C4FB00BF00BF0CE000BFFCF7CEFC8E
:103AA00000BF3046FCF7BAFB00BF00BF46F62D60F2
:103AB000288070BD00BFFCF769FF00BFF9E7000078
:103AC000C800002008B504480068FDF7CFFB694630
:103AD0000020FDF7BBFA08BD200100202DE9F843C6
:103AE0000446884617461D464FF0000900BF00BF38
:103AF00000BFFCF78FFB814600BFFCF785FC00BFD1
:103B0000FB480078401CFA490870084600780128F4
:103B100001D1FFF74BF900BFFCF790FC00BF48460E
:103B2000FCF77CFB00BF00BF00BF0CB9F148046884
:103B300027640020288094F8360008287AD2DFE82D
:103B400000F00405FEFD0607FCFB00BF00BF00BF40
:103B50000420012804D0022843D004286BD184E03B
:103B6000606CFF283CD100BF00BF00BFFCF752FBD8
:103B7000814600BFFCF748FC00BFDD480078401ECE
:103B8000DB49087008460078D0B9FFF71DF9DA481C
:103B9000008800280BDD00BFFCF750FC00BF484642
:103BA000FCF73CFB00BF00BFFFF7D2F811E000BFFD
:103BB000FCF744FC00BF4846FCF730FB00BF08E0C0
:103BC00000BFFCF73BFC00BF4846FCF727FB00BFEB
:103BD00000BF00BF46F6C55028800020BDE8F8832E
:103BE00085E04FF6FF71606C88423DD100BF00BF99
:103BF00000BFFCF70FFB814600BFFCF705FC00BFD0
:103C0000BB480078401EBA49087008460078E0B901
:103C1000FFF7DAF8B848008800280DDD00BFFCF790
:103C20000DFC00BF4846FCF7F9FA00BF00BFFFF7E4
:103C30008FF813E0E2E159E000BFFCF7FFFB00BFA3
:103C40004846FCF7EBFA00BF08E000BFFCF7F6FBC4
:103C500000BF4846FCF7E2FA00BF00BF00BF46F6CF
:103C6000C55028800020B9E741E0606C401CD8BBFB
:103C700000BF00BF00BFFCF7CDFA814600BFFCF7D4
:103C8000C3FB00BF9A480078401E99490870084657
:103C90000078D0B9FFF798F89748008800280BDD26
:103CA00000BFFCF7CBFB00BF4846FCF7B7FA00BFEC
:103CB00000BFFFF74DF811E000BFFCF7BFFB00BFEE
:103CC0004846FCF7ABFA00BF08E000BFFCF7B6FBC4
:103CD00000BF4846FCF7A2FA00BF00BF00BF46F68F
:103CE000C5502880002079E7FFE700E000BF00BF53
:103CF000606C401C6064666C00BF00BF00BFFCF7D6
:103D000089FA814600BFFCF77FFB00BF7848007846
:103D1000401E7749087008460078F8B9FFF754F854
:103D200075480088002810DD00BFFCF787FB00BF46
:103D30004846FCF773FA03E01EE01CE01AE018E0C6
:103D400000BF00BFFFF704F811E000BFFCF776FBEF
:103D500000BF4846FCF762FA00BF08E000BFFCF76E
:103D60006DFB00BF4846FCF759FA00BF00BF00BF1B
:103D700080E100BF00BF00BF94F8340007282CD1B9
:103D800000231A46214618460097FEF7A1FD666CEF
:103D900000BF00BF00BFFCF73DFA814600BFFCF743
:103DA00033FB00BF52480078401E51490870084656
:103DB000007808B9FFF708F800BFFCF73FFB00BF29
:103DC0004846FCF72BFA00BF00BF00BF08F40040D4
:103DD000002801D1FCF7DAFD0FE10420012804D00E
:103DE000022842D0042872D189E0606CFF283BD1C0
:103DF00000BF00BF00BFFCF70DFA814600BFFCF713
:103E000003FB00BF3A480078401E39490870084655
:103E10000078D0B9FEF7D8FF3748008800280BDDBE
:103E200000BFFCF70BFB00BF4846FCF7F7F900BFEB
:103E300000BFFEF78DFF11E000BFFCF7FFFA00BFE7
:103E40004846FCF7EBF900BF08E000BFFCF7F6FAC4
:103E500000BF4846FCF7E2F900BF00BF00BF46F6CE
:103E6000C55028800020B9E68BE04FF6FF71606CEA
:103E7000884243D100BF00BF00BFFCF7CBF98146A9
:103E800000BFFCF7C1FA00BF19480078401E18496E
:103E9000087008460078D8B9FEF796FF16480088E3
:103EA00000280BDD00BFFCF7C9FA00BF4846FCF74D
:103EB000B5F900BF00BFFEF74BFF12E000BFFCF7F3
:103EC000BDFA00BF4846FCF7A9F900BF09E057E07A
:103ED00000BFFCF7B3FA00BF4846FCF79FF900BFEC
:103EE00000BF00BF46F6C5502880002076E60000DF
:103EF000C8000020200100208C00002041E0606C00
:103F0000401CD8BB00BF00BF00BFFCF783F981464F
:103F100000BFFCF779FA00BF58480078401E5749A7
:103F2000087008460078D0B9FEF74EFF5448008864
:103F300000280BDD00BFFCF781FA00BF4846FCF704
:103F40006DF900BF00BFFEF703FF11E000BFFCF7F3
:103F500075FA00BF4846FCF761F900BF08E000BFF2
:103F6000FCF76CFA00BF4846FCF758F900BF00BFE9
:103F700000BF46F6C550288000202FE6FFE700E08E
:103F800000BF00BF606C401C6064666C00BF00BF77
:103F900000BFFCF73FF9814600BFFCF735FA00BFD0
:103FA00036480078401E3549087008460078D0B978
:103FB000FEF70AFF3248008800280BDD00BFFCF73F
:103FC0003DFA00BF4846FCF729F900BF00BFFEF7E5
:103FD000BFFE11E000BFFCF731FA00BF4846FCF716
:103FE0001DF900BF08E000BFFCF728FA00BF4846F3
:103FF000FCF714F900BF00BF00BF3BE000BF00BFEB
:1040000000BFFCF707F9814600BFFCF7FDF900BFD0
:104010001A480078401E1949087008460078D0B93F
:10402000FEF7D2FE1648008800280BDD00BFFCF723
:1040300005FA00BF4846FCF7F1F800BF00BFFEF7E5
:1040400087FE11E000BFFCF7F9F900BF4846FCF716
:10405000E5F800BF08E000BFFCF7F0F900BF4846F4
:10406000FCF7DCF800BF00BF00BF46F62D602880DB
:10407000002600BF00BF3046B0E50000C8000020A9
:104080008C00002070B504460D46002600BF00BF1E
:10409000FCF7C0F8064600BFFCF7B6F900BF0CB944
:1040A0005A48046859480068844210D1584800783A
:1040B00000280CDD00BFFCF7C1F900BF3046FCF75B
:1040C000ADF800BF00BF46F66350288070BD0020E9
:1040D000288094F83600082873D2DFE800F0044204
:1040E00052627374757600BF49480078401C484995
:1040F000087008460078012801D1FEF757FE00BF7E
:10410000FCF79CF900BF3046FCF788F800BF00BF01
:1041100000BF042084F83600012084F88A0020467D
:10412000FEF7E8FD00BF00BF00BFFCF773F80646CE
:1041300000BFFCF769F900BF35480078401E3449DC
:1041400008700846007808B9FEF73EFE00BFFCF78D
:1041500075F900BF3046FCF761F800BF00BF00BF33
:104160004FE0052084F83600012084F88A0000BF63
:10417000FCF764F900BF3046FCF750F800BF00BF01
:104180003FE0062084F83600012084F88A0000BF52
:10419000FCF754F900BF3046FCF740F800BF00BF01
:1041A0002FE0072084F83600012084F88A0000BF41
:1041B000FCF744F900BF3046FCF730F800BF00BF01
:1041C0001FE011E000BF00BF00BF94F88A00401C50
:1041D00084F88A0000BFFCF731F900BF3046FCF7D5
:1041E0001DF800BF00BF0CE000BFFCF727F900BFBF
:1041F0003046FCF713F800BF00BF46F62D6028805C
:1042000064E700BFFCF7C2FB00BF5FE720010020AE
:10421000C8000020002108E0064A02EBC10000228D
:1042200002608280C2804A1C91B2034A1288914285
:10423000F2DB7047C8180020345200082DE9F04F17
:104240000C4616461D46042E1ED1DFF8A091D9F863
:104250000090A4EB0909A9F1010313F5803F0DD9E2
:104260004FF00009C0F84C90C0F85090C0F81C9076
:1042700047F27E29A5F80090BDE8F08FC46403F1F1
:104280000109C0F850903FE084B3082E25D1D0F842
:10429000489009EB0407DFF85491D9F80090A7EB98
:1042A0000909A9F10103A34201D2C76406E0DFF8BE
:1042B0003C91D9F80090A144C0F84C90DFF82CA1B3
:1042C000D0F84C90DAF800A0A9EB0A09C0F8509099
:1042D000D0F84C90C0F8489016E0DFF81091D9F86B
:1042E0000090A144C0F84C9004650DE0FFE74FF04A
:1042F0000009C0F84C90C0F85090C0F81C9047F2EC
:104300007E29A5F80090B7E7DFF8E4A0BAF800A08E
:10431000D0F84C90B9FBFAFB0AFB1B991FFA89F8FD
:10432000DFF8D09009EBC802B2F80490B9F1000FA1
:104330000BD14FF00009C0F81490C0F8189010602D
:104340004FF00109A2F804903EE0116834E0DFF874
:104350009CA0D1F84C90DAF800A0A9EB0A09C1F8AA
:104360005090D0F85090D1F850A0D1450ED9D1F846
:104370001490B9F1000F01D049691DE04FF0000918
:10438000C0F8149081614861002115E0D1F81890BF
:10439000B9F1000F07D14FF00009C0F81890416142
:1043A0008861106007E0D1F818C0C0F818C04161FA
:1043B000CCF81400886100210029C8D1B2F804901B
:1043C00009F10109A2F80490B2F80690B2F804A02D
:1043D000D14503DAB2F80490A2F80690C2614FF01A
:1043E0000009A5F8009000BF46E70000000100208A
:1043F00034520008C818002010B5C269BAB10024B0
:1044000004651468844205D14169116039B1002402
:104410008C6104E0816943694B6103B199610024B7
:1044200044618461C461C4649488641E948010BD36
:10443000002006E0054A02EBC0010022CA80421CAF
:1044400090B2034A12889042F4DB7047C8180020EB
:10445000345200082DE9F05F4FF0000B00BF00BFA1
:1044600000BFFBF7D7FE834600BFFBF7CDFF00BFC1
:104470007A480078401C794908700846007801287D
:1044800001D1FEF793FC00BFFBF7D8FF00BF5846F1
:10449000FBF7C4FE00BF00BF00BFFBF7F9FF0546F6
:1044A0006F480068401C6E490860084600686D4906
:1044B0000988B0FBF1F201FB12001FFA80FA6A488A
:1044C00000EBCA08D8F80040002782E0002C7FD01B
:1044D000D4F8149094F83600082875D2DFE800F07C
:1044E0000408051B063D075000BF00BF00BF6CE07D
:1044F0005B49E06C0968401A20655949E06C09681D
:10450000884206D1002084F836002046FFF70EFAD4
:1045100000E0012759E05249E06C0968401A206523
:104520004F49E06C0968884215D10020E065A4F885
:104530006000FBF7ADFF20642046FEF790F92046AF
:10454000FFF7F4F900203434A070032060700020DD
:1045500004F8340900E0012737E04149E06C0968BC
:10456000401A20653E49E06C0968884206D1042063
:1045700084F836002046FFF73FFF00E0012724E0E3
:104580003749E06C0968401A20653549E06C0968D4
:10459000884217D10020E065A4F86000FBF778FF9F
:1045A00020642046FEF75BF92046FFF725FF042034
:1045B0003434A07003206070002004F8340902E055
:1045C00006E001E0012700E000BF00BF4C4600E02C
:1045D0000127002F3FF47AAFFBF75AFF461B234811
:1045E0000068B04201D22148066000BF00BF00BF92
:1045F000FBF710FE834600BFFBF706FF00BF17481E
:104600000078401E1549087008460078D0B9FEF7BA
:10461000DBFB1748008800280BDD00BFFBF70EFF0F
:1046200000BF5846FBF7FAFD00BF00BFFEF790FB46
:1046300011E000BFFBF702FF00BF5846FBF7EEFD9D
:1046400000BF08E000BFFBF7F9FE00BF5846FBF7CC
:10465000E5FD00BF00BF00BFBDE8F09FC80000201F
:104660000001002034520008C81800200401002076
:104670008C0000201CB500BF0EE001AB6A46002193
:104680000846FCF7FFFDBDF8040028B90348007890
:10469000012801D1FFF7DEFEEFE7000080000020D7
:1046A00010B58AB0044600201D4908601D49086005
:1046B000FFF7B0FD1C48006820B947F212202080A7
:1046C0000AB010BD1948006819490968884203D228
:1046D00047F213202080F3E7164800781F2803D301
:1046E00047F211202080EBE70B20002105910A46BC
:1046F000CDE9070406910D4800680F4909680A4B87
:104700001B68CDE90131CDE903020A480078002396
:104710000A4A0BA100900F48FCF742FB00BFCFE70D
:104720000001002004010020245200082C5200083F
:104730001852000820520008285200087546000848
:1047400075432F4F532D494949205469636B2054B9
:1047500061736B00BC1F002070B58AB00446002056
:10476000314908603148006840B1314800682F493C
:104770000968B0FBF1F02F49086006E02C4800689A
:104780000A21B0FBF1F02B4908602A4800682A4949
:10479000086000202949086029490860002508E0D0
:1047A000284800EBC5060020B080F0803060681C0F
:1047B00085B2254800888542F2DB2448006820B98C
:1047C00047F2473020800AB070BD21480068214977
:1047D0000968884203D247F248302080F3E71E4838
:1047E00000781F2803D347F246302080EBE70B20E8
:1047F00000210591CDE9070406910846144909688E
:10480000164A1268114B1B68CDE90132CDE903103D
:10481000114800780023124A12A100901748FCF7B3
:10482000BFFA00BFCFE70000080100204052000897
:104830001C520008180100201C0100201401002057
:1048400010010020501B0020545200084452000860
:104850004C520008185200083C5200084852000808
:104860007549000875432F4F532D49494920546914
:104870006D6572205461736B00000000842000207D
:10488000F0B50C46022680F82A60012C05D12D4F88
:10489000466A3F683E4486610CE0066A2EB9294F9D
:1048A000466A3F683E44866104E0264F066A3F68D8
:1048B0003E448661244F3F888669B6FBF7FC07FBC0
:1048C0001C66B5B2214E06EBC502166836B9002645
:1048D000066146611060012696802CE0194F8669BA
:1048E0003F68F61BC661116820E0164F8E693F686D
:1048F000F61BCE61C669CF69BE4209D90E690EB1F9
:10490000096913E0002606614161086100210DE09C
:104910004E692EB90026466101614861106004E0CD
:104920004B69436101611861486100210029DCD1B4
:104930009688761C9680D6889788BE4201DA96883B
:10494000D680F0BD1401002054520008501B0020F6
:10495000002006E0054A02EBC0010022CA80421C8A
:1049600090B2034A12889042F4DB7047501B00203B
:10497000545200081CB500BF53E001AB6A46002149
:104980000846FCF77FFC01A8FCF754F8FBF780FD14
:10499000064624480068401C224908600846006812
:1049A00021490988B0FBF1F201FB12001FFA80FADD
:1049B0001E4800EBCA08D8F800404FF0000B21E079
:1049C000F4B1D4F810901749A0690968884214D14D
:1049D000204600F02FF8208D022804D10121204626
:1049E000FFF74EFF02E0032084F82A00A56815B106
:1049F0002046E168A8474C4604E04FF0010B01E077
:104A00004FF0010BBBF1000FDAD0FBF741FD871B24
:104A100001A8FCF783F806480068B84201D20448B0
:104A20000760AAE71401002054520008501B002020
:104A300010010020F0B5114E36888569B5FBF6F7F8
:104A400006FB1755ACB20E4D05EBC4021568854246
:104A500005D10169116039B100254D6104E041695A
:104A600003690B6103B15961012580F82A500025C3
:104A70000561456195886D1E9580F0BD5452000812
:104A8000501B002029B1064A92690243044B9A61E7
:104A900004E0034A92698243014B9A617047000027
:104AA0000010024030B500210022002400232D4DCB
:104AB0006D6805F00C0121B1042905D0082923D126
:104AC00005E0294D056022E0274D05601FE0254DDA
:104AD0006D6805F47012234D6D6805F4803402256D
:104AE00005EB92421CB9214D554305600BE01D4D6D
:104AF0006D6805F400351DB11C4D5543056002E09D
:104B0000194D5543056002E0174D056000BF00BF19
:104B1000144D6D6805F0F0010909154D6B5C0568D1
:104B2000DD4045600F4D6D6805F4E061090A104DE8
:104B30006B5C4568DD4085600A4D6D6805F4605129
:104B4000C90A0B4D6B5C4568DD40C560054D6D685D
:104B500005F44041890B074D6B5CC568B5FBF3F567
:104B6000056130BD0010024000127A0000093D00CE
:104B70001400002024000020704710B500F002F857
:104B800010BD00000CB50020019000903348006873
:104B900040F480303149086000BF3048006800F4BC
:104BA000003000900198401C0190009818B90198BD
:104BB000B0F5A06FF1D12948006800F4003010B1C1
:104BC0000120009001E0002000900098012843D1CE
:104BD0002348006840F0100021490860084600683A
:104BE00020F0030008600846006840F002000860FA
:104BF0001A484068194948600846406848600846B5
:104C0000406840F4806048600846406820F47C10AA
:104C100048600846406840F4E8104860084600686C
:104C200040F08070086000BF0C48006800F0007021
:104C30000028F9D00948406820F00300074948607F
:104C40000846406840F00200486000BF03484068E2
:104C500000F00C000828F9D10CBD00000010024043
:104C600000200240042808D14FF0E021096941F0FA
:104C700004014FF0E022116107E04FF0E0210969E3
:104C800021F004014FF0E0221161704710B5054892
:104C90000078012805D1FBF7F1FDFCF7FDFEFBF7DD
:104CA00003FE10BD8000002010B51348006840F0DE
:104CB00001001149086008464068104908400E4943
:104CC0004860084600680E4908400B4908600846DD
:104CD000006820F4802008600846406820F4FE0048
:104CE00048604FF41F008860FFF747FF4FF00060F7
:104CF0000449086010BD0000001002400000FFF8E9
:104D0000FFFFF6FE08ED00E00EB50FE00848006872
:104D1000C0430849C1F8940102A800214FF4FA7376
:104D20000A46CDE900100846FCF7A0FDEEE70000BA
:104D300094812142008021420EB50EE007480068B0
:104D4000C0430749C1F8940102A800210B46012283
:104D5000CDE900100846FCF789FDEFE794012342F6
:104D60000000234210B58AB0044609AA0121084672
:104D7000FBF79EFE09A8032100220223CDE905329C
:104D8000CDE90710104640210822154BCDE901322C
:104D9000CDE9031004200023124A13A10090154806
:104DA000FBF7FEFF09A8032100220223CDE905320B
:104DB000CDE907101046402108220F4BCDE9013202
:104DC000CDE90310042000230C4A0DA100900F48E8
:104DD000FBF7E6FF09A90E48FCF738F90AB010BD49
:104DE00080040020094D00085461736B4C45443029
:104DF00000000000B803002048060020394D0008DC
:104E00005461736B4C454431000000008005002064
:104E10002801002010B5FBF731FD40F225511E4856
:104E200000F04CF810B31C4800F004F9C4B21B4861
:104E3000008800F40040C8B91848008800F4804099
:104E400060B10A2C03D000201449088020E01348E8
:104E5000008840F400401149088019E00D2C06D16B
:104E60000E48008840F480400C49088010E00B4850
:104E70000088C0F30D000A490C5408480088401C03
:104E80000649088008460088C72801DD0020088000
:104E9000FBF70AFD10BD0000003801403000002083
:104EA000F002002021B1828942F40052828104E0A4
:104EB00082894DF6FF731A408281704770B50246B1
:104EC000002400230025002040F66A16B14200D1DC
:104ED00000BFC1F3421501F01F03012606FA03F3D8
:104EE000012D02D19689334006E0022D02D1168AA7
:104EF000334001E0968A33400C12012606FA04F48E
:104F00001688344013B10CB1012000E0002070BDC0
:104F1000F0B50346002400260025002040F66A175D
:104F2000B94200D100BF1846C1F3421401F01F0678
:104F3000012707FA06F5012C01D10C3004E0022C00
:104F400001D1103000E014301AB107682F43076018
:104F500002E00768AF430760F0BD00002DE9F047AD
:104F600086B005460E460024A24600BFA146002793
:104F7000B08900B100BF2F462C8A4CF6FF70044068
:104F8000F08804432C82AC894EF6F3100440B088BC
:104F900031890843718908430443AC81AC8A4FF6D8
:104FA000FF400440B0890443AC8201A8FFF77AFDBA
:104FB0001F48874202D1DDF810A001E0DDF80CA007
:104FC000A88900F4004040B10AEBCA0000EB0A10C7
:104FD00031684900B0FBF1F807E00AEBCA0000EBCA
:104FE0000A1031688900B0FBF1F86420B8FBF0F0DA
:104FF00004012009642101FB1089A88900F4004004
:1050000040B1322000EBC900B0FBF1F000F0070026
:10501000044308E0322000EB09106421B0FBF1F0FA
:1050200000F00F0004432C8106B0BDE8F0870000BB
:105030000038014001468888C0F30800704700BF6F
:10504000FEE7014600BF00207047000010B56FF07A
:105050000400FFF707FE144800681449B0FBF1F0A4
:1050600013490870104800681049B0FBF1F411486A
:105070000068C910B1FBF0F044430E4800684FF4DB
:105080007A71B1FBF0F00C4908804FF0E020006924
:1050900040F002004FF0E0210861084644610069D9
:1050A00040F00100086110BD0000002000127A00ED
:1050B000280000201C5200082A00002000B58BB0F8
:1050C000FBF742F90AA8FBF7F7FA0AA80321002226
:1050D0000592CDE906210890104640210822094B8F
:1050E000CDE90132CDE9031003200023064A07A1D0
:1050F00000900948FBF754FE0AA8FBF75FFD00206B
:105100000BB000BDF0010020654D00085461736BC9
:1051100053746172740000002801002010B586B03D
:105120000446012144F20400FFF7ACFC4FF4007088
:10513000ADF8140003208DF8160018208DF8170024
:1051400005A91C48FBF7ABF94FF48060ADF81400DB
:1051500004208DF8170005A91648FBF7A0F92520B3
:105160008DF8000003208DF801008DF80200012069
:105170008DF803006846FBF751FA01940020ADF862
:105180000800ADF80A00ADF80C00ADF810000C20D6
:10519000ADF80E0001A90848FFF7E0FE012240F239
:1051A00025510548FFF7B4FE01210348FFF77AFEB9
:1051B00006B010BD0008014000380140480700203B
:1051C0000C000000800000000002000048090020E0
:1051D0000A00000040010000880A00200C000000C6
:1051E0008000000000020000880C00208000000009
:1051F000000200006400000040060000880E00204D
:105200001E0000000A000000C81400200C0000006E
:10521000800000000002000040000000C800000004
:1052200001000000C81600200C00000080000000F3
:1052300000020000110000008800000002000000D1
:1052400064000000501900200C00000080000000E5
:10525000000200001100000088000000901400000F
:105260000101010078563412010100000000000025
:10527000000000000000000000000000000000002E
:10528000000000000000000000000000000000001E
:1052900000000000010101002800040020000100BE
:1052A00000000000000000000000000000000000FE
:1052B00000000000000000000000000000000000EE
:1052C00001002000010010000C0010000000000090
:1052D00000000000000000000000000000000000CE
:1052E00000000000000000000000000000000000BE
:1052F0000000000000000000010101002C0001017D
:1053000020000C0020002000040004000000000029
:10531000000000000000000000000000000000008D
:10532000000000000000000000000000000000007D
:105330000000000000000000000000000101010169
:10534000300001000000000000000000000000002C
:10535000000000000000000000000000000000004D
:105360000000000000000000000000000101010139
:1053700028000C008001000004010101010101016D
:1053800001000101C8000800010100000000000048
:10539000000000000000000000000000000000000D
:1053A00000000000000000000000000000000000FD
:1053B00000000000000000000000000000000000ED
:1053C0000101340008005D762A060000EC53000855
:1053D00000000020280100006C010008145500089E
:1053E00028010020882600008801000800A24A0445
:1053F0000000000000000000010203040607080985
:10540000000000000102030401020304060708096A
:105410000204060800000000000000000000000078
:10542000000000000000000000000000000000007C
:10543000000000000000000000000000000000006C
:10544000000000000000000000000000000000005C
:10545000000000000000000000000000000000004C
:10546000000000000000000000000000000000003C
:10547000000000000000000000000000000000002C
:10548000000000000000000000000000000000001C
:10549000000000000000000000000000000000000C
:1054A00000000000000000000000000000000000FC
:1054B00000000000000000000000000000000000EC
:1054C00000000000000000000000000000000000DC
:1054D00000000000000000000000000000000000CC
:1054E00000000000000000000000000000000000BC
:1054F00000000000000000000000000000000000AC
:10550000000000000000000000000000000000009B
:045510000000000097
:0400000508000131BD
:00000001FF
