:020000040800F2
:1000000010D000201D02000825090008C5080008BE
:10001000210900087106000837530008000000009D
:10002000000000000000000000000000194E000861
:10003000A907000800000000F30500082D4F000884
:1000400037020008370200083702000837020008AC
:10005000370200083702000837020008370200089C
:10006000370200083702000837020008370200088C
:10007000370200083702000837020008370200087C
:10008000370200083702000837020008370200086C
:10009000370200083702000837020008370200085C
:1000A000370200083702000837020008370200084C
:1000B000370200083702000837020008370200083C
:1000C000370200083702000837020008370200082C
:1000D000370200080D5100083702000837020008F7
:1000E000370200083702000837020008370200080C
:1000F00037020008370200083702000837020008FC
:1001000037020008370200083702000837020008EB
:1001100037020008370200083702000837020008DB
:1001200037020008370200083702000837020008CB
:1001300000F002F800F062F80AA090E8000C824497
:100140008344AAF10107DA4501D100F057F8AFF274
:10015000090EBAE80F0013F0010F18BFFB1A43F0A5
:10016000010318478C570000AC5700000A444FF0B9
:10017000000C10F8013B13F0070408BF10F8014B06
:100180001D1108BF10F8015B641E05D010F8016B4B
:10019000641E01F8016BF9D113F0080F1EBF10F8AF
:1001A000014BAD1C0C1B09D16D1E58BF01F801CBD2
:1001B000FAD505E014F8016B01F8016B6D1EF9D555
:1001C0009142D6D37047000000230024002500266A
:1001D000103A28BF78C1FBD8520728BF30C148BFAA
:1001E0000B607047752900F0D380732900F0998166
:1001F000002070471FB51FBD10B510BD00F0ACF951
:100200001146FFF7F7FF05F0E3F800F0CAF903B471
:10021000FFF7F2FF03BC05F090F8000009488047A3
:1002200009480047FEE7FEE7FEE7FEE7FEE7FEE7D8
:10023000FEE7FEE7FEE7FEE704480549054A064BF0
:1002400070470000494F00083101000810CA002023
:1002500010D0002010CC002010CC002072B67047C7
:1002600062B67047EFF3108072B6704780F3108863
:10027000704730BF704720BF7047B0FA80F07047BA
:1002800090FAA0F0B0FA80F0704790FAA0F07047B2
:10029000704700000FB4044910B503AA029800F09B
:1002A00045F910BC5DF814FB2C0000200FB41CB500
:1002B000074B06AA7B4469460090059800F007F9B1
:1002C0000020694600F016F91CBC5DF814FB000024
:1002D0003D0200002DE9F0410E4604460020206258
:1002E0002046E168884730B3252805D0D4E90121AC
:1002F0009047206A401CF2E7E168204600278847C3
:10030000050018D0A5F14100192802D820354FF476
:1003100000673246294620462760FFF763FF40B159
:10032000012804D0F61D26F007060836D8E7361D4A
:10033000D6E72846DAE7206ABDE8F08170B50C46BA
:100340000546012A05D02878800600D5EA690023F1
:1003500002E0012305E05B1C934202D2E05C00282E
:10036000F9D1A869E618C01AA861286A1844286259
:100370002846AFF3008004E0D5E9012114F8010B11
:100380009047B442F8D32846AFF3008070BD000018
:100390002DE9F0410646002410687529314616A55E
:1003A00010D0AFF30080002802DA404213A507E026
:1003B00031688A0701D512A502E0490704D511A5C5
:1003C000012401E0AFF3008000210A2206F1240796
:1003D00009E0B0FBF2FCB0FBF2F302FB1C00303092
:1003E00078541846491C0028F3D123462A46304643
:1003F000BDE8F04100F00CB8000000002D00000046
:100400002B000000200000007047704770477047C5
:100410002DE9F0470D4699469246044600F124081E
:100420000168880604D5E06921F01001216000E030
:100430000120A84201DD471B00E00027A1697A19CD
:1004400002EB0900081AA0612078C00602D42046F9
:10045000AFF30080002608E0D4E901211AF8060075
:100460009047206A401C761C20624E45F4DB2078C1
:10047000C0060AD52046AFF3008006E0D4E901218A
:1004800030209047206A401C2062381EA7F10107E7
:10049000F4DC07E0D4E9012118F805009047206A50
:1004A000401C2062281EA5F10105F3DC2046AFF3B5
:1004B00000802078000602D50220BDE8F0870120E8
:1004C000FBE7000001694A1C02610878704700B52B
:1004D0008FB0CDE901310021059105497944CDE97D
:1004E000031011466846FFF7F5FE0FB000BD00008F
:1004F000E5FFFFFF0A6802F8010B0A60704710B5BC
:10050000436913B1AFF3008001E0FFF717FF01204B
:1005100010BD127800F124010A7000224A700122F5
:10052000EDE711684FF0FF32E9E70000074B70B5C7
:100530000D467B44FFF7CBFF0446284600F008F841
:1005400010B14FF0FF3070BD204670BD7F4E0000EF
:10055000007B00F080007047754600F02BF8AE4637
:1005600005006946534620F00700854618B020B5BF
:10057000FFF762FEBDE820404FF000064FF0000795
:100580004FF000084FF0000B21F00701AC46ACE83B
:10059000C009ACE8C009ACE8C009ACE8C0098D46A8
:1005A000704710B50446AFF300802046BDE8104008
:1005B000FFF72DBE00487047ACC900201D484FF61C
:1005C000FF710170002080F309881B48016881F3E6
:1005D00008881A484FF08051016062B6FEE717485C
:1005E0004FF080510160704714484FF08051016016
:1005F000704772B6EFF3098028B1203880E8F00F19
:100600000F490968086000B50E4880475DF804EBA3
:100610000D480E490A78027009480D490A680260BF
:10062000106890E8F00F203080F309884EF0040E37
:1006300062B6704722ED00E06C00002004ED00E09F
:100640003C01002019190008CA000020CB0000203E
:100650004001002010B504F075FE4FF4A06000F0DA
:100660009BF94FF4E13004F0DFFF00F02DF910BDED
:1006700000BFFEE701460846044A1268904203D9CB
:10068000024A1268801A00E00020704760000020D3
:1006900070B5002500BFFFF7E5FD054600BF064821
:1006A000046800BF2846FFF7E1FD00BF2046FFF7C2
:1006B000E1FF0646304670BD6400002070B500259D
:1006C000FFF7E6FF044600BFFFF7CCFD054600BF7D
:1006D00000200449086000BF2846FFF7C7FD00BF9F
:1006E000204670BD6400002070B5002500BFFFF7F4
:1006F000B9FD054600BF0648046800BF2846FFF75D
:10070000B5FD00BF2046FFF7B5FF0646304670BD79
:100710006800002010B509480088401C074908807F
:100720000748008818B900F039F8064908600448FD
:100730000088401C0249088010BD000054000020C1
:10074000560000205800002010B50F480088401EB9
:100750000D49088008460088A0B900F01FF80B4931
:100760000860084600680A490968441A0948006890
:10077000A04201D20748046007480068A04201D2A5
:100780000548046010BD0000560000205C000020F9
:1007900058000020640000206800002001494868DB
:1007A00070470000001000E070472DE9F04102465C
:1007B00000250026002000230024002791F803C014
:1007C0000CF00F0591F803C00CF0100CBCF1000FF9
:1007D00003D091F802C04CEA050591F800C0BCF1C5
:1007E000000F31D0146800202BE04FF0010C0CFA00
:1007F00000F3B1F800C00CEA03069E4220D183004A
:100800004FF00F0C0CFA03F7BC4305FA03FC4CEA5B
:10081000040491F803C0BCF1280F06D14FF0010C7D
:100820000CFA00FCC2F814C00AE091F803C0BCF155
:10083000480F05D14FF0010C0CFA00FCC2F810C0B3
:10084000401C0828D1D31460B1F800C0BCF1FF0FE0
:1008500034DD546800202EE000F1080C4FF0010850
:1008600008FA0CF3B1F800C00CEA03069E4221D14D
:1008700083004FF00F0C0CFA03F7BC4305FA03FC9E
:100880004CEA040491F803C0BCF1280F05D100F133
:10089000080C08FA0CF8C2F8148091F803C0BCF1F7
:1008A000480F07D100F1080C4FF0010808FA0CF8C6
:1008B000C2F81080401C0828CED35460BDE8F081F7
:1008C0000161704700BFFEE708B50121482004F030
:1008D00029FA10208DF8030003208DF80200202053
:1008E000ADF8000069460C48FFF75FFF20210A4879
:1008F000FFF7E6FF10208DF8030003208DF80200BB
:100900002020ADF8000069460448FFF74EFF202183
:100910000248FFF7D5FF08BD000C01400018014058
:1009200000BFFEE77047000070B5002100230F22D2
:10093000C47804B3154C246804F4E064C4F5E0649E
:10094000210AC1F10403CA40447804FA03F184780F
:100950001440214309010E4C0678A155047804F097
:100960001F050124AC4005786D11AD0005F1E025AF
:10097000C5F8004109E0047804F01F050124AC40EB
:10098000044D0678761145F8264070BD0CED00E068
:1009900000E400E080E100E002490143024A116006
:1009A000704700000000FA050CED00E07047000001
:1009B00010B50348006810B101480068804710BDB9
:1009C0008000002070B5044600F0C2F800204849BD
:1009D0000870484908704849087048490860484903
:1009E00008604849087048490870484908704849F3
:1009F0000860484908604849086048490870484804
:100A000000680A21B0FBF1F04649086046480068DA
:100A100058B14648056845B14348066803E0761E6C
:100A2000002028602D1D002EF9D1002040490860CB
:100A300040490860404908604049086040490860F2
:100A400040490860404908604049087002F01AF9BE
:100A500002F018FA204601F075FA208800B170BD46
:100A6000204601F08FFE208800B1F8E7204601F013
:100A700095FE208800B1F2E7204601F079FF20883A
:100A800000B1ECE7204602F02DF9208800B1E6E73E
:100A9000204602F07DFB208800B1E0E7204602F00E
:100AA000E7FE208800B1DAE7204601F0D7FD208874
:100AB00000B1D4E7204601F0E1FB208800B1CEE789
:100AC000204603F03DFF208800B1C8E7204602F031
:100AD00013FE208800B1C2E7204603F08DFF208876
:100AE00000B1BCE701F054F9FFF760FF00BFB6E7C3
:100AF000940000209C000020E40000203C01002025
:100B000040010020CA000020CB000020CC000020C3
:100B1000D8000020DC000020E0000020EC000020D5
:100B200040570008E8000020105700080C57000844
:100B300074000020780000207C000020800000204D
:100B400084000020880000208C0000201A01002072
:100B50000A4A1168002002E0002204C1401C084A31
:100B600012689042F8D3054A1268054B1B6802EBE5
:100B70008302121F034B1A60704700000C570008D5
:100B8000105700086C00002008480078012800D0A9
:100B9000704707480078FA2800DBF9E70448007836
:100BA000401C0349087000BFF2E700009C000020D1
:100BB0009400002010B500242E480078012800D0B1
:100BC00010BD00BFFFF74EFB044600BF2A48007867
:100BD00028B900BF2046FFF749FB00BFF0E72648D1
:100BE0000078401E2449087008460078002805DD7A
:100BF00000BF2046FFF73AFB00BFE1E71F4800783F
:100C0000002805DD00BF2046FFF730FB00BFD7E717
:100C100002F024F81A4908700846007800EB4000FA
:100C2000184951F82000184908600846006817491B
:100C30000968884205D100BF2046FFF717FB00BFB7
:100C4000BEE711480068D0F89000401C0E490968C2
:100C5000C1F890000E480068401C0D4908604FF034
:100C600080500C49086000BF2046FFF7FFFA00BF24
:100C700000BFA5E79C00002094000020E4000020B5
:100C8000CB000020D4C50020400100203C01002002
:100C90001001002004ED00E010B500242048007889
:100CA000002800DD10BD1F480078002800DDF9E7AE
:100CB00000BFFFF7D7FA044600BF01F0CFFF1A4983
:100CC00008700846007800EB4000184951F82000F1
:100CD000174908600846006816490968884205D126
:100CE00000BF2046FFF7C2FA00BFDBE710480068EC
:100CF000D0F89000401C0E490968C1F890000E48D9
:100D00000068401C0C4908604FF080500B49086097
:100D100000BF2046FFF7AAFA00BF00BFC2E70000ED
:100D200094000020E4000020CB000020D4C5002067
:100D3000400100203C0100201001002004ED00E0F3
:100D400070B5044600251A480078002803DD46F6F1
:100D50006250208070BD17480078012803D045F606
:100D600089602080F6E714480078FA2803DB45F212
:100D700009202080EEE700BF00BFFFF773FA0546A9
:100D800000BFFFF7C7FC00BF0B480078401C0A49B2
:100D9000087002F05BF900BFFFF7D6FC00BF2846E1
:100DA000FFF764FA00BF00BF0020208000BFD1E73A
:100DB000940000209C000020E400002070B5044650
:100DC000002523480078002803DD46F66550208082
:100DD00070BD20480078012803D045F68960208046
:100DE000F6E71D48007818B946F664502080EFE712
:100DF00000BF00BFFFF736FA054600BFFFF78AFCC9
:100E000000BF15480078401E134908700846007856
:100E100000280CDD00BFFFF797FC00BF2846FFF756
:100E200025FA00BF00BF46F663502080D0E702F0ED
:100E30001BF900BFFFF788FC00BF2846FFF716FA32
:100E400000BF00BFFFF728FF0020208000BFBFE7E2
:100E5000940000209C000020E400002010B504460F
:100E600012480078E8B901F0F9FE11490870084607
:100E70000078104908700E48007800EB40000E49D9
:100E800051F820000D490860084600680C490860C8
:100E9000012006490870FFF791FB43F69920208056
:100EA00002E045F68A60208010BD00009C00002012
:100EB000CB000020CA000020D4C500204001002043
:100EC0003C0100202DE9F04107464FF0000800BF2B
:100ED00000BFFFF7C7F9804600BFFFF71BFC00BF4C
:100EE000002047490860474908804749088047492A
:100EF0000860474908604749086047490860474912
:100F000008604749088100BFFFF71EFC00BF40464C
:100F1000FFF7ACF900BF00BF00BF00BFFFF7A2F9A9
:100F2000804600BFFFF7F6FB00BF3E48046800BFE5
:100F3000FFF70AFC00BF4046FFF798F900BF00BF6B
:100F400026E000BF00BFFFF78DF9804600BFFFF726
:100F5000E1FB00BF00207834E06320642060206360
:100F6000A061A082E0826062A062FFF717FC2062AD
:100F7000783C04F164060020B081D4F8C04000BF82
:100F8000FFF7E2FB00BF4046FFF770F900BF00BF6C
:100F9000002CD6D100BF00BFFFF764F9804600BF28
:100FA000FFF7B8FB00BF2048056800BFFFF7CCFB88
:100FB00000BF4046FFF75AF900BF00BF16E000BF70
:100FC00000BFFFF74FF9804600BFFFF7A3FB00BF4C
:100FD00005F120060020B081AD6900BFFFF7B4FB2A
:100FE00000BF4046FFF742F900BF00BF002DE6D129
:100FF00003F06EFB03F0FCFD00203880BDE8F081BB
:10100000B0000020AA000020FA0000200C010020FF
:10101000200100202C01002098000020DC0000208E
:10102000C8C5002014010020D000002010B50348DE
:10103000006810B101480068804710BD840000209E
:101040002DE9FF4F87B004469046DDE91BA5DDE999
:101050001496179F0020039095480078002805DD1E
:1010600047F24A1028800BB0BDE8F08F1CB947F258
:10107000AD102880F7E7B8F1000F03D147F24F1009
:101080002880F0E71EB946F62F602880EBE78948F4
:101090000068874203D246F630602880E3E716985E
:1010A000B84203D346F631602880DCE7B9F1200F5F
:1010B00003D346F273202880D5E7B9F1000F06D19B
:1010C0007D48844203D046F273202880CBE7B9F1F3
:1010D0001F0F06D17948844203D046F2732028803E
:1010E000C1E7204602F0D4FB002028800AF001006E
:1010F00090B10AF0020078B105960020069008E051
:101100000021059801600598001D05900698401C77
:1011100006900698B842F3D3169806EB8000049028
:10112000CDE9007A32464046049B0A9900F094FBD0
:101130000590C4F828800A98E0620898206284F834
:101140003790059820600498A060199860651998F8
:1011500018B95B480068A06501E01998A0651A9865
:1011600060606662A763A4F83CA04FF0000B08E043
:10117000002104F17C0040F82B100BF1010000F07D
:10118000FF0BBBF1000FF3D004F16400189901F0DC
:1011900065FB204600F09EF800BF00BF00BFFFF7D0
:1011A00061F8039000BFFFF7B5FA00BF454800782B
:1011B000401C4449087008460078012801D101F01C
:1011C00045FF00BFFFF7C0FA00BF0398FFF74EF8D6
:1011D00000BF00BF00BF94F8370001F05FFD20465C
:1011E00001F098FE204602F009FB37480088401CB9
:1011F0003549088035480078012837D000BF00BF46
:1012000000BFFFF72FF8039000BFFFF783FA00BF7E
:101210002C480078401E2B49087008460078D0B949
:1012200001F022FF2A48008800280BDD00BFFFF7ED
:101230008BFA00BF0398FFF719F800BF00BF01F059
:10124000D7FE11E000BFFFF77FFA00BF0398FFF75A
:101250000DF800BF08E000BFFFF776FA00BF039863
:10126000FFF704F800BF00BF00BFFCE600BF00BFEF
:1012700000BFFEF7F7FF039000BFFFF74BFA00BF78
:1012800010480078401E0F4908700846007808B9D9
:1012900001F0EAFE00BFFFF757FA00BF0398FEF720
:1012A000E5FF00BF00BF00BFFFF7F6FC00BFDAE6B6
:1012B000940000203C57000800C5002038C40020DE
:1012C000E8000020E4000020180100209C0000201D
:1012D000A800002010B504460348006818B1204655
:1012E00001490968884710BD7400002070B50446A4
:1012F0000D46002678480078002803DD47F24E109E
:10130000288070BD7548844203D147F24C10288074
:10131000F7E77348844203D147F24D102880F0E785
:101320009CB900BF00BFFEF79DFF064600BFFFF758
:10133000F1F900BF6B48046800BFFFF705FA00BF72
:101340003046FEF793FF00BF00BF00BF00BF00BFE5
:10135000FEF788FF064600BFFFF7DCF900BF6248D2
:101360000078401C6049087008460078012801D1C7
:1013700001F06CFE00BFFFF7E7F900BF3046FEF753
:1013800075FF00BF00BF00BF94F8360008282DD2BB
:10139000DFE800F004090E10080A0F11204601F0E2
:1013A000F9FD5EE05DE000BF204603F075F958E00E
:1013B00000BF00BF00BF204603F06EF994F8340070
:1013C000082810D2DFE800F004070508090A0B0618
:1013D00000BF00BF08E000BF00BF00BF00BF204645
:1013E00001F08DFB00E000BF00BF3AE000BF00BF8E
:1013F00000BFFEF737FF064600BFFFF78BF900BFBF
:1014000039480078401E3849087008460078D0B93D
:1014100001F02AFE3548008800280BDD00BFFFF7E9
:1014200093F900BF3046FEF721FF00BF00BF01F077
:10143000DFFD11E000BFFFF787F900BF3046FEF780
:1014400015FF00BF08E000BFFFF77EF900BF304680
:10145000FEF70CFF00BF00BF00BF46F62D602880DE
:101460004FE700BF04F1640001F0D6F9204600F018
:1014700041F8204602F0DAF91D480088401E1C4958
:101480000880204602F004FAFF2084F8360000BFEE
:1014900000BF00BFFEF7E6FE064600BFFFF73AF9C1
:1014A00000BF11480078401E0F49087008460078B8
:1014B00008B901F0D9FD00BFFFF746F900BF30467B
:1014C000FEF7D4FE00BF00BF00BF00202880FFF75A
:1014D000E3FB00BF15E700009400002038C40020A3
:1014E00000C500203C010020E4000020A8000020EE
:1014F0001801002010B504460348006818B12046C2
:1015000001490968884710BD7800002010B50446DD
:101510000348006818B1204601490968884710BD92
:101520007C0000202DE9F04780460E4614461D46FB
:101530004FF000098C480078002805DD46F2AE1017
:1015400028800020BDE8F0871EB1B6F5004F02D11B
:1015500000E000BF04E045F6256028800020F1E7A8
:1015600000BF0CB10020206000BF00BFFEF77AFE74
:10157000814600BFFFF7CEF800BF7C480068406C92
:10158000B8B37A480068406C401E784909684864DE
:1015900076480068476C1CB174480068006C206095
:1015A000FFF7FCF871490968096C401A6F4909682E
:1015B000C1F8A4006D480068D0F8A8006B4909681C
:1015C000D1F8A410884207D268480068D0F8A40077
:1015D00066490968C1F8A80000BFFFF7B5F800BF69
:1015E0004846FEF743FE00BF00BF00202880384673
:1015F000A8E7FFE706F4004068B100BFFFF7A4F8D2
:1016000000BF4846FEF732FE00BF00BF46F2B010F2
:101610002880002096E75648007800280DDD00BF9E
:10162000FFF792F800BF4846FEF720FE00BF00BF5C
:1016300046F663502880002084E700BF4C480078BD
:10164000401C4B49087008460078012801D101F080
:10165000FDFC00BFFFF778F800BF4846FEF706FE26
:1016600000BF00BF00BF434607220021084601F02B
:101670008BF900BF00BF00BFFEF7F4FD814600BF3D
:10168000FFF748F800BF3A480078401E3849087014
:101690000846007808B901F0E7FC00BFFFF754F8EE
:1016A00000BF4846FEF7E2FD00BF00BF00BFFFF7E6
:1016B000F3FA00BF00BFFEF7D5FD814600BFFFF77C
:1016C00029F800BF2948006890F8350020B10128AA
:1016D00026D0032834D12CE0FCB124480068006CEB
:1016E0002060FFF75BF821490968096C401A1F491F
:1016F0000968C1F8A4001D480068D0F8A8001B497B
:101700000968D1F8A410884207D218480068D0F8B8
:10171000A40016490968C1F8A8000020288013E039
:101720001CB112480068006C206046F2A9102880A5
:101730000AE00CB10020206047F2D920288003E0A5
:1017400046F62E60288000BF00BF08480068476C3E
:1017500000BFFEF7F9FF00BF4846FEF787FD00BF58
:1017600000BF3846EEE60000940000203C01002057
:10177000E40000202DE9F04705460E4617461C46BA
:101780004FF0000A32480078002804DD47F2591073
:101790002080BDE8F0871EB946F2D5202080F8E70A
:1017A0001FB946F2D5202080F3E700BF00BFFEF747
:1017B00059FD824600BFFEF7ADFF00BF0DB92548B9
:1017C0000568286878B900BFFEF7BEFF00BF504625
:1017D000FEF74CFD00BF00BF00203060386047F2CC
:1017E00052102080D5E795F83C0000F0010078B950
:1017F00000BFFEF7A9FF00BF5046FEF737FD00BF50
:1018000000BF00203060386047F254102080C0E7ED
:1018100000BFFEF799FF00BF5046FEF727FD00BF4F
:1018200000BF4FF00008D5F8249003E009F1040947
:1018300008F10108D9F800000028F7D0C6F80080A8
:10184000A86BA0EB080038600020208000BFA0E754
:10185000940000203C010020F0B50446DDE9055667
:1018600002EB85004FF0807C071F3846C7F800C0A8
:10187000071F38463C60DFF89CC0071F3846C7F892
:1018800000C04FF0123C071F3846C7F800C04FF0A9
:10189000033C071F3846C7F800C04FF0023C071F43
:1018A0003846C7F800C0071F38463B60071F384658
:1018B00039604FF0113C071F3846C7F800C04FF0A1
:1018C000103C071F3846C7F800C04FF0093C071FFF
:1018D0003846C7F800C04FF0083C071F3846C7F825
:1018E00000C04FF0073C071F3846C7F800C04FF054
:1018F000063C071F3846C7F800C04FF0053C071FDD
:101900003846C7F800C04FF0043C071F3846C7F8F8
:1019100000C0F0BD653D000870B52448006810B1F6
:10192000224800688047FEF739FF044620480068D7
:1019300020490968884215D01D480068D0F89800F1
:10194000201A1B490968C1F8940019480068D0F8AA
:101950009C0017490968D1F8941008441449096893
:10196000C1F89C0013480068C0F89840FEF7A6FE36
:1019700005460F480068D0F8B400A84203D20C48CE
:101980000068C0F8B4500A480068D0F8B8000A49A6
:101990000968884205D20848006805490968C1F805
:1019A000B80000200449086070BD000088000020D5
:1019B0003C01002040010020E00000202DE9F04122
:1019C00005460E46144600274D480078002804DDE1
:1019D00047F275202080BDE8F0814A480078002851
:1019E00003DD46F663502080F5E736B1022E05D0C0
:1019F000042E0AD0082E09D101E000BF00BF1DB996
:101A000047F27E202080E6E704E003E045F625600B
:101A10002080E0E700BF00BF00BF00BFFEF722FC50
:101A2000074600BFFEF776FE00BF36480078401C30
:101A30003449087008460078012801D101F006FBFE
:101A400000BFFEF781FE00BF3846FEF70FFC00BF67
:101A500000BF00BF01202C49096881F836002346E9
:101A6000324629462848006802F038FD2088F0B147
:101A700000BF00BF00BFFEF7F5FB074600BFFEF743
:101A800049FE00BF1F480078401E1E4908700846E6
:101A9000007808B901F0E8FA00BFFEF755FE00BF74
:101AA0003846FEF7E3FB00BF00BF00BF93E71648D0
:101AB000006801F06FFA00BF00BF00BFFEF7D2FB65
:101AC000074600BFFEF726FE00BF0E480078401E06
:101AD0000C4908700846007808B901F0C5FA00BF43
:101AE000FEF732FE00BF3846FEF7C0FB00BF00BF66
:101AF00000BFFFF7D1F80020208000BF6BE7000097
:101B000094000020E40000203C0100202DE9FF5F4C
:101B100005460E4617469846DDE90EA400200090C3
:101B200081480078002804DD47F275202080BDE858
:101B3000FF9F7E480078002803DD46F66350208032
:101B4000F5E70AF00E0BBBF1000F09D0BBF1020F55
:101B500007D0BBF1040F10D0BBF1080F0ED101E08C
:101B600000BF00BFB8F1000F06D12FB926B91DB9CB
:101B700047F27E202080DAE704E003E045F62560A6
:101B80002080D4E700BF2AF01E0008B1012000E049
:101B9000002003900398012803D145F6256020809A
:101BA000C5E7CAF3001002900298C0B9B8F57A7F71
:101BB00003D347F27B202080B9E73B2F03DD47F2B8
:101BC0007A202080B3E73B2E03DD47F27920208086
:101BD000ADE7632D12DD47F278202080A7E742F2BF
:101BE0000F70864203DD47F2792020809FE7B5F52C
:101BF0007A7F03DB47F27820208098E74C48D0F8C2
:101C000000904FF4FA70B0FBF9F0404400FB09F08B
:101C10004FF47A71B0FBF1F14FF461606843C6EBA9
:101C2000061200EB8200384400FB09100190019875
:101C3000002873D000BF00BF00BFFEF713FB009069
:101C400000BFFEF767FD00BF38480078401C3749E9
:101C5000087008460078012801D101F0F7F900BFAB
:101C6000FEF772FD00BF0098FEF700FB00BF00BF4B
:101C700000BF01202F49096881F8360023465A46E3
:101C80002C480199006802F029FC2088F0B100BFBF
:101C900000BF00BFFEF7E6FA009000BFFEF73AFD76
:101CA00000BF22480078401E20490870084600788E
:101CB00008B901F0D9F900BFFEF746FD00BF009852
:101CC000FEF7D4FA00BF00BF00BF30E71948006834
:101CD00001F060F900BF00BF00BFFEF7C3FA00903B
:101CE00000BFFEF717FD00BF10480078401E0F49E7
:101CF00008700846007808B901F0B6F900BFFEF791
:101D000023FD00BF0098FEF7B1FA00BF00BF00BF7F
:101D1000FEF7C2FF0020208003E0FFE747F27E20AD
:101D2000208000BF03E7000094000020E4000020B2
:101D3000405700083C01002010B586B000F01EF8A6
:101D4000FEF72CFD044605A800210091CDE9011401
:101D500003900748007800EB4000064A02EB800140
:101D600000231A46044800F0C1FA06B010BD000076
:101D7000CA000020D4C500205449434B10B5034885
:101D8000006810B101480068804710BD8C00002039
:101D9000254A2649264A274A2749284A2848294ABF
:101DA000294A2A4A2A4A2B482B482C482C4A2D4893
:101DB0002D4A2E482E4A2F482F4830483048314A65
:101DC000314A324A3248334A334A34483448354833
:101DD0003548364836483748374A384A384A394A03
:101DE00039483A483A483B4A3B4A3C4A3C483D48D5
:101DF0003D483E493E483F4A3F4A404A404A414AA0
:101E0000414A424A4248434A434A44484448454A70
:101E1000454A4648464A474A47484848484800BF16
:101E200000BF00BF7047000084570008EC5800084E
:101E30008557000886570008885700088C57000807
:101E4000905700088D570008B8570008B957000888
:101E5000BA570008BC570008BE570008C057000812
:101E6000C2570008C4570008E4570008E6570008A6
:101E7000E8570008EA570008EC570008EE5700083A
:101E8000F05700081C5800081D5800081E5800088C
:101E90002058000822580008235800082458000839
:101EA00026580008285800082A5800082C5800080E
:101EB0002E58000830580008605800086158000883
:101EC0006258000863580008645800086658000803
:101ED0006858000890580008915800089258000867
:101EE000935800089458000896580008985800081D
:101EF0009C5800089D5800089E5800089F580008EC
:101F0000A0580008A1580008A2580008A3580008CB
:101F1000A4580008A6580008A7580008A8580008A8
:101F2000AA580008AC580008AD580008B05800087E
:101F3000E4580008E5580008E6580008E85800088A
:101F4000EA5800080021034A1160034A1180018009
:101F500070470000B4000020B80000202DE9F04FC9
:101F600085B00446894692469B46DDF838800020BD
:101F7000009000BF00BFFEF775F9009000BFFEF7AC
:101F8000C9FB00BFBAF1000F0AD0BAF1010F0DD0A2
:101F9000BAF5004F05D06FF40040504460B906E038
:101FA00000BF206A40EA0900206216E000BF206AF4
:101FB00020EA0900206210E000BFFEF7C5FB00BF69
:101FC0000098FEF753F900BF00BF45F62560A8F85A
:101FD0000000002005B0BDE8F08F00BFC4F824B0B9
:101FE00004F1080001900198008968B900BFFEF76C
:101FF000ABFB00BF0098FEF739F900BF00BF00201F
:10200000A8F80000206AE5E700BF71480078401C8E
:102010006F49087008460078012801D101F016F8D0
:1020200000BFFEF791FB00BF0098FEF71FF900BF4D
:1020300000BF00BF01980768BD6889E0786802901A
:1020400095F8880000F00F0003900398012821D034
:1020500002282ED0042802D0082836D10EE0206AAB
:10206000D5F8801000EA0106D5F88000B04204D10E
:102070005A463146284600F0AFF863E0206AD5F8AA
:10208000801000EA010626B15A463146284600F083
:10209000A3F857E0D5F88000216A20EA0106D5F8B8
:1020A0008000B04204D15A463146284600F094F8E8
:1020B00048E0D5F88000216A20EA010626B15A4698
:1020C0003146284600F088F83CE000BF00BF00BF62
:1020D000FEF7C8F8009000BFFEF71CFB00BF3C48AD
:1020E0000078401E3A49087008460078D0B900F0E0
:1020F000BBFF3848008800280BDD00BFFEF724FB3B
:1021000000BF0098FEF7B2F800BF00BF00F070FFFC
:1021100011E000BFFEF718FB00BF0098FEF7A6F81D
:1021200000BF08E000BFFEF70FFB00BF0098FEF7FE
:102130009DF800BF00BF00BF43F6FF20A8F80000D5
:10214000002047E700BF029F0FB1BD6800E00025F7
:10215000002D7FF473AF00BF00BF00BFFEF782F811
:10216000009000BFFEF7D6FA00BF19480078401E65
:10217000174908700846007808B900F075FF00BFDD
:10218000FEF7E2FA00BF0098FEF770F800BF00BF4C
:1021900000BF0AF4004008B9FEF77EFD00BF00BF93
:1021A000FEF760F8009000BFFEF7B4FA00BF206AA7
:1021B000049000BFFEF7C8FA00BF0098FEF756F87B
:1021C00000BF00BF0020A8F80000049802E700004C
:1021D000E4000020A800002070B504460E46154615
:1021E00034342665002060702070E560A078343CAF
:1021F000082816D2DFE800F00405080907061011C8
:1022000000BF00BF00BF0DE000BF204601F0DEFCB4
:10221000002084F8360005E000BF042084F8360072
:1022200000E000BF00BF204600F069FC70BD000068
:10223000002400BF1DE000BF00BFFEF713F80446F6
:1022400000BFFEF767FA00BF0A480068401C094952
:10225000086009480068401C0749086000BFFEF795
:1022600073FA00BF2046FEF701F800BF00BFFEF77B
:102270009FFBE0E790000020FC00002010B58AB032
:10228000044600200E4908600B2000210591CDE98D
:102290000704069108460B4909680B4A12680B4B64
:1022A0001B68CDE90132CDE903101F200023084A45
:1022B00008A100900C48FEF7C3FE0AB010BD000054
:1022C00090000020E8560008E4560008E056000898
:1022D0003122000875432F4F532D49494920496445
:1022E0006C65205461736B0038C400202DE9F84FF1
:1022F00004460D4616461F46DDE90BABDDF8289077
:10230000DDF834800020009000BF00BFFDF7AAFF79
:10231000009000BFFEF7FEF900BF2C4800882C4952
:10232000098888423EDA29480088401C27490880ED
:10233000284800880988884203DA2448008825490B
:1023400008802548006804602348006885602248AA
:102350000068C6602048006807821F480068C0F80F
:1023600014901D480068A0F818A01B480068C0F829
:102370001CB01948006840681749086001201749D7
:102380000881174808604860002000F087FC154865
:10239000007818B113480078134908700020A8F895
:1023A000000008E011480088401C1049088044F2F1
:1023B0005360A8F8000000BFFEF7C6F900BF009800
:1023C000FDF754FF00BF00BFBDE8F88FA800002054
:1023D000F4560008AA000020A0000020D4C5002068
:1023E00000C50020CA000020CC000020AC00002066
:1023F0003EB5594800680068584A811A904279D021
:102400000FDC5749084400283ED056490844A8B17B
:1024100055490844002860D05449084400286AD12E
:102420003FE053480844002850D05249084400284F
:1024300062D0514908440028F1D110E002A8464D6D
:1024400000902D68EB69444D2D682A8B424D2D6814
:102450006969414D2D68A868FFF780FD7AE002A9FF
:102460003D480068C0693C4DCDE900012D682B8BCB
:10247000394D2D682A8A384D2D68E968364D2D680A
:10248000A86800F03BFC65E0334B1B68DA69324B0F
:102490001B68198B304B1B68986802AB00F084FEF8
:1024A00058E002A92C480068C0692B4DCDE9000115
:1024B0002D682B8B284D2D682A8A274D2D68E968B9
:1024C000254D2D68A86801F04BFA43E022490968C0
:1024D000886802A901F088FB3CE01F4B1B68DA69A1
:1024E0001D4B1B68198B1C4B1B68986802AB01F0D5
:1024F00045FC2FE007E02CE017490968886802A92D
:1025000001F010FF26E01D49097801EB41011C4A4A
:1025100002EB810000F0C6FD0F48006802AB00210D
:10252000C269184801F02AFC17480068401E164985
:1025300008600846006858B9144800680860FEF74B
:102540002DF9044602AB22460021114801F016FC89
:1025500000E000BF00BF3EBDA40000205449434B33
:10256000ADBAB2BE0DF90BFAF2F8F7FF0006F6FFAE
:1025700000F7FDF700FFEFFF03FE0FFECC00002089
:10258000D4C500201CC800203801002034010020E0
:10259000E4C80020002700BF56E0002652E000BF3C
:1025A00000BFFDF75FFE074600BFFEF7B3F800BFB0
:1025B0002648008898B900202549088108604860AD
:1025C00000F07EFB00BFFEF7BFF800BF3846FDF706
:1025D0004DFE00BF00BFFEF75FFB012632E000BFEB
:1025E000FEF7B2F800BF3846FDF740FE00BF00BF5F
:1025F000FEF7D4F80546FFF7FBFEFEF7CFF8441BC5
:1026000014480068A04201D21248046000BF00BF15
:10261000FDF728FE074600BFFEF77CF800BF0E4816
:10262000006840680C49086008480088401E074957
:10263000088000BFFEF788F800BF3846FDF716FE99
:1026400000BF00BF002EAAD0A7E70000A80000200E
:10265000D4C50020B0000020A4000020F0B589B04F
:1026600005460020314908803148006820B944F20D
:102670005260288009B0F0BD2E480088022803DA95
:1026800044F254602880F5E700202B490860284870
:1026900004682646203600270CE0284820600020E9
:1026A000A060E06020826061208366602034203674
:1026B000781C87B21F4800888742EEDB203C1C480C
:1026C000066866601E4806601E48066000201E49B7
:1026D00008801E4908801E48006818B944F25560F9
:1026E0002880C7E71B4800681B490968884203D255
:1026F00044F256602880BDE7032000210591CDE912
:102700000705069113480068144A1268104B1B68AD
:10271000CDE90301CDE9013200910B46104A11A128
:102720001748FEF78DFC00BFA4E70000AC000020B6
:10273000F0560008F4560008B00000204E4F4E45F9
:10274000A0000020A4000020A8000020AA00002073
:10275000FC560008045700083C57000800570008C2
:102760009525000875432F4F532D4949492049535A
:1027700052205175657565205461736B000000002F
:1027800000C500200021034A1160034A1180018026
:1027900070470000BC000020C000002070B501465A
:1027A0001A4D2D681DB945F21E750D8070BD184D6E
:1027B0002D881DB945F21D750D80F7E7134D28686A
:1027C0002A681032124D2D886D1EACB2002308E02D
:1027D0000260002545600581C560103010325D1C27
:1027E000ABB2A342F4DB0025056045600581C560FE
:1027F000064D2D68074E3560054D2D88B5800025A6
:10280000F58035810D8000BFD0E70000205700081B
:1028100018570008C8C5002010B5014648894B89E3
:10282000002B17DD0A680C4B1B6813600A4C4B68C1
:1028300023602346DB884C891B1B074CE38023461F
:102840009B884C892344044CA38000234B818B81BB
:102850000B604B6010BD0000C8C500200181002244
:102860004281828102604260704700002DE9F041A0
:102870000D46DDE90674B0F80AC0B0F80880C4451A
:1028800005DB46F2935CA4F800C0BDE8F081DFF8F8
:10289000DCC0BCF804C0BCF1000F04D145F21D7CC3
:1028A000A4F800C0F1E7DFF8C4C0DCF80010DFF8DE
:1028B000BC80D1F800C0C8F800C0C446BCF804C051
:1028C000ACF1010CA8F804C0C446BCF806C00CF179
:1028D000010CA8F806C0C446BCF808C0B8F80680C9
:1028E000C44507DADFF884C0BCF806C0DFF87C8096
:1028F000A8F808C0B0F80AC0BCF1000F0AD1016006
:1029000041604FF0010CA0F80AC04FF0000CC1F874
:1029100000C017E003F0100CBCF1000F07D10668EF
:10292000316001604FF0000CC1F800C004E0D0F845
:1029300004C0C1F800C04160B0F80AC00CF1010C3D
:10294000A0F80AC0B0F80CC0B0F80A80C44503DA99
:10295000B0F80AC0A0F80CC04D600A81CF604FF0FB
:10296000000CA4F800C000BF8FE70000C8C500201D
:102970000021034A1160034A118001807047000062
:10298000C4000020C80000202DE9F04105460C4697
:1029900016461F461548006880F834600020134929
:1029A000096881F8350039461048006800F00AFFD0
:1029B0006CB104F10808EC60012229460B4800685C
:1029C00000F016F82946404600F066F806E00020C0
:1029D00006490968C887054909680863034801680A
:1029E000204600F019F8BDE8F08100003C0100200D
:1029F00010B5C287016300230AE000244C600C601C
:102A00000C614C610C83CC61886020315C1CA3B2EA
:102A10009342F2DB10BD000030B548B14568C1F803
:102A2000C45000F10804226893681D6AC56113E070
:102A300091F83450022D02D0072D08D103E007A5EC
:102A4000C1F8C45007E007A5C1F8C45003E008A5C9
:102A5000C1F8C45000BF00BF30BD00005461736BAB
:102A6000205100005461736B2053656D000000001D
:102A70002000000030B507A5C1F8C45000F10804DB
:102A800022681AB193681D6AC56101E001A5C5619C
:102A900030BD000020000000F0B58E6896F8375079
:102AA00007893FB90127078100274F600F60016048
:102AB000416023E007897F1C0781026806E0946873
:102AC00094F83770AF4200DD02E05268002AF6D178
:102AD00000BF32B900274F6043680B605960416006
:102AE0000CE017682FB9116000270F604A60016081
:102AF00004E013680B604A6059601160F0BD2DE975
:102B0000F0410446256BE68F0AE0D5F80C8008F109
:102B100008072946384600F00AF82035701E86B2AC
:102B2000002EF2DC0020E0872063BDE8F08110B5C4
:102B30000489012C03D100240460446011E00C6876
:102B400024B94A680024146002600AE04C6824B981
:102B50000B6800245C60436003E00B684A685A60BD
:102B600013600489641E048100244C600C6010BD55
:102B70002DE9F84306460C4617469846089D94F8FA
:102B80003600082850D2DFE800F0040508090607DF
:102B90002B2C00BF00BF00BF47E000BF94F83400FB
:102BA000032807D143463A4621463046009500F0B7
:102BB0003FF803E0E765A4F86080256436B120465D
:102BC000FFF79DFF21463046FFF754FF204600F0F7
:102BD000FDFF00203434A070607004F8340924E054
:102BE00000BF94F83400032807D143463A462146F3
:102BF0003046009500F01CF803E0E765A4F860801B
:102C00002564204601F048FD36B12046FFF777FFE6
:102C100021463046FFF72EFF04203434A0700020F8
:102C2000607004F8340900E000BF00BFBDE8F8831D
:102C3000F0B50446059E086BCD8F0AE0C768A74231
:102C400004D1046142610383C66104E020306F1E39
:102C5000BDB2002DF2DC00BFF0BD000070B5002554
:102C6000074C03E005F12000C5B2241D20680028B0
:102C7000F8D02068FDF701FB2844C5B2284670BD96
:102C800070000020002004E00021034A42F82010D8
:102C9000401C0028F8D070477000002030B5420971
:102CA00000F01F030121C3F11F04A140034C54F89D
:102CB00022400C43014D45F8224030BD70000020F9
:102CC00030B5420900F01F030121C3F11F04A140E8
:102CD000034C54F822408C43014D45F8224030BD4E
:102CE000700000200021034A1160034A1180018016
:102CF00070470000D0000020D40000202DE9F04FE4
:102D000085B007468A4693461C460020029000BFC5
:102D100000BF00BFFDF7A6FA029000BFFDF7FAFC66
:102D200000BF56480078401C544908700846007897
:102D3000012801D100F08AF900BFFDF705FD00BFB1
:102D40000298FDF793FA00BF00BF00BF07F1080625
:102D5000308900284CD104F0100010B94FF0000861
:102D600001E04FF01008DDE90E0143465A46CDE977
:102D70000001514607F12000FFF778FD00BF00BFBA
:102D800000BFFDF76FFA029000BFFDF7C3FC00BF64
:102D90003A480078401E3949087008460078D0B992
:102DA00000F062F93648008800280BDD00BFFDF70F
:102DB000CBFC00BF0298FDF759FA00BF00BF00F03E
:102DC00017F911E000BFFDF7BFFC00BF0298FDF747
:102DD0004DFA00BF08E000BFFDF7B6FC00BF029847
:102DE000FDF744FA00BF00BF00BF05B0BDE8F08F9B
:102DF00004F4007008B1358900E00125D6F8009090
:102E000011E0D9F808000390D9F8040004900E9856
:102E10005B465246009038460399FFF7A9FEDDF85D
:102E20001090681E85B2002DEBD100BF00BF00BF1F
:102E3000FDF718FA029000BFFDF76CFC00BF0F48C9
:102E40000078401E0D4908700846007808B900F067
:102E50000BF900BFFDF778FC00BF0298FDF706FAFA
:102E600000BF00BF00BF04F4004008B9FDF714FF25
:102E700000210F98018000BFB7E70000E4000020A8
:102E8000A800002000210AE001EB4102054B03EB02
:102E9000820000220281026042604A1CD1B22029D5
:102EA000F2D37047D4C5002010B5044694F837001B
:102EB000FFF7F4FE94F8370005490978884203D1FA
:102EC000204600F027F802E0204600F003F810BD8D
:102ED000CA00002010B590F8373003EB43030C4CC8
:102EE00004EB83010B893BB901230B810023C360F1
:102EF00003610860486009E00B895B1C0B810B686B
:102F0000C360002303610A681061086010BD0000FF
:102F1000D4C5002010B590F8373003EB43030B4CB9
:102F200004EB83010B893BB901230B810023C360B0
:102F300003610860486008E00B895B1C0B8100237B
:102F4000C3604A680261D060486010BDD4C50020EB
:102F500010B501460C8924B1012C03D0022C0CD1F0
:102F600001E000BF14E008684A6802610024C46000
:102F70001461D0600A6048600AE008684A68C36863
:102F800000241C61C4600261D0600B60486000BF17
:102F900000BF10BD2DE9F041054695F8370000EB64
:102FA0004000124901EB80042F69EE6887B946B9E9
:102FB000002020812060606095F83700FFF780FED8
:102FC0000EE02089401E208100203061266007E04D
:102FD0002089401E2081FE600EB9676000E03761E5
:102FE00000202861E860BDE8F0810000D4C5002021
:102FF00010B5002400BFFDF735F9044600BF0020DE
:103000000D4908700D480E49086008460068D0F860
:103010009000401C0968C1F890000A480068401CF4
:10302000084908604FF080500749086000BF2046FB
:10303000FDF71CF900BF10BDCB00002000C500202B
:10304000400100201001002004ED00E010B504480C
:103050000078012803D1FDF7A1FB0249086010BDEB
:10306000E4000020D800002010B50A48007880B99C
:10307000FDF794FB08490968441A08480068A04213
:1030800001D20648046006480068A04201D2044804
:10309000046010BDE4000020D8000020DC00002007
:1030A000E000002070B5054600263548007801286C
:1030B00000D070BD00BF00BFFDF7D4F8064600BFCA
:1030C000FDF728FB00BF2C684CB900BFFDF73CFBA7
:1030D00000BF3046FDF7CAF800BF00BFE9E7294846
:1030E000844209D100BFFDF72FFB00BF3046FDF73A
:1030F000BDF800BF00BFDCE7A06D10B1A06D401EA1
:10310000A065A06D48B100BFFDF71EFB00BF3046B3
:10311000FDF7ACF800BF00BFCBE72889022809DA29
:1031200000BFFDF711FB00BF3046FDF79FF800BF61
:1031300000BFBEE714480078002809DD00BFFDF796
:1031400003FB00BF3046FDF791F800BF00BFB0E7BA
:103150002846FFF7FDFE2C68606D18B90B48006823
:10316000A06501E0606DA06500BFFDF7EDFA00BF4E
:103170003046FDF77BF800BF00BF00BF99E70000B5
:10318000EC00002038C40020E4000020E80000200B
:103190000021034A1160034A11800180704700003A
:1031A000F0000020F40000202DE9FF5F044688466F
:1031B00091461D460020019000BF00BFFDF752F868
:1031C000019000BFFDF7A6FA00BF04F10807388997
:1031D000002857D10420012804D0022816D0042842
:1031E0003AD127E0206AFF280FD100BFFDF7ACFAE3
:1031F00000BF0198FDF73AF800BF00BF46F6C55082
:103200002880002004B0BDE8F09F26E04FF6FF7153
:10321000206A88420DD100BFFDF796FA00BF0198E1
:10322000FDF724F800BF00BF46F6C55028800020F7
:10323000E8E712E0206A401C68B900BFFDF784FA95
:1032400000BF0198FDF712F800BF00BF46F6C55059
:1032500028800020D6E700E000BF00BF206A401CA5
:103260002062D4F820A0C4F8249000BFFDF76CFAC7
:1032700000BF0198FCF7FAFF00BF00BF00202880C4
:103280005046BFE700BF2D480078401C2B4908700E
:1032900008460078012801D1FFF7D8FE00BFFDF7EE
:1032A00053FA00BF0198FCF7E1FF00BF00BF00BF69
:1032B00008F4007008B13E8900E00126D7F800B09C
:1032C00011E0DBF808000290DBF804000390002313
:1032D0001A46CDF8009020460299FFF749FCDDF828
:1032E0000CB0701E86B2002EEBD1D4F820A000BF27
:1032F00000BF00BFFCF7B6FF019000BFFDF70AFA60
:1033000000BF0E480078401E0C490870084600783F
:1033100008B9FFF7A9FE00BFFDF716FA00BF019834
:10332000FCF7A4FF00BF00BF00BF08F4004008B9CD
:10333000FDF7B2FC00202880504663E7E40000203F
:1033400086B00020009000BF06E0D9490968480017
:1033500001AA0021FEF732FBD64800780128F4D1FB
:1033600001A8FDF7AFFD0027D3480068D0490968E0
:10337000884205D9D0480068CD490968B0FBF1F70B
:1033800027B9CD4800680A21B0FBF1F78EE1FDF7BF
:1033900005FA8246FDF7A8F9C849086000BF00BFDA
:1033A000FCF760FF009000BFFDF7B4F900BFC44810
:1033B0000068C44908600020C149086000BFFDF7EB
:1033C000C3F900BF0098FCF751FF00BF00BFBE4823
:1033D0000068BC490968884248D9BB480068BB49B5
:1033E000884205D242F2107003900120029023E03F
:1033F000B5480068B649884205D24FF47A70039008
:103400000A20029018E0B0480068B249884203D20E
:103410006420039002900FE0AB480068AE498842F8
:1034200005D20A2003904FF47A70029004E0012044
:10343000039042F210700290A34801680298B1FB19
:10344000F0F9A049039809684843B0FBF9F042F24B
:103450001071081AA1490880A1480088098888428B
:1034600008DA9E4800889E49088003E042F2107006
:103470009A490880FDF7DAFD002500BF00BFFCF780
:10348000F1FE009000BFFDF745F900BF95480468C4
:1034900000BFFDF759F900BF0098FCF7E7FE00BF39
:1034A00000BF72E000BF00BF00BFFCF7DBFE009072
:1034B00000BFFDF72FF900BF8B480078401C8A49F8
:1034C000087008460078012801D1FFF7BFFD00BF52
:1034D000FDF73AF900BF0098FCF7C8FE00BF00BF37
:1034E00000BF54F89C0F6060002044F89C0900BFA6
:1034F00000BF00BFFCF7B6FE009000BFFDF70AF961
:1035000000BF79480078401E774908700846007867
:10351000D0B9FFF7A9FD7548008800280BDD00BF72
:10352000FDF712F900BF0098FCF7A0FE00BF00BF36
:10353000FFF75EFD11E000BFFDF706F900BF009840
:10354000FCF794FE00BF08E000BFFDF7FDF800BFE8
:103550000098FCF78BFE00BF00BF00BFD4F8A000AE
:10356000054400BF00BFFCF77DFE009000BFFDF7E3
:10357000D1F800BFD4F8C04000BFFDF7E5F800BFA8
:103580000098FCF773FE00BF00BF002C8AD145B342
:103590004E48854205D242F2107005904FF0010B63
:1035A0001BE04B48854205D24FF47A7005904FF0EE
:1035B0000A0B12E04748854203D2642005908346F7
:1035C0000BE04548854204D20A2005904FF47A7BEF
:1035D00003E00120059042F2107BB5FBFBF0049064
:1035E00003E0002005900120049000BF00BFFCF71D
:1035F00039FE009000BFFDF78DF800BF3948046820
:1036000000BFFDF7A1F800BF0098FCF72FFE00BF38
:1036100000BF2FE0D4F8A000059948430499B0FBFF
:10362000F1F086B242F21070864200D90646A4F844
:103630008C60B4F88E00B04201DAA4F88E6001AB61
:1036400004F1AC02111D2046FEF794F800BF00BF44
:10365000FCF708FE009000BFFDF75CF800BFD4F84F
:10366000C04000BFFDF770F800BF0098FCF7FEFDFA
:1036700000BF00BF002CCDD11D480078012805D126
:1036800000201B49087001A8FDF71CFCFDF786F817
:10369000A0EB0A0817480068404502D21548C0F858
:1036A000008001AA00213846FEF788F96FE6000085
:1036B0002857000808010020405700089800002003
:1036C000FC0000200401002000010020801A0600F8
:1036D00000093D00005A62020084D717F80000205C
:1036E000FA00002014010020E4000020A8000020BF
:1036F000F60000200C01002010B58AB0044600201E
:103700001F4908601F4908601F4908601F49087069
:103710001F4908701F48006820B946F62B602080BA
:103720000AB010BD1C4800681C490968884203D2D1
:1037300046F62C602080F3E7194800781F2803D351
:1037400046F62A602080EBE7032000210591CDE9B1
:1037500007040691084610490968124A12680D4B81
:103760001B68CDE90132CDE903100D480078002334
:103770000D4A0EA100901248FDF762FC00BFCFE792
:10378000FC000020040100200001002008010020AE
:10379000F60000202C570008345700083C5700085A
:1037A00024570008305700084133000875432F4F55
:1037B000532D4949492053746174205461736B003F
:1037C00054C7002038B504460D4685B16B46022229
:1037D0002946204600F082FEBDF8000018B90320FB
:1037E00084F8360006E0022084F8360002E0022069
:1037F00084F836002046FFF7CDFB38BD0021C0F825
:10380000BC100949096819B90021C0F8C01007E0C7
:1038100005490968C0F8C01003490968C1F8BC002F
:10382000014908607047000014010020D0F8BC2056
:10383000D0F8C0104AB90D4B196011B10023C1F87E
:10384000BC300023C0F8C0300FE029B90023C2F813
:10385000C030C0F8BC3008E0C2F8C010C1F8BC20CD
:103860000023C0F8C030C0F8BC30704714010020FD
:103870000021044A1160044A1180044A1160018049
:1038800070470000140100201801002010010020E2
:1038900070B5044600202060A0606060E060206198
:1038A0006061A061E0612BA0206200206062A062E4
:1038B000E0622063E0872064E065A4F860000021F6
:1038C00004F16400FEF7CAFF002044F8740F606042
:1038D000E060A0822061743C002506E0002104F134
:1038E0007C0040F82510681CC5B2002DF6D00020E1
:1038F0003434206120676067606084F85600E067B8
:10390000A06720814FF0004060610020A061E0616D
:1039100020626062A4F85800A4F85A00E0652066AE
:10392000FCF73CFF064666660020A066C4F88000EF
:10393000C4F8840020706070A0702020E070002027
:10394000C4F88800C4F88C0004A0C4F89000343C8B
:1039500070BD00003F5461736B0000002000000048
:103960002DE9FC4704460F4690469946DDE90A6575
:103970004FF0000A00BF00BF00BFFCF773FC824697
:1039800000BFFCF7C7FE00BF8D480078401C8C4983
:10399000087008460078012801D1FFF757FB00BFE7
:1039A000FCF7D2FE00BF5046FCF760FC00BF00BF32
:1039B00000BF0CB9834804680020288094F83600C2
:1039C00008287CD2DFE800F00405484906074A4B86
:1039D00000BF00BF00BF4B464246394604F16400B9
:1039E000CDE90065FEF742FF00BF00BF00BFFCF756
:1039F00039FC824600BFFCF78DFE00BF704800789E
:103A0000401E6F49087008460078D0B9FFF72CFBBC
:103A10006D48008800280BDD00BFFCF795FE00BF55
:103A20005046FCF723FC00BF00BFFFF7E1FA11E0AE
:103A300000BFFCF789FE00BF5046FCF717FC00BF33
:103A400008E000BFFCF780FE00BF5046FCF70EFC0C
:103A500000BF00BF00BFAFE000BF00BF00BF94F8D1
:103A6000340002282CD143463A46214600200096D5
:103A7000FFF77EF800BF00BF00BFFCF7F3FB8246F4
:103A800000BFFCF747FE00BF4D480078401E4C4980
:103A900008700846007808B9FFF7E6FA00BFFCF79F
:103AA00053FE00BF5046FCF7E1FB00BF00BF00BF64
:103AB00009F40040002843D1FDF7EEF840E040E073
:103AC0004B464246394604F16400CDE90065FEF7F5
:103AD000CDFE00BF00BF00BFFCF7C4FB824600BFA5
:103AE000FCF718FE00BF36480078401E34490870C5
:103AF00008460078D0B9FFF7B7FA334800880028A5
:103B00000BDD00BFFCF720FE00BF5046FCF7AEFB0C
:103B100000BF00BFFFF76CFA11E000BFFCF714FE16
:103B200000BF5046FCF7A2FB00BF08E000BFFCF757
:103B30000BFE00BF5046FCF799FB00BF00BF00BF63
:103B40003AE000BF00BF00BFFCF78CFB824600BF1D
:103B5000FCF7E0FD00BF1A480078401E18490870C5
:103B600008460078D0B9FFF77FFA17480088002888
:103B70000BDD00BFFCF7E8FD00BF5046FCF776FB0D
:103B800000BF00BFFFF734FA11E000BFFCF7DCFD17
:103B900000BF5046FCF76AFB00BF08E000BFFCF71F
:103BA000D3FD00BF5046FCF761FB00BF00BF00BF64
:103BB00046F62D60288000BF00BFBDE8FC870000EE
:103BC000E40000203C010020A800002010B50446BD
:103BD000204600F061FD94F8360000F0040010B9B2
:103BE0002046FFF761F910BD70B504460D4600266A
:103BF00000BF00BFFCF736FB064600BFFCF78AFD9E
:103C000000BF0020288094F8360008287ED2DFE824
:103C100000F00405060714566A8000BF00BF00BF0D
:103C200000BFFCF791FD00BF3046FCF71FFB00BF53
:103C300000BF47F2531028808CE000BF484800784E
:103C4000401C4749087008460078012801D1FFF759
:103C5000FDF900BFFCF778FD00BF3046FCF706FB1E
:103C600000BF00BF00BF14F88A0F401E207014F878
:103C70008A0928B9002084F836002046FFF7A6FFFD
:103C800000BF00BF00BFFCF7EDFA064600BFFCF71F
:103C900041FD00BF32480078401E31490870084697
:103CA000007808B9FFF7E0F900BFFCF74DFD00BF51
:103CB0003046FCF7DBFA00BF00BF00BF4AE014F853
:103CC0008A0F401E207014F88A0910B9012084F868
:103CD000360000BFFCF738FD00BF3046FCF7C6FADF
:103CE00000BF00BF36E014F88A0F401E207014F8A1
:103CF0008A0910B9022084F8360000BFFCF724FDC1
:103D000000BF3046FCF7B2FA00BF00E015E000BF8C
:103D100020E014F88A0F401E207014F88A0910B9A8
:103D2000032084F8360000BFFCF70EFD00BF3046CC
:103D3000FCF79CFA00BF00BF0CE000BFFCF704FDDD
:103D400000BF3046FCF792FA00BF00BF46F62D6078
:103D5000288070BD00BFFCF79FFF00BFF9E700009F
:103D6000E400002008B504480068FDF7CFFB694671
:103D70000020FDF7BBFA08BD3C0100202DE9F84307
:103D80000446884617461D464FF0000900BF00BF95
:103D900000BFFCF767FA814600BFFCF7BBFC00BF21
:103DA000FB480078401CFA49087008460078012852
:103DB00001D1FFF74BF900BFFCF7C6FC00BF484636
:103DC000FCF754FA00BF00BF00BF0CB9F14804680B
:103DD00027640020288094F8360008287AD2DFE88B
:103DE00000F00405FEFD0607FCFB00BF00BF00BF9E
:103DF0000420012804D0022843D004286BD184E099
:103E0000606CFF283CD100BF00BF00BFFCF72AFA5E
:103E1000814600BFFCF77EFC00BFDD480078401EF5
:103E2000DB49087008460078D0B9FFF71DF9DA4879
:103E3000008800280BDD00BFFCF786FC00BF484669
:103E4000FCF714FA00BF00BFFFF7D2F811E000BF83
:103E5000FCF77AFC00BF4846FCF708FA00BF08E010
:103E600000BFFCF771FC00BF4846FCF7FFF900BF3C
:103E700000BF00BF46F6C55028800020BDE8F8838B
:103E800085E04FF6FF71606C88423DD100BF00BFF6
:103E900000BFFCF7E7F9814600BFFCF73BFC00BF21
:103EA000BB480078401EBA49087008460078E0B95F
:103EB000FFF7DAF8B848008800280DDD00BFFCF7EE
:103EC00043FC00BF4846FCF7D1F900BF00BFFFF735
:103ED0008FF813E0E2E159E000BFFCF735FC00BFCA
:103EE0004846FCF7C3F900BF08E000BFFCF72CFC14
:103EF00000BF4846FCF7BAF900BF00BF00BF46F656
:103F0000C55028800020B9E741E0606C401CD8BB58
:103F100000BF00BF00BFFCF7A5F9814600BFFCF75A
:103F2000F9FB00BF9A480078401E9949087008467E
:103F30000078D0B9FFF798F89748008800280BDD83
:103F400000BFFCF701FC00BF4846FCF78FF900BF3B
:103F500000BFFFF74DF811E000BFFCF7F5FB00BF15
:103F60004846FCF783F900BF08E000BFFCF7ECFB14
:103F700000BF4846FCF77AF900BF00BF00BF46F615
:103F8000C5502880002079E7FFE700E000BF00BFB0
:103F9000606C401C6064666C00BF00BF00BFFCF733
:103FA00061F9814600BFFCF7B5FB00BF7848007897
:103FB000401E7749087008460078F8B9FFF754F8B2
:103FC00075480088002810DD00BFFCF7BDFB00BF6E
:103FD0004846FCF74BF903E01EE01CE01AE018E04D
:103FE00000BF00BFFFF704F811E000BFFCF7ACFB17
:103FF00000BF4846FCF73AF900BF08E000BFFCF7F5
:10400000A3FB00BF4846FCF731F900BF00BF00BF6B
:1040100080E100BF00BF00BF94F8340007282CD116
:1040200000231A46214618460097FEF7A1FD666C4C
:1040300000BF00BF00BFFCF715F9814600BFFCF7C9
:1040400069FB00BF52480078401E5149087008467D
:10405000007808B9FFF708F800BFFCF775FB00BF50
:104060004846FCF703F900BF00BF00BF08F400405A
:10407000002801D1FCF710FE0FE10420012804D034
:10408000022842D0042872D189E0606CFF283BD11D
:1040900000BF00BF00BFFCF7E5F8814600BFFCF79A
:1040A00039FB00BF3A480078401E3949087008467D
:1040B0000078D0B9FEF7D8FF3748008800280BDD1C
:1040C00000BFFCF741FB00BF4846FCF7CFF800BF3C
:1040D00000BFFEF78DFF11E000BFFCF735FB00BF0E
:1040E0004846FCF7C3F800BF08E000BFFCF72CFB14
:1040F00000BF4846FCF7BAF800BF00BF00BF46F655
:10410000C55028800020B9E68BE04FF6FF71606C47
:10411000884243D100BF00BF00BFFCF7A3F881462F
:1041200000BFFCF7F7FA00BF19480078401E184995
:10413000087008460078D8B9FEF796FF1648008840
:1041400000280BDD00BFFCF7FFFA00BF4846FCF774
:104150008DF800BF00BFFEF74BFF12E000BFFCF779
:10416000F3FA00BF4846FCF781F800BF09E057E0CA
:1041700000BFFCF7E9FA00BF4846FCF777F800BF3C
:1041800000BF00BF46F6C5502880002076E600003C
:10419000E40000203C010020A800002041E0606C09
:1041A000401CD8BB00BF00BF00BFFCF75BF88146D6
:1041B00000BFFCF7AFFA00BF58480078401E5749CF
:1041C000087008460078D0B9FEF74EFF54480088C2
:1041D00000280BDD00BFFCF7B7FA00BF4846FCF72C
:1041E00045F800BF00BFFEF703FF11E000BFFCF77A
:1041F000ABFA00BF4846FCF739F800BF08E000BF43
:10420000FCF7A2FA00BF4846FCF730F800BF00BF39
:1042100000BF46F6C550288000202FE6FFE700E0EB
:1042200000BF00BF606C401C6064666C00BF00BFD4
:1042300000BFFCF717F8814600BFFCF76BFA00BF20
:1042400036480078401E3549087008460078D0B9D5
:10425000FEF70AFF3248008800280BDD00BFFCF79C
:1042600073FA00BF4846FCF701F800BF00BFFEF735
:10427000BFFE11E000BFFCF767FA00BF4846FBF73E
:10428000F5FF00BF08E000BFFCF75EFA00BF48463C
:10429000FBF7ECFF00BF00BF00BF3BE000BF00BF6B
:1042A00000BFFBF7DFFF814600BFFCF733FA00BF1A
:1042B0001A480078401E1949087008460078D0B99D
:1042C000FEF7D2FE1648008800280BDD00BFFCF781
:1042D0003BFA00BF4846FBF7C9FF00BF00BFFEF72F
:1042E00087FE11E000BFFCF72FFA00BF4846FBF73E
:1042F000BDFF00BF08E000BFFCF726FA00BF48463C
:10430000FBF7B4FF00BF00BF00BF46F62D6028805A
:10431000002600BF00BF3046B0E50000E4000020EA
:10432000A800002070B504460D46002600BF00BF5F
:10433000FBF798FF064600BFFCF7ECF900BF0CB98D
:104340005A48046859480068844210D15848007897
:1043500000280CDD00BFFCF7F7F900BF3046FBF783
:1043600085FF00BF00BF46F66350288070BD002067
:10437000288094F83600082873D2DFE800F0044261
:1043800052627374757600BF49480078401C4849F2
:10439000087008460078012801D1FEF757FE00BFDB
:1043A000FCF7D2F900BF3046FBF760FF00BF00BF4B
:1043B00000BF042084F83600012084F88A002046DB
:1043C000FEF7E8FD00BF00BF00BFFBF74BFF06464E
:1043D00000BFFCF79FF900BF35480078401E344904
:1043E00008700846007808B9FEF73EFE00BFFCF7EB
:1043F000ABF900BF3046FBF739FF00BF00BF00BF7D
:104400004FE0052084F83600012084F88A0000BFC0
:10441000FCF79AF900BF3046FBF728FF00BF00BF4A
:104420003FE0062084F83600012084F88A0000BFAF
:10443000FCF78AF900BF3046FBF718FF00BF00BF4A
:104440002FE0072084F83600012084F88A0000BF9E
:10445000FCF77AF900BF3046FBF708FF00BF00BF4A
:104460001FE011E000BF00BF00BF94F88A00401CAD
:1044700084F88A0000BFFCF767F900BF3046FBF7FD
:10448000F5FE00BF00BF0CE000BFFCF75DF900BF08
:104490003046FBF7EBFE00BF00BF46F62D602880DC
:1044A00064E700BFFCF7F8FB00BF5FE73C010020BA
:1044B000E4000020002108E0064A02EBC1000022CF
:1044C00002608280C2804A1C91B2034A12889142E3
:1044D000F2DB704728C10020585700082DE9F04F43
:1044E0000C4616461D46042E1ED1DFF8A091D9F8C1
:1044F0000090A4EB0909A9F1010313F5803F0DD940
:104500004FF00009C0F84C90C0F85090C0F81C90D3
:1045100047F27E29A5F80090BDE8F08FC46403F14E
:104520000109C0F850903FE084B3082E25D1D0F89F
:10453000489009EB0407DFF85491D9F80090A7EBF5
:104540000909A9F10103A34201D2C76406E0DFF81B
:104550003C91D9F80090A144C0F84C90DFF82CA110
:10456000D0F84C90DAF800A0A9EB0A09C0F85090F6
:10457000D0F84C90C0F8489016E0DFF81091D9F8C8
:104580000090A144C0F84C9004650DE0FFE74FF0A7
:104590000009C0F84C90C0F85090C0F81C9047F249
:1045A0007E29A5F80090B7E7DFF8E4A0BAF800A0EC
:1045B000D0F84C90B9FBFAFB0AFB1B991FFA89F85B
:1045C000DFF8D09009EBC802B2F80490B9F1000FFF
:1045D0000BD14FF00009C0F81490C0F8189010608B
:1045E0004FF00109A2F804903EE0116834E0DFF8D2
:1045F0009CA0D1F84C90DAF800A0A9EB0A09C1F808
:104600005090D0F85090D1F850A0D1450ED9D1F8A3
:104610001490B9F1000F01D049691DE04FF0000975
:10462000C0F8149081614861002115E0D1F818901C
:10463000B9F1000F07D14FF00009C0F8189041619F
:104640008861106007E0D1F818C0C0F818C0416157
:10465000CCF81400886100210029C8D1B2F8049078
:1046600009F10109A2F80490B2F80690B2F804A08A
:10467000D14503DAB2F80490A2F80690C2614FF077
:104680000009A5F8009000BF46E700001C010020CB
:104690005857000828C1002010B5C269BAB10024DB
:1046A00004651468844205D14169116039B1002460
:1046B0008C6104E0816943694B6103B19961002415
:1046C00044618461C461C4649488641E948010BD94
:1046D000002006E0054A02EBC0010022CA80421C0D
:1046E00090B2034A12889042F4DB704728C1002040
:1046F000585700082DE9F05F4FF0000B00BF00BFD6
:1047000000BFFBF7AFFD834600BFFCF703F800BF17
:104710007A480078401C79490870084600780128DA
:1047200001D1FEF793FC00BFFCF70EF800BF58461E
:10473000FBF79CFD00BF00BF00BFFCF72FF805464C
:104740006F480068401C6E490860084600686D4963
:104750000988B0FBF1F201FB12001FFA80FA6A48E7
:1047600000EBCA08D8F80040002782E0002C7FD078
:10477000D4F8149094F83600082875D2DFE800F0D9
:104780000408051B063D075000BF00BF00BF6CE0DA
:104790005B49E06C0968401A20655949E06C09687A
:1047A000884206D1002084F836002046FFF70EFA32
:1047B00000E0012759E05249E06C0968401A206581
:1047C0004F49E06C0968884215D10020E065A4F8E3
:1047D0006000FBF7E3FF20642046FEF790F92046D7
:1047E000FFF7F4F900203434A0700320607000203B
:1047F00004F8340900E0012737E04149E06C09681A
:10480000401A20653E49E06C0968884206D10420C0
:1048100084F836002046FFF73FFF00E0012724E040
:104820003749E06C0968401A20653549E06C096831
:10483000884217D10020E065A4F86000FBF7AEFFC6
:1048400020642046FEF75BF92046FFF725FF042091
:104850003434A07003206070002004F8340902E0B2
:1048600006E001E0012700E000BF00BF4C4600E089
:104870000127002F3FF47AAFFBF790FF461B234838
:104880000068B04201D22148066000BF00BF00BFEF
:10489000FBF7E8FC834600BFFBF73CFF00BF17486F
:1048A0000078401E1549087008460078D0B9FEF718
:1048B000DBFB1748008800280BDD00BFFBF744FF37
:1048C00000BF5846FBF7D2FC00BF00BFFEF790FBCD
:1048D00011E000BFFBF738FF00BF5846FBF7C6FCEE
:1048E00000BF08E000BFFBF72FFF00BF5846FBF7F3
:1048F000BDFC00BF00BF00BFBDE8F09FE40000208A
:104900001C0100205857000828C100202001002069
:10491000A80000201CB500BF0EE001AB6A460021D4
:104920000846FCF7FFFDBDF8040028B903480078ED
:10493000012801D1FFF7DEFEEFE700009C00002018
:1049400010B58AB0044600201D4908601D49086062
:10495000FFF7B0FD1C48006820B947F21220208004
:104960000AB010BD1948006819490968884203D285
:1049700047F213202080F3E7164800781F2803D35E
:1049800047F211202080EBE70B20002105910A4619
:10499000CDE9070406910D4800680F4909680A4BE4
:1049A0001B68CDE90131CDE903020A4800780023F4
:1049B0000A4A0BA100900F48FCF742FB00BFCFE76B
:1049C0001C01002020010020485700085057000813
:1049D0003C570008445700084C5700081549000888
:1049E00075432F4F532D494949205469636B205417
:1049F00061736B001CC8002070B58AB004460020AB
:104A0000314908603148006840B1314800682F4999
:104A10000968B0FBF1F02F49086006E02C480068F7
:104A20000A21B0FBF1F02B4908602A4800682A49A6
:104A3000086000202949086029490860002508E02D
:104A4000284800EBC5060020B080F0803060681C6C
:104A500085B2254800888542F2DB2448006820B9E9
:104A600047F2473020800AB070BD214800682149D4
:104A70000968884203D247F248302080F3E71E4895
:104A800000781F2803D347F246302080EBE70B2045
:104A900000210591CDE907040691084614490968EB
:104AA000164A1268114B1B68CDE90132CDE903109B
:104AB000114800780023124A12A100901748FCF711
:104AC000BFFA00BFCFE700002401002064570008B0
:104AD0004057000834010020380100203001002038
:104AE0002C010020B0C30020785700086857000848
:104AF000705700083C570008605700086C570008C2
:104B0000154C000875432F4F532D494949205469CE
:104B10006D6572205461736B00000000E4C80020D2
:104B2000F0B50C46022680F82A60012C05D12D4FE5
:104B3000466A3F683E4486610CE0066A2EB9294FFA
:104B4000466A3F683E44866104E0264F066A3F6835
:104B50003E448661244F3F888669B6FBF7FC07FB1D
:104B60001C66B5B2214E06EBC502166836B90026A2
:104B7000066146611060012696802CE0194F866917
:104B80003F68F61BC661116820E0164F8E693F68CA
:104B9000F61BCE61C669CF69BE4209D90E690EB156
:104BA000096913E0002606614161086100210DE0FA
:104BB0004E692EB90026466101614861106004E02B
:104BC0004B69436101611861486100210029DCD112
:104BD0009688761C9680D6889788BE4201DA968899
:104BE000D680F0BD3001002078570008B0C3002007
:104BF000002006E0054A02EBC0010022CA80421CE8
:104C000090B2034A12889042F4DB7047B0C3002090
:104C1000785700081CB500BF53E001AB6A4600217D
:104C20000846FCF77FFC01A8FCF78AF8FBF7B6FD05
:104C3000064624480068401C22490860084600686F
:104C400021490988B0FBF1F201FB12001FFA80FA3A
:104C50001E4800EBCA08D8F800404FF0000B21E0D6
:104C6000F4B1D4F810901749A0690968884214D1AA
:104C7000204600F02FF8208D022804D10121204683
:104C8000FFF74EFF02E0032084F82A00A56815B163
:104C90002046E168A8474C4604E04FF0010B01E0D4
:104CA0004FF0010BBBF1000FDAD0FBF777FD871B4C
:104CB00001A8FCF783F806480068B84201D204480E
:104CC0000760AAE73001002078570008B0C3002031
:104CD0002C010020F0B5114E36888569B5FBF6F73A
:104CE00006FB1755ACB20E4D05EBC40215688542A4
:104CF00005D10169116039B100254D6104E04169B8
:104D000003690B6103B15961012580F82A50002520
:104D10000561456195886D1E9580F0BD7857000846
:104D2000B0C3002029B1064A92690243044B9A613C
:104D300004E0034A92698243014B9A617047000084
:104D40000010024030B500210022002400232D4D28
:104D50006D6805F00C0121B1042905D0082923D183
:104D600005E0294D056022E0274D05601FE0254D37
:104D70006D6805F47012234D6D6805F480340225CA
:104D800005EB92421CB9214D554305600BE01D4DCA
:104D90006D6805F400351DB11C4D5543056002E0FA
:104DA000194D5543056002E0174D056000BF00BF77
:104DB000144D6D6805F0F0010909154D6B5C05682F
:104DC000DD4045600F4D6D6805F4E061090A104D46
:104DD0006B5C4568DD4085600A4D6D6805F4605187
:104DE000C90A0B4D6B5C4568DD40C560054D6D68BB
:104DF00005F44041890B074D6B5CC568B5FBF3F5C5
:104E0000056130BD0010024000127A0000093D002B
:104E10001400002024000020704710B500F002F8B4
:104E200010BD00000CB500200190009033480068D0
:104E300040F480303149086000BF3048006800F419
:104E4000003000900198401C0190009818B901981A
:104E5000B0F5A06FF1D12948006800F4003010B11E
:104E60000120009001E0002000900098012843D12B
:104E70002348006840F01000214908600846006897
:104E800020F0030008600846006840F00200086057
:104E90001A48406819494860084640684860084612
:104EA000406840F4806048600846406820F47C1008
:104EB00048600846406840F4E810486008460068CA
:104EC00040F08070086000BF0C48006800F000707F
:104ED0000028F9D00948406820F0030007494860DD
:104EE0000846406840F00200486000BF0348406840
:104EF00000F00C000828F9D10CBD000000100240A1
:104F000000200240042808D14FF0E021096941F057
:104F100004014FF0E022116107E04FF0E021096940
:104F200021F004014FF0E0221161704710B50548EF
:104F30000078012805D1FBF727FEFCF7FDFEFBF703
:104F400039FE10BD9C00002010B51348006840F0E9
:104F500001001149086008464068104908400E49A0
:104F60004860084600680E4908400B49086008463A
:104F7000006820F4802008600846406820F4FE00A5
:104F800048604FF41F008860FFF747FF4FF0006054
:104F90000449086010BD0000001002400000FFF846
:104FA000FFFFF6FE08ED00E00EB50C252FE02946C8
:104FB00017A0FBF76FF92946002000F017FB044605
:104FC00019A0FBF767F921A12046FBF76FF92146ED
:104FD00022A0FBF75FF926A0FBF75CF92146002031
:104FE00000F0F2FA214626A0FBF754F900242146EE
:104FF00028A0FBF74FF92DA0FBF74CF902A80021E0
:105000000B460522CDE900100846FCF77FFDCEE7F0
:10501000416C6C6F632025752042206D656D6F7249
:10502000792E2E2E0D0A0000416C6C6F6320737573
:10503000636365737366756C21204E6F772077729A
:105040006974696E672E2E2E0D0A000068656C6CFF
:105050006F20776F726C64210000000053686F77D7
:1050600020646174613A20222573220D0A00000039
:105070004E6F7720667265652E2E2E0D0A00000099
:10508000416674657220667265653A202225732236
:105090000D0A0000416674657220736574206E7598
:1050A0006C6C3A20222573220D0A00000D0A0D0AAD
:1050B0000000000010B58AB0044609A803210022B0
:1050C0000592CDE906210890104640210822094B9F
:1050D000CDE90132CDE9031004200023064A07A1DF
:1050E00000900848FBF7ACFF09A90748FCF7FEF859
:1050F0000AB010BDA8AE0020A94F00085461736B20
:105100004D656D00E0AD00204401002010B5FBF7B7
:105110003BFD40F225511E4800F04CF810B31C48EE
:1051200000F004F9C4B21B48008800F40040C8B97C
:105130001848008800F4804060B10A2C03D0002099
:105140001449088020E01348008840F400401149C9
:10515000088019E00D2C06D10E48008840F48040EC
:105160000C49088010E00B480088C0F30D000A4984
:105170000C5408480088401C0649088008460088EE
:10518000C72801DD00200880FBF714FD10BD0000DA
:1051900000380140300000200C03002021B182893A
:1051A00042F40052828104E082894DF6FF731A4076
:1051B0008281704770B5024600240023002500203C
:1051C00040F66A16B14200D100BFC1F3421501F0AA
:1051D0001F03012606FA03F3012D02D196893340FD
:1051E00006E0022D02D1168A334001E0968A334050
:1051F0000C12012606FA04F41688344013B10CB1DF
:10520000012000E0002070BDF0B503460024002618
:105210000025002040F66A17B94200D100BF1846A9
:10522000C1F3421401F01F06012707FA06F5012C0D
:1052300001D10C3004E0022C01D1103000E0143018
:105240001AB107682F43076002E00768AF430760A1
:10525000F0BD00002DE9F04786B005460E4600245B
:10526000A24600BFA1460027B08900B100BF2F466B
:105270002C8A4CF6FF700440F08804432C82AC89E1
:105280004EF6F3100440B088318908437189084311
:105290000443AC81AC8A4FF6FF400440B08904431C
:1052A000AC8201A8FFF74EFD1F48874202D1DDF80E
:1052B00010A001E0DDF80CA0A88900F4004040B186
:1052C0000AEBCA0000EB0A1031684900B0FBF1F8A4
:1052D00007E00AEBCA0000EB0A1031688900B0FB56
:1052E000F1F86420B8FBF0F004012009642101FB0F
:1052F0001089A88900F4004040B1322000EBC900B9
:10530000B0FBF1F000F00700044308E0322000EBAE
:1053100009106421B0FBF1F000F00F0004432C8170
:1053200006B0BDE8F08700000038014001468888DB
:10533000C0F30800704700BFFEE7014600BF002031
:105340007047000010B56FF00400FFF7DBFD144854
:1053500000681449B0FBF1F0134908701048006868
:105360001049B0FBF1F411480068C910B1FBF0F02E
:1053700044430E4800684FF47A71B1FBF0F00C49D9
:1053800008804FF0E020006940F002004FF0E0217B
:10539000086108464461006940F00100086110BDE1
:1053A0000000002000127A0028000020405700086A
:1053B0002A00002000BF054A128802F04002002A9D
:1053C000F9D0C2B2014B1B1D1A8070470038014052
:1053D00000B58BB0FBF73EF90AA8FBF7F3FA0AA871
:1053E000032100220592CDE90621089010464021B4
:1053F0000822094BCDE90132CDE903100320002337
:10540000064A07A100900948FBF71AFE0AA8FBF715
:1054100025FD00200BB000BD0C020020B550000897
:105420005461736B53746172740000004401002076
:105430002DE9F04104460E461548005D38B9144880
:1054400018380168204688470120BDE8F0811148DE
:1054500050F82400B04219D90F4850F82400B6FB88
:10546000F0F10B48083850F8240030F811200025DE
:1054700008E000230648083850F824004F1920F8A7
:1054800017306D1C9542F4DB0020DEE70220DCE7DC
:105490004C000020D8560008D056000810B504462D
:1054A0000C4951F824104A000B4951F824000021FE
:1054B00000F0B0F8094951F824200749083951F89B
:1054C0002400002100F0A6F801210348083001550E
:1054D00010BD0000C856000844000020D85600083F
:1054E0002DE9F04704460F460025A9462348005DF4
:1054F00020B9224818380168204688471FB94FF064
:10550000FF30BDE8F0871E4850F82400B7FBF0F6E6
:105510001B4850F82400B7FBF0F100FB117000B1FC
:10552000761C184850F82400451E22E0134808381D
:1055300050F8240030F8150010B909F1010901E014
:105540004FF00009B14513D14FF0000809E00B48B6
:10555000083850F8240005EB080220F8126008F122
:105560000108B045F3D3064850F824006843C8E763
:105570006D1E002DDADA4FF0FF30C2E74C0000203C
:10558000D0560008C856000810B501460023002276
:1055900007E00B4850F8210030F8120000B15B1C06
:1055A000521C084850F821009042F2D86420584319
:1055B000044C54F82140B0FBF4F0C0B210BD000020
:1055C00044000020C856000870B505460C4604B9D2
:1055D00070BD054850F82500261A31462846FFF7C9
:1055E00027FF00BFF4E700003C00002070B5044630
:1055F0000E4631462046FFF773FF0546681C08B982
:10560000002070BD024850F824002844F9E700004B
:105610003C00002030B5034601E003F8011B141ED6
:10562000A2F10102F9D130BD10B586B004460121C6
:1056300044F20400FFF776FB4FF40070ADF814005D
:1056400003208DF8160018208DF8170005A91C48B6
:10565000FBF7ABF84FF48060ADF8140004208DF830
:10566000170005A91648FBF7A0F825208DF80000C3
:1056700003208DF801008DF8020001208DF8030051
:105680006846FBF751F901940020ADF80800ADF829
:105690000A00ADF80C00ADF810000C20ADF80E00BB
:1056A00001A90848FFF7D6FD012240F2255105481F
:1056B000FFF7AAFD01210348FFF770FD06B010BDFA
:1056C000000801400038014000050000007800009B
:1056D000200000002000000000A0000000000F00DB
:1056E000A8AF00200C0000008000000000020000B5
:1056F000A8B100200A00000040010000E8B200202C
:105700000C0000008000000000020000E8B400204F
:10571000800000000002000064000000400600005D
:10572000E8B600201E0000000A00000028BD00208E
:105730000C0000008000000000020000400000009B
:10574000C80000000100000028BF00200C0000007D
:10575000800000000002000011000000880000002E
:105760000200000064000000B0C100200C00000036
:10577000800000000002000011000000880000000E
:10578000901400000101010078563412010100005C
:105790000000000000000000000000000000000009
:1057A00000000000000000000000000000000000F9
:1057B00000000000000000000101010028000400BA
:1057C00020000100000000000000000000000000B8
:1057D00000000000000000000000000000000000C9
:1057E0000000000001002000010010000C0010006B
:1057F00000000000000000000000000000000000A9
:105800000000000000000000000000000000000098
:105810000000000000000000000000000101010085
:105820002C00010120000C002000200004000400D6
:105830000000000000000000000000000000000068
:105840000000000000000000000000000000000058
:105850000000000000000000000000000000000048
:105860000101010130000100000000000000000003
:105870000000000000000000000000000000000028
:105880000000000000000000000000000000000018
:105890000101010128000C00800100000401010148
:1058A0000101010101000101C8000800010100001F
:1058B00000000000000000000000000000000000E8
:1058C00000000000000000000000000000000000D8
:1058D00000000000000000000000000000000000C8
:1058E000000000000101340008005D762A06000077
:1058F0001059000800000020440100006C0100085D
:105900004059000844010020CCCE0000C801000826
:105910001184A24A04680901020304060708090C5D
:105920006910C502040608139D541408895514080B
:10593000E00332202C68E0A30803F80F68000000A1
:0400000508000131BD
:00000001FF
