:020000040800F2
:10000000D8270020CD01000819060008B90500080E
:1000100015060008650300081F55000800000000D1
:100020000000000000000000000000001150000867
:100030009D04000800000000E702000825510008A8
:10004000E7010008E7010008E7010008E7010008F0
:10005000E7010008E7010008E7010008E7010008E0
:10006000E7010008E7010008E7010008E7010008D0
:10007000E7010008E7010008E7010008E7010008C0
:10008000E7010008E7010008E7010008E7010008B0
:10009000E7010008E7010008E7010008E7010008A0
:1000A000E7010008E7010008E7010008E701000890
:1000B000E7010008E7010008E7010008E701000880
:1000C000E7010008E7010008E7010008E701000870
:1000D000E7010008F5520008E7010008E701000801
:1000E000E7010008E7010008E7010008E701000850
:1000F000E7010008E7010008E7010008E701000840
:10010000E7010008E7010008E7010008E70100082F
:10011000E7010008E7010008E7010008E70100081F
:10012000E7010008E7010008E7010008E70100080F
:1001300000F002F800F03AF80AA090E8000C8244BF
:100140008344AAF10107DA4501D100F02FF8AFF29C
:10015000090EBAE80F0013F0010F18BFFB1A43F0A5
:10016000010318474857000068570000103A24BFA1
:1001700078C878C1FAD8520724BF30C830C144BF0C
:1001800004680C607047000000230024002500264E
:10019000103A28BF78C1FBD8520728BF30C148BFEA
:1001A0000B6070471FB51FBD10B510BD00F04DF8B6
:1001B0001146FFF7F7FF05F0F1F900F06BF803B413
:1001C000FFF7F2FF03BC05F0ACF9000009488047D7
:1001D00009480047FEE7FEE7FEE7FEE7FEE7FEE729
:1001E000FEE7FEE7FEE7FEE704480549054A064B41
:1001F000704700004151000831010008D82100205B
:10020000D8270020D8230020D823002072B67047BA
:1002100062B67047EFF3108072B6704780F31088B3
:10022000704730BF704720BF7047B0FA80F070470A
:1002300090FAA0F0B0FA80F0704790FAA0F0704702
:1002400070477047704770477047754600F02CF84C
:10025000AE4605006946534620F00700854618B0B3
:1002600020B5FFF7C1FFBDE820404FF000064FF07A
:1002700000074FF000084FF0000B21F00701AC46DB
:10028000ACE8C009ACE8C009ACE8C009ACE8C009FA
:100290008D46704710B50446AFF300802046BDE898
:1002A0001040FFF78CBF0000004870477821002005
:1002B0001D484FF6FF710170002080F309881B482C
:1002C000016881F308881A484FF08051016062B6D6
:1002D000FEE717484FF080510160704714484FF017
:1002E00080510160704772B6EFF3098028B1203861
:1002F00080E8F00F0F490968086000B50E48804794
:100300005DF804EB0D480E490A78027009480D4962
:100310000A680260106890E8F00F203080F30988C6
:100320004EF0040E62B6704722ED00E0500000204F
:1003300004ED00E020010020BD1C0008AE000020FC
:10034000AF0000202401002010B505F0EFF84FF4B5
:10035000A06000F09BF94FF4E13005F04FF900F098
:100360002DF910BD00BFFEE701460846044A126899
:10037000904203D9024A1268801A00E000207047B8
:100380004400002070B5002500BFFFF743FF05467D
:1003900000BF0648046800BF2846FFF73FFF00BFC4
:1003A0002046FFF7E1FF0646304670BD48000020BA
:1003B00070B50025FFF7E6FF044600BFFFF72AFFF0
:1003C000054600BF00200449086000BF2846FFF72B
:1003D00025FF00BF204670BD4800002070B50025F5
:1003E00000BFFFF717FF054600BF0648046800BFBF
:1003F0002846FFF713FF00BF2046FFF7B5FF06466C
:10040000304670BD4C00002010B509480088401CE3
:10041000074908800748008818B900F039F80649EC
:10042000086004480088401C0249088010BD000094
:10043000380000203A0000203C00002010B50F4892
:100440000088401E0D49088008460088A0B900F0C9
:100450001FF80B490860084600680A490968441AF1
:1004600009480068A04201D20748046007480068B4
:10047000A04201D20548046010BD00003A000020EF
:10048000400000203C000020480000204C000020DC
:100490000149486870470000001000E070472DE9EE
:1004A000F0410246002500260020002300240027FA
:1004B00091F803C00CF00F0591F803C00CF0100C7C
:1004C000BCF1000F03D091F802C04CEA050591F889
:1004D00000C0BCF1000F31D0146800202BE04FF0B9
:1004E000010C0CFA00F3B1F800C00CEA03069E42BE
:1004F00020D183004FF00F0C0CFA03F7BC4305FA30
:1005000003FC4CEA040491F803C0BCF1280F06D1A7
:100510004FF0010C0CFA00FCC2F814C00AE091F88C
:1005200003C0BCF1480F05D14FF0010C0CFA00FCE0
:10053000C2F810C0401C0828D1D31460B1F800C024
:10054000BCF1FF0F34DD546800202EE000F1080CF0
:100550004FF0010808FA0CF3B1F800C00CEA0306EA
:100560009E4221D183004FF00F0C0CFA03F7BC43DD
:1005700005FA03FC4CEA040491F803C0BCF1280F0F
:1005800005D100F1080C08FA0CF8C2F8148091F8B3
:1005900003C0BCF1480F07D100F1080C4FF001086F
:1005A00008FA0CF8C2F81080401C0828CED354601A
:1005B000BDE8F0810161704700BFFEE708B5012189
:1005C000482004F0ABFC10208DF8030003208DF8C8
:1005D00002002020ADF8000069460C48FFF75FFFDD
:1005E00020210A48FFF7E6FF10208DF803000320C2
:1005F0008DF802002020ADF8000069460448FFF79E
:100600004EFF20210248FFF7D5FF08BD000C014036
:100610000018014000BFFEE77047000070B50021E0
:1006200000230F22C47804B3154C246804F4E0645A
:10063000C4F5E064210AC1F10403CA40447804FA15
:1006400003F184781440214309010E4C0678A1552A
:10065000047804F01F050124AC4005786D11AD004D
:1006600005F1E025C5F8004109E0047804F01F0514
:100670000124AC40044D0678761145F8264070BD43
:100680000CED00E000E400E080E100E002490143FD
:10069000024A1160704700000000FA050CED00E00E
:1006A0007047000010B50348006810B101480068A9
:1006B000804710BD6400002070B5044600F0C2F809
:1006C000002048490870484908704849087048495E
:1006D0000860484908604849087048490870484916
:1006E0000870484908604849086048490860484916
:1006F0000870484800680A21B0FBF1F046490860DC
:100700004648006858B14648056845B14348066800
:1007100003E0761E002028602D1D002EF9D1002058
:100720004049086040490860404908604049086005
:1007300040490860404908604049086040490870E5
:1007400002F09CFB02F09AFC204601F0B7FC2088E6
:1007500000B170BD204602F0D1F8208800B1F8E762
:10076000204602F0D7F8208800B1F2E7204602F0D8
:10077000D3F9208800B1ECE7204602F0AFFB2088D7
:1007800000B1E6E7204602F0FFFD208800B1E0E777
:10079000204603F069F9208800B1DAE7204602F02C
:1007A00019F8208800B1D4E7204601F023FE208804
:1007B00000B1CEE7204604F0BFF9208800B1C8E7B9
:1007C000204603F095F8208800B1C2E7204604F0E7
:1007D0000FFA208800B1BCE701F096FBFFF760FF3D
:1007E00000BFB6E77800002080000020C80000208D
:1007F0002001002024010020AE000020AF000020D6
:10080000B0000020BC000020C0000020C400002078
:10081000D0000020FC560008CC000020CC56000878
:10082000C8560008580000205C000020600000202E
:1008300064000020680000206C0000207000002090
:10084000FE0000200A4A1168002002E0002204C1D4
:10085000401C084A12689042F8D3054A1268054BBA
:100860001B6802EB8302121F034B1A6070470000E3
:10087000C8560008CC5600085000002008480078F0
:10088000012800D0704707480078FA2800DBF9E714
:1008900004480078401C0349087000BFF2E70000DC
:1008A000800000207800002010B500242E48007839
:1008B000012800D010BD00BFFFF7ACFC044600BF0C
:1008C0002A48007828B900BF2046FFF7A7FC00BFE0
:1008D000F0E726480078401E244908700846007852
:1008E000002805DD00BF2046FFF798FC00BFE1E7C8
:1008F0001F480078002805DD00BF2046FFF78EFC6A
:1009000000BFD7E702F0A6FA1A4908700846007837
:1009100000EB4000184951F82000184908600846CB
:10092000006817490968884205D100BF2046FFF7D3
:1009300075FC00BFBEE711480068D0F89000401C6D
:100940000E490968C1F890000E480068401C0D4926
:1009500008604FF080500C49086000BF2046FFF748
:100960005DFC00BF00BFA5E78000002078000020EC
:10097000C8000020AF000020A01D0020240100209E
:1009800020010020F400002004ED00E02DE9F041FA
:1009900004460E461546002732480078002804DD3C
:1009A00042F6E1602880BDE8F0811CB945F6C350ED
:1009B0002880F8E700BF00BF00BFFFF72BFC074609
:1009C00000BFFFF721FD00BF27480078401C2649E3
:1009D000087008460078012801D102F033FC00BFFE
:1009E000FFF72CFD00BF3846FFF718FC00BF00BF23
:1009F00000BF1E48206066600020206284F8250049
:100A0000A062202084F8240004F1080002F03BF9E1
:100A1000204602F069F816480088401C14490880F6
:100A200000BF00BF00BFFFF7F5FB074600BFFFF7A1
:100A3000EBFC00BF0C480078401E0B4908700846CC
:100A4000007808B902F00CFC00BFFFF7F7FC00BF0C
:100A50003846FFF7E3FB00BF00BF00BF002028803F
:100A600000BFA0E778000020C80000204D55545872
:100A7000AC0000202DE9F04788B005468946904635
:100A80001C46109E4FF0000ABF480078002805DD84
:100A900046F2AE10308008B0BDE8F0871DB945F6CB
:100AA000C3503080F7E7B8F1000F03D0B8F5004F1E
:100AB00002D100E000BF03E045F625603080EAE7A0
:100AC00000BFB2492868884203D045F6C450308040
:100AD000E1E70CB10020206000BF00BFFFF79AFBE8
:100AE000824600BFFFF790FC00BF95F82500D0B903
:100AF000A74800682862A648006890F8370085F883
:100B00002400012085F825000CB1A86A206000BFF0
:100B1000FFF794FC00BF5046FFF780FB00BF00BF0B
:100B200000203080B7E79A49286A0968884214D1C2
:100B300095F82500401C85F825000CB1A86A2060B6
:100B400000BFFFF77BFC00BF5046FFF767FB00BF0D
:100B500000BF45F2827030809DE708F4004060B12C
:100B600000BFFFF76BFC00BF5046FFF757FB00BF0D
:100B700000BF46F2B01030808DE78648007800282C
:100B80000CDD00BFFFF75AFC00BF5046FFF746FBE5
:100B900000BF00BF46F6635030807CE700BF7D4851
:100BA0000078401C7B49087008460078012801D174
:100BB00002F048FB00BFFFF741FC00BF5046FFF7C3
:100BC0002DFB00BF00BF00BF2F6A97F837007049A8
:100BD000096891F8371088426ADD97F836000828CE
:100BE0002AD2DFE800F004151E1F17162021384610
:100BF00002F0CCFA6648006890F8370087F83700B2
:100C000097F8370002F046F9384602F05FFA4EE0F6
:100C100000BF00BF5E48006890F8370087F83700D3
:100C200045E000BF00BF00BF5948006890F837108A
:100C3000384602F005F83AE000BF00BF00BFFFF7FA
:100C4000E9FA824600BFFFF7DFFB00BF514800789A
:100C5000401E5049087008460078D0B902F000FBE9
:100C60004D48008800280BDD00BFFFF7E7FB00BF01
:100C70005046FFF7D3FA00BF00BF02F0B5FA11E00B
:100C800000BFFFF7DBFB00BF5046FFF7C7FA00BF0E
:100C900008E000BFFFF7D2FB00BF5046FFF7BEFAE7
:100CA00000BF00BF00BF46F62D603080F3E600BFF6
:100CB0004B4604222946684601F03AFF00BF00BFB8
:100CC00000BFFFF7A7FA824600BFFFF79DFB00BFFA
:100CD00030480078401E2F4908700846007808B94F
:100CE00002F0BEFA00BFFFF7A9FB00BF5046FFF7B6
:100CF00095FA00BF00BF00BF00F0A0F900BF00BF21
:100D0000FFF788FA824600BFFFF77EFB00BF20484E
:100D1000006890F8350030B101280CD002281AD0B4
:100D2000032821D110E01CB119480068006C206034
:100D3000002030801CE01CB115480068006C206069
:100D400046F2A910308013E00CB10020206047F279
:100D5000D92030800CE01CB10D480068006C206088
:100D600045F6C250308003E046F62E60308000BF6A
:100D700000BF00BFFFF762FB00BF5046FFF74EFA0F
:100D800000BF00BF00BF86E6780000204D555458D4
:100D900020010020C80000208C0000202DE9F84F21
:100DA0000446884615464FF0000A9E480078002801
:100DB00004DD46F20E202880BDE8F88F1CB945F608
:100DC000C3502880F8E7B8F1000F03D0B8F5004F02
:100DD00002D100E000BF03E045F625602880EBE784
:100DE00000BF91492068884203D045F6C45028804E
:100DF000E2E700BF00BFFFF70DFA824600BFFFF732
:100E000003FB00BF8949206A096888420CD000BFF3
:100E1000FFF714FB00BF5046FFF700FA00BF00BF0A
:100E200045F281702880C7E700BF81480078401CE8
:100E30007F49087008460078012801D102F002FAC3
:100E400000BFFFF7FBFA00BF5046FFF7E7F900BF0E
:100E500000BF00BFFFF71CFB0746A76294F8250000
:100E6000401E84F8250094F8250000283ADD00BFD4
:100E700000BF00BFFFF7CEF9824600BFFFF7C4FAFC
:100E800000BF6B480078401E69490870084600782A
:100E9000D0B902F0E5F96748008800280BDD00BFF3
:100EA000FFF7CCFA00BF5046FFF7B8F900BF00BF0C
:100EB00002F09AF911E000BFFFF7C0FA00BF5046F8
:100EC000FFF7ACF900BF08E000BFFFF7B7FA00BFBB
:100ED0005046FFF7A3F900BF00BF00BF45F2837083
:100EE000288069E704F10809B9F8080080BB0020F0
:100EF000206284F8250000BF00BF00BFFFF78AF919
:100F0000824600BFFFF780FA00BF49480078401EC4
:100F10004749087008460078D8B902F0A1F9454859
:100F2000008800280BDD00BFFFF788FA00BF50469D
:100F3000FFF774F900BF00BF02F056F912E000BFDE
:100F4000FFF77CFA00BF5046FFF768F900BF09E0E1
:100F50000CE000BFFFF772FA00BF5046FFF75EF9E2
:100F600000BF00BF00BF0020288025E72F48006891
:100F700090F8370094F82410884219D02B48006864
:100F800002F004F994F824002849096881F8370030
:100F90002649096891F8370001F07CFF2348006872
:100FA00002F0B4F82148006890F837002249087030
:100FB000D9F800008668266296F8370084F8240085
:100FC000012084F8250000231A4631462046009768
:100FD00001F0CAFE00BF00BF00BFFFF71BF9824649
:100FE00000BFFFF711FA00BF11480078401E1049FA
:100FF00008700846007808B902F032F900BFFFF720
:101000001DFA00BF5046FFF709F900BF00BF00BF3F
:1010100008F4004008B900F011F80020288000BF53
:10102000CAE60000780000204D55545820010020E9
:10103000C80000208C000020AE00002010B5002465
:1010400020480078002800DD10BD1F4800780028E7
:1010500000DDF9E700BFFFF7DDF8044600BF01F04F
:10106000F9FE1A4908700846007800EB400018495C
:1010700051F82000174908600846006816490968B9
:10108000884205D100BF2046FFF7C8F800BFDBE764
:1010900010480068D0F89000401C0E490968C1F85B
:1010A00090000E480068401C0C4908604FF08050CA
:1010B0000B49086000BF2046FFF7B0F800BF00BF33
:1010C000C2E7000078000020C8000020AF00002028
:1010D000A01D00202401002020010020F400002099
:1010E00004ED00E070B5044600251A480078002899
:1010F00003DD46F66250208070BD17480078012855
:1011000003D045F689602080F6E714480078FA2875
:1011100003DB45F209202080EEE700BF00BFFFF7A8
:1011200079F8054600BFFFF76FF900BF0B4800785C
:10113000401C0A49087002F085F800BFFFF77EF9ED
:1011400000BF2846FFF76AF800BF00BF00202080DC
:1011500000BFD1E77800002080000020C8000020F8
:1011600070B50446002523480078002803DD46F6C4
:101170006550208070BD20480078012803D045F6D6
:1011800089602080F6E71D48007818B946F664505B
:101190002080EFE700BF00BFFFF73CF8054600BF27
:1011A000FFF732F900BF15480078401E1349087058
:1011B0000846007800280CDD00BFFFF73FF900BFAC
:1011C0002846FFF72BF800BF00BF46F6635020808B
:1011D000D0E702F045F800BFFFF730F900BF28461E
:1011E000FFF71CF800BF00BFFFF728FF002020809A
:1011F00000BFBFE77800002080000020C80000206A
:1012000010B5044612480078E8B901F023FE1149F0
:10121000087008460078104908700E48007800EB06
:1012200040000E4951F820000D490860084600684A
:101230000C490860012006490870FFF739F843F6A9
:101240009920208002E045F68A60208010BD0000D1
:1012500080000020AF000020AE000020A01D002074
:1012600024010020200100202DE9F04107464FF025
:10127000000800BF00BFFEF7CDFF804600BFFFF7AC
:10128000C3F800BF00204749086047490880474924
:10129000088047490860474908604749086047494E
:1012A0000860474908604749088100BFFFF7C6F852
:1012B00000BF4046FEF7B2FF00BF00BF00BF00BF47
:1012C000FEF7A8FF804600BFFFF79EF800BF3E482C
:1012D000046800BFFFF7B2F800BF4046FEF79EFF6C
:1012E00000BF00BF26E000BF00BFFEF793FF8046AF
:1012F00000BFFFF789F800BF00207834E063206466
:1013000020602063A061A082E0826062A062FFF79B
:10131000BFF82062783C04F164060020B081D4F864
:10132000C04000BFFFF78AF800BF4046FEF776FFD7
:1013300000BF00BF002CD6D100BF00BFFEF76AFF80
:10134000804600BFFFF760F800BF2048056800BF77
:10135000FFF774F800BF4046FEF760FF00BF00BF14
:1013600016E000BF00BFFEF755FF804600BFFFF745
:101370004BF800BF05F120060020B081AD6900BF29
:10138000FFF75CF800BF4046FEF748FF00BF00BF14
:10139000002DE6D103F098FA03F026FD00203880F6
:1013A000BDE8F081940000208E000020DE000020C7
:1013B000F000002004010020100100207C0000202B
:1013C000C0000020941D0020F8000020B400002080
:1013D00010B50348006810B101480068804710BD8F
:1013E000680000202DE9FF4F87B004469046DDE9F4
:1013F0001BA5DDE91496179F0020039095480078FF
:10140000002805DD47F24A1028800BB0BDE8F08FB8
:101410001CB947F2AD102880F7E7B8F1000F03D1EF
:1014200047F24F102880F0E71EB946F62F6028805B
:10143000EBE789480068874203D246F6306028808F
:10144000E3E71698B84203D346F631602880DCE71C
:10145000B9F1200F03D346F273202880D5E7B9F104
:10146000000F06D17D48844203D046F273202880C5
:10147000CBE7B9F11F0F06D17948844203D046F279
:1014800073202880C1E7204602F0FEFA0020288061
:101490000AF0010090B10AF0020078B10596002030
:1014A000069008E00021059801600598001D059050
:1014B0000698401C06900698B842F3D3169806EB9F
:1014C00080000490CDE9007A32464046049B0A9998
:1014D00000F094FB0590C4F828800A98E062089810
:1014E000206284F83790059820600498A0601998CD
:1014F0006065199818B95B480068A06501E0199803
:10150000A0651A9860606662A763A4F83CA04FF0DB
:10151000000B08E0002104F17C0040F82B100BF1D7
:10152000010000F0FF0BBBF1000FF3D004F16400E9
:10153000189901F04FFA204600F09EF800BF00BF56
:1015400000BFFEF767FE039000BFFEF75DFF00BF20
:1015500045480078401C4449087008460078012836
:1015600001D101F06FFE00BFFEF768FF00BF0398D6
:10157000FEF754FE00BF00BF00BF94F8370001F033
:1015800089FC204601F0C2FD204602F033FA3748BC
:101590000088401C3549088035480078012837D03C
:1015A00000BF00BF00BFFEF735FE039000BFFEF78F
:1015B0002BFF00BF2C480078401E2B4908700846BE
:1015C0000078D0B901F04CFE2A48008800280BDDD5
:1015D00000BFFEF733FF00BF0398FEF71FFE00BFFA
:1015E00000BF01F001FE11E000BFFEF727FF00BFC2
:1015F0000398FEF713FE00BF08E000BFFEF71EFFD2
:1016000000BF0398FEF70AFE00BF00BF00BFFCE664
:1016100000BF00BF00BFFEF7FDFD039000BFFEF757
:10162000F3FE00BF10480078401E0F4908700846BE
:10163000007808B901F014FE00BFFEF7FFFE00BFFE
:101640000398FEF7EBFD00BF00BF00BFFFF7F6FCFD
:1016500000BFDAE678000020F8560008CC1C002015
:10166000041C0020CC000020C8000020FC0000204A
:10167000800000208C00002010B50446034800685C
:1016800018B1204601490968884710BD580000205C
:1016900070B504460D46002678480078002803DD22
:1016A00047F24E10288070BD7548844203D147F23E
:1016B0004C102880F7E77348844203D147F24D105D
:1016C0002880F0E79CB900BF00BFFEF7A3FD0646E7
:1016D00000BFFEF799FE00BF6B48046800BFFEF72D
:1016E000ADFE00BF3046FEF799FD00BF00BF00BF52
:1016F00000BF00BFFEF78EFD064600BFFEF784FE6A
:1017000000BF62480078401C6049087008460078B5
:10171000012801D101F096FD00BFFEF78FFE00BF4A
:101720003046FEF77BFD00BF00BF00BF94F83600D7
:1017300008282DD2DFE800F004090E10080A0F1166
:10174000204601F023FD5EE05DE000BF204603F08F
:101750009FF858E000BF00BF00BF204603F098F894
:1017600094F83400082810D2DFE800F004070508D8
:10177000090A0B0600BF00BF08E000BF00BF00BFA2
:1017800000BF204601F0B7FA00E000BF00BF3AE01A
:1017900000BF00BF00BFFEF73DFD064600BFFEF7DD
:1017A00033FE00BF39480078401E384908700846AB
:1017B0000078D0B901F054FD3548008800280BDDD1
:1017C00000BFFEF73BFE00BF3046FEF727FD00BF1F
:1017D00000BF01F009FD11E000BFFEF72FFE00BFC2
:1017E0003046FEF71BFD00BF08E000BFFEF726FEF7
:1017F00000BF3046FEF712FD00BF00BF00BF46F637
:101800002D6028804FE700BF04F1640001F0C0F8AC
:10181000204600F041F8204602F004F91D480088F7
:10182000401E1C490880204602F02EF9FF2084F853
:10183000360000BF00BF00BFFEF7ECFC064600BF4D
:10184000FEF7E2FD00BF11480078401E0F49087006
:101850000846007808B901F003FD00BFFEF7EEFD71
:1018600000BF3046FEF7DAFC00BF00BF00BF00201B
:101870002880FFF7E3FB00BF15E700007800002099
:10188000041C0020CC1C002020010020C8000020E7
:101890008C000020FC00002010B5044603480068BE
:1018A00018B1204601490968884710BD5C00002036
:1018B00010B504460348006818B12046014909687C
:1018C000884710BD600000202DE9F04780460E4695
:1018D00014461D464FF000098C480078002805DDAD
:1018E00046F2AE1028800020BDE8F0871EB1B6F5A4
:1018F000004F02D100E000BF04E045F625602880DB
:101900000020F1E700BF0CB10020206000BF00BF45
:10191000FEF780FC814600BFFEF776FD00BF7C48E5
:101920000068406CB8B37A480068406C401E784943
:101930000968486476480068476C1CB174480068C0
:10194000006C2060FEF7A4FD71490968096C401A1B
:101950006F490968C1F8A4006D480068D0F8A80074
:101960006B490968D1F8A410884207D2684800681A
:10197000D0F8A40066490968C1F8A80000BFFEF7C6
:101980005DFD00BF4846FEF749FC00BF00BF0020D8
:1019900028803846A8E7FFE706F4004068B100BF9A
:1019A000FEF74CFD00BF4846FEF738FC00BF00BF05
:1019B00046F2B0102880002096E7564800780028AC
:1019C0000DDD00BFFEF73AFD00BF4846FEF726FCDE
:1019D00000BF00BF46F663502880002084E700BFA8
:1019E0004C480078401C4B49087008460078012894
:1019F00001D101F027FC00BFFEF720FD00BF4846E3
:101A0000FEF70CFC00BF00BF00BF434607220021C9
:101A1000084601F08DF800BF00BF00BFFEF7FAFBDB
:101A2000814600BFFEF7F0FC00BF3A480078401E38
:101A3000384908700846007808B901F011FC00BF69
:101A4000FEF7FCFC00BF4846FEF7E8FB00BF00BF06
:101A500000BFFFF7F3FA00BF00BFFEF7DBFB8146D4
:101A600000BFFEF7D1FC00BF2948006890F83500A0
:101A700020B1012826D0032834D12CE0FCB1244821
:101A80000068006C2060FEF703FD21490968096CBD
:101A9000401A1F490968C1F8A4001D480068D0F821
:101AA000A8001B490968D1F8A410884207D2184839
:101AB0000068D0F8A40016490968C1F8A800002001
:101AC000288013E01CB112480068006C206046F2C8
:101AD000A91028800AE00CB10020206047F2D9202C
:101AE000288003E046F62E60288000BF00BF08482B
:101AF0000068476C00BFFEF7A1FC00BF4846FEF738
:101B00008DFB00BF00BF3846EEE6000078000020E5
:101B100020010020C80000202DE9F04705460E46B0
:101B200017461C464FF0000A32480078002804DDB2
:101B300047F259102080BDE8F0871EB946F2D52043
:101B40002080F8E71FB946F2D5202080F3E700BFD8
:101B500000BFFEF75FFB824600BFFEF755FC00BFEB
:101B60000DB925480568286878B900BFFEF766FCFE
:101B700000BF5046FEF752FB00BF00BF00203060A0
:101B8000386047F252102080D5E795F83C0000F00D
:101B9000010078B900BFFEF751FC00BF5046FEF7C8
:101BA0003DFB00BF00BF00203060386047F254109A
:101BB0002080C0E700BFFEF741FC00BF5046FEF7A3
:101BC0002DFB00BF00BF4FF00008D5F8249003E0C4
:101BD00009F1040908F10108D9F800000028F7D03C
:101BE000C6F80080A86BA0EB0800386000202080B9
:101BF00000BFA0E77800002020010020F0B50446D7
:101C0000DDE9055602EB85004FF0807C071F384662
:101C1000C7F800C0071F38463C60DFF89CC0071FAC
:101C20003846C7F800C04FF0123C071F3846C7F8C7
:101C300000C04FF0033C071F3846C7F800C04FF004
:101C4000023C071F3846C7F800C0071F38463B60F4
:101C5000071F384639604FF0113C071F3846C7F858
:101C600000C04FF0103C071F3846C7F800C04FF0C7
:101C7000093C071F3846C7F800C04FF0083C071F53
:101C80003846C7F800C04FF0073C071F3846C7F872
:101C900000C04FF0063C071F3846C7F800C04FF0A1
:101CA000053C071F3846C7F800C04FF0043C071F2B
:101CB0003846C7F800C0F0BD5D3F000870B5244845
:101CC000006810B1224800688047FEF7E1FB044637
:101CD0002048006820490968884215D01D480068DE
:101CE000D0F89800201A1B490968C1F894001948D7
:101CF0000068D0F89C0017490968D1F8941008448E
:101D000014490968C1F89C0013480068C0F898405D
:101D1000FEF74EFB05460F480068D0F8B400A84215
:101D200003D20C480068C0F8B4500A480068D0F8E4
:101D3000B8000A490968884205D208480068054980
:101D40000968C1F8B80000200449086070BD0000AF
:101D50006C0000202001002024010020C40000208D
:101D60002DE9F04105460E46144600274D480078FF
:101D7000002804DD47F275202080BDE8F0814A4844
:101D80000078002803DD46F663502080F5E736B181
:101D9000022E05D0042E0AD0082E09D101E000BF82
:101DA00000BF1DB947F27E202080E6E704E003E093
:101DB00045F625602080E0E700BF00BF00BF00BF00
:101DC000FEF728FA074600BFFEF71EFB00BF3648A5
:101DD0000078401C3449087008460078012801D179
:101DE00001F030FA00BFFEF729FB00BF3846FEF7CE
:101DF00015FA00BF00BF00BF01202C49096881F817
:101E000036002346324629462848006802F062FC24
:101E10002088F0B100BF00BF00BFFEF7FBF9074606
:101E200000BFFEF7F1FA00BF1F480078401E1E49B0
:101E300008700846007808B901F012FA00BFFEF7F2
:101E4000FDFA00BF3846FEF7E9F900BF00BF00BF4A
:101E500093E71648006801F099F900BF00BF00BF82
:101E6000FEF7D8F9074600BFFEF7CEFA00BF0E48CE
:101E70000078401E0C4908700846007808B901F047
:101E8000EFF900BFFEF7DAFA00BF3846FEF7C6F9F1
:101E900000BF00BF00BFFFF7D1F80020208000BFC7
:101EA0006BE7000078000020C8000020200100201F
:101EB00010B586B000F01EF8FEF7EAFA044605A851
:101EC00000210091CDE9011403900748007800EB50
:101ED0004000064A02EB800100231A46044800F045
:101EE000C1FA06B010BD0000AE000020A01D002009
:101EF0005449434B10B50348006810B101480068CD
:101F0000804710BD70000020254A2649264A274AEE
:101F10002749284A2848294A294A2A4A2A4A2B482E
:101F20002B482C482C4A2D482D4A2E482E4A2F4803
:101F30002F4830483048314A314A324A3248334AD1
:101F4000334A3448344835483548364836483748A7
:101F5000374A384A384A394A39483A483A483B4A6F
:101F60003B4A3C4A3C483D483D483E493E483F4A42
:101F70003F4A404A404A414A414A424A4248434A0B
:101F8000434A44484448454A454A4648464A474ADF
:101F900047484848484800BF00BF00BF704700009E
:101FA00040570008A8580008415700084257000849
:101FB00044570008485700084C5700084957000884
:101FC00074570008755700087657000878570008BE
:101FD0007A5700087C5700087E5700088057000891
:101FE000A0570008A2570008A4570008A6570008E9
:101FF000A8570008AA570008AC570008D85700088F
:10200000D9570008DA570008DC570008DE570008E7
:10201000DF570008E0570008E2570008E4570008BF
:10202000E6570008E8570008EA570008EC57000890
:102030001C5800081D5800081E5800081F580008AA
:102040002058000822580008245800084C5800085E
:102050004D5800084E5800084F58000850580008C6
:102060005258000854580008585800085958000899
:102070005A5800085B5800085C5800085D58000872
:102080005E5800085F580008605800086258000851
:10209000635800086458000866580008685800082B
:1020A000695800086C580008A0580008A15800089A
:1020B000A2580008A4580008A65800080021034AA6
:1020C0001160034A118001807047000098000020D1
:1020D0009C0000202DE9F04F85B0044689469246C9
:1020E0009B46DDF838800020009000BF00BFFEF75F
:1020F00091F8009000BFFEF787F900BFBAF1000F1A
:102100000AD0BAF1010F0DD0BAF5004F05D06FF427
:102110000040504460B906E000BF206A40EA090070
:10212000206216E000BF206A20EA0900206210E069
:1021300000BFFEF783F900BF0098FEF76FF800BFFD
:1021400000BF45F62560A8F80000002005B0BDE8F6
:10215000F08F00BFC4F824B004F10800019001988A
:10216000008968B900BFFEF769F900BF0098FEF763
:1021700055F800BF00BF0020A8F80000206AE5E77E
:1021800000BF71480078401C6F490870084600780D
:10219000012801D101F056F800BFFEF74FF900BF4A
:1021A0000098FEF73BF800BF00BF00BF019807682A
:1021B000BD6889E07868029095F8880000F00F000B
:1021C00003900398012821D002282ED0042802D0A1
:1021D000082836D10EE0206AD5F8801000EA010602
:1021E000D5F88000B04204D15A463146284600F066
:1021F000AFF863E0206AD5F8801000EA010626B146
:102200005A463146284600F0A3F857E0D5F880003A
:10221000216A20EA0106D5F88000B04204D15A466E
:102220003146284600F094F848E0D5F88000216A4D
:1022300020EA010626B15A463146284600F088F8C1
:102240003CE000BF00BF00BFFDF7E4FF009000BF0F
:10225000FEF7DAF800BF3C480078401E3A490870A3
:1022600008460078D0B900F0FBFF38480088002805
:102270000BDD00BFFEF7E2F800BF0098FDF7CEFFD0
:1022800000BF00BF00F0B0FF11E000BFFEF7D6F8BE
:1022900000BF0098FDF7C2FF00BF08E000BFFEF7D7
:1022A000CDF800BF0098FDF7B9FF00BF00BF00BF29
:1022B00043F6FF20A8F80000002047E700BF029F78
:1022C0000FB1BD6800E00025002D7FF473AF00BFA3
:1022D00000BF00BFFDF79EFF009000BFFEF794F81F
:1022E00000BF19480078401E17490870084600785A
:1022F00008B900F0B5FF00BFFEF7A0F800BF0098D6
:10230000FDF78CFF00BF00BF00BF0AF4004008B912
:10231000FEF794FE00BF00BFFDF77CFF009000BFFA
:10232000FEF772F800BF206A049000BFFEF786F83F
:1023300000BF0098FDF772FF00BF00BF0020A8F8A3
:102340000000049802E70000C80000208C00002074
:1023500070B504460E46154634342665002060707C
:102360002070E560A078343C082816D2DFE800F041
:10237000040508090706101100BF00BF00BF0DE0EB
:1023800000BF204601F01EFD002084F8360005E065
:1023900000BF042084F8360000E000BF00BF2046E4
:1023A00000F0A9FC70BD0000002400BF1DE000BFCC
:1023B00000BFFDF72FFF044600BFFEF725F800BF62
:1023C0000A480068401C0949086009480068401C28
:1023D0000749086000BFFEF731F800BF2046FDF74F
:1023E0001DFF00BF00BFFEF75DF9E0E774000020AD
:1023F000E000002010B58AB0044600200E490860B5
:102400000B2000210591CDE90704069108460B49F0
:1024100009680B4A12680B4B1B68CDE90132CDE904
:1024200003101F200023084A08A100900C48FEF763
:10243000D9FF0AB010BD000074000020A4560008A7
:10244000A05600089C560008A923000875432F4F8A
:10245000532D4949492049646C65205461736B00D0
:10246000041C00202DE9F84F04460D4616461F4671
:10247000DDE90BABDDF82890DDF83480002000901A
:1024800000BF00BFFDF7C6FE009000BFFDF7BCFF18
:1024900000BF2C4800882C49098888423EDA294828
:1024A0000088401C274908802848008809888842FD
:1024B00003DA24480088254908802548006804601C
:1024C00023480068856022480068C660204800688C
:1024D00007821F480068C0F814901D480068A0F8E3
:1024E00018A01B480068C0F81CB019480068406874
:1024F000174908600120174908811748086048609B
:10250000002000F0C7FC1548007818B11348007887
:10251000134908700020A8F8000008E0114800885E
:10252000401C1049088044F25360A8F8000000BF26
:10253000FDF784FF00BF0098FDF770FE00BF00BFED
:10254000BDE8F88F8C000020B05600088E000020F7
:1025500084000020A01D0020CC1C0020AE00002024
:10256000B0000020900000203EB559480068006887
:10257000584A811A904279D00FDC57490844002804
:102580003ED056490844A8B155490844002860D0B7
:102590005449084400286AD13FE0534808440028C1
:1025A00050D052490844002862D0514908440028BC
:1025B000F1D110E002A8464D00902D68EB69444D22
:1025C0002D682A8B424D2D686969414D2D68A86898
:1025D000FFF780FD7AE002A93D480068C0693C4DE4
:1025E000CDE900012D682B8B394D2D682A8A384D95
:1025F0002D68E968364D2D68A86800F07BFC65E021
:10260000334B1B68DA69324B1B68198B304B1B68E4
:10261000986802AB00F0C4FE58E002A92C4800689C
:10262000C0692B4DCDE900012D682B8B284D2D68FD
:102630002A8A274D2D68E968254D2D68A86801F084
:102640008BFA43E022490968886802A901F0C8FBB7
:102650003CE01F4B1B68DA691D4B1B68198B1C4B38
:102660001B68986802AB01F085FC2FE007E02CE0C6
:1026700017490968886802A901F050FF26E01D4942
:10268000097801EB41011C4A02EB810000F006FED3
:102690000F48006802AB0021C269184801F06AFCCB
:1026A00017480068401E164908600846006858B977
:1026B000144800680860FDF7EBFE044602AB2246B2
:1026C0000021114801F056FC00E000BF00BF3EBDF4
:1026D000880000205449434BADBAB2BE0DF90BFA45
:1026E000F2F8F7FF0006F6FF00F7FDF700FFEFFF37
:1026F00003FE0FFEB0000020A01D0020E81F0020F8
:102700001C01002018010020B0200020002700BF7D
:1027100056E0002652E000BF00BFFDF77BFD0746F4
:1027200000BFFDF771FE00BF2648008898B9002061
:10273000254908810860486000F0BEFB00BFFDF736
:102740007DFE00BF3846FDF769FD00BF00BFFEF704
:1027500075FC012632E000BFFDF770FE00BF384671
:10276000FDF75CFD00BF00BFFDF792FE0546FFF7D9
:10277000FBFEFDF78DFE441B14480068A04201D209
:102780001248046000BF00BFFDF744FD074600BFCC
:10279000FDF73AFE00BF0E48006840680C4908602B
:1027A00008480088401E0749088000BFFDF746FE24
:1027B00000BF3846FDF732FD00BF00BF002EAAD093
:1027C000A7E700008C000020A01D0020940000203E
:1027D00088000020F0B589B0054600203149088006
:1027E0003148006820B944F25260288009B0F0BD39
:1027F0002E480088022803DA44F254602880F5E766
:1028000000202B4908602848046826462036002707
:102810000CE0284820600020A060E0602082606119
:102820002083666020342036781C87B21F480088D9
:102830008742EEDB203C1C48066866601E48066046
:102840001E48066000201E4908801E4908801E4858
:10285000006818B944F255602880C7E71B48006833
:102860001B490968884203D244F256602880BDE7BC
:10287000032000210591CDE9070506911348006862
:10288000144A1268104B1B68CDE90301CDE90132EF
:1028900000910B46104A11A11748FEF7A3FD00BF97
:1028A000A4E7000090000020AC560008B0560008D5
:1028B000940000204E4F4E458400002088000020E8
:1028C0008C0000208E000020B8560008C05600087A
:1028D000F8560008BC5600080D27000875432F4F16
:1028E000532D49494920495352205175657565203A
:1028F0005461736B00000000CC1C00200021034ACF
:102900001160034A1180018070470000A000002080
:10291000A400002070B501461A4D2D681DB945F27E
:102920001E750D8070BD184D2D881DB945F21D75A1
:102930000D80F7E7134D28682A681032124D2D8854
:102940006D1EACB2002308E00260002545600581E1
:10295000C560103010325D1CABB2A342F4DB002521
:10296000056045600581C560064D2D68074E3560E0
:10297000054D2D88B5800025F58035810D8000BF7F
:10298000D0E70000DC560008D4560008941D002053
:1029900010B5014648894B89002B17DD0A680C4B9E
:1029A0001B6813600A4C4B6823602346DB884C8904
:1029B0001B1B074CE38023469B884C892344044C13
:1029C000A38000234B818B810B604B6010BD000006
:1029D000941D0020018100224281828102604260B8
:1029E000704700002DE9F0410D46DDE90674B0F8AE
:1029F0000AC0B0F80880C44505DB46F2935CA4F831
:102A000000C0BDE8F081DFF8DCC0BCF804C0BCF158
:102A1000000F04D145F21D7CA4F800C0F1E7DFF8F7
:102A2000C4C0DCF80010DFF8BC80D1F800C0C8F8E2
:102A300000C0C446BCF804C0ACF1010CA8F804C046
:102A4000C446BCF806C00CF1010CA8F806C0C44688
:102A5000BCF808C0B8F80680C44507DADFF884C0BF
:102A6000BCF806C0DFF87C80A8F808C0B0F80AC03F
:102A7000BCF1000F0AD1016041604FF0010CA0F8D9
:102A80000AC04FF0000CC1F800C017E003F0100CB2
:102A9000BCF1000F07D10668316001604FF0000CF7
:102AA000C1F800C004E0D0F804C0C1F800C0416023
:102AB000B0F80AC00CF1010CA0F80AC0B0F80CC0C4
:102AC000B0F80A80C44503DAB0F80AC0A0F80CC018
:102AD0004D600A81CF604FF0000CA4F800C000BF29
:102AE0008FE70000941D002009A1C1610021416110
:102AF0000849096811B90021816105E005490968A3
:102B00008161044909684861024908607047000012
:102B100020000000A80000200021034A1160034AA1
:102B20001180018070470000A8000020AC00002048
:102B30002DE9F04105460C4616461F46154800682B
:102B400080F8346000201349096881F8350039465F
:102B50001048006800F032FF6CB104F10808EC6026
:102B6000012229460B48006800F016F82946404625
:102B700000F08EF806E0002006490968C88705497C
:102B80000968086303480168204600F019F8BDE8A9
:102B9000F08100002001002010B5C28701630023EE
:102BA0000AE000244C600C600C614C610C83CC6129
:102BB000886020315C1CA3B29342F2DB10BD0000A0
:102BC00030B548B14568C1F8C45000F10804226826
:102BD00093681D6AC56113E091F83450022D02D04C
:102BE000072D08D103E007A5C1F8C45007E007A5E9
:102BF000C1F8C45003E008A5C1F8C45000BF00BF2D
:102C000030BD00005461736B205100005461736B40
:102C10002053656D000000002000000030B507A5BE
:102C2000C1F8C45000F1080422681AB193681D6A03
:102C3000C56101E001A5C56130BD000020000000B4
:102C40002DE9F04304460F4684F83770256BB4F83D
:102C50003E8013E0D5F80C9009F108063089012870
:102C600007D92946304600F05EF82946304600F084
:102C70000FF82035A8F101001FFA80F8B8F1000F15
:102C8000E8D1BDE8F0830021016041600181704717
:102C9000F0B58E6896F8375007893FB9012707814C
:102CA00000274F600F600160416023E007897F1CAF
:102CB0000781026806E0946894F83770AF4200DD3F
:102CC00002E05268002AF6D100BF32B900274F60F7
:102CD00043680B60596041600CE017682FB91160C0
:102CE00000270F604A60016004E013680B604A60CF
:102CF00059601160F0BD2DE9F0410446256BE68F67
:102D00000AE0D5F80C8008F108072946384600F09B
:102D10000AF82035701E86B2002EF2DC0020E08713
:102D20002063BDE8F08110B50489012C03D1002493
:102D30000460446011E00C6824B94A6800241460FF
:102D400002600AE04C6824B90B6800245C604360B0
:102D500003E00B684A685A6013600489641E0481AA
:102D600000244C600C6010BD2DE9F84306460C466B
:102D700017469846089D94F83600082850D2DFE898
:102D800000F00405080906072B2C00BF00BF00BF98
:102D900047E000BF94F83400032807D143463A4681
:102DA00021463046009500F03FF803E0E765A4F8BF
:102DB0006080256436B12046FFF79DFF21463046EE
:102DC000FFF72CFF204600F0FDFF00203434A070F8
:102DD000607004F8340924E000BF94F8340003283C
:102DE00007D143463A4621463046009500F01CF88C
:102DF00003E0E765A4F860802564204601F048FD03
:102E000036B12046FFF777FF21463046FFF706FF31
:102E100004203434A0700020607004F8340900E00D
:102E200000BF00BFBDE8F883F0B50446059E086BFF
:102E3000CD8F0AE0C768A74204D1046142610383D1
:102E4000C66104E020306F1EBDB2002DF2DC00BF71
:102E5000F0BD000070B50025074C03E005F120002F
:102E6000C5B2241D20680028F8D02068FDF7DDF9E0
:102E70002844C5B2284670BD54000020002004E05C
:102E80000021034A42F82010401C0028F8D0704767
:102E90005400002030B5420900F01F030121C3F1A6
:102EA0001F04A140034C54F822400C43014D45F847
:102EB000224030BD5400002030B5420900F01F030D
:102EC0000121C3F11F04A140034C54F822408C435C
:102ED000014D45F8224030BD540000200021034A36
:102EE0001160034A1180018070470000B400002087
:102EF000B80000202DE9F04F85B007468A4693467A
:102F00001C460020029000BF00BF00BFFDF782F901
:102F1000029000BFFDF778FA00BF56480078401CC9
:102F20005449087008460078012801D100F08AF958
:102F300000BFFDF783FA00BF0298FDF76FF900BFED
:102F400000BF00BF07F10806308900284CD104F00B
:102F5000100010B94FF0000801E04FF01008DDE953
:102F60000E0143465A46CDE90001514607F12000C3
:102F7000FFF738FD00BF00BF00BFFDF74BF902901F
:102F800000BFFDF741FA00BF3A480078401E3949BA
:102F9000087008460078D0B900F062F93648008819
:102FA00000280BDD00BFFDF749FA00BF0298FDF7CE
:102FB00035F900BF00BF00F017F911E000BFFDF7C1
:102FC0003DFA00BF0298FDF729F900BF08E000BFF5
:102FD000FDF734FA00BF0298FDF720F900BF00BFEB
:102FE00000BF05B0BDE8F08F04F4007008B135896A
:102FF00000E00125D6F8009011E0D9F80800039010
:10300000D9F8040004900E985B465246009038466A
:103010000399FFF7A9FEDDF81090681E85B2002D18
:10302000EBD100BF00BF00BFFDF7F4F8029000BF76
:10303000FDF7EAF900BF0F480078401E0D490870FF
:103040000846007808B900F00BF900BFFDF7F6F963
:1030500000BF0298FDF7E2F800BF00BF00BF04F414
:10306000004008B9FDF7EAFF00210F98018000BF7A
:10307000B7E70000C80000208C00002000210AE013
:1030800001EB4102054B03EB82000022028102604A
:1030900042604A1CD1B22029F2D37047A01D002003
:1030A00010B5044694F83700FFF7F4FE94F83700A3
:1030B00005490978884203D1204600F027F802E04C
:1030C000204600F003F810BDAE00002010B590F8C7
:1030D000373003EB43030C4C04EB83010B893BB902
:1030E00001230B810023C36003610860486009E08D
:1030F0000B895B1C0B810B68C360002303610A68AA
:103100001061086010BD0000A01D002010B590F8EF
:10311000373003EB43030B4C04EB83010B893BB9C2
:1031200001230B810023C36003610860486008E04D
:103130000B895B1C0B810023C3604A680261D0606D
:10314000486010BDA01D002010B501460C8924B1B7
:10315000012C03D0022C0CD101E000BF14E0086860
:103160004A6802610024C4601461D0600A6048604B
:103170000AE008684A68C36800241C61C4600261F0
:10318000D0600B60486000BF00BF10BD2DE9F0416A
:10319000054695F8370000EB4000124901EB80042A
:1031A0002F69EE6887B946B90020208120606060F1
:1031B00095F83700FFF780FE0EE02089401E208141
:1031C00000203061266007E02089401E2081FE60DB
:1031D0000EB9676000E0376100202861E860BDE853
:1031E000F0810000A01D002010B5002400BFFDF7F5
:1031F00011F8044600BF00200D4908700D480E4923
:10320000086008460068D0F89000401C0968C1F8C2
:1032100090000A480068401C084908604FF0805040
:103220000749086000BF2046FCF7F8FF00BF10BD4B
:10323000AF000020CC1C002024010020F40000205E
:1032400004ED00E010B504480078012803D1FDF733
:103250001FF90249086010BDC8000020BC00002012
:1032600010B50A48007880B9FDF712F908490968D5
:10327000441A08480068A04201D206480460064883
:103280000068A04201D20448046010BDC8000020BC
:10329000BC000020C0000020C400002070B505461E
:1032A000002635480078012800D070BD00BF00BF5F
:1032B000FCF7B0FF064600BFFDF7A6F800BF2C687C
:1032C0004CB900BFFDF7BAF800BF3046FCF7A6FFC7
:1032D00000BF00BFE9E72948844209D100BFFDF7DC
:1032E000ADF800BF3046FCF799FF00BF00BFDCE738
:1032F000A06D10B1A06D401EA065A06D48B100BFCB
:10330000FDF79CF800BF3046FCF788FF00BF00BF08
:10331000CBE72889022809DA00BFFDF78FF800BF44
:103320003046FCF77BFF00BF00BFBEE714480078C3
:10333000002809DD00BFFDF781F800BF3046FCF72B
:103340006DFF00BF00BFB0E72846FFF7FDFE2C6809
:10335000606D18B90B480068A06501E0606DA0655C
:1033600000BFFDF76BF800BF3046FCF757FF00BF0A
:1033700000BF00BF99E70000D0000020041C00201F
:10338000C8000020CC0000200021034A1160034A3D
:103390001180018070470000D4000020D800002078
:1033A0002DE9FF5F0446884691461D4600200190A6
:1033B00000BF00BFFCF72EFF019000BFFDF724F80F
:1033C00000BF04F108073889002857D104200128DC
:1033D00004D0022816D004283AD127E0206AFF281A
:1033E0000FD100BFFDF72AF800BF0198FCF716FFC8
:1033F00000BF00BF46F6C5502880002004B0BDE8DD
:10340000F09F26E04FF6FF71206A88420DD100BF81
:10341000FDF714F800BF0198FCF700FF00BF00BFE4
:1034200046F6C55028800020E8E712E0206A401CDC
:1034300068B900BFFDF702F800BF0198FCF7EEFE87
:1034400000BF00BF46F6C55028800020D6E700E048
:1034500000BF00BF206A401C2062D4F820A0C4F83E
:10346000249000BFFCF7EAFF00BF0198FCF7D6FEEE
:1034700000BF00BF002028805046BFE700BF2D4896
:103480000078401C2B49087008460078012801D1BB
:10349000FFF7D8FE00BFFCF7D1FF00BF0198FCF793
:1034A000BDFE00BF00BF00BF08F4007008B13E8938
:1034B00000E00126D7F800B011E0DBF80800029028
:1034C000DBF80400039000231A46CDF80090204654
:1034D0000299FFF749FCDDF80CB0701E86B2002E91
:1034E000EBD1D4F820A000BF00BF00BFFCF792FED4
:1034F000019000BFFCF788FF00BF0E480078401E17
:103500000C4908700846007808B9FFF7A9FE00BF0B
:10351000FCF794FF00BF0198FCF780FE00BF00BFDE
:1035200000BF08F4004008B9FDF788FD002028809E
:10353000504663E7C800002086B00020009000BF1E
:1035400006E0D9490968480001AA0021FEF708FCF5
:10355000D64800780128F4D101A8FDF785FE0027A0
:10356000D3480068D0490968884205D9D048006826
:10357000CD490968B0FBF1F727B9CD4800680A21A9
:10358000B0FBF1F78EE1FCF783FF8246FCF726FFE4
:10359000C849086000BF00BFFCF73CFE009000BFB8
:1035A000FCF732FF00BFC4480068C449086000202F
:1035B000C149086000BFFCF741FF00BF0098FCF75D
:1035C0002DFE00BF00BFBE480068BC4909688842A4
:1035D00048D9BB480068BB49884205D242F2107006
:1035E00003900120029023E0B5480068B649884264
:1035F00005D24FF47A7003900A20029018E0B04888
:103600000068B249884203D26420039002900FE020
:10361000AB480068AE49884205D20A2003904FF4B7
:103620007A70029004E00120039042F21070029040
:10363000A34801680298B1FBF0F9A0490398096812
:103640004843B0FBF9F042F21071081AA149088012
:10365000A14800880988884208DA9E4800889E4967
:10366000088003E042F210709A490880FDF7B0FE2E
:10367000002500BF00BFFCF7CDFD009000BFFCF7A8
:10368000C3FE00BF9548046800BFFCF7D7FE00BF2B
:103690000098FCF7C3FD00BF00BF72E000BF00BF91
:1036A00000BFFCF7B7FD009000BFFCF7ADFE00BF08
:1036B0008B480078401C8A49087008460078012829
:1036C00001D1FFF7BFFD00BFFCF7B8FE00BF0098B7
:1036D000FCF7A4FD00BF00BF00BF54F89C0F606062
:1036E000002044F89C0900BF00BF00BFFCF792FD1A
:1036F000009000BFFCF788FE00BF79480078401EAC
:103700007749087008460078D0B9FFF7A9FD7548D9
:10371000008800280BDD00BFFCF790FE00BF00987A
:10372000FCF77CFD00BF00BFFFF75EFD11E000BFAE
:10373000FCF784FE00BF0098FCF770FD00BF08E0B6
:1037400000BFFCF77BFE00BF0098FCF767FD00BFE1
:1037500000BF00BFD4F8A000054400BF00BFFCF7C5
:1037600059FD009000BFFCF74FFE00BFD4F8C040E9
:1037700000BFFCF763FE00BF0098FCF74FFD00BFE1
:1037800000BF002C8AD145B34E48854205D242F293
:10379000107005904FF0010B1BE04B48854205D29D
:1037A0004FF47A7005904FF00A0B12E047488542BB
:1037B00003D26420059083460BE04548854204D23D
:1037C0000A2005904FF47A7B03E00120059042F235
:1037D000107BB5FBFBF0049003E000200590012076
:1037E000049000BF00BFFCF715FD009000BFFCF780
:1037F0000BFE00BF3948046800BFFCF71FFE00BF86
:103800000098FCF70BFD00BF00BF2FE0D4F8A0002C
:10381000059948430499B0FBF1F086B242F210706A
:10382000864200D90646A4F88C60B4F88E00B042F7
:1038300001DAA4F88E6001AB04F1AC02111D204640
:10384000FEF76AF900BF00BFFCF7E4FC009000BF80
:10385000FCF7DAFD00BFD4F8C04000BFFCF7EEFD76
:1038600000BF0098FCF7DAFC00BF00BF002CCDD1F0
:103870001D480078012805D100201B49087001A8C7
:10388000FDF7F2FCFCF704FEA0EB0A0817480068FD
:10389000404502D21548C0F8008001AA00213846F0
:1038A000FEF75EFA6FE60000E4560008EC00002028
:1038B000FC5600087C000020E0000020E80000200A
:1038C000E4000020801A060000093D00005A620250
:1038D0000084D717DC000020DE000020F800002064
:1038E000C80000208C000020DA000020F00000203A
:1038F00010B58AB0044600201F4908601F490860BF
:103900001F4908601F4908701F4908701F48006858
:1039100020B946F62B6020800AB010BD1C48006814
:103920001C490968884203D246F62C602080F3E7E0
:10393000194800781F2803D346F62A602080EBE759
:10394000032000210591CDE907040691084610499E
:103950000968124A12680D4B1B68CDE90132CDE9A6
:1039600003100D48007800230D4A0EA10090124864
:10397000FDF738FD00BFCFE7E0000020E8000020A1
:10398000E4000020EC000020DA000020E8560008E7
:10399000F0560008F8560008E0560008EC560008FB
:1039A0003935000875432F4F532D49494920537429
:1039B0006174205461736B00201F002038B50446E9
:1039C0000D4685B16B4602222946204600F082FE54
:1039D000BDF8000018B9032084F8360006E0022084
:1039E00084F8360002E0022084F836002046FFF713
:1039F000CDFB38BD0021C0F8BC100949096819B9D0
:103A00000021C0F8C01007E005490968C0F8C010DF
:103A100003490968C1F8BC0001490860704700000B
:103A2000F8000020D0F8BC20D0F8C0104AB90D4BE7
:103A3000196011B10023C1F8BC300023C0F8C030B8
:103A40000FE029B90023C2F8C030C0F8BC3008E04C
:103A5000C2F8C010C1F8BC200023C0F8C030C0F8C4
:103A6000BC307047F80000200021044A1160044A6D
:103A70001180044A1160018070470000F8000020A6
:103A8000FC000020F400002070B5044600202060F7
:103A9000A0606060E06020616061A061E0612BA0D7
:103AA000206200206062A062E0622063E087206400
:103AB000E065A4F86000002104F16400FEF78AFFCD
:103AC000002044F8740F6060E060A0822061743CC4
:103AD000002506E0002104F17C0040F82510681C58
:103AE000C5B2002DF6D00020343420612067606715
:103AF000606084F85600E067A06720814FF00040C6
:103B000060610020A061E06120626062A4F858005A
:103B1000A4F85A00E0652066FCF7BAFC0646666623
:103B20000020A066C4F88000C4F884002070607093
:103B3000A0702020E0700020C4F88800C4F88C0039
:103B400004A0C4F89000343C70BD00003F54617381
:103B50006B000000200000002DE9FC4704460F46E2
:103B600090469946DDE90A654FF0000A00BF00BFA4
:103B700000BFFCF74FFB824600BFFCF745FC00BFCF
:103B80008D480078401C8C49087008460078012850
:103B900001D1FFF757FB00BFFCF750FC00BF5046B8
:103BA000FCF73CFB00BF00BF00BF0CB983480468B2
:103BB0000020288094F8360008287CD2DFE800F046
:103BC0000405484906074A4B00BF00BF00BF4B46EB
:103BD0004246394604F16400CDE90065FEF702FF74
:103BE00000BF00BF00BFFCF715FB824600BFFCF71B
:103BF0000BFC00BF70480078401E6F4908700846F3
:103C00000078D0B9FFF72CFB6D48008800280BDD49
:103C100000BFFCF713FC00BF5046FCF7FFFA00BFE3
:103C200000BFFFF7E1FA11E000BFFCF707FC00BF9F
:103C30005046FCF7F3FA00BF08E000BFFCF7FEFBBC
:103C400000BF5046FCF7EAFA00BF00BF00BFAFE07C
:103C500000BF00BF00BF94F8340002282CD14346B7
:103C60003A46214600200096FFF77EF800BF00BFCD
:103C700000BFFCF7CFFA824600BFFCF7C5FB00BFD0
:103C80004D480078401E4C4908700846007808B935
:103C9000FFF7E6FA00BFFCF7D1FB00BF5046FCF788
:103CA000BDFA00BF00BF00BF09F40040002843D1A7
:103CB000FDF7C4F940E040E04B464246394604F186
:103CC0006400CDE90065FEF78DFE00BF00BF00BFB8
:103CD000FCF7A0FA824600BFFCF796FB00BF36480F
:103CE0000078401E3449087008460078D0B9FFF7C4
:103CF000B7FA3348008800280BDD00BFFCF79EFBB5
:103D000000BF5046FCF78AFA00BF00BFFFF76CFA0D
:103D100011E000BFFCF792FB00BF5046FCF77EFAB3
:103D200000BF08E000BFFCF789FB00BF5046FCF76E
:103D300075FA00BF00BF00BF3AE000BF00BF00BF80
:103D4000FCF768FA824600BFFCF75EFB00BF1A482A
:103D50000078401E1849087008460078D0B9FFF76F
:103D60007FFA1748008800280BDD00BFFCF766FBD0
:103D700000BF5046FCF752FA00BF00BFFFF734FA0D
:103D800011E000BFFCF75AFB00BF5046FCF746FAB3
:103D900000BF08E000BFFCF751FB00BF5046FCF736
:103DA0003DFA00BF00BF00BF46F62D60288000BF6F
:103DB00000BFBDE8FC870000C800002020010020F3
:103DC0008C00002010B50446204600F061FD94F8F8
:103DD000360000F0040010B92046FFF761F910BD6D
:103DE00070B504460D46002600BF00BFFCF712FA6E
:103DF000064600BFFCF708FB00BF0020288094F8AF
:103E0000360008287ED2DFE800F0040506071456C5
:103E10006A8000BF00BF00BF00BFFCF70FFB00BF00
:103E20003046FCF7FBF900BF00BF47F25310288073
:103E30008CE000BF48480078401C4749087008469D
:103E40000078012801D1FFF7FDF900BFFCF7F6FA71
:103E500000BF3046FCF7E2F900BF00BF00BF14F816
:103E60008A0F401E207014F88A0928B9002084F8AF
:103E700036002046FFF7A6FF00BF00BF00BFFCF7DB
:103E8000C9F9064600BFFCF7BFFA00BF3248007808
:103E9000401E314908700846007808B9FFF7E0F97C
:103EA00000BFFCF7CBFA00BF3046FCF7B7F900BF04
:103EB00000BF00BF4AE014F88A0F401E207014F8BB
:103EC0008A0910B9012084F8360000BFFCF7B6FA61
:103ED00000BF3046FCF7A2F900BF00BF36E014F87F
:103EE0008A0F401E207014F88A0910B9022084F845
:103EF000360000BFFCF7A2FA00BF3046FCF78EF98F
:103F000000BF00E015E000BF20E014F88A0F401E5B
:103F1000207014F88A0910B9032084F8360000BF15
:103F2000FCF78CFA00BF3046FCF778F900BF00BF01
:103F30000CE000BFFCF782FA00BF3046FCF76EF9D8
:103F400000BF00BF46F62D60288070BD00BFFDF7A2
:103F500075F800BFF9E70000C800002008B5044864
:103F60000068FDF7A5FC69460020FDF791FB08BD40
:103F7000200100202DE9F8430446884617461D46D7
:103F80004FF0000900BF00BF00BFFCF743F98146B6
:103F900000BFFCF739FA00BFFB480078401CFA4923
:103FA000087008460078012801D1FFF74BF900BFDF
:103FB000FCF744FA00BF4846FCF730F900BF00BFE9
:103FC00000BF0CB9F148046827640020288094F8E9
:103FD000360008287AD2DFE800F00405FEFD060767
:103FE000FCFB00BF00BF00BF0420012804D0022852
:103FF00043D004286BD184E0606CFF283CD100BF23
:1040000000BF00BFFCF706F9814600BFFCF7FCF9D2
:1040100000BFDD480078401EDB4908700846007884
:10402000D0B9FFF71DF9DA48008800280BDD00BF82
:10403000FCF704FA00BF4846FCF7F0F800BF00BFE9
:10404000FFF7D2F811E000BFFCF7F8F900BF4846CF
:10405000FCF7E4F800BF08E000BFFCF7EFF900BF91
:104060004846FCF7DBF800BF00BF00BF46F6C5506E
:1040700028800020BDE8F88385E04FF6FF71606C72
:1040800088423DD100BF00BF00BFFCF7C3F88146A6
:1040900000BFFCF7B9F900BFBB480078401EBA4921
:1040A000087008460078E0B9FFF7DAF8B8480088E9
:1040B00000280DDD00BFFCF7C1F900BF4846FCF742
:1040C000ADF800BF00BFFFF78FF813E0E2E159E061
:1040D00000BFFCF7B3F900BF4846FCF79FF800BFEC
:1040E00008E000BFFCF7AAF900BF4846FCF796F8C5
:1040F00000BF00BF00BF46F6C55028800020B9E7CA
:1041000041E0606C401CD8BB00BF00BF00BFFCF7A3
:1041100081F8814600BFFCF777F900BF9A48007824
:10412000401E9949087008460078D0B9FFF798F802
:104130009748008800280BDD00BFFCF77FF900BF1F
:104140004846FCF76BF800BF00BFFFF74DF811E0E1
:1041500000BFFCF773F900BF4846FCF75FF800BFEB
:1041600008E000BFFCF76AF900BF4846FCF756F8C4
:1041700000BF00BF00BF46F6C5502880002079E789
:10418000FFE700E000BF00BF606C401C6064666C2D
:1041900000BF00BF00BFFCF73DF8814600BFFCF741
:1041A00033F900BF78480078401E77490870084608
:1041B0000078F8B9FFF754F875480088002810DD3A
:1041C00000BFFCF73BF900BF4846FCF727F803E0C7
:1041D0001EE01CE01AE018E000BF00BFFFF704F883
:1041E00011E000BFFCF72AF900BF4846FCF716F8BB
:1041F00000BF08E000BFFCF721F900BF4846FCF70C
:104200000DF800BF00BF00BF80E100BF00BF00BFCE
:1042100094F8340007282CD100231A46214618466A
:104220000097FEF7A1FD666C00BF00BF00BFFBF763
:10423000F1FF814600BFFCF7E7F800BF5248007865
:10424000401E514908700846007808B9FFF708F881
:1042500000BFFCF7F3F800BF4846FBF7DFFF00BFE5
:1042600000BF00BF08F40040002801D1FCF7E6FEC3
:104270000FE10420012804D0022842D0042872D182
:1042800089E0606CFF283BD100BF00BF00BFFBF797
:10429000C1FF814600BFFCF7B7F800BF3A4800787D
:1042A000401E3949087008460078D0B9FEF7D8FF9B
:1042B0003748008800280BDD00BFFCF7BFF800BFBF
:1042C0004846FBF7ABFF00BF00BFFEF78DFF11E0D4
:1042D00000BFFCF7B3F800BF4846FBF79FFF00BFE5
:1042E00008E000BFFCF7AAF800BF4846FBF796FFBE
:1042F00000BF00BF00BF46F6C55028800020B9E6C9
:104300008BE04FF6FF71606C884243D100BF00BF65
:1043100000BFFBF77FFF814600BFFCF775F800BFC9
:1043200019480078401E1849087008460078D8B926
:10433000FEF796FF1648008800280BDD00BFFCF74B
:104340007DF800BF4846FBF769FF00BF00BFFEF7DE
:104350004BFF12E000BFFCF771F800BF4846FBF7C7
:104360005DFF00BF09E057E000BFFCF767F800BF42
:104370004846FBF753FF00BF00BF00BF46F6C550DD
:104380002880002076E60000C800002020010020E0
:104390008C00002041E0606C401CD8BB00BF00BF17
:1043A00000BFFBF737FF814600BFFCF72DF800BFC9
:1043B00058480078401E5749087008460078D0B920
:1043C000FEF74EFF5448008800280BDD00BFFCF7C5
:1043D00035F800BF4846FBF721FF00BF00BFFEF7DE
:1043E00003FF11E000BFFCF729F800BF4846FBF7C8
:1043F00015FF00BF08E000BFFCF720F800BF4846EB
:10440000FBF70CFF00BF00BF00BF46F6C550288079
:1044100000202FE6FFE700E000BF00BF606C401CFB
:104420006064666C00BF00BF00BFFBF7F3FE81460F
:1044300000BFFBF7E9FF00BF36480078401E354952
:10444000087008460078D0B9FEF70AFF32480088A5
:1044500000280BDD00BFFBF7F1FF00BF4846FBF76C
:10446000DDFE00BF00BFFEF7BFFE11E000BFFBF79F
:10447000E5FF00BF4846FBF7D1FE00BF08E000BFE4
:10448000FBF7DCFF00BF4846FBF7C8FE00BF00BFDC
:1044900000BF3BE000BF00BF00BFFBF7BBFE814693
:1044A00000BFFBF7B1FF00BF1A480078401E194952
:1044B000087008460078D0B9FEF7D2FE164800888A
:1044C00000280BDD00BFFBF7B9FF00BF4846FBF734
:1044D000A5FE00BF00BFFEF787FE11E000BFFBF79F
:1044E000ADFF00BF4846FBF799FE00BF08E000BFE4
:1044F000FBF7A4FF00BF4846FBF790FE00BF00BFDC
:1045000000BF46F62D602880002600BF00BF304661
:10451000B0E50000C80000208C00002070B5044603
:104520000D46002600BF00BFFBF774FE064600BF25
:10453000FBF76AFF00BF0CB95A4804685948006885
:10454000844210D15848007800280CDD00BFFBF7EA
:1045500075FF00BF3046FBF761FE00BF00BF46F6A7
:104560006350288070BD0020288094F83600082809
:1045700073D2DFE800F0044252627374757600BFB4
:1045800049480078401C48490870084600780128CE
:1045900001D1FEF757FE00BFFBF750FF00BF3046CA
:1045A000FBF73CFE00BF00BF00BF042084F83600CC
:1045B000012084F88A002046FEF7E8FD00BF00BF16
:1045C00000BFFBF727FE064600BFFBF71DFF00BF3D
:1045D00035480078401E344908700846007808B90C
:1045E000FEF73EFE00BFFBF729FF00BF3046FBF79A
:1045F00015FE00BF00BF00BF4FE0052084F8360065
:10460000012084F88A0000BFFBF718FF00BF304686
:10461000FBF704FE00BF00BF3FE0062084F8360031
:10462000012084F88A0000BFFBF708FF00BF304676
:10463000FBF7F4FD00BF00BF2FE0072084F8360031
:10464000012084F88A0000BFFBF7F8FE00BF304667
:10465000FBF7E4FD00BF00BF1FE011E000BF00BF9B
:1046600000BF94F88A00401C84F88A0000BFFBF762
:10467000E5FE00BF3046FBF7D1FD00BF00BF0CE0F8
:1046800000BFFBF7DBFE00BF3046FBF7C7FD00BFF6
:1046900000BF46F62D60288064E700BFFCF7CEFC23
:1046A00000BF5FE720010020C8000020002108E0D3
:1046B000064A02EBC100002202608280C2804A1CCE
:1046C00091B2034A12889142F2DB7047F41800203D
:1046D000145700082DE9F04F0C4616461D46042ECF
:1046E0001ED1DFF8A091D9F80090A4EB0909A9F137
:1046F000010313F5803F0DD94FF00009C0F84C902D
:10470000C0F85090C0F81C9047F27E29A5F80090A0
:10471000BDE8F08FC46403F10109C0F850903FE098
:1047200084B3082E25D1D0F8489009EB0407DFF8B0
:104730005491D9F80090A7EB0909A9F10103A3420C
:1047400001D2C76406E0DFF83C91D9F80090A1449B
:10475000C0F84C90DFF82CA1D0F84C90DAF800A00B
:10476000A9EB0A09C0F85090D0F84C90C0F84890D6
:1047700016E0DFF81091D9F80090A144C0F84C90F1
:1047800004650DE0FFE74FF00009C0F84C90C0F859
:104790005090C0F81C9047F27E29A5F80090B7E72A
:1047A000DFF8E4A0BAF800A0D0F84C90B9FBFAFB0F
:1047B0000AFB1B991FFA89F8DFF8D09009EBC802B1
:1047C000B2F80490B9F1000F0BD14FF00009C0F816
:1047D0001490C0F8189010604FF00109A2F80490EE
:1047E0003EE0116834E0DFF89CA0D1F84C90DAF894
:1047F00000A0A9EB0A09C1F85090D0F85090D1F868
:1048000050A0D1450ED9D1F81490B9F1000F01D0C4
:1048100049691DE04FF00009C0F8149081614861BA
:10482000002115E0D1F81890B9F1000F07D14FF031
:104830000009C0F8189041618861106007E0D1F864
:1048400018C0C0F818C04161CCF81400886100217C
:104850000029C8D1B2F8049009F10109A2F8049026
:10486000B2F80690B2F804A0D14503DAB2F8049089
:10487000A2F80690C2614FF00009A5F8009000BFB1
:1048800046E700000001002014570008F41800203B
:1048900010B5C269BAB1002404651468844205D118
:1048A0004169116039B100248C6104E08169436978
:1048B0004B6103B19961002444618461C461C464A3
:1048C0009488641E948010BD002006E0054A02EB27
:1048D000C0010022CA80421C90B2034A1288904252
:1048E000F4DB7047F4180020145700082DE9F05F3E
:1048F0004FF0000B00BF00BF00BFFBF78BFC8346EF
:1049000000BFFBF781FD00BF7A480078401C794961
:10491000087008460078012801D1FEF793FC00BF1B
:10492000FBF78CFD00BF5846FBF778FC00BF00BFCB
:1049300000BFFBF7ADFD05466F480068401C6E499F
:104940000860084600686D490988B0FBF1F201FB78
:1049500012001FFA80FA6A4800EBCA08D8F8004033
:10496000002782E0002C7FD0D4F8149094F8360011
:10497000082875D2DFE800F00408051B063D075043
:1049800000BF00BF00BF6CE05B49E06C0968401AE3
:1049900020655949E06C0968884206D1002084F8F6
:1049A00036002046FFF70EFA00E0012759E0524991
:1049B000E06C0968401A20654F49E06C096888423C
:1049C00015D10020E065A4F86000FBF761FD2064CC
:1049D0002046FEF790F92046FFF7F4F90020343422
:1049E000A07003206070002004F8340900E0012763
:1049F00037E04149E06C0968401A20653E49E06CA7
:104A00000968884206D1042084F836002046FFF762
:104A10003FFF00E0012724E03749E06C0968401AB5
:104A200020653549E06C0968884217D10020E065AF
:104A3000A4F86000FBF72CFD20642046FEF75BF92C
:104A40002046FFF725FF04203434A0700320607057
:104A5000002004F8340902E006E001E0012700E04C
:104A600000BF00BF4C4600E00127002F3FF47AAFA3
:104A7000FBF70EFD461B23480068B04201D22148D7
:104A8000066000BF00BF00BFFBF7C4FB834600BF4A
:104A9000FBF7BAFC00BF17480078401E15490870A4
:104AA00008460078D0B9FEF7DBFB174800880028DD
:104AB0000BDD00BFFBF7C2FC00BF5846FBF7AEFBA7
:104AC00000BF00BFFEF790FB11E000BFFBF7B6FC94
:104AD00000BF5846FBF7A2FB00BF08E000BFFBF792
:104AE000ADFC00BF5846FBF799FB00BF00BF00BFFD
:104AF000BDE8F09FC8000020000100201457000806
:104B0000F4180020040100208C0000201CB500BF18
:104B10000EE001AB6A4600210846FCF7D5FEBDF861
:104B2000040028B903480078012801D1FFF7DEFE10
:104B3000EFE700008000002010B58AB00446002096
:104B40001D4908601D490860FFF7B0FD1C4800685A
:104B500020B947F2122020800AB010BD1948006821
:104B600019490968884203D247F213202080F3E7ED
:104B7000164800781F2803D347F211202080EBE766
:104B80000B20002105910A46CDE9070406910D4846
:104B900000680F4909680A4B1B68CDE90131CDE96E
:104BA00003020A48007800230A4A0BA100900F482C
:104BB000FCF718FC00BFCFE7000100200401002033
:104BC000045700080C570008F85600080057000862
:104BD000085700080D4B000875432F4F532D4949C6
:104BE00049205469636B205461736B00E81F0020F7
:104BF00070B58AB004460020314908603148006829
:104C000040B1314800682F490968B0FBF1F02F49E5
:104C1000086006E02C4800680A21B0FBF1F02B493F
:104C200008602A4800682A4908600020294908606D
:104C300029490860002508E0284800EBC506002047
:104C4000B080F0803060681C85B2254800888542BD
:104C5000F2DB2448006820B947F2473020800AB0D0
:104C600070BD2148006821490968884203D247F293
:104C700048302080F3E71E4800781F2803D347F20E
:104C800046302080EBE70B2000210591CDE9070499
:104C90000691084614490968164A1268114B1B68A8
:104CA000CDE90132CDE90310114800780023124A02
:104CB00012A100901748FCF795FB00BFCFE700005A
:104CC0000801002020570008FC56000818010020A9
:104CD0001C01002014010020100100207C1B00207A
:104CE00034570008245700082C570008F8560008CD
:104CF0001C570008285700080D4E000875432F4F19
:104D0000532D4949492054696D6572205461736B74
:104D100000000000B0200020F0B50C46022680F80C
:104D20002A60012C05D12D4F466A3F683E448661BA
:104D30000CE0066A2EB9294F466A3F683E448661F8
:104D400004E0264F066A3F683E448661244F3F8850
:104D50008669B6FBF7FC07FB1C66B5B2214E06EB75
:104D6000C502166836B90026066146611060012644
:104D700096802CE0194F86693F68F61BC661116862
:104D800020E0164F8E693F68F61BCE61C669CF6979
:104D9000BE4209D90E690EB1096913E00026066109
:104DA0004161086100210DE04E692EB9002646617F
:104DB00001614861106004E04B6943610161186161
:104DC000486100210029DCD19688761C9680D6881F
:104DD0009788BE4201DA9688D680F0BD1401002083
:104DE000345700087C1B0020002006E0054A02EB37
:104DF000C0010022CA80421C90B2034A128890422D
:104E0000F4DB70477C1B0020345700081CB500BF42
:104E100053E001AB6A4600210846FCF755FD01A8A6
:104E2000FCF760F9FBF734FB064624480068401C99
:104E3000224908600846006821490988B0FBF1F260
:104E400001FB12001FFA80FA1E4800EBCA08D8F8CE
:104E500000404FF0000B21E0F4B1D4F81090174956
:104E6000A0690968884214D1204600F02FF8208DEF
:104E7000022804D101212046FFF74EFF02E0032063
:104E800084F82A00A56815B12046E168A8474C4679
:104E900004E04FF0010B01E04FF0010BBBF1000FFC
:104EA000DAD0FBF7F5FA871B01A8FCF759F9064899
:104EB0000068B84201D204480760AAE71401002044
:104EC000345700087C1B002010010020F0B5114E63
:104ED00036888569B5FBF6F706FB1755ACB20E4D63
:104EE00005EBC4021568854205D10169116039B12D
:104EF00000254D6104E0416903690B6103B159610B
:104F0000012580F82A5000250561456195886D1EB0
:104F10009580F0BD345700087C1B002029B1064A5B
:104F200092690243044B9A6104E0034A9269824306
:104F3000014B9A61704700000010024030B500211B
:104F40000022002400232D4D6D6805F00C0121B1D5
:104F5000042905D0082923D105E0294D056022E068
:104F6000274D05601FE0254D6D6805F47012234D37
:104F70006D6805F48034022505EB92421CB9214D81
:104F8000554305600BE01D4D6D6805F400351DB1FE
:104F90001C4D5543056002E0194D5543056002E084
:104FA000174D056000BF00BF144D6D6805F0F0019E
:104FB0000909154D6B5C0568DD4045600F4D6D6856
:104FC00005F4E061090A104D6B5C4568DD408560C1
:104FD0000A4D6D6805F46051C90A0B4D6B5C45685C
:104FE000DD40C560054D6D6805F44041890B074DF6
:104FF0006B5CC568B5FBF3F5056130BD0010024080
:1050000000127A0000093D00140000202400002056
:10501000704710B500F002F810BD00000CB500207C
:10502000019000903348006840F4803031490860B6
:1050300000BF3048006800F4003000900198401C28
:105040000190009818B90198B0F5A06FF1D12948E6
:10505000006800F4003010B10120009001E0002051
:1050600000900098012843D12348006840F01000C8
:10507000214908600846006820F0030008600846DF
:10508000006840F0020008601A484068194948600A
:105090000846406848600846406840F480604860C0
:1050A0000846406820F47C1048600846406840F498
:1050B000E81048600846006840F08070086000BF53
:1050C0000C48006800F000700028F9D009484068DA
:1050D00020F00300074948600846406840F002009D
:1050E000486000BF0348406800F00C000828F9D170
:1050F0000CBD00000010024000200240042808D12E
:105100004FF0E021096941F004014FF0E022116104
:1051100007E04FF0E021096921F004014FF0E0229F
:105120001161704710B505480078012805D1FBF7DB
:10513000A5FBFCF7BDFEFBF7B7FB10BD8000002010
:1051400010B51348006840F0010011490860084696
:105150004068104908400E494860084600680E49FA
:1051600008400B4908600846006820F48020086069
:105170000846406820F4FE0048604FF41F00886035
:10518000FFF747FF4FF000600449086010BD0000C2
:10519000001002400000FFF8FFFFF6FE08ED00E0FF
:1051A0001CB51DE001A800231A46194600900D48C1
:1051B000FBF760FC00200C49086001AA00213220A6
:1051C000FCF7CEFD01200949C1F8940101AA002194
:1051D0000448FBF7E3FD01AA08216420FCF7C0FDA9
:1051E000E0E700004807002094812142008021422E
:1051F0001CB51EE001A800231A46194600900D4870
:10520000FBF738FC00200C49086001AA002132207D
:10521000FCF7A6FD01200949C1F8940101AA00216B
:105220000448FBF7BBFD01AA08214FF49670FCF778
:1052300097FDDFE74807002094812142008021424A
:1052400010B58AB0044609AA1BA11E48FBF79EFBB5
:1052500009A8032100220592CDE9062108901046F5
:1052600040210822184BCDE90132CDE9031004207A
:105270000023164A16A100901748FCF7B3F809A8B6
:10528000032100220592CDE9062108901046402115
:105290000822124BCDE90132CDE90310042000238E
:1052A0000F4A10A100901148FCF79CF809A910487A
:1052B000FCF7EEF90AB010BD4C45442030204D7586
:1052C000746578004807002080040020A151000880
:1052D0005461736B20310000B803002048060020A1
:1052E000F15100085461736B2032000080050020EA
:1052F0002801002010B5FBF7C1FA40F225511E48E5
:1053000000F04CF810B31C4800F004F9C4B21B487C
:10531000008800F40040C8B91848008800F48040B4
:1053200060B10A2C03D000201449088020E0134803
:10533000008840F400401149088019E00D2C06D186
:105340000E48008840F480400C49088010E00B486B
:105350000088C0F30D000A490C5408480088401C1E
:105360000649088008460088C72801DD002008801B
:10537000FBF79AFA10BD0000003801403000002011
:10538000F002002021B1828942F40052828104E0BF
:1053900082894DF6FF731A408281704770B50246CC
:1053A000002400230025002040F66A16B14200D1F7
:1053B00000BFC1F3421501F01F03012606FA03F3F3
:1053C000012D02D19689334006E0022D02D1168AC2
:1053D000334001E0968A33400C12012606FA04F4A9
:1053E0001688344013B10CB1012000E0002070BDDC
:1053F000F0B50346002400260025002040F66A1779
:10540000B94200D100BF1846C1F3421401F01F0693
:10541000012707FA06F5012C01D10C3004E0022C1B
:1054200001D1103000E014301AB107682F43076033
:1054300002E00768AF430760F0BD00002DE9F047C8
:1054400086B005460E460024A24600BFA1460027AE
:10545000B08900B100BF2F462C8A4CF6FF70044083
:10546000F08804432C82AC894EF6F3100440B088D7
:1054700031890843718908430443AC81AC8A4FF6F3
:10548000FF400440B0890443AC8201A8FFF756FDF9
:105490001F48874202D1DDF810A001E0DDF80CA022
:1054A000A88900F4004040B10AEBCA0000EB0A10E2
:1054B00031684900B0FBF1F807E00AEBCA0000EBE5
:1054C0000A1031688900B0FBF1F86420B8FBF0F0F5
:1054D00004012009642101FB1089A88900F400401F
:1054E00040B1322000EBC900B0FBF1F000F0070042
:1054F000044308E0322000EB09106421B0FBF1F016
:1055000000F00F0004432C8106B0BDE8F0870000D6
:105510000038014001468888C0F30800704700BF8A
:10552000FEE7014600BF00207047000010B56FF095
:105530000400FFF7E3FD144800681449B0FBF1F0E4
:1055400013490870104800681049B0FBF1F4114885
:105550000068C910B1FBF0F044430E4800684FF4F6
:105560007A71B1FBF0F00C4908804FF0E02000693F
:1055700040F002004FF0E0210861084644610069F4
:1055800040F00100086110BD0000002000127A0008
:1055900028000020FC5600082A00002000B58BB02F
:1055A000FAF7D2FE0AA8FBF787F80AA8032100221F
:1055B0000592CDE906210890104640210822094BAA
:1055C000CDE90132CDE9031003200023064A07A1EB
:1055D00000900948FBF706FF0AA8FBF711FE002020
:1055E0000BB000BDF0010020415200085461736B04
:1055F00053746172740000002801002010B586B059
:105600000446012144F20400FFF788FC4FF40070C7
:10561000ADF8140003208DF8160018208DF817003F
:1056200005A91C48FAF73BFF4FF48060ADF8140061
:1056300004208DF8170005A91648FAF730FF252039
:105640008DF8000003208DF801008DF80200012084
:105650008DF803006846FAF7E1FF01940020ADF8E9
:105660000800ADF80A00ADF80C00ADF810000C20F1
:10567000ADF80E0001A90848FFF7E0FE012240F254
:1056800025510548FFF7B4FE01210348FFF77AFED4
:1056900006B010BD0008014000380140740700202A
:1056A0000C000000800000000002000074090020CF
:1056B0000A00000040010000B40A00200C000000B5
:1056C0008000000000020000B40C002080000000F8
:1056D000000200006400000040060000B40E00203C
:1056E0001E0000000A000000F41400200C0000005E
:1056F000800000000002000040000000C800000020
:1057000001000000F41600200C00000080000000E2
:1057100000020000110000008800000002000000EC
:10572000640000007C1900200C00000080000000D4
:10573000000200001100000088000000901400002A
:105740000101010078563412010100000000000040
:105750000000000000000000000000000000000049
:105760000000000000000000000000000000000039
:1057700000000000010101002800040020000100D9
:105780000000000000000000000000000000000019
:105790000000000000000000000000000000000009
:1057A00001002000010010000C00100000000000AB
:1057B00000000000000000000000000000000000E9
:1057C00000000000000000000000000000000000D9
:1057D0000000000000000000010101002C00010198
:1057E00020000C0020002000040004000000000045
:1057F00000000000000000000000000000000000A9
:105800000000000000000000000000000000000098
:105810000000000000000000000000000101010184
:105820003000010000000000000000000000000047
:105830000000000000000000000000000000000068
:105840000000000000000000000000000101010154
:1058500028000C0080010000040101010101010188
:1058600001000101C8000800010100000000000063
:105870000000000000000000000000000000000028
:105880000000000000000000000000000000000018
:105890000000000000000000000000000000000008
:1058A0000101340008005D762A060000CC5800088B
:1058B00000000020280100006C010008F4590008D5
:1058C00028010020B02600008801000800A24A0438
:1058D00000000000000000000102030406070809A0
:1058E0000000000001020304010203040607080986
:1058F0000204060800000000000000000000000094
:105900000000000000000000000000000000000097
:105910000000000000000000000000000000000087
:105920000000000000000000000000000000000077
:105930000000000000000000000000000000000067
:105940000000000000000000000000000000000057
:105950000000000000000000000000000000000047
:105960000000000000000000000000000000000037
:105970000000000000000000000000000000000027
:105980000000000000000000000000000000000017
:105990000000000000000000000000000000000007
:1059A00000000000000000000000000000000000F7
:1059B00000000000000000000000000000000000E7
:1059C00000000000000000000000000000000000D7
:1059D00000000000000000000000000000000000C7
:1059E00000000000000000000000000000000000B7
:0459F00000000000B3
:0400000508000131BD
:00000001FF
