:020000040800F2
:10000000E8250020D501000829080008C9070008D4
:100010002508000875050008DF51000800000000F1
:10002000000000000000000000000000594D000822
:10003000AD06000800000000F70400086D4E00083F
:10004000EF010008EF010008EF010008EF010008D0
:10005000EF010008EF010008EF010008EF010008C0
:10006000EF010008EF010008EF010008EF010008B0
:10007000EF010008EF010008EF010008EF010008A0
:10008000EF010008EF010008EF010008EF01000890
:10009000EF010008EF010008EF010008EF01000880
:1000A000EF010008EF010008EF010008EF01000870
:1000B000EF010008EF010008EF010008EF01000860
:1000C000EF010008EF010008EF010008EF01000850
:1000D000EF010008B54F0008EF010008EF0100082C
:1000E000EF010008EF010008EF010008EF01000830
:1000F000EF010008EF010008EF010008EF01000820
:10010000EF010008EF010008EF010008EF0100080F
:10011000EF010008EF010008EF010008EF010008FF
:10012000EF010008EF010008EF010008EF010008EF
:1001300000F002F800F03FF80AA090E8000C8244BA
:100140008344AAF10107DA4501D100F034F8AFF297
:10015000090EBAE80F0013F0010F18BFFB1A43F0A5
:10016000010318472454000044540000103A24BFEF
:1001700078C878C1FAD8520724BF30C830C144BF0C
:1001800004680C607047000000230024002500264E
:10019000103A28BF78C1FBD8520728BF30C148BFEA
:1001A0000B607047752900F09180002070471FB5E3
:1001B0001FBD10B510BD00F051F91146FFF7F7FF54
:1001C00005F05AF800F06FF903B4FFF7F2FF03BC33
:1001D00005F007F80948804709480047FEE7FEE7B1
:1001E000FEE7FEE7FEE7FEE7FEE7FEE7FEE7FEE7E7
:1001F00004480549054A064B70470000894E00082F
:1002000031010008E81F0020E8250020E821002037
:10021000E821002072B6704762B67047EFF3108095
:1002200072B6704780F31088704730BF704720BFA8
:100230007047B0FA80F0704790FAA0F0B0FA80F002
:10024000704790FAA0F07047704700000FB404495F
:1002500010B503AA029800F0D3F810BC5DF814FBA7
:100260002C0000202DE9F0410E46044600202062BB
:100270002046E168884730B3252805D0D4E901211C
:100280009047206A401CF2E7E16820460027884733
:10029000050018D0A5F14100192802D820354FF4E7
:1002A00000673246294620462760FFF77BFF40B1B2
:1002B000012804D0F61D26F007060836D8E7361DBB
:1002C000D6E72846DAE7206ABDE8F0812DE9F0415B
:1002D0000646002410687529314616A510D0AFF3E4
:1002E0000080002802DA404213A507E031688A073F
:1002F00001D512A502E0490704D511A5012401E0AA
:10030000AFF3008000210A2206F1240709E0B0FBC8
:10031000F2FCB0FBF2F302FB1C00303078541846BC
:10032000491C0028F3D123462A463046BDE8F04157
:1003300000F00CB8000000002D0000002B000000B1
:100340002000000070477047704770472DE9F04764
:100350000D4699469246044600F124080168880635
:1003600004D5E06921F01001216000E00120A842DD
:1003700001DD471B00E00027A1697A1902EB0900A3
:10038000081AA0612078C00602D42046AFF300808E
:10039000002608E0D4E901211AF806009047206AF7
:1003A000401C761C20624E45F4DB2078C0060AD53E
:1003B0002046AFF3008006E0D4E9012130209047C9
:1003C000206A401C2062381EA7F10107F4DC07E018
:1003D000D4E9012118F805009047206A401C2062EA
:1003E000281EA5F10105F3DC2046AFF3008020783C
:1003F000000602D50220BDE8F0870120FBE70000DF
:10040000074B70B50D467B4400F011F804462846B2
:1004100000F020F810B14FF0FF3070BD204670BDE5
:10042000534E000001694A1C02610878704700B50C
:100430008FB0CDE901310021059105497944CDE91D
:10044000031011466846FFF70DFF0FB000BD000016
:10045000E5FFFFFF007B00F080007047754600F06D
:100460002BF8AE4605006946534620F00700854646
:1004700018B020B5FFF7BCFEBDE820404FF00006E5
:100480004FF000074FF000084FF0000B21F007017C
:10049000AC46ACE8C009ACE8C009ACE8C009ACE8BF
:1004A000C0098D46704710B50446AFF30080204662
:1004B000BDE81040FFF788BE00487047841F002049
:1004C0001D484FF6FF710170002080F309881B481A
:1004D000016881F308881A484FF08051016062B6C4
:1004E000FEE717484FF080510160704714484FF005
:1004F00080510160704772B6EFF3098028B120384F
:1005000080E8F00F0F490968086000B50E48804781
:100510005DF804EB0D480E490A78027009480D4950
:100520000A680260106890E8F00F203080F30988B4
:100530004EF0040E62B6704722ED00E0500000203D
:1005400004ED00E0200100201D180008AE0000208E
:10055000AF0000202401002010B504F047FE4FF446
:10056000A06000F09BF94FF4E13004F0B5FE00F01C
:100570002DF910BD00BFFEE701460846044A126887
:10058000904203D9024A1268801A00E000207047A6
:100590004400002070B5002500BFFFF73FFE054670
:1005A00000BF0648046800BF2846FFF73BFE00BFB7
:1005B0002046FFF7E1FF0646304670BD48000020A8
:1005C00070B50025FFF7E6FF044600BFFFF726FEE3
:1005D000054600BF00200449086000BF2846FFF719
:1005E00021FE00BF204670BD4800002070B50025E8
:1005F00000BFFFF713FE054600BF0648046800BFB2
:100600002846FFF70FFE00BF2046FFF7B5FF06465E
:10061000304670BD4C00002010B509480088401CD1
:10062000074908800748008818B900F039F80649DA
:10063000086004480088401C0249088010BD000082
:10064000380000203A0000203C00002010B50F4880
:100650000088401E0D49088008460088A0B900F0B7
:100660001FF80B490860084600680A490968441ADF
:1006700009480068A04201D20748046007480068A2
:10068000A04201D20548046010BD00003A000020DD
:10069000400000203C000020480000204C000020CA
:1006A0000149486870470000001000E070472DE9DC
:1006B000F0410246002500260020002300240027E8
:1006C00091F803C00CF00F0591F803C00CF0100C6A
:1006D000BCF1000F03D091F802C04CEA050591F877
:1006E00000C0BCF1000F31D0146800202BE04FF0A7
:1006F000010C0CFA00F3B1F800C00CEA03069E42AC
:1007000020D183004FF00F0C0CFA03F7BC4305FA1D
:1007100003FC4CEA040491F803C0BCF1280F06D195
:100720004FF0010C0CFA00FCC2F814C00AE091F87A
:1007300003C0BCF1480F05D14FF0010C0CFA00FCCE
:10074000C2F810C0401C0828D1D31460B1F800C012
:10075000BCF1FF0F34DD546800202EE000F1080CDE
:100760004FF0010808FA0CF3B1F800C00CEA0306D8
:100770009E4221D183004FF00F0C0CFA03F7BC43CB
:1007800005FA03FC4CEA040491F803C0BCF1280FFD
:1007900005D100F1080C08FA0CF8C2F8148091F8A1
:1007A00003C0BCF1480F07D100F1080C4FF001085D
:1007B00008FA0CF8C2F81080401C0828CED3546008
:1007C000BDE8F0810161704700BFFEE708B5012177
:1007D000482004F047FA10208DF8030003208DF81C
:1007E00002002020ADF8000069460C48FFF75FFFCB
:1007F00020210A48FFF7E6FF10208DF803000320B0
:100800008DF802002020ADF8000069460448FFF78B
:100810004EFF20210248FFF7D5FF08BD000C014024
:100820000018014000BFFEE77047000070B50021CE
:1008300000230F22C47804B3154C246804F4E06448
:10084000C4F5E064210AC1F10403CA40447804FA03
:1008500003F184781440214309010E4C0678A15518
:10086000047804F01F050124AC4005786D11AD003B
:1008700005F1E025C5F8004109E0047804F01F0502
:100880000124AC40044D0678761145F8264070BD31
:100890000CED00E000E400E080E100E002490143EB
:1008A000024A1160704700000000FA050CED00E0FC
:1008B0007047000010B50348006810B10148006897
:1008C000804710BD6400002070B5044600F0C2F8F7
:1008D000002048490870484908704849087048494C
:1008E0000860484908604849087048490870484904
:1008F0000870484908604849086048490860484904
:100900000870484800680A21B0FBF1F046490860C9
:100910004648006858B14648056845B143480668EE
:1009200003E0761E002028602D1D002EF9D1002046
:1009300040490860404908604049086040490860F3
:1009400040490860404908604049086040490870D3
:1009500002F038F902F036FA204601F093FA2088C6
:1009600000B170BD204601F0ADFE208800B1F8E76F
:10097000204601F0B3FE208800B1F2E7204601F0E6
:1009800097FF208800B1ECE7204602F04BF9208861
:1009900000B1E6E7204602F09BFB208800B1E0E7CB
:1009A000204602F005FF208800B1DAE7204601F07A
:1009B000F5FD208800B1D4E7204601F0FFFB208838
:1009C00000B1CEE7204603F05BFF208800B1C8E706
:1009D000204602F031FE208800B1C2E7204603F035
:1009E000ABFF208800B1BCE701F072F9FFF760FFB0
:1009F00000BFB6E77800002080000020C80000207B
:100A00002001002024010020AE000020AF000020C3
:100A1000B0000020BC000020C0000020C400002066
:100A2000D0000020D8530008CC000020A8530008B4
:100A3000A4530008580000205C0000206000002043
:100A400064000020680000206C000020700000207E
:100A5000FE0000200A4A1168002002E0002204C1C2
:100A6000401C084A12689042F8D3054A1268054BA8
:100A70001B6802EB8302121F034B1A6070470000D1
:100A8000A4530008A853000850000020084800782C
:100A9000012800D0704707480078FA2800DBF9E702
:100AA00004480078401C0349087000BFF2E70000CA
:100AB000800000207800002010B500242E48007827
:100AC000012800D010BD00BFFFF7A8FB044600BFFF
:100AD0002A48007828B900BF2046FFF7A3FB00BFD3
:100AE000F0E726480078401E244908700846007840
:100AF000002805DD00BF2046FFF794FB00BFE1E7BB
:100B00001F480078002805DD00BF2046FFF78AFB5C
:100B100000BFD7E702F042F81A490870084600788B
:100B200000EB4000184951F82000184908600846B9
:100B3000006817490968884205D100BF2046FFF7C1
:100B400071FB00BFBEE711480068D0F89000401C60
:100B50000E490968C1F890000E480068401C0D4914
:100B600008604FF080500C49086000BF2046FFF736
:100B700059FB00BF00BFA5E78000002078000020DF
:100B8000C8000020AF000020AC1B00202401002082
:100B900020010020F400002004ED00E010B5002446
:100BA00020480078002800DD10BD1F48007800288C
:100BB00000DDF9E700BFFFF731FB044600BF01F09D
:100BC000EDFF1A4908700846007800EB400018490C
:100BD00051F820001749086008460068164909685E
:100BE000884205D100BF2046FFF71CFB00BFDBE7B2
:100BF00010480068D0F89000401C0E490968C1F800
:100C000090000E480068401C0C4908604FF080506E
:100C10000B49086000BF2046FFF704FB00BF00BF80
:100C2000C2E7000078000020C8000020AF000020CC
:100C3000AC1B00202401002020010020F400002033
:100C400004ED00E070B5044600251A48007800283D
:100C500003DD46F66250208070BD174800780128F9
:100C600003D045F689602080F6E714480078FA281A
:100C700003DB45F209202080EEE700BF00BFFFF74D
:100C8000CDFA054600BFFFF7C7FC00BF0B48007850
:100C9000401C0A49087002F079F900BFFFF7D6FC42
:100CA00000BF2846FFF7BEFA00BF00BF002020802B
:100CB00000BFD1E77800002080000020C80000209D
:100CC00070B50446002523480078002803DD46F669
:100CD0006550208070BD20480078012803D045F67B
:100CE00089602080F6E71D48007818B946F6645000
:100CF0002080EFE700BF00BFFFF790FA054600BF76
:100D0000FFF78AFC00BF15480078401E13490870A1
:100D10000846007800280CDD00BFFFF797FC00BFF5
:100D20002846FFF77FFA00BF00BF46F663502080D9
:100D3000D0E702F039F900BFFFF788FC00BF284672
:100D4000FFF770FA00BF00BFFFF728FF00202080E8
:100D500000BFBFE77800002080000020C80000200E
:100D600010B5044612480078E8B901F017FF1149A0
:100D7000087008460078104908700E48007800EBAB
:100D800040000E4951F820000D49086008460068EF
:100D90000C490860012006490870FFF791FB43F6F3
:100DA0009920208002E045F68A60208010BD000076
:100DB00080000020AF000020AE000020AC1B00200F
:100DC00024010020200100202DE9F04107464FF0CA
:100DD000000800BF00BFFFF721FA804600BFFFF701
:100DE0001BFC00BF0020474908604749088047496D
:100DF00008804749086047490860474908604749F3
:100E00000860474908604749088100BFFFF71EFC9A
:100E100000BF4046FFF706FA00BF00BF00BF00BF9B
:100E2000FFF7FCF9804600BFFFF7F6FB00BF3E4826
:100E3000046800BFFFF70AFC00BF4046FFF7F2F965
:100E400000BF00BF26E000BF00BFFFF7E7F9804604
:100E500000BFFFF7E1FB00BF00207834E0632064AF
:100E600020602063A061A082E0826062A062FFF740
:100E700017FC2062783C04F164060020B081D4F8AD
:100E8000C04000BFFFF7E2FB00BF4046FFF7CAF9D2
:100E900000BF00BF002CD6D100BF00BFFFF7BEF9D6
:100EA000804600BFFFF7B8FB00BF2048056800BFC1
:100EB000FFF7CCFB00BF4046FFF7B4F900BF00BF0F
:100EC00016E000BF00BFFFF7A9F9804600BFFFF79B
:100ED000A3FB00BF05F120060020B081AD6900BF73
:100EE000FFF7B4FB00BF4046FFF79CF900BF00BF0F
:100EF000002DE6D103F08CFB03F01AFE00203880B1
:100F0000BDE8F081940000208E000020DE0000206B
:100F1000F000002004010020100100207C000020CF
:100F2000C0000020A01B0020F8000020B40000201A
:100F300010B50348006810B101480068804710BD33
:100F4000680000202DE9FF4F87B004469046DDE998
:100F50001BA5DDE91496179F0020039095480078A3
:100F6000002805DD47F24A1028800BB0BDE8F08F5D
:100F70001CB947F2AD102880F7E7B8F1000F03D194
:100F800047F24F102880F0E71EB946F62F60288000
:100F9000EBE789480068874203D246F63060288034
:100FA000E3E71698B84203D346F631602880DCE7C1
:100FB000B9F1200F03D346F273202880D5E7B9F1A9
:100FC000000F06D17D48844203D046F2732028806A
:100FD000CBE7B9F11F0F06D17948844203D046F21E
:100FE00073202880C1E7204602F0F2FB0020288011
:100FF0000AF0010090B10AF0020078B105960020D5
:10100000069008E00021059801600598001D0590F4
:101010000698401C06900698B842F3D3169806EB43
:1010200080000490CDE9007A32464046049B0A993C
:1010300000F094FB0590C4F828800A98E0620898B4
:10104000206284F83790059820600498A060199871
:101050006065199818B95B480068A06501E01998A7
:10106000A0651A9860606662A763A4F83CA04FF080
:10107000000B08E0002104F17C0040F82B100BF17C
:10108000010000F0FF0BBBF1000FF3D004F164008E
:10109000189901F083FB204600F09EF800BF00BFC6
:1010A00000BFFFF7BBF8039000BFFFF7B5FA00BF22
:1010B00045480078401C44490870084600780128DB
:1010C00001D101F063FF00BFFFF7C0FA00BF039832
:1010D000FFF7A8F800BF00BF00BF94F8370001F089
:1010E0007DFD204601F0B6FE204602F027FB374882
:1010F0000088401C3549088035480078012837D0E1
:1011000000BF00BF00BFFFF789F8039000BFFFF7E3
:1011100083FA00BF2C480078401E2B49087008460F
:101120000078D0B901F040FF2A48008800280BDD84
:1011300000BFFFF78BFA00BF0398FFF773F800BFFB
:1011400000BF01F0F5FE11E000BFFFF77FFA00BF1E
:101150000398FFF767F800BF08E000BFFFF776FAD3
:1011600000BF0398FFF75EF800BF00BF00BFFCE6BA
:1011700000BF00BF00BFFFF751F8039000BFFFF7AB
:101180004BFA00BF10480078401E0F49087008460F
:10119000007808B901F008FF00BFFFF757FA00BF59
:1011A0000398FFF73FF800BF00BF00BFFFF7F6FC52
:1011B00000BFDAE678000020D4530008D81A0020D7
:1011C000101A0020CC000020C8000020FC000020E5
:1011D000800000208C00002010B504460348006801
:1011E00018B1204601490968884710BD5800002001
:1011F00070B504460D46002678480078002803DDC7
:1012000047F24E10288070BD7548844203D147F2E2
:101210004C102880F7E77348844203D147F24D1001
:101220002880F0E79CB900BF00BFFEF7F7FF064635
:1012300000BFFFF7F1F900BF6B48046800BFFFF77C
:1012400005FA00BF3046FEF7EDFF00BF00BF00BF4C
:1012500000BF00BFFEF7E2FF064600BFFFF7DCF964
:1012600000BF62480078401C60490870084600785A
:10127000012801D101F08AFE00BFFFF7E7F900BFA6
:101280003046FEF7CFFF00BF00BF00BF94F8360026
:1012900008282DD2DFE800F004090E10080A0F110B
:1012A000204601F017FE5EE05DE000BF204603F03F
:1012B00093F958E000BF00BF00BF204603F08CF94F
:1012C00094F83400082810D2DFE800F0040705087D
:1012D000090A0B0600BF00BF08E000BF00BF00BF47
:1012E00000BF204601F0ABFB00E000BF00BF3AE0CA
:1012F00000BF00BF00BFFEF791FF064600BFFFF72B
:101300008BF900BF39480078401E384908700846FC
:101310000078D0B901F048FE3548008800280BDD80
:1013200000BFFFF793F900BF3046FEF77BFF00BF19
:1013300000BF01F0FDFD11E000BFFFF787F900BF1E
:101340003046FEF76FFF00BF08E000BFFFF77EF9F1
:1013500000BF3046FEF766FF00BF00BF00BF46F685
:101360002D6028804FE700BF04F1640001F0F4F91C
:10137000204600F041F8204602F0F8F91D480088A8
:10138000401E1C490880204602F022FAFF2084F803
:10139000360000BF00BF00BFFEF740FF064600BF9B
:1013A000FFF73AF900BF11480078401E0F49087056
:1013B0000846007808B901F0F7FD00BFFFF746F9CD
:1013C00000BF3046FEF72EFF00BF00BF00BF002069
:1013D0002880FFF7E3FB00BF15E70000780000203E
:1013E000101A0020D81A002020010020C800002078
:1013F0008C000020FC00002010B504460348006863
:1014000018B1204601490968884710BD5C000020DA
:1014100010B504460348006818B120460149096820
:10142000884710BD600000202DE9F04780460E4639
:1014300014461D464FF000098C480078002805DD51
:1014400046F2AE1028800020BDE8F0871EB1B6F548
:10145000004F02D100E000BF04E045F6256028807F
:101460000020F1E700BF0CB10020206000BF00BFEA
:10147000FEF7D4FE814600BFFFF7CEF800BF7C48E0
:101480000068406CB8B37A480068406C401E7849E8
:101490000968486476480068476C1CB17448006865
:1014A000006C2060FFF7FCF871490968096C401A6C
:1014B0006F490968C1F8A4006D480068D0F8A80019
:1014C0006B490968D1F8A410884207D268480068BF
:1014D000D0F8A40066490968C1F8A80000BFFFF76A
:1014E000B5F800BF4846FEF79DFE00BF00BF0020D4
:1014F00028803846A8E7FFE706F4004068B100BF3F
:10150000FFF7A4F800BF4846FEF78CFE00BF00BFFF
:1015100046F2B0102880002096E756480078002850
:101520000DDD00BFFFF792F800BF4846FEF77AFED8
:1015300000BF00BF46F663502880002084E700BF4C
:101540004C480078401C4B49087008460078012838
:1015500001D101F01BFD00BFFFF778F800BF48463E
:10156000FEF760FE00BF00BF00BF43460722002118
:10157000084601F0A9F900BF00BF00BFFEF74EFE0C
:10158000814600BFFFF748F800BF3A480078401E88
:10159000384908700846007808B901F005FD00BF19
:1015A000FFF754F800BF4846FEF73CFE00BF00BFFF
:1015B00000BFFFF7F3FA00BF00BFFEF72FFE814622
:1015C00000BFFFF729F800BF2948006890F83500F0
:1015D00020B1012826D0032834D12CE0FCB12448C6
:1015E0000068006C2060FFF75BF821490968096C0E
:1015F000401A1F490968C1F8A4001D480068D0F8C6
:10160000A8001B490968D1F8A410884207D21848DD
:101610000068D0F8A40016490968C1F8A8000020A5
:10162000288013E01CB112480068006C206046F26C
:10163000A91028800AE00CB10020206047F2D920D0
:10164000288003E046F62E60288000BF00BF0848CF
:101650000068476C00BFFEF7F9FF00BF4846FEF781
:10166000E1FD00BF00BF3846EEE600007800002034
:1016700020010020C80000202DE9F04705460E4655
:1016800017461C464FF0000A32480078002804DD57
:1016900047F259102080BDE8F0871EB946F2D520E8
:1016A0002080F8E71FB946F2D5202080F3E700BF7D
:1016B00000BFFEF7B3FD824600BFFEF7ADFF00BFDF
:1016C0000DB925480568286878B900BFFEF7BEFF48
:1016D00000BF5046FEF7A6FD00BF00BF00203060EF
:1016E000386047F252102080D5E795F83C0000F0B2
:1016F000010078B900BFFEF7A9FF00BF5046FEF712
:1017000091FD00BF00BF00203060386047F25410E8
:101710002080C0E700BFFEF799FF00BF5046FEF7EC
:1017200081FD00BF00BF4FF00008D5F8249003E012
:1017300009F1040908F10108D9F800000028F7D0E0
:10174000C6F80080A86BA0EB08003860002020805D
:1017500000BFA0E77800002020010020F0B504467B
:10176000DDE9055602EB85004FF0807C071F384607
:10177000C7F800C0071F38463C60DFF89CC0071F51
:101780003846C7F800C04FF0123C071F3846C7F86C
:1017900000C04FF0033C071F3846C7F800C04FF0A9
:1017A000023C071F3846C7F800C0071F38463B6099
:1017B000071F384639604FF0113C071F3846C7F8FD
:1017C00000C04FF0103C071F3846C7F800C04FF06C
:1017D000093C071F3846C7F800C04FF0083C071FF8
:1017E0003846C7F800C04FF0073C071F3846C7F817
:1017F00000C04FF0063C071F3846C7F800C04FF046
:10180000053C071F3846C7F800C04FF0043C071FCF
:101810003846C7F800C0F0BDA53C000870B52448A4
:10182000006810B1224800688047FEF739FF04467F
:101830002048006820490968884215D01D48006882
:10184000D0F89800201A1B490968C1F8940019487B
:101850000068D0F89C0017490968D1F89410084432
:1018600014490968C1F89C0013480068C0F8984002
:10187000FEF7A6FE05460F480068D0F8B400A8425F
:1018800003D20C480068C0F8B4500A480068D0F889
:10189000B8000A490968884205D208480068054925
:1018A0000968C1F8B80000200449086070BD000054
:1018B0006C0000202001002024010020C400002032
:1018C0002DE9F04105460E46144600274D480078A4
:1018D000002804DD47F275202080BDE8F0814A48E9
:1018E0000078002803DD46F663502080F5E736B126
:1018F000022E05D0042E0AD0082E09D101E000BF27
:1019000000BF1DB947F27E202080E6E704E003E037
:1019100045F625602080E0E700BF00BF00BF00BFA4
:10192000FEF77CFC074600BFFEF776FE00BF364898
:101930000078401C3449087008460078012801D11D
:1019400001F024FB00BFFEF781FE00BF3846FEF722
:1019500069FC00BF00BF00BF01202C49096881F865
:1019600036002346324629462848006802F056FDD4
:101970002088F0B100BF00BF00BFFEF74FFC074654
:1019800000BFFEF749FE00BF1F480078401E1E49F9
:1019900008700846007808B901F006FB00BFFEF7A2
:1019A00055FE00BF3846FEF73DFC00BF00BF00BF3C
:1019B00093E71648006801F08DFA00BF00BF00BF32
:1019C000FEF72CFC074600BFFEF726FE00BF0E48C0
:1019D0000078401E0C4908700846007808B901F0EC
:1019E000E3FA00BFFEF732FE00BF3846FEF71AFCEE
:1019F00000BF00BF00BFFFF7D1F80020208000BF6C
:101A00006BE7000078000020C800002020010020C3
:101A10002DE9FF5F05460E4617469846DDE90EA400
:101A20000020009081480078002804DD47F27520EE
:101A30002080BDE8FF9F7E480078002803DD46F641
:101A400063502080F5E70AF00E0BBBF1000F09D0C0
:101A5000BBF1020F07D0BBF1040F10D0BBF1080F90
:101A60000ED101E000BF00BFB8F1000F06D12FB9C1
:101A700026B91DB947F27E202080DAE704E003E0B2
:101A800045F625602080D4E700BF2AF01E0008B18B
:101A9000012000E0002003900398012803D145F6BF
:101AA00025602080C5E7CAF3001002900298C0B9F3
:101AB000B8F57A7F03D347F27B202080B9E73B2F2C
:101AC00003DD47F27A202080B3E73B2E03DD47F2A7
:101AD00079202080ADE7632D12DD47F27820208049
:101AE000A7E742F20F70864203DD47F2792020809B
:101AF0009FE7B5F57A7F03DB47F27820208098E7EF
:101B00004C48D0F800904FF4FA70B0FBF9F0404424
:101B100000FB09F04FF47A71B0FBF1F14FF4616012
:101B20006843C6EB061200EB8200384400FB091044
:101B300001900198002873D000BF00BF00BFFEF7DE
:101B40006DFB009000BFFEF767FD00BF38480078CE
:101B5000401C3749087008460078012801D101F07F
:101B600015FA00BFFEF772FD00BF0098FEF75AFBA2
:101B700000BF00BF00BF01202F49096881F836006F
:101B800023465A462C480199006802F047FC2088F9
:101B9000F0B100BF00BF00BFFEF740FB009000BFE8
:101BA000FEF73AFD00BF22480078401E2049087029
:101BB0000846007808B901F0F7F900BFFEF746FDC6
:101BC00000BF0098FEF72EFB00BF00BF00BF30E74C
:101BD0001948006801F07EF900BF00BF00BFFEF7A2
:101BE0001DFB009000BFFEF717FD00BF10480078F6
:101BF000401E0F4908700846007808B901F0D4F972
:101C000000BFFEF723FD00BF0098FEF70BFB00BFEF
:101C100000BF00BFFEF7C2FF0020208003E0FFE707
:101C200047F27E20208000BF03E7000078000020FC
:101C3000C8000020D85300082001002070B50446D9
:101C4000002600BF00BFFEF7E9FA064600BFFEF718
:101C5000E3FC00BF0748056800BFFEF7F7FC00BFC4
:101C60003046FEF7DFFA00BF00BF00202080284684
:101C700070BD00000001002010B586B000F01EF815
:101C8000FEF70EFD044605A800210091CDE90114E0
:101C900003900748007800EB4000064A02EB800101
:101CA00000231A46044800F0C1FA06B010BD000037
:101CB000AE000020AC1B00205449434B10B5034834
:101CC000006810B101480068804710BD7000002016
:101CD000254A2649264A274A2749284A2848294A80
:101CE000294A2A4A2A4A2B482B482C482C4A2D4854
:101CF0002D4A2E482E4A2F482F4830483048314A26
:101D0000314A324A3248334A334A344834483548F3
:101D10003548364836483748374A384A384A394AC3
:101D200039483A483A483B4A3B4A3C4A3C483D4895
:101D30003D483E493E483F4A3F4A404A404A414A60
:101D4000414A424A4248434A434A44484448454A31
:101D5000454A4648464A474A47484848484800BFD7
:101D600000BF00BF704700001C54000884550008E5
:101D70001D5400081E540008205400082454000874
:101D800028540008255400085054000851540008F5
:101D9000525400085454000856540008585400087F
:101DA0005A5400085C5400087C5400087E54000813
:101DB00080540008825400088454000886540008A7
:101DC00088540008B4540008B5540008B6540008FC
:101DD000B8540008BA540008BB540008BC540008AA
:101DE000BE540008C0540008C2540008C45400087F
:101DF000C6540008C8540008F8540008F9540008F4
:101E0000FA540008FB540008FC540008FE54000873
:101E10000055000828550008295500082A550008D3
:101E20002B5500082C5500082E5500083055000889
:101E30003455000835550008365500083755000858
:101E400038550008395500083A5500083B55000838
:101E50003C5500083E5500083F5500084055000815
:101E600042550008445500084555000848550008EB
:101E70007C5500087D5500087E55000880550008F7
:101E8000825500080021034A1160034A1180018035
:101E900070470000980000209C0000202DE9F04FC2
:101EA00085B00446894692469B46DDF8388000207E
:101EB000009000BF00BFFEF7B1F9009000BFFEF731
:101EC000ABFB00BFBAF1000F0AD0BAF1010F0DD081
:101ED000BAF5004F05D06FF40040504460B906E0F9
:101EE00000BF206A40EA0900206216E000BF206AB5
:101EF00020EA0900206210E000BFFEF7A7FB00BF48
:101F00000098FEF78FF900BF00BF45F62560A8F8DE
:101F10000000002005B0BDE8F08F00BFC4F824B079
:101F200004F1080001900198008968B900BFFEF72C
:101F30008DFB00BF0098FEF775F900BF00BF0020C1
:101F4000A8F80000206AE5E700BF71480078401C4F
:101F50006F49087008460078012801D101F016F891
:101F600000BFFEF773FB00BF0098FEF75BF900BFF0
:101F700000BF00BF01980768BD6889E078680290DB
:101F800095F8880000F00F0003900398012821D0F5
:101F900002282ED0042802D0082836D10EE0206A6C
:101FA000D5F8801000EA0106D5F88000B04204D1CF
:101FB0005A463146284600F0AFF863E0206AD5F86B
:101FC000801000EA010626B15A463146284600F044
:101FD000A3F857E0D5F88000216A20EA0106D5F879
:101FE0008000B04204D15A463146284600F094F8A9
:101FF00048E0D5F88000216A20EA010626B15A4659
:102000003146284600F088F83CE000BF00BF00BF22
:10201000FEF704F9009000BFFEF7FEFA00BF3C484F
:102020000078401E3A49087008460078D0B900F0A0
:10203000BBFF3848008800280BDD00BFFEF706FB19
:1020400000BF0098FEF7EEF800BF00BF00F070FF81
:1020500011E000BFFEF7FAFA00BF0098FEF7E2F8C1
:1020600000BF08E000BFFEF7F1FA00BF0098FEF7DE
:10207000D9F800BF00BF00BF43F6FF20A8F800005A
:10208000002047E700BF029F0FB1BD6800E00025B8
:10209000002D7FF473AF00BF00BF00BFFEF7BEF896
:1020A000009000BFFEF7B8FA00BF19480078401E44
:1020B000174908700846007808B900F075FF00BF9E
:1020C000FEF7C4FA00BF0098FEF7ACF800BF00BFEF
:1020D00000BF0AF4004008B9FEF760FD00BF00BF72
:1020E000FEF79CF8009000BFFEF796FA00BF206A4A
:1020F000049000BFFEF7AAFA00BF0098FEF792F81E
:1021000000BF00BF0020A8F80000049802E700000C
:10211000C80000208C00002070B504460E4615460D
:1021200034342665002060702070E560A078343C6F
:10213000082816D2DFE800F0040508090706101188
:1021400000BF00BF00BF0DE000BF204601F0DEFC75
:10215000002084F8360005E000BF042084F8360033
:1021600000E000BF00BF204600F069FC70BD000029
:10217000002400BF1DE000BF00BFFEF74FF804467B
:1021800000BFFEF749FA00BF0A480068401C094931
:10219000086009480068401C0749086000BFFEF756
:1021A00055FA00BF2046FEF73DF800BF00BFFEF71E
:1021B00081FBE0E774000020E000002010B58AB049
:1021C000044600200E4908600B2000210591CDE94E
:1021D0000704069108460B4909680B4A12680B4B25
:1021E0001B68CDE90132CDE903101F200023084A06
:1021F00008A100900C48FEF7A5FE0AB010BD000033
:1022000074000020805300087C53000878530008B5
:102210007121000875432F4F532D494949204964C6
:102220006C65205461736B00101A00202DE9F84F83
:1022300004460D4616461F46DDE90BABDDF8289037
:10224000DDF834800020009000BF00BFFDF7E6FFFE
:10225000009000BFFEF7E0F900BF2C4800882C4931
:10226000098888423EDA29480088401C27490880AE
:10227000284800880988884203DA244800882549CC
:10228000088025480068046023480068856022486B
:102290000068C6602048006807821F480068C0F8D0
:1022A00014901D480068A0F818A01B480068C0F8EA
:1022B0001CB0194800684068174908600120174998
:1022C0000881174808604860002000F087FC154826
:1022D000007818B113480078134908700020A8F856
:1022E000000008E011480088401C1049088044F2B2
:1022F0005360A8F8000000BFFEF7A8F900BF0098DF
:10230000FDF790FF00BF00BFBDE8F88F8C000020F4
:102310008C5300088E00002084000020AC1B00209D
:10232000D81A0020AE000020B0000020900000204D
:102330003EB5594800680068584A811A904279D0E1
:102340000FDC5749084400283ED056490844A8B13C
:1023500055490844002860D05449084400286AD1EF
:102360003FE053480844002850D052490844002810
:1023700062D0514908440028F1D110E002A8464D2E
:1023800000902D68EB69444D2D682A8B424D2D68D5
:102390006969414D2D68A868FFF780FD7AE002A9C0
:1023A0003D480068C0693C4DCDE900012D682B8B8C
:1023B000394D2D682A8A384D2D68E968364D2D68CB
:1023C000A86800F03BFC65E0334B1B68DA69324BD0
:1023D0001B68198B304B1B68986802AB00F084FEB9
:1023E00058E002A92C480068C0692B4DCDE90001D6
:1023F0002D682B8B284D2D682A8A274D2D68E9687A
:10240000254D2D68A86801F04BFA43E02249096880
:10241000886802A901F088FB3CE01F4B1B68DA6961
:102420001D4B1B68198B1C4B1B68986802AB01F095
:1024300045FC2FE007E02CE017490968886802A9ED
:1024400001F010FF26E01D49097801EB41011C4A0B
:1024500002EB810000F0C6FD0F48006802AB0021CE
:10246000C269184801F02AFC17480068401E164946
:1024700008600846006858B9144800680860FEF70C
:102480000FF9044602AB22460021114801F016FC68
:1024900000E000BF00BF3EBD880000205449434B10
:1024A000ADBAB2BE0DF90BFAF2F8F7FF0006F6FF6F
:1024B00000F7FDF700FFEFFF03FE0FFEB000002066
:1024C000AC1B0020F41D00201C010020180100207E
:1024D000BC1E0020002700BF56E0002652E000BFCF
:1024E00000BFFDF79BFE074600BFFEF795F800BF53
:1024F0002648008898B9002025490881086048606E
:1025000000F07EFB00BFFEF7A1F800BF3846FDF7E4
:1025100089FE00BF00BFFEF741FB012632E000BF8D
:10252000FEF794F800BF3846FDF77CFE00BF00BF01
:10253000FEF7B6F80546FFF7FBFEFEF7B1F8441BC1
:1025400014480068A04201D21248046000BF00BFD6
:10255000FDF764FE074600BFFEF75EF800BF0E48B9
:10256000006840680C49086008480088401E074918
:10257000088000BFFEF76AF800BF3846FDF752FE3C
:1025800000BF00BF002EAAD0A7E700008C000020EB
:10259000AC1B00209400002088000020F0B589B01A
:1025A00005460020314908803148006820B944F2CE
:1025B0005260288009B0F0BD2E480088022803DA56
:1025C00044F254602880F5E700202B490860284831
:1025D00004682646203600270CE0284820600020AA
:1025E000A060E06020826061208366602034203635
:1025F000781C87B21F4800888742EEDB203C1C48CD
:10260000066866601E4806601E48066000201E4977
:1026100008801E4908801E48006818B944F25560B9
:102620002880C7E71B4800681B490968884203D215
:1026300044F256602880BDE7032000210591CDE9D2
:102640000705069113480068144A1268104B1B686E
:10265000CDE90301CDE9013200910B46104A11A1E9
:102660001748FEF76FFC00BFA4E7000090000020B1
:10267000885300088C530008940000204E4F4E45AC
:1026800084000020880000208C0000208E000020A4
:10269000945300089C530008D45300089853000832
:1026A000D524000875432F4F532D494949204953DC
:1026B00052205175657565205461736B00000000F0
:1026C000D81A00200021034A1160034A11800180BA
:1026D00070470000A0000020A400002070B5014653
:1026E0001A4D2D681DB945F21E750D8070BD184D2F
:1026F0002D881DB945F21D750D80F7E7134D28682B
:102700002A681032124D2D886D1EACB2002308E0ED
:102710000260002545600581C560103010325D1CE7
:10272000ABB2A342F4DB0025056045600581C560BE
:10273000064D2D68074E3560054D2D88B580002566
:10274000F58035810D8000BFD0E70000B853000848
:10275000B0530008A01B002010B5014648894B89E2
:10276000002B17DD0A680C4B1B6813600A4C4B6882
:1027700023602346DB884C891B1B074CE3802346E0
:102780009B884C892344044CA38000234B818B817C
:102790000B604B6010BD0000A01B002001810022D7
:1027A0004281828102604260704700002DE9F04161
:1027B0000D46DDE90674B0F80AC0B0F80880C445DB
:1027C00005DB46F2935CA4F800C0BDE8F081DFF8B9
:1027D000DCC0BCF804C0BCF1000F04D145F21D7C84
:1027E000A4F800C0F1E7DFF8C4C0DCF80010DFF89F
:1027F000BC80D1F800C0C8F800C0C446BCF804C012
:10280000ACF1010CA8F804C0C446BCF806C00CF139
:10281000010CA8F806C0C446BCF808C0B8F8068089
:10282000C44507DADFF884C0BCF806C0DFF87C8056
:10283000A8F808C0B0F80AC0BCF1000F0AD10160C6
:1028400041604FF0010CA0F80AC04FF0000CC1F835
:1028500000C017E003F0100CBCF1000F07D10668B0
:10286000316001604FF0000CC1F800C004E0D0F806
:1028700004C0C1F800C04160B0F80AC00CF1010CFE
:10288000A0F80AC0B0F80CC0B0F80A80C44503DA5A
:10289000B0F80AC0A0F80CC04D600A81CF604FF0BC
:1028A000000CA4F800C000BF8FE70000A01B0020B0
:1028B0000021034A1160034A118001807047000023
:1028C000A8000020AC0000202DE9F04105460C4690
:1028D00016461F461548006880F8346000201349EA
:1028E000096881F8350039461048006800F00AFF91
:1028F0006CB104F10808EC60012229460B4800681D
:1029000000F016F82946404600F066F806E0002080
:1029100006490968C88705490968086303480168CA
:10292000204600F019F8BDE8F081000020010020E9
:1029300010B5C287016300230AE000244C600C60DC
:102940000C614C610C83CC61886020315C1CA3B2AB
:102950009342F2DB10BD000030B548B14568C1F8C4
:10296000C45000F10804226893681D6AC56113E031
:1029700091F83450022D02D0072D08D103E007A5AD
:10298000C1F8C45007E007A5C1F8C45003E008A58A
:10299000C1F8C45000BF00BF30BD00005461736B6C
:1029A000205100005461736B2053656D00000000DE
:1029B0002000000030B507A5C1F8C45000F108049C
:1029C00022681AB193681D6AC56101E001A5C5615D
:1029D00030BD000020000000F0B58E6896F837503A
:1029E00007893FB90127078100274F600F60016009
:1029F000416023E007897F1C0781026806E0946834
:102A000094F83770AF4200DD02E05268002AF6D138
:102A100000BF32B900274F6043680B6059604160C6
:102A20000CE017682FB9116000270F604A60016041
:102A300004E013680B604A6059601160F0BD2DE935
:102A4000F0410446256BE68F0AE0D5F80C8008F1CA
:102A500008072946384600F00AF82035701E86B26D
:102A6000002EF2DC0020E0872063BDE8F08110B585
:102A70000489012C03D100240460446011E00C6837
:102A800024B94A680024146002600AE04C6824B942
:102A90000B6800245C60436003E00B684A685A607E
:102AA00013600489641E048100244C600C6010BD16
:102AB0002DE9F84306460C4617469846089D94F8BB
:102AC0003600082850D2DFE800F0040508090607A0
:102AD0002B2C00BF00BF00BF47E000BF94F83400BC
:102AE000032807D143463A4621463046009500F078
:102AF0003FF803E0E765A4F86080256436B120461E
:102B0000FFF79DFF21463046FFF754FF204600F0B7
:102B1000FDFF00203434A070607004F8340924E014
:102B200000BF94F83400032807D143463A462146B3
:102B30003046009500F01CF803E0E765A4F86080DB
:102B40002564204601F048FD36B12046FFF777FFA7
:102B500021463046FFF72EFF04203434A0700020B9
:102B6000607004F8340900E000BF00BFBDE8F883DE
:102B7000F0B50446059E086BCD8F0AE0C768A742F2
:102B800004D1046142610383C66104E020306F1EFA
:102B9000BDB2002DF2DC00BFF0BD000070B5002515
:102BA000074C03E005F12000C5B2241D2068002871
:102BB000F8D02068FDF73DFB2844C5B2284670BD1B
:102BC00054000020002004E00021034A42F82010B5
:102BD000401C0028F8D070475400002030B542094E
:102BE00000F01F030121C3F11F04A140034C54F85E
:102BF00022400C43014D45F8224030BD54000020D6
:102C000030B5420900F01F030121C3F11F04A140A8
:102C1000034C54F822408C43014D45F8224030BD0E
:102C2000540000200021034A1160034A11800180F2
:102C300070470000B4000020B80000202DE9F04FDC
:102C400085B007468A4693461C460020029000BF86
:102C500000BF00BFFDF7E2FA029000BFFDF7DCFC09
:102C600000BF56480078401C544908700846007858
:102C7000012801D100F08AF900BFFDF7E7FC00BF91
:102C80000298FDF7CFFA00BF00BF00BF07F10806AA
:102C9000308900284CD104F0100010B94FF0000822
:102CA00001E04FF01008DDE90E0143465A46CDE938
:102CB0000001514607F12000FFF778FD00BF00BF7B
:102CC00000BFFDF7ABFA029000BFFDF7A5FC00BF07
:102CD0003A480078401E3949087008460078D0B953
:102CE00000F062F93648008800280BDD00BFFDF7D0
:102CF000ADFC00BF0298FDF795FA00BF00BF00F0E1
:102D000017F911E000BFFDF7A1FC00BF0298FDF725
:102D100089FA00BF08E000BFFDF798FC00BF0298E9
:102D2000FDF780FA00BF00BF00BF05B0BDE8F08F1F
:102D300004F4007008B1358900E00125D6F8009050
:102D400011E0D9F808000390D9F8040004900E9817
:102D50005B465246009038460399FFF7A9FEDDF81E
:102D60001090681E85B2002DEBD100BF00BF00BFE0
:102D7000FDF754FA029000BFFDF74EFC00BF0F486C
:102D80000078401E0D4908700846007808B900F028
:102D90000BF900BFFDF75AFC00BF0298FDF742FA9D
:102DA00000BF00BF00BF04F4004008B9FDF7F6FE05
:102DB00000210F98018000BFB7E70000C800002085
:102DC0008C00002000210AE001EB4102054B03EBDF
:102DD000820000220281026042604A1CD1B2202996
:102DE000F2D37047AC1B002010B5044694F83700AE
:102DF000FFF7F4FE94F8370005490978884203D1BB
:102E0000204600F027F802E0204600F003F810BD4D
:102E1000AE00002010B590F8373003EB43030C4CA4
:102E200004EB83010B893BB901230B810023C360B1
:102E300003610860486009E00B895B1C0B810B682B
:102E4000C360002303610A681061086010BD0000C0
:102E5000AC1B002010B590F8373003EB43030B4C4C
:102E600004EB83010B893BB901230B810023C36071
:102E700003610860486008E00B895B1C0B8100233C
:102E8000C3604A680261D060486010BDAC1B00207E
:102E900010B501460C8924B1012C03D0022C0CD1B1
:102EA00001E000BF14E008684A6802610024C460C1
:102EB0001461D0600A6048600AE008684A68C36824
:102EC00000241C61C4600261D0600B60486000BFD8
:102ED00000BF10BD2DE9F041054695F8370000EB25
:102EE0004000124901EB80042F69EE6887B946B9AA
:102EF000002020812060606095F83700FFF780FE99
:102F00000EE02089401E208100203061266007E00D
:102F10002089401E2081FE600EB9676000E03761A5
:102F200000202861E860BDE8F0810000AC1B0020B3
:102F300010B5002400BFFDF771F9044600BF002062
:102F40000D4908700D480E49086008460068D0F821
:102F50009000401C0968C1F890000A480068401CB5
:102F6000084908604FF080500749086000BF2046BC
:102F7000FDF758F900BF10BDAF000020D81A00209F
:102F800024010020F400002004ED00E010B5044806
:102F90000078012803D1FDF783FB0249086010BDCA
:102FA000C8000020BC00002010B50A48007880B995
:102FB000FDF776FB08490968441A08480068A042F2
:102FC00001D20648046006480068A04201D20448C5
:102FD000046010BDC8000020BC000020C00000201C
:102FE000C400002070B50546002635480078012849
:102FF00000D070BD00BF00BFFDF710F9064600BF4E
:10300000FDF70AFB00BF2C684CB900BFFDF71EFBA3
:1030100000BF3046FDF706F900BF00BFE9E72948C9
:10302000844209D100BFFDF711FB00BF3046FDF718
:10303000F9F800BF00BFDCE7A06D10B1A06D401E25
:10304000A065A06D48B100BFFDF700FB00BF304692
:10305000FDF7E8F800BF00BFCBE72889022809DAAE
:1030600000BFFDF7F3FA00BF3046FDF7DBF800BF05
:1030700000BFBEE714480078002809DD00BFFDF757
:10308000E5FA00BF3046FDF7CDF800BF00BFB0E75E
:103090002846FFF7FDFE2C68606D18B90B480068E4
:1030A000A06501E0606DA06500BFFDF7CFFA00BF2D
:1030B0003046FDF7B7F800BF00BF00BF99E700003A
:1030C000D0000020101A0020C8000020CC000020F2
:1030D0000021034A1160034A1180018070470000FB
:1030E000D4000020D80000202DE9FF5F0446884668
:1030F00091461D460020019000BF00BFFDF78EF8ED
:10310000019000BFFDF788FA00BF04F10807388975
:10311000002857D10420012804D0022816D0042802
:103120003AD127E0206AFF280FD100BFFDF78EFAC1
:1031300000BF0198FDF776F800BF00BF46F6C55006
:103140002880002004B0BDE8F09F26E04FF6FF7114
:10315000206A88420DD100BFFDF778FA00BF0198C0
:10316000FDF760F800BF00BF46F6C550288000207C
:10317000E8E712E0206A401C68B900BFFDF766FA74
:1031800000BF0198FDF74EF800BF00BF46F6C550DE
:1031900028800020D6E700E000BF00BF206A401C66
:1031A0002062D4F820A0C4F8249000BFFDF74EFAA6
:1031B00000BF0198FDF736F800BF00BF002028804F
:1031C0005046BFE700BF2D480078401C2B490870CF
:1031D00008460078012801D1FFF7D8FE00BFFDF7AF
:1031E00035FA00BF0198FDF71DF800BF00BF00BF12
:1031F00008F4007008B13E8900E00126D7F800B05D
:1032000011E0DBF808000290DBF8040003900023D3
:103210001A46CDF8009020460299FFF749FCDDF8E8
:103220000CB0701E86B2002EEBD1D4F820A000BFE7
:1032300000BF00BFFCF7F2FF019000BFFDF7ECF903
:1032400000BF0E480078401E0C4908700846007800
:1032500008B9FFF7A9FE00BFFDF7F8F900BF019814
:10326000FCF7E0FF00BF00BF00BF08F4004008B952
:10327000FDF794FC00202880504663E7C80000203A
:1032800086B00020009000BF06E0D94909684800D8
:1032900001AA0021FEF714FBD64800780128F4D1DA
:1032A00001A8FDF791FD0027D3480068D0490968BF
:1032B000884205D9D0480068CD490968B0FBF1F7CC
:1032C00027B9CD4800680A21B0FBF1F78EE1FDF780
:1032D000E7F98246FDF78AF9C849086000BF00BFD8
:1032E000FCF79CFF009000BFFDF796F900BFC448B3
:1032F0000068C44908600020C149086000BFFDF7AC
:10330000A5F900BF0098FCF78DFF00BF00BFBE48C5
:103310000068BC490968884248D9BB480068BB4975
:10332000884205D242F2107003900120029023E0FF
:10333000B5480068B649884205D24FF47A700390C8
:103340000A20029018E0B0480068B249884203D2CF
:103350006420039002900FE0AB480068AE498842B9
:1033600005D20A2003904FF47A70029004E0012005
:10337000039042F210700290A34801680298B1FBDA
:10338000F0F9A049039809684843B0FBF9F042F20C
:103390001071081AA1490880A1480088098888424C
:1033A00008DA9E4800889E49088003E042F21070C7
:1033B0009A490880FDF7BCFD002500BF00BFFCF75F
:1033C0002DFF009000BFFDF727F900BF9548046866
:1033D00000BFFDF73BF900BF0098FCF723FF00BFDB
:1033E00000BF72E000BF00BF00BFFCF717FF0090F6
:1033F00000BFFDF711F900BF8B480078401C8A49D7
:10340000087008460078012801D1FFF7BFFD00BF12
:10341000FDF71CF900BF0098FCF704FF00BF00BFD8
:1034200000BF54F89C0F6060002044F89C0900BF66
:1034300000BF00BFFCF7F2FE009000BFFDF7ECF804
:1034400000BF79480078401E774908700846007828
:10345000D0B9FFF7A9FD7548008800280BDD00BF33
:10346000FDF7F4F800BF0098FCF7DCFE00BF00BFDA
:10347000FFF75EFD11E000BFFDF7E8F800BF009820
:10348000FCF7D0FE00BF08E000BFFDF7DFF800BF8B
:103490000098FCF7C7FE00BF00BF00BFD4F8A00033
:1034A000054400BF00BFFCF7B9FE009000BFFDF768
:1034B000B3F800BFD4F8C04000BFFDF7C7F800BFA5
:1034C0000098FCF7AFFE00BF00BF002C8AD145B3C7
:1034D0004E48854205D242F2107005904FF0010B24
:1034E0001BE04B48854205D24FF47A7005904FF0AF
:1034F0000A0B12E04748854203D2642005908346B8
:103500000BE04548854204D20A2005904FF47A7BAF
:1035100003E00120059042F2107BB5FBFBF0049024
:1035200003E0002005900120049000BF00BFFCF7DD
:1035300075FE009000BFFDF76FF800BF39480468C2
:1035400000BFFDF783F800BF0098FCF76BFE00BFDB
:1035500000BF2FE0D4F8A000059948430499B0FBC0
:10356000F1F086B242F21070864200D90646A4F805
:103570008C60B4F88E00B04201DAA4F88E6001AB22
:1035800004F1AC02111D2046FEF776F800BF00BF23
:10359000FCF744FE009000BFFDF73EF800BFD4F8F2
:1035A000C04000BFFDF752F800BF0098FCF73AFE9C
:1035B00000BF00BF002CCDD11D480078012805D1E7
:1035C00000201B49087001A8FDF7FEFBFDF768F815
:1035D000A0EB0A0817480068404502D21548C0F819
:1035E000008001AA00213846FEF76AF96FE6000064
:1035F000C0530008EC000020D85300087C000020D5
:10360000E0000020E8000020E4000020801A06000E
:1036100000093D00005A62020084D717DC00002038
:10362000DE000020F8000020C80000208C000020F0
:10363000DA000020F000002010B58AB00446002017
:103640001F4908601F4908601F4908601F4908702A
:103650001F4908701F48006820B946F62B6020807B
:103660000AB010BD1C4800681C490968884203D292
:1036700046F62C602080F3E7194800781F2803D312
:1036800046F62A602080EBE7032000210591CDE972
:1036900007040691084610490968124A12680D4B42
:1036A0001B68CDE90132CDE903100D4800780023F5
:1036B0000D4A0EA100901248FDF744FC00BFCFE771
:1036C000E0000020E8000020E4000020EC000020E2
:1036D000DA000020C4530008CC530008D45300087B
:1036E000BC530008C85300088132000875432F4FAF
:1036F000532D4949492053746174205461736B0000
:103700002C1D002038B504460D4685B16B460222BB
:103710002946204600F082FEBDF8000018B90320BB
:1037200084F8360006E0022084F8360002E0022029
:1037300084F836002046FFF7CDFB38BD0021C0F8E5
:10374000BC100949096819B90021C0F8C01007E088
:1037500005490968C0F8C01003490968C1F8BC00F0
:103760000149086070470000F8000020D0F8BC2034
:10377000D0F8C0104AB90D4B196011B10023C1F83F
:10378000BC300023C0F8C0300FE029B90023C2F8D4
:10379000C030C0F8BC3008E0C2F8C010C1F8BC208E
:1037A0000023C0F8C030C0F8BC307047F8000020DB
:1037B0000021044A1160044A1180044A116001800A
:1037C00070470000F8000020FC000020F4000020FA
:1037D00070B5044600202060A0606060E060206159
:1037E0006061A061E0612BA0206200206062A062A5
:1037F000E0622063E0872064E065A4F860000021B7
:1038000004F16400FEF7CAFF002044F8740F606002
:10381000E060A0822061743C002506E0002104F1F4
:103820007C0040F82510681CC5B2002DF6D00020A1
:103830003434206120676067606084F85600E06778
:10384000A06720814FF0004060610020A061E0612E
:1038500020626062A4F85800A4F85A00E06520666F
:10386000FCF71EFF064666660020A066C4F88000CE
:10387000C4F8840020706070A0702020E0700020E8
:10388000C4F88800C4F88C0004A0C4F89000343C4C
:1038900070BD00003F5461736B0000002000000009
:1038A0002DE9FC4704460F4690469946DDE90A6536
:1038B0004FF0000A00BF00BF00BFFCF7AFFC82461C
:1038C00000BFFCF7A9FE00BF8D480078401C8C4962
:1038D000087008460078012801D1FFF757FB00BFA8
:1038E000FCF7B4FE00BF5046FCF79CFC00BF00BFD5
:1038F00000BF0CB9834804680020288094F8360083
:1039000008287CD2DFE800F00405484906074A4B46
:1039100000BF00BF00BF4B464246394604F1640079
:10392000CDE90065FEF742FF00BF00BF00BFFCF716
:1039300075FC824600BFFCF76FFE00BF7048007840
:10394000401E6F49087008460078D0B9FFF72CFB7D
:103950006D48008800280BDD00BFFCF777FE00BF34
:103960005046FCF75FFC00BF00BFFFF7E1FA11E033
:1039700000BFFCF76BFE00BF5046FCF753FC00BFD6
:1039800008E000BFFCF762FE00BF5046FCF74AFCAF
:1039900000BF00BF00BFAFE000BF00BF00BF94F892
:1039A000340002282CD143463A4621460020009696
:1039B000FFF77EF800BF00BF00BFFCF72FFC824678
:1039C00000BFFCF729FE00BF4D480078401E4C495F
:1039D00008700846007808B9FFF7E6FA00BFFCF760
:1039E00035FE00BF5046FCF71DFC00BF00BF00BF06
:1039F00009F40040002843D1FDF7D0F840E040E052
:103A00004B464246394604F16400CDE90065FEF7B5
:103A1000CDFE00BF00BF00BFFCF700FC824600BF28
:103A2000FCF7FAFD00BF36480078401E34490870A4
:103A300008460078D0B9FFF7B7FA33480088002865
:103A40000BDD00BFFCF702FE00BF5046FCF7EAFBAF
:103A500000BF00BFFFF76CFA11E000BFFCF7F6FDF6
:103A600000BF5046FCF7DEFB00BF08E000BFFCF7DC
:103A7000EDFD00BF5046FCF7D5FB00BF00BF00BF07
:103A80003AE000BF00BF00BFFCF7C8FB824600BFA2
:103A9000FCF7C2FD00BF1A480078401E18490870A4
:103AA00008460078D0B9FFF77FFA17480088002849
:103AB0000BDD00BFFCF7CAFD00BF5046FCF7B2FBB0
:103AC00000BF00BFFFF734FA11E000BFFCF7BEFDF6
:103AD00000BF5046FCF7A6FB00BF08E000BFFCF7A4
:103AE000B5FD00BF5046FCF79DFB00BF00BF00BF07
:103AF00046F62D60288000BF00BFBDE8FC870000AF
:103B0000C8000020200100208C00002010B50446D1
:103B1000204600F061FD94F8360000F0040010B972
:103B20002046FFF761F910BD70B504460D4600262A
:103B300000BF00BFFCF772FB064600BFFCF76CFD40
:103B400000BF0020288094F8360008287ED2DFE8E5
:103B500000F00405060714566A8000BF00BF00BFCE
:103B600000BFFCF773FD00BF3046FCF75BFB00BFF6
:103B700000BF47F2531028808CE000BF484800780F
:103B8000401C4749087008460078012801D1FFF71A
:103B9000FDF900BFFCF75AFD00BF3046FCF742FBC1
:103BA00000BF00BF00BF14F88A0F401E207014F839
:103BB0008A0928B9002084F836002046FFF7A6FFBE
:103BC00000BF00BF00BFFCF729FB064600BFFCF7A3
:103BD00023FD00BF32480078401E31490870084676
:103BE000007808B9FFF7E0F900BFFCF72FFD00BF30
:103BF0003046FCF717FB00BF00BF00BF4AE014F8D7
:103C00008A0F401E207014F88A0910B9012084F828
:103C1000360000BFFCF71AFD00BF3046FCF702FB80
:103C200000BF00BF36E014F88A0F401E207014F861
:103C30008A0910B9022084F8360000BFFCF706FD9F
:103C400000BF3046FCF7EEFA00BF00E015E000BF11
:103C500020E014F88A0F401E207014F88A0910B969
:103C6000032084F8360000BFFCF7F0FC00BF3046AC
:103C7000FCF7D8FA00BF00BF0CE000BFFCF7E6FC81
:103C800000BF3046FCF7CEFA00BF00BF46F62D60FD
:103C9000288070BD00BFFCF781FF00BFF9E700007E
:103CA000C800002008B504480068FDF7B1FB69466C
:103CB0000020FDF79DFA08BD200100202DE9F84302
:103CC0000446884617461D464FF0000900BF00BF56
:103CD00000BFFCF7A3FA814600BFFCF79DFC00BFC4
:103CE000FB480078401CFA49087008460078012813
:103CF00001D1FFF74BF900BFFCF7A8FC00BF484615
:103D0000FCF790FA00BF00BF00BF0CB9F14804688F
:103D100027640020288094F8360008287AD2DFE84B
:103D200000F00405FEFD0607FCFB00BF00BF00BF5E
:103D30000420012804D0022843D004286BD184E059
:103D4000606CFF283CD100BF00BF00BFFCF766FAE3
:103D5000814600BFFCF760FC00BFDD480078401ED4
:103D6000DB49087008460078D0B9FFF71DF9DA483A
:103D7000008800280BDD00BFFCF768FC00BF484648
:103D8000FCF750FA00BF00BFFFF7D2F811E000BF08
:103D9000FCF75CFC00BF4846FCF744FA00BF08E0B3
:103DA00000BFFCF753FC00BF4846FCF73BFA00BFDE
:103DB00000BF00BF46F6C55028800020BDE8F8834C
:103DC00085E04FF6FF71606C88423DD100BF00BFB7
:103DD00000BFFCF723FA814600BFFCF71DFC00BFC3
:103DE000BB480078401EBA49087008460078E0B920
:103DF000FFF7DAF8B848008800280DDD00BFFCF7AF
:103E000025FC00BF4846FCF70DFA00BF00BFFFF7D6
:103E10008FF813E0E2E159E000BFFCF717FC00BFA8
:103E20004846FCF7FFF900BF08E000BFFCF70EFCB6
:103E300000BF4846FCF7F6F900BF00BF00BF46F6DA
:103E4000C55028800020B9E741E0606C401CD8BB19
:103E500000BF00BF00BFFCF7E1F9814600BFFCF7DF
:103E6000DBFB00BF9A480078401E9949087008465D
:103E70000078D0B9FFF798F89748008800280BDD44
:103E800000BFFCF7E3FB00BF4846FCF7CBF900BFDF
:103E900000BFFFF74DF811E000BFFCF7D7FB00BFF4
:103EA0004846FCF7BFF900BF08E000BFFCF7CEFBB7
:103EB00000BF4846FCF7B6F900BF00BF00BF46F69A
:103EC000C5502880002079E7FFE700E000BF00BF71
:103ED000606C401C6064666C00BF00BF00BFFCF7F4
:103EE0009DF9814600BFFCF797FB00BF784800783A
:103EF000401E7749087008460078F8B9FFF754F873
:103F000075480088002810DD00BFFCF79FFB00BF4C
:103F10004846FCF787F903E01EE01CE01AE018E0D1
:103F200000BF00BFFFF704F811E000BFFCF78EFBF5
:103F300000BF4846FCF776F900BF08E000BFFCF779
:103F400085FB00BF4846FCF76DF900BF00BF00BF0E
:103F500080E100BF00BF00BF94F8340007282CD1D7
:103F600000231A46214618460097FEF7A1FD666C0D
:103F700000BF00BF00BFFCF751F9814600BFFCF74E
:103F80004BFB00BF52480078401E5149087008465C
:103F9000007808B9FFF708F800BFFCF757FB00BF2F
:103FA0004846FCF73FF900BF00BF00BF08F40040DF
:103FB000002801D1FCF7F2FD0FE10420012804D014
:103FC000022842D0042872D189E0606CFF283BD1DE
:103FD00000BF00BF00BFFCF721F9814600BFFCF71E
:103FE0001BFB00BF3A480078401E3949087008465C
:103FF0000078D0B9FEF7D8FF3748008800280BDDDD
:1040000000BFFCF723FB00BF4846FCF70BF900BFDD
:1040100000BFFEF78DFF11E000BFFCF717FB00BFEC
:104020004846FCF7FFF800BF08E000BFFCF70EFBB6
:1040300000BF4846FCF7F6F800BF00BF00BF46F6D9
:10404000C55028800020B9E68BE04FF6FF71606C08
:10405000884243D100BF00BF00BFFCF7DFF88146B4
:1040600000BFFCF7D9FA00BF19480078401E184974
:10407000087008460078D8B9FEF796FF1648008801
:1040800000280BDD00BFFCF7E1FA00BF4846FCF753
:10409000C9F800BF00BFFEF74BFF12E000BFFCF7FE
:1040A000D5FA00BF4846FCF7BDF800BF09E057E06D
:1040B00000BFFCF7CBFA00BF4846FCF7B3F800BFDF
:1040C00000BF00BF46F6C5502880002076E60000FD
:1040D000C8000020200100208C00002041E0606C1E
:1040E000401CD8BB00BF00BF00BFFCF797F881465B
:1040F00000BFFCF791FA00BF58480078401E5749AE
:10410000087008460078D0B9FEF74EFF5448008882
:1041100000280BDD00BFFCF799FA00BF4846FCF70A
:1041200081F800BF00BFFEF703FF11E000BFFCF7FE
:104130008DFA00BF4846FCF775F800BF08E000BFE5
:10414000FCF784FA00BF4846FCF76CF800BF00BFDC
:1041500000BF46F6C550288000202FE6FFE700E0AC
:1041600000BF00BF606C401C6064666C00BF00BF95
:1041700000BFFCF753F8814600BFFCF74DFA00BFC3
:1041800036480078401E3549087008460078D0B996
:10419000FEF70AFF3248008800280BDD00BFFCF75D
:1041A00055FA00BF4846FCF73DF800BF00BFFEF7D8
:1041B000BFFE11E000BFFCF749FA00BF4846FCF71C
:1041C00031F800BF08E000BFFCF740FA00BF4846E6
:1041D000FCF728F800BF00BF00BF3BE000BF00BFF6
:1041E00000BFFCF71BF8814600BFFCF715FA00BFC3
:1041F0001A480078401E1949087008460078D0B95E
:10420000FEF7D2FE1648008800280BDD00BFFCF741
:104210001DFA00BF4846FCF705F800BF00BFFEF7D7
:1042200087FE11E000BFFCF711FA00BF4846FBF71C
:10423000F9FF00BF08E000BFFCF708FA00BF4846DE
:10424000FBF7F0FF00BF00BF00BF46F62D602880DF
:10425000002600BF00BF3046B0E50000C8000020C7
:104260008C00002070B504460D46002600BF00BF3C
:10427000FBF7D4FF064600BFFCF7CEF900BF0CB930
:104280005A48046859480068844210D15848007858
:1042900000280CDD00BFFCF7D9F900BF3046FBF762
:1042A000C1FF00BF00BF46F66350288070BD0020EC
:1042B000288094F83600082873D2DFE800F0044222
:1042C00052627374757600BF49480078401C4849B3
:1042D000087008460078012801D1FEF757FE00BF9C
:1042E000FCF7B4F900BF3046FBF79CFF00BF00BFEE
:1042F00000BF042084F83600012084F88A0020469C
:10430000FEF7E8FD00BF00BF00BFFBF787FF0646D2
:1043100000BFFCF781F900BF35480078401E3449E2
:1043200008700846007808B9FEF73EFE00BFFCF7AB
:104330008DF900BF3046FBF775FF00BF00BF00BF1F
:104340004FE0052084F83600012084F88A0000BF81
:10435000FCF77CF900BF3046FBF764FF00BF00BFED
:104360003FE0062084F83600012084F88A0000BF70
:10437000FCF76CF900BF3046FBF754FF00BF00BFED
:104380002FE0072084F83600012084F88A0000BF5F
:10439000FCF75CF900BF3046FBF744FF00BF00BFED
:1043A0001FE011E000BF00BF00BF94F88A00401C6E
:1043B00084F88A0000BFFCF749F900BF3046FBF7DC
:1043C00031FF00BF00BF0CE000BFFCF73FF900BFAA
:1043D0003046FBF727FF00BF00BF46F62D60288060
:1043E00064E700BFFCF7DAFB00BF5FE720010020B5
:1043F000C8000020002108E0064A02EBC1000022AC
:1044000002608280C2804A1C91B2034A12889142A3
:10441000F2DB704700170020F05300082DE9F04F41
:104420000C4616461D46042E1ED1DFF8A091D9F881
:104430000090A4EB0909A9F1010313F5803F0DD900
:104440004FF00009C0F84C90C0F85090C0F81C9094
:1044500047F27E29A5F80090BDE8F08FC46403F10F
:104460000109C0F850903FE084B3082E25D1D0F860
:10447000489009EB0407DFF85491D9F80090A7EBB6
:104480000909A9F10103A34201D2C76406E0DFF8DC
:104490003C91D9F80090A144C0F84C90DFF82CA1D1
:1044A000D0F84C90DAF800A0A9EB0A09C0F85090B7
:1044B000D0F84C90C0F8489016E0DFF81091D9F889
:1044C0000090A144C0F84C9004650DE0FFE74FF068
:1044D0000009C0F84C90C0F85090C0F81C9047F20A
:1044E0007E29A5F80090B7E7DFF8E4A0BAF800A0AD
:1044F000D0F84C90B9FBFAFB0AFB1B991FFA89F81C
:10450000DFF8D09009EBC802B2F80490B9F1000FBF
:104510000BD14FF00009C0F81490C0F8189010604B
:104520004FF00109A2F804903EE0116834E0DFF892
:104530009CA0D1F84C90DAF800A0A9EB0A09C1F8C8
:104540005090D0F85090D1F850A0D1450ED9D1F864
:104550001490B9F1000F01D049691DE04FF0000936
:10456000C0F8149081614861002115E0D1F81890DD
:10457000B9F1000F07D14FF00009C0F81890416160
:104580008861106007E0D1F818C0C0F818C0416118
:10459000CCF81400886100210029C8D1B2F8049039
:1045A00009F10109A2F80490B2F80690B2F804A04B
:1045B000D14503DAB2F80490A2F80690C2614FF038
:1045C0000009A5F8009000BF46E7000000010020A8
:1045D000F05300080017002010B5C269BAB10024DA
:1045E00004651468844205D14169116039B1002421
:1045F0008C6104E0816943694B6103B199610024D6
:1046000044618461C461C4649488641E948010BD54
:10461000002006E0054A02EBC0010022CA80421CCD
:1046200090B2034A12889042F4DB704700170020D2
:10463000F05300082DE9F05F4FF0000B00BF00BF02
:1046400000BFFBF7EBFD834600BFFBF7E5FF00BFB4
:104650007A480078401C794908700846007801289B
:1046600001D1FEF793FC00BFFBF7F0FF00BF5846F7
:10467000FBF7D8FD00BF00BF00BFFCF711F80546EF
:104680006F480068401C6E490860084600686D4924
:104690000988B0FBF1F201FB12001FFA80FA6A48A8
:1046A00000EBCA08D8F80040002782E0002C7FD039
:1046B000D4F8149094F83600082875D2DFE800F09A
:1046C0000408051B063D075000BF00BF00BF6CE09B
:1046D0005B49E06C0968401A20655949E06C09683B
:1046E000884206D1002084F836002046FFF70EFAF3
:1046F00000E0012759E05249E06C0968401A206542
:104700004F49E06C0968884215D10020E065A4F8A3
:104710006000FBF7C5FF20642046FEF790F92046B5
:10472000FFF7F4F900203434A070032060700020FB
:1047300004F8340900E0012737E04149E06C0968DA
:10474000401A20653E49E06C0968884206D1042081
:1047500084F836002046FFF73FFF00E0012724E001
:104760003749E06C0968401A20653549E06C0968F2
:10477000884217D10020E065A4F86000FBF790FFA5
:1047800020642046FEF75BF92046FFF725FF042052
:104790003434A07003206070002004F8340902E073
:1047A00006E001E0012700E000BF00BF4C4600E04A
:1047B0000127002F3FF47AAFFBF772FF461B234817
:1047C0000068B04201D22148066000BF00BF00BFB0
:1047D000FBF724FD834600BFFBF71EFF00BF174811
:1047E0000078401E1549087008460078D0B9FEF7D9
:1047F000DBFB1748008800280BDD00BFFBF726FF16
:1048000000BF5846FBF70EFD00BF00BFFEF790FB50
:1048100011E000BFFBF71AFF00BF5846FBF702FD8F
:1048200000BF08E000BFFBF711FF00BF5846FBF7D1
:10483000F9FC00BF00BF00BFBDE8F09FC80000202A
:1048400000010020F05300080017002004010020A0
:104850008C0000201CB500BF0EE001AB6A460021B1
:104860000846FCF7E1FDBDF8040028B903480078CC
:10487000012801D1FFF7DEFEEFE7000080000020F5
:1048800010B58AB0044600201D4908601D49086023
:10489000FFF7B0FD1C48006820B947F212202080C5
:1048A0000AB010BD1948006819490968884203D246
:1048B00047F213202080F3E7164800781F2803D31F
:1048C00047F211202080EBE70B20002105910A46DA
:1048D000CDE9070406910D4800680F4909680A4BA5
:1048E0001B68CDE90131CDE903020A4800780023B5
:1048F0000A4A0BA100900F48FCF724FB00BFCFE74A
:104900000001002004010020E0530008E8530008E3
:10491000D4530008DC530008E4530008554800084D
:1049200075432F4F532D494949205469636B2054D7
:1049300061736B00F41D002070B58AB0044600203E
:10494000314908603148006840B1314800682F495A
:104950000968B0FBF1F02F49086006E02C480068B8
:104960000A21B0FBF1F02B4908602A4800682A4967
:10497000086000202949086029490860002508E0EE
:10498000284800EBC5060020B080F0803060681C2D
:1049900085B2254800888542F2DB2448006820B9AA
:1049A00047F2473020800AB070BD21480068214995
:1049B0000968884203D247F248302080F3E71E4856
:1049C00000781F2803D347F246302080EBE70B2006
:1049D00000210591CDE907040691084614490968AC
:1049E000164A1268114B1B68CDE90132CDE903105C
:1049F000114800780023124A12A100901748FCF7D2
:104A0000A1FA00BFCFE7000008010020FC53000816
:104A1000D8530008180100201C01002014010020B8
:104A200010010020881900201054000800540008CC
:104A300008540008D4530008F85300080454000830
:104A4000554B000875432F4F532D49494920546950
:104A50006D6572205461736B00000000BC1E002065
:104A6000F0B50C46022680F82A60012C05D12D4FA6
:104A7000466A3F683E4486610CE0066A2EB9294FBB
:104A8000466A3F683E44866104E0264F066A3F68F6
:104A90003E448661244F3F888669B6FBF7FC07FBDE
:104AA0001C66B5B2214E06EBC502166836B9002663
:104AB000066146611060012696802CE0194F8669D8
:104AC0003F68F61BC661116820E0164F8E693F688B
:104AD000F61BCE61C669CF69BE4209D90E690EB117
:104AE000096913E0002606614161086100210DE0BB
:104AF0004E692EB90026466101614861106004E0EC
:104B00004B69436101611861486100210029DCD1D2
:104B10009688761C9680D6889788BE4201DA968859
:104B2000D680F0BD14010020105400088819002020
:104B3000002006E0054A02EBC0010022CA80421CA8
:104B400090B2034A12889042F4DB70478819002023
:104B5000105400081CB500BF53E001AB6A460021A9
:104B60000846FCF761FC01A8FCF76CF8FBF798FD20
:104B7000064624480068401C224908600846006830
:104B800021490988B0FBF1F201FB12001FFA80FAFB
:104B90001E4800EBCA08D8F800404FF0000B21E097
:104BA000F4B1D4F810901749A0690968884214D16B
:104BB000204600F02FF8208D022804D10121204644
:104BC000FFF74EFF02E0032084F82A00A56815B124
:104BD0002046E168A8474C4604E04FF0010B01E095
:104BE0004FF0010BBBF1000FDAD0FBF759FD871B2B
:104BF00001A8FCF765F806480068B84201D20448ED
:104C00000760AAE71401002010540008881900204A
:104C100010010020F0B5114E36888569B5FBF6F716
:104C200006FB1755ACB20E4D05EBC4021568854264
:104C300005D10169116039B100254D6104E0416978
:104C400003690B6103B15961012580F82A500025E1
:104C50000561456195886D1E9580F0BD1054000872
:104C60008819002029B1064A92690243044B9A61CF
:104C700004E0034A92698243014B9A617047000045
:104C80000010024030B500210022002400232D4DE9
:104C90006D6805F00C0121B1042905D0082923D144
:104CA00005E0294D056022E0274D05601FE0254DF8
:104CB0006D6805F47012234D6D6805F4803402258B
:104CC00005EB92421CB9214D554305600BE01D4D8B
:104CD0006D6805F400351DB11C4D5543056002E0BB
:104CE000194D5543056002E0174D056000BF00BF38
:104CF000144D6D6805F0F0010909154D6B5C0568F0
:104D0000DD4045600F4D6D6805F4E061090A104D06
:104D10006B5C4568DD4085600A4D6D6805F4605147
:104D2000C90A0B4D6B5C4568DD40C560054D6D687B
:104D300005F44041890B074D6B5CC568B5FBF3F585
:104D4000056130BD0010024000127A0000093D00EC
:104D50001400002024000020704710B500F002F875
:104D600010BD00000CB50020019000903348006891
:104D700040F480303149086000BF3048006800F4DA
:104D8000003000900198401C0190009818B90198DB
:104D9000B0F5A06FF1D12948006800F4003010B1DF
:104DA0000120009001E0002000900098012843D1EC
:104DB0002348006840F01000214908600846006858
:104DC00020F0030008600846006840F00200086018
:104DD0001A484068194948600846406848600846D3
:104DE000406840F4806048600846406820F47C10C9
:104DF00048600846406840F4E8104860084600688B
:104E000040F08070086000BF0C48006800F000703F
:104E10000028F9D00948406820F00300074948609D
:104E20000846406840F00200486000BF0348406800
:104E300000F00C000828F9D10CBD00000010024061
:104E400000200240042808D14FF0E021096941F018
:104E500004014FF0E022116107E04FF0E021096901
:104E600021F004014FF0E0221161704710B50548B0
:104E70000078012805D1FBF709FEFCF7FDFEFBF7E2
:104E80001BFE10BD8000002010B51348006840F0E4
:104E900001001149086008464068104908400E4961
:104EA0004860084600680E4908400B4908600846FB
:104EB000006820F4802008600846406820F4FE0066
:104EC00048604FF41F008860FFF747FF4FF0006015
:104ED0000449086010BD0000001002400000FFF807
:104EE000FFFFF6FE08ED00E00EB523E002A8FCF798
:104EF000A5FE044610490968C943104AC2F8941136
:104F000002A900221346CDE9002101220021084612
:104F1000FCF77EFD02A8FCF791FE094909684FF4F1
:104F20007A72B2FBF1F1021B01FB02F5294605A0E2
:104F3000FBF78CF9DAE700009481214200802142DE
:104F4000D853000874696D6520636F73743A202527
:104F500075206D732E0D0A0010B58AB0044609A89D
:104F6000032100220592CDE9062108901046402138
:104F70000822094BCDE90132CDE9031004200023BA
:104F8000064A07A100900948FBF7DCFF09A9084879
:104F9000FCF72EF90AB010BD80040020E94E00088D
:104FA0005461736B4C45443000000000B80300208E
:104FB0002801002010B5FBF769FD40F225511E487D
:104FC00000F04CF810B31C4800F004F9C4B21B48C0
:104FD000008800F40040C8B91848008800F48040F8
:104FE00060B10A2C03D000201449088020E0134847
:104FF000008840F400401149088019E00D2C06D1CA
:105000000E48008840F480400C49088010E00B48AE
:105010000088C0F30D000A490C5408480088401C61
:105020000649088008460088C72801DD002008805E
:10503000FBF742FD10BD00000038014030000020A9
:10504000F002002021B1828942F40052828104E002
:1050500082894DF6FF731A408281704770B502460F
:10506000002400230025002040F66A16B14200D13A
:1050700000BFC1F3421501F01F03012606FA03F336
:10508000012D02D19689334006E0022D02D1168A05
:10509000334001E0968A33400C12012606FA04F4EC
:1050A0001688344013B10CB1012000E0002070BD1F
:1050B000F0B50346002400260025002040F66A17BC
:1050C000B94200D100BF1846C1F3421401F01F06D7
:1050D000012707FA06F5012C01D10C3004E0022C5F
:1050E00001D1103000E014301AB107682F43076077
:1050F00002E00768AF430760F0BD00002DE9F0470C
:1051000086B005460E460024A24600BFA1460027F1
:10511000B08900B100BF2F462C8A4CF6FF700440C6
:10512000F08804432C82AC894EF6F3100440B0881A
:1051300031890843718908430443AC81AC8A4FF636
:10514000FF400440B0890443AC8201A8FFF79AFDF8
:105150001F48874202D1DDF810A001E0DDF80CA065
:10516000A88900F4004040B10AEBCA0000EB0A1025
:1051700031684900B0FBF1F807E00AEBCA0000EB28
:105180000A1031688900B0FBF1F86420B8FBF0F038
:1051900004012009642101FB1089A88900F4004062
:1051A00040B1322000EBC900B0FBF1F000F0070085
:1051B000044308E0322000EB09106421B0FBF1F059
:1051C00000F00F0004432C8106B0BDE8F08700001A
:1051D0000038014001468888C0F30800704700BFCE
:1051E000FEE7014600BF00207047000010B56FF0D9
:1051F0000400FFF727FE144800681449B0FBF1F0E3
:1052000013490870104800681049B0FBF1F41148C8
:105210000068C910B1FBF0F044430E4800684FF439
:105220007A71B1FBF0F00C4908804FF0E020006982
:1052300040F002004FF0E021086108464461006937
:1052400040F00100086110BD0000002000127A004B
:1052500028000020D85300082A00002000BF054A7B
:10526000128802F04002002AF9D0C2B2014B1B1D85
:105270001A8070470038014000B58BB0FBF76CF91D
:105280000AA8FBF721FB0AA8032100220592CDE919
:1052900006210890104640210822094BCDE9013231
:1052A000CDE9031003200023064A07A10090094816
:1052B000FBF748FE0AA8FBF753FD00200BB000BD2A
:1052C000F0010020594F00085461736B53746172F0
:1052D000740000002801002010B586B004460121AA
:1052E00044F20400FFF7BEFC4FF40070ADF8140068
:1052F00003208DF8160018208DF8170005A91C480A
:10530000FBF7D5F94FF48060ADF8140004208DF858
:10531000170005A91648FBF7CAF925208DF80000EB
:1053200003208DF801008DF8020001208DF80300A4
:105330006846FBF77BFA01940020ADF80800ADF851
:105340000A00ADF80C00ADF810000C20ADF80E000E
:1053500001A90848FFF7D2FE012240F22551054875
:10536000FFF7A6FE01210348FFF76CFE06B010BD53
:105370000008014000380140800500200C000000BA
:105380008000000000020000800700200A000000EA
:1053900040010000C00800200C0000008000000058
:1053A00000020000C00A002080000000000200008F
:1053B0006400000040060000C00C00201E00000039
:1053C0000A000000001300200C0000008000000014
:1053D0000002000040000000C800000001000000C2
:1053E000001500200C0000008000000000020000FA
:1053F00011000000880000000200000064000000AE
:10540000881700200C00000080000000000200004F
:10541000110000008800000090140000010101004C
:105420007856341201010000000000000000000066
:10543000000000000000000000000000000000006C
:10544000000000000000000000000000000000005C
:1054500001010100280004002000010000000000FC
:10546000000000000000000000000000000000003C
:10547000000000000000000000000000010020000B
:10548000010010000C0010000000000000000000EF
:10549000000000000000000000000000000000000C
:1054A00000000000000000000000000000000000FC
:1054B00000000000010101002C00010120000C008F
:1054C0002000200004000400000000000000000094
:1054D00000000000000000000000000000000000CC
:1054E00000000000000000000000000000000000BC
:1054F0000000000000000000010101013000010077
:10550000000000000000000000000000000000009B
:10551000000000000000000000000000000000008B
:1055200000000000000000000101010128000C0043
:1055300080010000040101010101010101000101DC
:10554000C800080001010000000000000000000089
:10555000000000000000000000000000000000004B
:10556000000000000000000000000000000000003B
:1055700000000000000000000000000001013400F5
:1055800008005D762A060000A855000800000020EB
:10559000280100006C010008D056000828010020F6
:1055A000C02400008801000800A24A040000000096
:1055B00000000000010203040607080900000000C3
:1055C0000102030401020304060708090204060895
:1055D00000000000000000000000000000000000CB
:1055E00000000000000000000000000000000000BB
:1055F00000000000000000000000000000000000AB
:10560000000000000000000000000000000000009A
:10561000000000000000000000000000000000008A
:10562000000000000000000000000000000000007A
:10563000000000000000000000000000000000006A
:10564000000000000000000000000000000000005A
:10565000000000000000000000000000000000004A
:10566000000000000000000000000000000000003A
:10567000000000000000000000000000000000002A
:10568000000000000000000000000000000000001A
:10569000000000000000000000000000000000000A
:1056A00000000000000000000000000000000000FA
:1056B00000000000000000000000000000000000EA
:1056C00000000000000000000000000000000000DA
:0400000508000131BD
:00000001FF
