:020000040800F2
:10000000D8270020CD010008F50700084B0700089D
:10001000F10700086D0300085B5A000800000000AB
:100020000000000000000000000000007155000802
:10003000A504000800000000E7020008855600083B
:10004000E7010008E7010008E7010008E7010008F0
:10005000E7010008E7010008E7010008E7010008E0
:10006000E7010008E7010008FD040008E7010008B7
:10007000E7010008E7010008E7010008E7010008C0
:10008000E7010008E7010008E7010008E7010008B0
:10009000E7010008E7010008E7010008E7010008A0
:1000A000E7010008E7010008E7010008E701000890
:1000B000E7010008E7010008E7010008E701000880
:1000C000E7010008E7010008E7010008E701000870
:1000D000E701000831580008E7010008E7010008BF
:1000E000E7010008E7010008E7010008E701000850
:1000F000E7010008E7010008E7010008E701000840
:10010000E7010008E7010008E7010008E70100082F
:10011000E7010008E7010008E7010008E70100081F
:10012000E7010008E7010008E7010008E70100080F
:1001300000F002F800F03AF80AA090E8000C8244BF
:100140008344AAF10107DA4501D100F02FF8AFF29C
:10015000090EBAE80F0013F0010F18BFFB1A43F0A5
:1001600001031847845C0000A45C0000103A24BF1F
:1001700078C878C1FAD8520724BF30C830C144BF0C
:1001800004680C607047000000230024002500264E
:10019000103A28BF78C1FBD8520728BF30C148BFEA
:1001A0000B6070471FB51FBD10B510BD00F04DF8B6
:1001B0001146FFF7F7FF05F08FFC00F06BF803B472
:1001C000FFF7F2FF03BC05F04AFC00000948804736
:1001D00009480047FEE7FEE7FEE7FEE7FEE7FEE729
:1001E000FEE7FEE7FEE7FEE704480549054A064B41
:1001F00070470000A156000831010008D8210020F6
:10020000D8270020D8230020D823002072B67047BA
:1002100062B67047EFF3108072B6704780F31088B3
:10022000704730BF704720BF7047B0FA80F070470A
:1002300090FAA0F0B0FA80F0704790FAA0F0704702
:1002400070477047704770477047754600F02CF84C
:10025000AE4605006946534620F00700854618B0B3
:1002600020B5FFF7C1FFBDE820404FF000064FF07A
:1002700000074FF000084FF0000B21F00701AC46DB
:10028000ACE8C009ACE8C009ACE8C009ACE8C009FA
:100290008D46704710B50446AFF300802046BDE898
:1002A0001040FFF78CBF0000004870477421002009
:1002B0001D484FF6FF710170002080F309881B482C
:1002C000016881F308881A484FF08051016062B6D6
:1002D000FEE717484FF080510160704714484FF017
:1002E00080510160704772B6EFF3098028B1203861
:1002F00080E8F00F0F490968086000B50E48804794
:100300005DF804EB0D480E490A78027009480D4962
:100310000A680260106890E8F00F203080F30988C6
:100320004EF0040E62B6704722ED00E0500000204F
:1003300004ED00E020010020F91F0008AE000020BD
:10034000AF0000202401002010B505F08DFB4FF414
:10035000A06000F089FA4FF4E13005F0EDFB00F009
:100360001BFA00F0F5F900F09EF810BD00BFFEE7A3
:1003700001460846044A1268904203D9024A1268AC
:10038000801A00E0002070474400002070B500256E
:1003900000BFFFF73FFF054600BF0648046800BFE7
:1003A0002846FFF73BFF00BF2046FFF7E1FF064668
:1003B000304670BD4800002070B50025FFF7E6FF0D
:1003C000044600BFFFF726FF054600BF0020044992
:1003D000086000BF2846FFF721FF00BF204670BD20
:1003E0004800002070B5002500BFFFF713FF054649
:1003F00000BF0648046800BF2846FFF70FFF00BF94
:100400002046FFF7B5FF0646304670BD4C00002081
:1004100010B509480088401C074908800748008833
:1004200018B900F039F80649086004480088401CF3
:100430000249088010BD0000380000203A0000206A
:100440003C00002010B50F480088401E0D49088070
:1004500008460088A0B900F01FF80B49086008465C
:1004600000680A490968441A09480068A04201D294
:100470000748046007480068A04201D205480460AC
:1004800010BD00003A000020400000203C00002089
:10049000480000204C0000200149486870470000D7
:1004A000001000E070470EB54FF4A06000F0DCF9DA
:1004B0000121084604F0E2FF0421084600F098F804
:1004C0001020019001208DF80A0000208DF808000E
:1004D0000C208DF8090001A800F040F80A208DF8E2
:1004E000000001208DF8030002208DF801008DF836
:1004F0000200684600F080F90EBD000008B500F06B
:10050000B3FE102000F016F840B16B460022022125
:10051000044800F06FFD102000F006F800F0BAFE6D
:1005200008BD00004807002001490860704700002E
:1005300014040140014600200022074B1B6803EA17
:100540000102054B14331B680B4013B10AB10120A3
:1005500000E0002070470000000401400021234912
:100560008279002A3AD00A46126803689A430B46F9
:100570001A600A1D126803689A430B1D1A600279FB
:1005800011440A6803681A430A60184A083212685C
:1005900003689A43154B08331A601A1D12680368E2
:1005A0009A43124B0C331A604279102A0ED11A1F4B
:1005B000126803681A430D4B08331A601A1D12683B
:1005C00003681A43094B0C331A600DE0074942795E
:1005D00011440A6803681A430A6005E0027911446D
:1005E0000A6803689A430A607047000000040140EB
:1005F00030B500228B071C0F0F2303FA04F20B4BBC
:100600008C1053F824309343084C8D1044F8253057
:1006100023468C1053F824308C07240F00FA04F47E
:100620002343024C8D1044F8253030BD08000140B2
:100630002DE9F04102460025002600200023002479
:10064000002791F803C00CF00F0591F803C00CF0DF
:10065000100CBCF1000F03D091F802C04CEA050564
:1006600091F800C0BCF1000F31D0146800202BE0DD
:100670004FF0010C0CFA00F3B1F800C00CEA0306CD
:100680009E4220D183004FF00F0C0CFA03F7BC43BD
:1006900005FA03FC4CEA040491F803C0BCF1280FEE
:1006A00006D14FF0010C0CFA00FCC2F814C00AE0AD
:1006B00091F803C0BCF1480F05D14FF0010C0CFAC2
:1006C00000FCC2F810C0401C0828D1D31460B1F857
:1006D00000C0BCF1FF0F34DD546800202EE000F1B3
:1006E000080C4FF0010808FA0CF3B1F800C00CEA4E
:1006F00003069E4221D183004FF00F0C0CFA03F742
:10070000BC4305FA03FC4CEA040491F803C0BCF1B5
:10071000280F05D100F1080C08FA0CF8C2F8148073
:1007200091F803C0BCF1480F07D100F1080C4FF05D
:10073000010808FA0CF8C2F81080401C0828CED333
:100740005460BDE8F0810161704700BFFEE7000022
:1007500008B50121442004F091FE0120ADF800000D
:1007600028208DF8030003208DF802006946084810
:10077000FFF75EFF1820ADF8000048208DF8030059
:1007800003208DF8020069460248FFF751FF08BDBB
:10079000000801400018014008B50121482004F07C
:1007A0006DFE10208DF8030003208DF8020020203C
:1007B000ADF8000069460C48FFF73AFF20210A48CF
:1007C000FFF7C1FF10208DF8030003208DF8020011
:1007D0002020ADF8000069460448FFF729FF2021DA
:1007E0000248FFF7B0FF08BD000C014000180140AF
:1007F00000BFFEE77047000070B5002100230F2204
:10080000C47804B3154C246804F4E064C4F5E064CF
:10081000210AC1F10403CA40447804FA03F1847840
:100820001440214309010E4C0678A155047804F0C8
:100830001F050124AC4005786D11AD0005F1E025E0
:10084000C5F8004109E0047804F01F050124AC401C
:10085000044D0678761145F8264070BD0CED00E099
:1008600000E400E080E100E002490143024A116037
:10087000704700000000FA050CED00E07047000032
:100880002DE9F04104460E4617461D464FF000087C
:1008900030480078002804DD42F6E1602880BDE899
:1008A000F0811CB945F6C3502880F8E700BF00BFAF
:1008B00000BFFFF7AFFC804600BFFFF7A9FD00BFF8
:1008C00025480078401C2449087008460078012813
:1008D00001D102F067FF00BFFFF7B4FD00BF404643
:1008E000FFF79CFC00BF00BF00BF1C482060666093
:1008F00027620020606204F1080002F075FC2046C7
:1009000001F0B0FE16480088401C1549088000BF61
:1009100000BF00BFFFF77EFC804600BFFFF778FDF9
:1009200000BF0D480078401E0B490870084600784B
:1009300008B902F045FF00BFFFF784FD00BF404645
:10094000FFF76CFC00BF00BF00BF0020288000BF85
:10095000A5E7000078000020C8000020464C414771
:100960009C0000202DE9F04F8BB005468846934649
:100970009946DDE9147400200190FE4800780028B3
:1009800006DD46F2AE10208000200BB0BDE8F08FEF
:1009900025B945F6C35020800020F6E748F2010152
:1009A000A9EB0100894536D01ADC40F20111A9EB10
:1009B000010089452BD00CDCB9F1010F23D0B9F12E
:1009C000020F21D0B9F1040F1FD0B9F1080F2AD1BD
:1009D0001CE001281CD003281BD0072823D119E0D4
:1009E000B0F5807F1BD006DC012815D0032814D079
:1009F000072818D112E0A0F2011088B1022810D007
:100A0000062810D10EE000BF00BF00BF00BF00BF2E
:100A100000BF00BF00BF00BF00BF00BF00BF00BFDE
:100A200000BF00BF04E045F6256020800020ACE751
:100A300000BFD1492868884204D045F6C4502080C0
:100A40000020A2E709F4807010B14FF0010A01E024
:100A50004FF0000A0FB10020386009F00F000A9033
:100A600000BF00BFFFF7D6FB019000BFFFF7D0FC2F
:100A700000BF0A9801287CD002287BD0042802D02D
:100A8000082878D182E0286A00EA0806464519D18C
:100A9000BAF1010F02D1286AB0432862B748006852
:100AA000C0F884600FB1686A386000BFFFF7CAFC05
:100AB00000BF0198FFF7B2FB00BF00BF00202080FD
:100AC000304662E709F4004068B100BFFFF7BAFCA6
:100AD00000BF0198FFF7A2FB00BF00BF46F2B010B5
:100AE0002080002051E7A648007800280DDD00BFD7
:100AF000FFF7A8FC00BF0198FFF790FB00BF00BF05
:100B000046F66350208000203FE700BF9C480078F5
:100B1000401C9B49087008460078012801D102F06A
:100B200041FE00BFFFF78EFC00BF0198FFF776FB88
:100B300000BF00BF00BF4B464246294602A8CDF881
:100B400000B001F06FFD00BF00BF00BFFFF762FB08
:100B5000019000BFFFF75CFC00BF89480078401E91
:100B6000874908700846007808B902F029FE00BFDE
:100B700002E089E010E18DE1FFF764FC00BF01981D
:100B8000FFF74CFB00BF00BF00BF91E1286A00EAFD
:100B90000806CEB1BAF1010F02D1286AB04328622B
:100BA00076480068C0F884600FB1686A386000BF9A
:100BB000FFF748FC00BF0198FFF730FB00BF00BF04
:100BC000002020803046E0E609F4004068B100BF14
:100BD000FFF738FC00BF0198FFF720FB00BF00BF04
:100BE00046F2B01020800020CFE66548007800284B
:100BF0000DDD00BFFFF726FC00BF0198FFF70EFBDD
:100C000000BF00BF46F6635020800020BDE600BF55
:100C10005B480078401C5A49087008460078012853
:100C200001D102F0BFFD00BFFFF70CFC00BF01982F
:100C3000FFF7F4FA00BF00BF00BF4B46424629460B
:100C400002A8CDF800B001F0EDFC00BF00BF00BF6E
:100C5000FFF7E0FA019000BFFFF7DAFB00BF48485A
:100C60000078401E464908700846007808B902F02E
:100C7000A7FD00BFFFF7E6FB00BF0198FFF7CEFA24
:100C800000BF00BF00BF13E1286A28EA00064645FE
:100C900019D1BAF1010F02D1286A304328623748CE
:100CA0000068C0F884600FB1686A386000BFFFF761
:100CB000C9FB00BF0198FFF7B1FA00BF00BF0020D9
:100CC0002080304661E609F4004068B100BFFFF7BC
:100CD000B9FB00BF0198FFF7A1FA00BF00BF46F2C1
:100CE000B0102080002050E62548007800280DDD57
:100CF00000BFFFF7A7FB00BF0198FFF78FFA00BF07
:100D000000BF46F66350208000203EE600BF1C482E
:100D10000078401C1A49087008460078012801D163
:100D200002F040FD00BFFFF78DFB00BF0198FFF709
:100D300075FA00BF00BF00BF4B464246294602A8D5
:100D4000CDF800B001F06EFC00BF00BF00BFFFF7A0
:100D500061FA019000BFFFF75BFB00BF0848007815
:100D6000401E074908700846007808B902F028FDBF
:100D700000BF07E078000020464C414720010020DA
:100D8000C8000020FFF75EFB00BF0198FFF746FA9E
:100D900000BF00BF00BF8BE0286A28EA0006CEB182
:100DA000BAF1010F02D1286A304328628F480068E7
:100DB000C0F884600FB1686A386000BFFFF742FB7B
:100DC00000BF0198FFF72AFA00BF00BF0020208073
:100DD0003046DAE509F4004068B100BFFFF732FBA6
:100DE00000BF0198FFF71AFA00BF00BF46F2B0102B
:100DF00020800020C9E57E48007800280DDD00BF76
:100E0000FFF720FB00BF0198FFF708FA00BF00BF03
:100E100046F6635020800020B7E500BF7448007894
:100E2000401C7349087008460078012801D102F07F
:100E3000B9FC00BFFFF706FB00BF0198FFF7EEF912
:100E400000BF00BF00BF4B464246294602A8CDF86E
:100E500000B001F0E7FB00BF00BF00BFFFF7DAF909
:100E6000019000BFFFF7D4FA00BF61480078401E30
:100E70005F4908700846007808B902F0A1FC00BF7D
:100E8000FFF7E0FA00BF0198FFF7C8F900BF00BF05
:100E900000BF0DE000BFFFF7D5FA00BF0198FFF7D4
:100EA000BDF900BF00BF45F62560208000206CE53D
:100EB00000BF00F061FA00BF00BFFFF7ABF901907F
:100EC00000BFFFF7A5FA00BF4848006890F835005A
:100ED00030B101280CD002282CD003283CD119E0D5
:100EE0001FB142480068006C38600020208040E05C
:100EF0001FB13E480068006C386000BFFFF7A2FADF
:100F000000BF0198FFF78AF900BF00BF46F2A910A1
:100F100020802EE00FB10020386000BFFFF792FA6A
:100F200000BF0198FFF77AF900BF00BF47F2D92050
:100F300020801EE01FB12D480068006C386000BFA3
:100F4000FFF780FA00BF0198FFF768F900BF00BF04
:100F500045F6C25020800CE000BFFFF773FA00BFD7
:100F60000198FFF75BF900BF00BF46F62E602080B6
:100F700000BF00BF208808B1002006E51B480068BC
:100F8000D0F88460BAF1010F22D10A9801280BD061
:100F900002280AD0042802D008280AD100E000BFA5
:100FA000286AB043286212E000BF286A30432862F2
:100FB0000DE000BFFFF746FA00BF0198FFF72EF9DA
:100FC00000BF00BF45F6256020800020DDE400BFA3
:100FD00000BFFFF737FA00BF0198FFF71FF900BF06
:100FE00000BF002020803046CFE400002001002018
:100FF000C80000202DE9FF470546884617461C46D5
:1010000035B945F6C3502080002004B0BDE8F08714
:101010004FB1012F08D0B7F5004F06D06FF4004054
:10102000384420B902E000BF00BF00BF04E045F62D
:10103000256020800020E8E700BF13492868884227
:1010400004D045F6C45020800020DEE7FFF724FAE4
:1010500006460E48007800280BDD00231A46294674
:101060000948CDE90087CDE9026401F0E7FC0020E2
:10107000CBE733463A4641462846009401F016FB3A
:1010800081464846C1E70000464C414778000020B1
:1010900010B50348006810B101480068804710BDD2
:1010A0006400002070B5044600F0C2F800204849F2
:1010B000087048490870484908704849086048491C
:1010C000086048490870484908704849087048490C
:1010D000086048490860484908604849087048481D
:1010E00000680A21B0FBF1F04649086046480068F4
:1010F00058B14648056845B14348066803E0761E86
:10110000002028602D1D002EF9D1002040490860E4
:10111000404908604049086040490860404908600B
:1011200040490860404908604049087002F056F99B
:1011300002F054FA204601F0ADFA208800B170BDEB
:10114000204601F0C7FE208800B1F8E7204601F0F4
:10115000CDFE208800B1F2E7204601F0B1FF2088E3
:1011600000B1ECE7204602F069F9208800B1E6E71B
:10117000204602F0B9FB208800B1E0E7204602F0EB
:1011800023FF208800B1DAE7204601F00FFE208817
:1011900000B1D4E7204601F019FC208800B1CEE769
:1011A000204603F079FF208800B1C8E7204602F00E
:1011B0004FFE208800B1C2E7204603F0C9FF208817
:1011C00000B1BCE701F054F9FFF758FB00BFB6E7E8
:1011D0007800002080000020C800002020010020AE
:1011E00024010020AE000020AF000020B00000204D
:1011F000BC000020C0000020C4000020D00000205F
:10120000385C0008CC000020085C0008045C000882
:10121000580000205C0000206000002064000020D6
:10122000680000206C00002070000020FE000020FC
:101230000A4A1168002002E0002204C1401C084A4A
:1012400012689042F8D3054A1268054B1B6802EBFE
:101250008302121F034B1A6070470000045C0008F1
:10126000085C00085000002008480078012800D0E1
:10127000704707480078FA2800DBF9E7044800784F
:10128000401C0349087000BFF2E700008000002006
:101290007800002010B500242E480078012800D0E6
:1012A00010BD00BFFEF7B6FF044600BF2A48007815
:1012B00028B900BF2046FEF7B1FF00BFF0E726487F
:1012C0000078401E2449087008460078002805DD93
:1012D00000BF2046FEF7A2FF00BFE1E71F480078ED
:1012E000002805DD00BF2046FEF798FF00BFD7E7C6
:1012F00002F060F81A4908700846007800EB4000D8
:10130000184951F820001849086008460068174934
:101310000968884205D100BF2046FEF77FFF00BF65
:10132000BEE711480068D0F89000401C0E490968DB
:10133000C1F890000E480068401C0D4908604FF04D
:1013400080500C49086000BF2046FEF767FF00BFD1
:1013500000BFA5E78000002078000020C800002022
:10136000AF0000209C1D002024010020200100204F
:10137000F400002004ED00E010B5002420480078BF
:10138000002800DD10BD1F480078002800DDF9E7C7
:1013900000BFFEF73FFF044600BF02F00BF81A49FA
:1013A00008700846007800EB4000184951F820000A
:1013B000174908600846006816490968884205D13F
:1013C00000BF2046FEF72AFF00BFDBE71048006899
:1013D000D0F89000401C0E490968C1F890000E48F2
:1013E0000068401C0C4908604FF080500B490860B1
:1013F00000BF2046FEF712FF00BF00BFC2E700009B
:1014000078000020C8000020AF0000209C1D0020B4
:101410002401002020010020F400002004ED00E061
:1014200070B5044600251A480078002803DD46F60A
:101430006250208070BD17480078012803D045F61F
:1014400089602080F6E714480078FA2803DB45F22B
:1014500009202080EEE700BF00BFFEF7DBFE054657
:1014600000BFFEF7D5FF00BF0B480078401C0A49BB
:10147000087002F097F900BFFEF7E4FF00BF2846AE
:10148000FEF7CCFE00BF00BF0020208000BFD1E7E8
:101490007800002080000020C800002070B50446BD
:1014A000002523480078002803DD46F6655020809B
:1014B00070BD20480078012803D045F6896020805F
:1014C000F6E71D48007818B946F664502080EFE72B
:1014D00000BF00BFFEF79EFE054600BFFEF798FF67
:1014E00000BF15480078401E134908700846007870
:1014F00000280CDD00BFFEF7A5FF00BF2846FEF761
:101500008DFE00BF00BF46F663502080D0E702F09A
:1015100057F900BFFEF796FF00BF2846FEF77EFE94
:1015200000BF00BFFFF728FF0020208000BFBFE7FB
:101530007800002080000020C800002010B504467C
:1015400012480078E8B901F035FF114908700846E3
:101550000078104908700E48007800EB40000E49F2
:1015600051F820000D490860084600680C490860E1
:10157000012006490870FEF79BFE43F69920208063
:1015800002E045F68A60208010BD00008000002047
:10159000AF000020AE0000209C1D00202401002090
:1015A000200100202DE9F04107464FF0000800BF60
:1015B00000BFFEF72FFE804600BFFEF729FF00BFE9
:1015C0000020474908604749088047490880474943
:1015D000086047490860474908604749086047492B
:1015E00008604749088100BFFEF72CFF00BF404656
:1015F000FEF714FE00BF00BF00BF00BFFEF70AFEEB
:10160000804600BFFEF704FF00BF3E48046800BFED
:10161000FEF718FF00BF4046FEF700FE00BF00BF08
:1016200026E000BF00BFFEF7F5FD804600BFFEF7D5
:10163000EFFE00BF00207834E06320642060206368
:10164000A061A082E0826062A062FEF725FF2062B6
:10165000783C04F164060020B081D4F8C04000BF9B
:10166000FEF7F0FE00BF4046FEF7D8FD00BF00BF0A
:10167000002CD6D100BF00BFFEF7CCFD804600BFD6
:10168000FEF7C6FE00BF2048056800BFFEF7DAFE81
:1016900000BF4046FEF7C2FD00BF00BF16E000BF1E
:1016A00000BFFEF7B7FD804600BFFEF7B1FE00BFEA
:1016B00005F120060020B081AD6900BFFEF7C2FE33
:1016C00000BF4046FEF7AAFD00BF00BF002DE6D1D7
:1016D00003F0AAFB03F038FE00203880BDE8F0815B
:1016E000940000208E000020DE000020F00000208A
:1016F00004010020100100207C000020C000002018
:10170000901D0020F8000020B400002010B5034810
:10171000006810B101480068804710BD68000020D3
:101720002DE9FF4F87B004469046DDE91BA5DDE9B2
:101730001496179F0020039095480078002805DD37
:1017400047F24A1028800BB0BDE8F08F1CB947F271
:10175000AD102880F7E7B8F1000F03D147F24F1022
:101760002880F0E71EB946F62F602880EBE789480D
:101770000068874203D246F630602880E3E7169877
:10178000B84203D346F631602880DCE7B9F1200F78
:1017900003D346F273202880D5E7B9F1000F06D1B4
:1017A0007D48844203D046F273202880CBE7B9F10C
:1017B0001F0F06D17948844203D046F27320288057
:1017C000C1E7204602F010FC002028800AF001004A
:1017D00090B10AF0020078B105960020069008E06A
:1017E0000021059801600598001D05900698401C91
:1017F00006900698B842F3D3169806EB8000049042
:10180000CDE9007A32464046049B0A9900F094FBE9
:101810000590C4F828800A98E0620898206284F84D
:101820003790059820600498A06019986065199811
:1018300018B95B480068A06501E01998A0651A987E
:1018400060606662A763A4F83CA04FF0000B08E05C
:10185000002104F17C0040F82B100BF1010000F096
:10186000FF0BBBF1000FF3D004F16400189901F0F5
:101870009DFB204600F09EF800BF00BF00BFFEF7B2
:10188000C9FC039000BFFEF7C3FD00BF45480078C8
:10189000401C4449087008460078012801D101F035
:1018A00081FF00BFFEF7CEFD00BF0398FEF7B6FC38
:1018B00000BF00BF00BF94F8370001F09BFD204639
:1018C00001F0D4FE204602F045FB37480088401C5A
:1018D0003549088035480078012837D000BF00BF5F
:1018E00000BFFEF797FC039000BFFEF791FD00BF1D
:1018F0002C480078401E2B49087008460078D0B963
:1019000001F05EFF2A48008800280BDD00BFFEF7CB
:1019100099FD00BF0398FEF781FC00BF00BF01F0F6
:1019200013FF11E000BFFEF78DFD00BF0398FEF727
:1019300075FC00BF08E000BFFEF784FD00BF039800
:10194000FEF76CFC00BF00BF00BFFCE600BF00BF9D
:1019500000BFFEF75FFC039000BFFEF759FD00BF1C
:1019600010480078401E0F4908700846007808B9F2
:1019700001F026FF00BFFEF765FD00BF0398FEF7EC
:101980004DFC00BF00BF00BFFFF7F6FC00BFDAE66A
:1019900078000020345C0008C81C0020001C0020D7
:1019A000CC000020C8000020FC00002080000020A7
:1019B0008C00002010B504460348006818B120468A
:1019C00001490968884710BD5800002070B50446D9
:1019D0000D46002678480078002803DD47F24E10B7
:1019E000288070BD7548844203D147F24C1028808E
:1019F000F7E77348844203D147F24D102880F0E79F
:101A00009CB900BF00BFFEF705FC064600BFFEF70D
:101A1000FFFC00BF6B48046800BFFEF713FD00BF6A
:101A20003046FEF7FBFB00BF00BF00BF00BF00BF9A
:101A3000FEF7F0FB064600BFFEF7EAFC00BF624877
:101A40000078401C6049087008460078012801D1E0
:101A500001F0A8FE00BFFEF7F5FC00BF3046FEF720
:101A6000DDFB00BF00BF00BF94F8360008282DD270
:101A7000DFE800F004090E10080A0F11204601F0FB
:101A800035FE5EE05DE000BF204603F0B1F958E0AE
:101A900000BF00BF00BF204603F0AAF994F834004D
:101AA000082810D2DFE800F004070508090A0B0631
:101AB00000BF00BF08E000BF00BF00BF00BF20465E
:101AC00001F0CAFB00E000BF00BF3AE000BF00BF6A
:101AD00000BFFEF79FFB064600BFFEF799FC00BF64
:101AE00039480078401E3849087008460078D0B957
:101AF00001F066FE3548008800280BDD00BFFEF7C8
:101B0000A1FC00BF3046FEF789FB00BF00BF01F01B
:101B10001BFE11E000BFFEF795FC00BF3046FEF74C
:101B20007DFB00BF08E000BFFEF78CFC00BF304625
:101B3000FEF774FB00BF00BF00BF46F62D60288093
:101B40004FE700BF04F1640001F00EFA204600F0F8
:101B500041F8204602F016FA1D480088401E1C4934
:101B60000880204602F040FAFF2084F8360000BFCB
:101B700000BF00BFFEF74EFB064600BFFEF748FC65
:101B800000BF11480078401E0F49087008460078D1
:101B900008B901F015FE00BFFEF754FC00BF304647
:101BA000FEF73CFB00BF00BF00BF00202880FFF70E
:101BB000E3FB00BF15E7000078000020001C0020B8
:101BC000C81C002020010020C80000208C0000203C
:101BD000FC00002010B504460348006818B12046F8
:101BE00001490968884710BD5C00002010B5044613
:101BF0000348006818B1204601490968884710BDAC
:101C0000600000202DE9F04780460E4614461D4630
:101C10004FF000098C480078002805DD46F2AE1030
:101C200028800020BDE8F0871EB1B6F5004F02D134
:101C300000E000BF04E045F6256028800020F1E7C1
:101C400000BF0CB10020206000BF00BFFEF7E2FA29
:101C5000814600BFFEF7DCFB00BF7C480068406C9B
:101C6000B8B37A480068406C401E784909684864F7
:101C700076480068476C1CB174480068006C2060AE
:101C8000FEF70AFC71490968096C401A6F49096836
:101C9000C1F8A4006D480068D0F8A8006B49096835
:101CA000D1F8A410884207D268480068D0F8A40090
:101CB00066490968C1F8A80000BFFEF7C3FB00BF72
:101CC0004846FEF7ABFA00BF00BF00202880384628
:101CD000A8E7FFE706F4004068B100BFFEF7B2FBDB
:101CE00000BF4846FEF79AFA00BF00BF46F2B010A8
:101CF0002880002096E75648007800280DDD00BFB8
:101D0000FEF7A0FB00BF4846FEF788FA00BF00BF01
:101D100046F663502880002084E700BF4C480078D6
:101D2000401C4B49087008460078012801D101F099
:101D300039FD00BFFEF786FB00BF4846FEF76EFA8E
:101D400000BF00BF00BF434607220021084601F044
:101D5000C3F900BF00BF00BFFEF75CFA814600BFB9
:101D6000FEF756FB00BF3A480078401E384908701D
:101D70000846007808B901F023FD00BFFEF762FBBA
:101D800000BF4846FEF74AFA00BF00BF00BFFFF79A
:101D9000F3FA00BF00BFFEF73DFA814600BFFEF731
:101DA00037FB00BF2948006890F8350020B10128B2
:101DB00026D0032834D12CE0FCB124480068006C04
:101DC0002060FEF769FB21490968096C401A1F4928
:101DD0000968C1F8A4001D480068D0F8A8001B4994
:101DE0000968D1F8A410884207D218480068D0F8D2
:101DF000A40016490968C1F8A8000020288013E053
:101E00001CB112480068006C206046F2A9102880BE
:101E10000AE00CB10020206047F2D920288003E0BE
:101E200046F62E60288000BF00BF08480068476C57
:101E300000BFFEF707FB00BF4846FEF7EFF900BF03
:101E400000BF3846EEE600007800002020010020A8
:101E5000C80000202DE9F04705460E4617461C46EF
:101E60004FF0000A32480078002804DD47F259108C
:101E70002080BDE8F0871EB946F2D5202080F8E723
:101E80001FB946F2D5202080F3E700BF00BFFEF760
:101E9000C1F9824600BFFEF7BBFA00BF0DB9254865
:101EA0000568286878B900BFFEF7CCFA00BF504635
:101EB000FEF7B4F900BF00BF00203060386047F281
:101EC00052102080D5E795F83C0000F0010078B969
:101ED00000BFFEF7B7FA00BF5046FEF79FF900BFFC
:101EE00000BF00203060386047F254102080C0E707
:101EF00000BFFEF7A7FA00BF5046FEF78FF900BFFC
:101F000000BF4FF00008D5F8249003E009F1040960
:101F100008F10108D9F800000028F7D0C6F80080C1
:101F2000A86BA0EB080038600020208000BFA0E76D
:101F30007800002020010020F0B50446DDE90556B8
:101F400002EB85004FF0807C071F3846C7F800C0C1
:101F5000071F38463C60DFF89CC0071F3846C7F8AB
:101F600000C04FF0123C071F3846C7F800C04FF0C2
:101F7000033C071F3846C7F800C04FF0023C071F5C
:101F80003846C7F800C0071F38463B60071F384671
:101F900039604FF0113C071F3846C7F800C04FF0BA
:101FA000103C071F3846C7F800C04FF0093C071F18
:101FB0003846C7F800C04FF0083C071F3846C7F83E
:101FC00000C04FF0073C071F3846C7F800C04FF06D
:101FD000063C071F3846C7F800C04FF0053C071FF6
:101FE0003846C7F800C04FF0043C071F3846C7F812
:101FF00000C0F0BDBD44000870B52448006810B1B1
:10200000224800688047FEF747FA044620480068E7
:1020100020490968884215D01D480068D0F898000A
:10202000201A1B490968C1F8940019480068D0F8C3
:102030009C0017490968D1F89410084414490968AC
:10204000C1F89C0013480068C0F89840FEF7B4F946
:1020500005460F480068D0F8B400A84203D20C48E7
:102060000068C0F8B4500A480068D0F8B8000A49BF
:102070000968884205D20848006805490968C1F81E
:10208000B80000200449086070BD00006C0000200A
:102090002001002024010020C40000202DE9F0418F
:1020A00005460E46144600274D480078002804DDFA
:1020B00047F275202080BDE8F0814A48007800286A
:1020C00003DD46F663502080F5E736B1022E05D0D9
:1020D000042E0AD0082E09D101E000BF00BF1DB9AF
:1020E00047F27E202080E6E704E003E045F6256025
:1020F0002080E0E700BF00BF00BF00BFFEF78AF806
:10210000074600BFFEF784F900BF36480078401C40
:102110003449087008460078012801D101F042FBDB
:1021200000BFFEF78FF900BF3846FEF777F800BF13
:1021300000BF00BF01202C49096881F83600234602
:10214000324629462848006802F074FD2088F0B124
:1021500000BF00BF00BFFEF75DF8074600BFFEF7F7
:1021600057F900BF1F480078401E1E4908700846F6
:10217000007808B901F024FB00BFFEF763F900BF47
:102180003846FEF74BF800BF00BF00BF93E7164884
:10219000006801F0ABFA00BF00BF00BFFEF73AF8DD
:1021A000074600BFFEF734F900BF0E480078401E16
:1021B0000C4908700846007808B901F001FB00BF1F
:1021C000FEF740F900BF3846FEF728F800BF00BF11
:1021D00000BFFFF7D1F80020208000BF6BE70000B0
:1021E00078000020C8000020200100202DE9FF5FBA
:1021F00005460E4617469846DDE90EA400200090DD
:1022000081480078002804DD47F275202080BDE871
:10221000FF9F7E480078002803DD46F6635020804B
:10222000F5E70AF00E0BBBF1000F09D0BBF1020F6E
:1022300007D0BBF1040F10D0BBF1080F0ED101E0A5
:1022400000BF00BFB8F1000F06D12FB926B91DB9E4
:1022500047F27E202080DAE704E003E045F62560BF
:102260002080D4E700BF2AF01E0008B1012000E062
:10227000002003900398012803D145F625602080B3
:10228000C5E7CAF3001002900298C0B9B8F57A7F8A
:1022900003D347F27B202080B9E73B2F03DD47F2D1
:1022A0007A202080B3E73B2E03DD47F2792020809F
:1022B000ADE7632D12DD47F278202080A7E742F2D8
:1022C0000F70864203DD47F2792020809FE7B5F545
:1022D0007A7F03DB47F27820208098E74C48D0F8DB
:1022E00000904FF4FA70B0FBF9F0404400FB09F0A5
:1022F0004FF47A71B0FBF1F14FF461606843C6EBC3
:10230000061200EB8200384400FB0910019001988E
:10231000002873D000BF00BF00BFFDF77BFF009017
:1023200000BFFEF775F800BF38480078401C3749F9
:10233000087008460078012801D101F033FA00BF87
:10234000FEF780F800BF0098FDF768FF00BF00BFF0
:1023500000BF01202F49096881F8360023465A46FC
:102360002C480199006802F065FC2088F0B100BF9C
:1023700000BF00BFFDF74EFF009000BFFEF748F81A
:1023800000BF22480078401E2049087008460078A7
:1023900008B901F015FA00BFFEF754F800BF009825
:1023A000FDF73CFF00BF00BF00BF30E719480068E1
:1023B00001F09CF900BF00BF00BFFDF72BFF0090AC
:1023C00000BFFEF725F800BF10480078401E0F49F7
:1023D00008700846007808B901F0F2F900BFFEF76E
:1023E00031F800BF0098FDF719FF00BF00BF00BF24
:1023F000FEF7C2FF0020208003E0FFE747F27E20C7
:10240000208000BF03E7000078000020C800002003
:10241000385C00082001002010B586B000F01EF8DE
:10242000FEF73AF8044605A800210091CDE9011411
:1024300003900748007800EB4000064A02EB800159
:1024400000231A46044800F0F9FA06B010BD000057
:10245000AE0000209C1D00205449434B10B503489A
:10246000006810B101480068804710BD700000206E
:10247000254A2649264A274A2749284A2848294AD8
:10248000294A2A4A2A4A2B482B482C482C4A2D48AC
:102490002D4A2E482E4A2F482F4830483048314A7E
:1024A000314A324A3248334A334A3448344835484C
:1024B0003548364836483748374A384A384A394A1C
:1024C00039483A483A483B4A3B4A3C4A3C483D48EE
:1024D0003D483E493E483F4A3F4A404A404A414AB9
:1024E000414A424A4248434A434A44484448454A8A
:1024F000454A4648464A474A47484848484800BF30
:1025000000BF00BF704700007C5C0008E45D00086D
:102510007D5C00087E5C0008805C0008845C00082C
:10252000885C0008855C0008B05C0008B15C0008AD
:10253000B25C0008B45C0008B65C0008B85C000837
:10254000BA5C0008BC5C0008DC5C0008DE5C0008CB
:10255000E05C0008E25C0008E45C0008E65C00085F
:10256000E85C0008145D0008155D0008165D0008B1
:10257000185D00081A5D00081B5D00081C5D00085E
:102580001E5D0008205D0008225D0008245D000833
:10259000265D0008285D0008585D0008595D0008A8
:1025A0005A5D00085B5D00085C5D00085E5D000828
:1025B000605D0008885D0008895D00088A5D00088C
:1025C0008B5D00088C5D00088E5D0008905D000842
:1025D000945D0008955D0008965D0008975D000811
:1025E000985D0008995D00089A5D00089B5D0008F1
:1025F0009C5D00089E5D00089F5D0008A05D0008CE
:10260000A25D0008A45D0008A55D0008A85D0008A3
:10261000DC5D0008DD5D0008DE5D0008E05D0008AF
:10262000E25D00082DE9F04106460F4614461D46BE
:10263000DDF818800A480068C0F880400848006843
:10264000A0F88850002006490968C1F88400434674
:1026500001223946304600F03FFDBDE8F081000020
:102660002001002009A1C1610021416108490968D8
:1026700011B90021816105E00549096881610449BA
:1026800009684861024908607047000020000000A6
:10269000980000200021034A1160034A1180018044
:1026A00070470000980000209C0000202DE9F04FAA
:1026B00085B00446894692469B46DDF83880002066
:1026C000009000BF00BFFDF7A5FD009000BFFDF723
:1026D0009FFE00BFBAF1000F0AD0BAF1010F0DD072
:1026E000BAF5004F05D06FF40040504460B906E0E1
:1026F00000BF206A40EA0900206216E000BF206A9D
:1027000020EA0900206210E000BFFDF79BFE00BF39
:102710000098FDF783FD00BF00BF45F62560A8F8CF
:102720000000002005B0BDE8F08F00BFC4F824B061
:1027300004F1080001900198008968B900BFFDF715
:1027400081FE00BF0098FDF769FD00BF00BF0020BB
:10275000A8F80000206AE5E700BF71480078401C37
:102760006F49087008460078012801D101F01AF875
:1027700000BFFDF767FE00BF0098FDF74FFD00BFEB
:1027800000BF00BF01980768BD6889E078680290C3
:1027900095F8880000F00F0003900398012821D0DD
:1027A00002282ED0042802D0082836D10EE0206A54
:1027B000D5F8801000EA0106D5F88000B04204D1B7
:1027C0005A463146284600F0AFF863E0206AD5F853
:1027D000801000EA010626B15A463146284600F02C
:1027E000A3F857E0D5F88000216A20EA0106D5F861
:1027F0008000B04204D15A463146284600F094F891
:1028000048E0D5F88000216A20EA010626B15A4640
:102810003146284600F088F83CE000BF00BF00BF0A
:10282000FDF7F8FC009000BFFDF7F2FD00BF3C484B
:102830000078401E3A49087008460078D0B900F088
:10284000BFFF3848008800280BDD00BFFDF7FAFD08
:1028500000BF0098FDF7E2FC00BF00BF00F074FF6E
:1028600011E000BFFDF7EEFD00BF0098FDF7D6FCBC
:1028700000BF08E000BFFDF7E5FD00BF0098FDF7D1
:10288000CDFC00BF00BF00BF43F6FF20A8F800004A
:10289000002047E700BF029F0FB1BD6800E00025A0
:1028A000002D7FF473AF00BF00BF00BFFDF7B2FC87
:1028B000009000BFFDF7ACFD00BF19480078401E36
:1028C000174908700846007808B900F079FF00BF82
:1028D000FDF7B8FD00BF0098FDF7A0FC00BF00BFEA
:1028E00000BF0AF4004008B9FEF746FD00BF00BF74
:1028F000FDF790FC009000BFFDF78AFD00BF206A45
:10290000049000BFFDF79EFD00BF0098FDF786FC18
:1029100000BF00BF0020A8F80000049802E70000F4
:10292000C80000208C00002070B504460E461546F5
:1029300034342665002060702070E560A078343C57
:10294000082816D2DFE800F0040508090706101170
:1029500000BF00BF00BF0DE000BF204601F0E2FC59
:10296000002084F8360005E000BF042084F836001B
:1029700000E000BF00BF204600F06EFC70BD00000C
:10298000002400BF1DE000BF00BFFDF743FC04466C
:1029900000BFFDF73DFD00BF0A480068401C094923
:1029A000086009480068401C0749086000BFFDF73F
:1029B00049FD00BF2046FDF731FC00BF00BFFEF718
:1029C00067FBE0E774000020E000002010B58AB04B
:1029D000044600200E4908600B2000210591CDE936
:1029E0000704069108460B4909680B4A12680B4B0D
:1029F0001B68CDE90132CDE903101F200023084AEE
:102A000008A100900C48FEF78BFE0AB010BD000034
:102A100074000020E05B0008DC5B0008D85B000865
:102A20008129000875432F4F532D49494920496496
:102A30006C65205461736B00001C00202DE9F84F79
:102A400004460D4616461F46DDE90BABDDF828901F
:102A5000DDF834800020009000BF00BFFDF7DAFBF6
:102A6000009000BFFDF7D4FC00BF2C4800882C4923
:102A7000098888423EDA29480088401C2749088096
:102A8000284800880988884203DA244800882549B4
:102A90000880254800680460234800688560224853
:102AA0000068C6602048006807821F480068C0F8B8
:102AB00014901D480068A0F818A01B480068C0F8D2
:102AC0001CB0194800684068174908600120174980
:102AD0000881174808604860002000F08BFC15480A
:102AE000007818B113480078134908700020A8F83E
:102AF000000008E011480088401C1049088044F29A
:102B00005360A8F8000000BFFDF79CFC00BF0098D0
:102B1000FDF784FB00BF00BFBDE8F88F8C000020EC
:102B2000EC5B00088E000020840000209C1D00202B
:102B3000C81C0020AE000020B00000209000002043
:102B40003EB5594800680068584A811A904279D0C9
:102B50000FDC5749084400283ED056490844A8B124
:102B600055490844002860D05449084400286AD1D7
:102B70003FE053480844002850D0524908440028F8
:102B800062D0514908440028F1D110E002A8464D16
:102B900000902D68EB69444D2D682A8B424D2D68BD
:102BA0006969414D2D68A868FFF780FD7AE002A9A8
:102BB0003D480068C0693C4DCDE900012D682B8B74
:102BC000394D2D682A8A384D2D68E968364D2D68B3
:102BD000A86800F03FFC65E0334B1B68DA69324BB4
:102BE0001B68198B304B1B68986802AB00F088FE9D
:102BF00058E002A92C480068C0692B4DCDE90001BE
:102C00002D682B8B284D2D682A8A274D2D68E96861
:102C1000254D2D68A86801F04FFA43E02249096864
:102C2000886802A901F08CFB3CE01F4B1B68DA6945
:102C30001D4B1B68198B1C4B1B68986802AB01F07D
:102C400049FC2FE007E02CE017490968886802A9D1
:102C500001F014FF26E01D49097801EB41011C4AEF
:102C600002EB810000F0CAFD0F48006802AB0021B2
:102C7000C269184801F02EFC17480068401E16492A
:102C800008600846006858B9144800680860FDF7F5
:102C900003FC044602AB22460021114801F01AFC55
:102CA00000E000BF00BF3EBD880000205449434BF8
:102CB000ADBAB2BE0DF90BFAF2F8F7FF0006F6FF57
:102CC00000F7FDF700FFEFFF03FE0FFEB00000204E
:102CD0009C1D0020E41F00201C0100201801002082
:102CE000AC200020002700BF56E0002652E000BFC5
:102CF00000BFFDF78FFA074600BFFDF789FB00BF55
:102D00002648008898B90020254908810860486055
:102D100000F082FB00BFFDF795FB00BF3846FDF7D2
:102D20007DFA00BF00BFFEF727FB012632E000BF9F
:102D3000FDF788FB00BF3846FDF770FA00BF00BF03
:102D4000FDF7AAFB0546FFF7FBFEFDF7A5FB441BBD
:102D500014480068A04201D21248046000BF00BFBE
:102D6000FDF758FA074600BFFDF752FB00BF0E48BB
:102D7000006840680C49086008480088401E074900
:102D8000088000BFFDF75EFB00BF3846FDF746FA3E
:102D900000BF00BF002EAAD0A7E700008C000020D3
:102DA0009C1D00209400002088000020F0B589B010
:102DB00005460020314908803148006820B944F2B6
:102DC0005260288009B0F0BD2E480088022803DA3E
:102DD00044F254602880F5E700202B490860284819
:102DE00004682646203600270CE028482060002092
:102DF000A060E0602082606120836660203420361D
:102E0000781C87B21F4800888742EEDB203C1C48B4
:102E1000066866601E4806601E48066000201E495F
:102E200008801E4908801E48006818B944F25560A1
:102E30002880C7E71B4800681B490968884203D2FD
:102E400044F256602880BDE7032000210591CDE9BA
:102E50000705069113480068144A1268104B1B6856
:102E6000CDE90301CDE9013200910B46104A11A1D1
:102E70001748FEF755FC00BFA4E7000090000020B3
:102E8000E85B0008EC5B0008940000204E4F4E45C4
:102E900084000020880000208C0000208E0000208C
:102EA000F45B0008FC5B0008345C0008F85B000879
:102EB000E52C000875432F4F532D494949204953AC
:102EC00052205175657565205461736B00000000D8
:102ED000C81C00200021034A1160034A11800180B0
:102EE00070470000A0000020A400002070B501463B
:102EF0001A4D2D681DB945F21E750D8070BD184D17
:102F00002D881DB945F21D750D80F7E7134D286812
:102F10002A681032124D2D886D1EACB2002308E0D5
:102F20000260002545600581C560103010325D1CCF
:102F3000ABB2A342F4DB0025056045600581C560A6
:102F4000064D2D68074E3560054D2D88B58000254E
:102F5000F58035810D8000BFD0E70000185C0008C7
:102F6000105C0008901D002010B5014648894B896F
:102F7000002B17DD0A680C4B1B6813600A4C4B686A
:102F800023602346DB884C891B1B074CE3802346C8
:102F90009B884C892344044CA38000234B818B8164
:102FA0000B604B6010BD0000901D002001810022CD
:102FB0004281828102604260704700002DE9F04149
:102FC0000D46DDE90674B0F80AC0B0F80880C445C3
:102FD00005DB46F2935CA4F800C0BDE8F081DFF8A1
:102FE000DCC0BCF804C0BCF1000F04D145F21D7C6C
:102FF000A4F800C0F1E7DFF8C4C0DCF80010DFF887
:10300000BC80D1F800C0C8F800C0C446BCF804C0F9
:10301000ACF1010CA8F804C0C446BCF806C00CF121
:10302000010CA8F806C0C446BCF808C0B8F8068071
:10303000C44507DADFF884C0BCF806C0DFF87C803E
:10304000A8F808C0B0F80AC0BCF1000F0AD10160AE
:1030500041604FF0010CA0F80AC04FF0000CC1F81D
:1030600000C017E003F0100CBCF1000F07D1066898
:10307000316001604FF0000CC1F800C004E0D0F8EE
:1030800004C0C1F800C04160B0F80AC00CF1010CE6
:10309000A0F80AC0B0F80CC0B0F80A80C44503DA42
:1030A000B0F80AC0A0F80CC04D600A81CF604FF0A4
:1030B000000CA4F800C000BF8FE70000901D0020A6
:1030C0000021034A1160034A11800180704700000B
:1030D000A8000020AC0000202DE9F04105460C4678
:1030E00016461F461548006880F8346000201349D2
:1030F000096881F8350039461048006800F00EFF75
:103100006CB104F10808EC60012229460B48006804
:1031100000F016F82946404600F06BF806E0002063
:1031200006490968C88705490968086303480168B2
:10313000204600F019F8BDE8F081000020010020D1
:1031400010B5C287016300230AE000244C600C60C4
:103150000C614C610C83CC61886020315C1CA3B293
:103160009342F2DB10BD000030B548B14568C1F8AC
:10317000C45000F10804226893681D6AC56113E019
:1031800091F83450022D02D0072D08D103E007A595
:10319000C1F8C45007E007A5C1F8C45003E008A572
:1031A000C1F8C45000BF00BF30BD00005461736B54
:1031B000205100005461736B2053656D00000000C6
:1031C0002000000030B507A5C1F8C45000F1080484
:1031D00022681AB193681D6AC56101E001A5C56145
:1031E00030BD00002000000000210160416001812D
:1031F0007047F0B58E6896F8375007893FB90127B8
:10320000078100274F600F600160416023E007895C
:103210007F1C0781026806E0946894F83770AF421B
:1032200000DD02E05268002AF6D100BF32B9002763
:103230004F6043680B60596041600CE017682FB91C
:10324000116000270F604A60016004E013680B60A2
:103250004A6059601160F0BD2DE9F0410446256BCC
:10326000E68F0AE0D5F80C8008F1080729463846B1
:1032700000F00AF82035701E86B2002EF2DC002025
:10328000E0872063BDE8F08110B50489012C03D1EB
:1032900000240460446011E00C6824B94A680024EA
:1032A000146002600AE04C6824B90B6800245C607A
:1032B000436003E00B684A685A6013600489641E27
:1032C000048100244C600C6010BD2DE9F8430646D3
:1032D0000C4617469846089D94F83600082850D2A8
:1032E000DFE800F00405080906072B2C00BF00BF2B
:1032F00000BF47E000BF94F83400032807D14346DD
:103300003A4621463046009500F03FF803E0E76575
:10331000A4F86080256436B12046FFF79DFF214662
:103320003046FFF74FFF204600F0FCFF002034340A
:10333000A070607004F8340924E000BF94F83400F1
:10334000032807D143463A4621463046009500F00F
:103350001CF803E0E765A4F860802564204601F0CE
:1033600047FD36B12046FFF777FF21463046FFF78D
:1033700029FF04203434A0700020607004F8340960
:1033800000E000BF00BFBDE8F883F0B50446059E2D
:10339000086BCD8F0AE0C768A74204D1046142617F
:1033A0000383C66104E020306F1EBDB2002DF2DC45
:1033B00000BFF0BD70B50025074C03E005F120000B
:1033C000C5B2241D20680028F8D02068FCF72DFF26
:1033D0002844C5B2284670BD54000020002004E0F7
:1033E0000021034A42F82010401C0028F8D0704702
:1033F0005400002030B5420900F01F030121C3F141
:103400001F04A140034C54F822400C43014D45F8E1
:10341000224030BD5400002030B5420900F01F03A7
:103420000121C3F11F04A140034C54F822408C43F6
:10343000014D45F8224030BD540000200021034AD0
:103440001160034A1180018070470000B400002021
:10345000B80000202DE9F04F85B007468A46934614
:103460001C460020029000BF00BF00BFFCF7D2FE48
:10347000029000BFFCF7CCFF00BF56480078401C0C
:103480005449087008460078012801D100F08AF9F3
:1034900000BFFCF7D7FF00BF0298FCF7BFFE00BFDC
:1034A00000BF00BF07F10806308900284CD104F0A6
:1034B000100010B94FF0000801E04FF01008DDE9EE
:1034C0000E0143465A46CDE90001514607F120005E
:1034D000FFF774FD00BF00BF00BFFCF79BFE02902A
:1034E00000BFFCF795FF00BF3A480078401E3949FD
:1034F000087008460078D0B900F062F936480088B4
:1035000000280BDD00BFFCF79DFF00BF0298FCF711
:1035100085FE00BF00BF00F017F911E000BFFCF707
:1035200091FF00BF0298FCF779FE00BF08E000BFE2
:10353000FCF788FF00BF0298FCF770FE00BF00BFD9
:1035400000BF05B0BDE8F08F04F4007008B1358904
:1035500000E00125D6F8009011E0D9F808000390AA
:10356000D9F8040004900E985B4652460090384605
:103570000399FFF7AAFEDDF81090681E85B2002DB2
:10358000EBD100BF00BF00BFFCF744FE029000BFBC
:10359000FCF73EFF00BF0F480078401E0D49087041
:1035A0000846007808B900F00BF900BFFCF74AFFA5
:1035B00000BF0298FCF732FE00BF00BF00BF04F45A
:1035C000004008B9FDF7D8FE00210F98018000BF28
:1035D000B7E70000C80000208C00002000210AE0AE
:1035E00001EB4102054B03EB8200002202810260E5
:1035F00042604A1CD1B22029F2D370479C1D0020A2
:1036000010B5044694F83700FFF7F4FE94F837003D
:1036100005490978884203D1204600F027F802E0E6
:10362000204600F003F810BDAE00002010B590F861
:10363000373003EB43030C4C04EB83010B893BB99C
:1036400001230B810023C36003610860486009E027
:103650000B895B1C0B810B68C360002303610A6844
:103660001061086010BD00009C1D002010B590F88E
:10367000373003EB43030B4C04EB83010B893BB95D
:1036800001230B810023C36003610860486008E0E8
:103690000B895B1C0B810023C3604A680261D06008
:1036A000486010BD9C1D002010B501460C8924B156
:1036B000012C03D0022C0CD101E000BF14E00868FB
:1036C0004A6802610024C4601461D0600A604860E6
:1036D0000AE008684A68C36800241C61C46002618B
:1036E000D0600B60486000BF00BF10BD2DE9F04105
:1036F000054695F8370000EB4000124901EB8004C5
:103700002F69EE6887B946B900202081206060608B
:1037100095F83700FFF780FE0EE02089401E2081DB
:1037200000203061266007E02089401E2081FE6075
:103730000EB9676000E0376100202861E860BDE8ED
:10374000F08100009C1D002010B5002400BFFCF794
:1037500061FD044600BF00200D4908700D480E4968
:10376000086008460068D0F89000401C0968C1F85D
:1037700090000A480068401C084908604FF08050DB
:103780000749086000BF2046FCF748FD00BF10BD98
:10379000AF000020C81C002024010020F4000020FD
:1037A00004ED00E010B504480078012803D1FCF7CF
:1037B00073FE0249086010BDC8000020BC00002054
:1037C00010B50A48007880B9FCF766FE0849096818
:1037D000441A08480068A04201D20648046006481E
:1037E0000068A04201D20448046010BDC800002057
:1037F000BC000020C0000020C400002070B50546B9
:10380000002635480078012800D070BD00BF00BFF9
:10381000FCF700FD064600BFFCF7FAFD00BF2C6870
:103820004CB900BFFCF70EFE00BF3046FCF7F6FCBB
:1038300000BF00BFE9E72948844209D100BFFCF777
:1038400001FE00BF3046FCF7E9FC00BF00BFDCE72B
:10385000A06D10B1A06D401EA065A06D48B100BF65
:10386000FCF7F0FD00BF3046FCF7D8FC00BF00BFFE
:10387000CBE72889022809DA00BFFCF7E3FD00BF87
:103880003046FCF7CBFC00BF00BFBEE71448007811
:10389000002809DD00BFFCF7D5FD00BF3046FCF76E
:1038A000BDFC00BF00BFB0E72846FFF7FDFE2C6857
:1038B000606D18B90B480068A06501E0606DA065F7
:1038C00000BFFCF7BFFD00BF3046FCF7A7FC00BF00
:1038D00000BF00BF99E70000D0000020001C0020BE
:1038E000C8000020CC0000200021034A1160034AD8
:1038F0001180018070470000D4000020D800002013
:103900002DE9FF5F0446884691461D460020019040
:1039100000BF00BFFCF77EFC019000BFFCF778FD04
:1039200000BF04F108073889002857D10420012876
:1039300004D0022816D004283AD127E0206AFF28B4
:103940000FD100BFFCF77EFD00BF0198FCF766FCBD
:1039500000BF00BF46F6C5502880002004B0BDE877
:10396000F09F26E04FF6FF71206A88420DD100BF1C
:10397000FCF768FD00BF0198FCF750FC00BF00BFDA
:1039800046F6C55028800020E8E712E0206A401C77
:1039900068B900BFFCF756FD00BF0198FCF73EFC7C
:1039A00000BF00BF46F6C55028800020D6E700E0E3
:1039B00000BF00BF206A401C2062D4F820A0C4F8D9
:1039C000249000BFFCF73EFD00BF0198FCF726FCE9
:1039D00000BF00BF002028805046BFE700BF2D4831
:1039E0000078401C2B49087008460078012801D156
:1039F000FFF7D8FE00BFFCF725FD00BF0198FCF7DC
:103A00000DFC00BF00BF00BF08F4007008B13E8984
:103A100000E00126D7F800B011E0DBF808000290C2
:103A2000DBF80400039000231A46CDF800902046EE
:103A30000299FFF74AFCDDF80CB0701E86B2002E2A
:103A4000EBD1D4F820A000BF00BF00BFFCF7E2FB21
:103A5000019000BFFCF7DCFC00BF0E480078401E60
:103A60000C4908700846007808B9FFF7A9FE00BFA6
:103A7000FCF7E8FC00BF0198FCF7D0FB00BF00BFDB
:103A800000BF08F4004008B9FDF776FC002028804C
:103A9000504663E7C800002086B00020009000BFB9
:103AA00006E0D9490968480001AA0021FEF7F6FAA4
:103AB000D64800780128F4D101A8FDF773FD00274E
:103AC000D3480068D0490968884205D9D0480068C1
:103AD000CD490968B0FBF1F727B9CD4800680A2144
:103AE000B0FBF1F78EE1FCF7D7FC8246FCF77AFCDD
:103AF000C849086000BF00BFFCF78CFB009000BF06
:103B0000FCF786FC00BFC4480068C4490860002078
:103B1000C149086000BFFCF795FC00BF0098FCF7A6
:103B20007DFB00BF00BFBE480068BC4909688842F1
:103B300048D9BB480068BB49884205D242F21070A0
:103B400003900120029023E0B5480068B6498842FE
:103B500005D24FF47A7003900A20029018E0B04822
:103B60000068B249884203D26420039002900FE0BB
:103B7000AB480068AE49884205D20A2003904FF452
:103B80007A70029004E00120039042F210700290DB
:103B9000A34801680298B1FBF0F9A04903980968AD
:103BA0004843B0FBF9F042F21071081AA1490880AD
:103BB000A14800880988884208DA9E4800889E4902
:103BC000088003E042F210709A490880FDF79EFDDC
:103BD000002500BF00BFFCF71DFB009000BFFCF7F5
:103BE00017FC00BF9548046800BFFCF72BFC00BF22
:103BF0000098FCF713FB00BF00BF72E000BF00BFDE
:103C000000BFFCF707FB009000BFFCF701FC00BF02
:103C10008B480078401C8A490870084600780128C3
:103C200001D1FFF7BFFD00BFFCF70CFC00BF0098FF
:103C3000FCF7F4FA00BF00BF00BF54F89C0F6060AF
:103C4000002044F89C0900BF00BF00BFFCF7E2FA67
:103C5000009000BFFCF7DCFB00BF79480078401EF5
:103C60007749087008460078D0B9FFF7A9FD754874
:103C7000008800280BDD00BFFCF7E4FB00BF0098C4
:103C8000FCF7CCFA00BF00BFFFF75EFD11E000BFFC
:103C9000FCF7D8FB00BF0098FCF7C0FA00BF08E0B3
:103CA00000BFFCF7CFFB00BF0098FCF7B7FA00BFDE
:103CB00000BF00BFD4F8A000054400BF00BFFCF760
:103CC000A9FA009000BFFCF7A3FB00BFD4F8C040E6
:103CD00000BFFCF7B7FB00BF0098FCF79FFA00BFDE
:103CE00000BF002C8AD145B34E48854205D242F22E
:103CF000107005904FF0010B1BE04B48854205D238
:103D00004FF47A7005904FF00A0B12E04748854255
:103D100003D26420059083460BE04548854204D2D7
:103D20000A2005904FF47A7B03E00120059042F2CF
:103D3000107BB5FBFBF0049003E000200590012010
:103D4000049000BF00BFFCF765FA009000BFFCF7CD
:103D50005FFB00BF3948046800BFFCF773FB00BF7E
:103D60000098FCF75BFA00BF00BF2FE0D4F8A0007A
:103D7000059948430499B0FBF1F086B242F2107005
:103D8000864200D90646A4F88C60B4F88E00B04292
:103D900001DAA4F88E6001AB04F1AC02111D2046DB
:103DA000FEF758F800BF00BFFCF734FA009000BFE0
:103DB000FCF72EFB00BFD4F8C04000BFFCF742FB6D
:103DC00000BF0098FCF72AFA00BF00BF002CCDD13D
:103DD0001D480078012805D100201B49087001A862
:103DE000FDF7E0FBFCF758FBA0EB0A08174800685A
:103DF000404502D21548C0F8008001AA002138468B
:103E0000FEF74CF96FE60000205C0008EC00002093
:103E1000385C00087C000020E0000020E800002062
:103E2000E4000020801A060000093D00005A6202EA
:103E30000084D717DC000020DE000020F8000020FE
:103E4000C80000208C000020DA000020F0000020D4
:103E500010B58AB0044600201F4908601F49086059
:103E60001F4908601F4908701F4908701F480068F3
:103E700020B946F62B6020800AB010BD1C480068AF
:103E80001C490968884203D246F62C602080F3E77B
:103E9000194800781F2803D346F62A602080EBE7F4
:103EA000032000210591CDE9070406910846104939
:103EB0000968124A12680D4B1B68CDE90132CDE941
:103EC00003100D48007800230D4A0EA100901248FF
:103ED000FDF726FC00BFCFE7E0000020E80000204F
:103EE000E4000020EC000020DA000020245C000840
:103EF0002C5C0008345C00081C5C0008285C00088E
:103F0000993A000875432F4F532D4949492053745E
:103F10006174205461736B001C1F002038B5044687
:103F20000D4685B16B4602222946204600F082FEEE
:103F3000BDF8000018B9032084F8360006E002201E
:103F400084F8360002E0022084F836002046FFF7AD
:103F5000CDFB38BD0021C0F8BC100949096819B96A
:103F60000021C0F8C01007E005490968C0F8C0107A
:103F700003490968C1F8BC000149086070470000A6
:103F8000F8000020D0F8BC20D0F8C0104AB90D4B82
:103F9000196011B10023C1F8BC300023C0F8C03053
:103FA0000FE029B90023C2F8C030C0F8BC3008E0E7
:103FB000C2F8C010C1F8BC200023C0F8C030C0F85F
:103FC000BC307047F80000200021044A1160044A08
:103FD0001180044A1160018070470000F800002041
:103FE000FC000020F400002070B504460020206092
:103FF000A0606060E06020616061A061E0612BA072
:10400000206200206062A062E0622063E08720649A
:10401000E065A4F86000002104F16400FEF7C6FF2B
:10402000002044F8740F6060E060A0822061743C5E
:10403000002506E0002104F17C0040F82510681CF2
:10404000C5B2002DF6D000203434206120676067AF
:10405000606084F85600E067A06720814FF0004060
:1040600060610020A061E06120626062A4F85800F5
:10407000A4F85A00E0652066FCF70EFA064666666C
:104080000020A066C4F88000C4F88400207060702E
:10409000A0702020E0700020C4F88800C4F88C00D4
:1040A00004A0C4F89000343C70BD00003F5461731C
:1040B0006B000000200000002DE9FC4704460F467D
:1040C00090469946DDE90A654FF0000A00BF00BF3F
:1040D00000BFFCF79FF8824600BFFCF799F900BFCC
:1040E0008D480078401C8C490870084600780128EB
:1040F00001D1FFF757FB00BFFCF7A4F900BF504602
:10410000FCF78CF800BF00BF00BF0CB983480468FF
:104110000020288094F8360008287CD2DFE800F0E0
:104120000405484906074A4B00BF00BF00BF4B4685
:104130004246394604F16400CDE90065FEF73EFFD2
:1041400000BF00BF00BFFCF765F8824600BFFCF768
:104150005FF900BF70480078401E6F49087008463C
:104160000078D0B9FFF72CFB6D48008800280BDDE4
:1041700000BFFCF767F900BF5046FCF74FF800BFDF
:1041800000BFFFF7E1FA11E000BFFCF75BF900BFE9
:104190005046FCF743F800BF08E000BFFCF752F9B7
:1041A00000BF5046FCF73AF800BF00BF00BFAFE0C9
:1041B00000BF00BF00BF94F8340002282CD1434652
:1041C0003A46214600200096FFF77FF800BF00BF67
:1041D00000BFFCF71FF8824600BFFCF719F900BFCB
:1041E0004D480078401E4C4908700846007808B9D0
:1041F000FFF7E6FA00BFFCF725F900BF5046FCF7D1
:104200000DF800BF00BF00BF09F40040002843D1F3
:10421000FDF7B2F840E040E04B464246394604F133
:104220006400CDE90065FEF7C9FE00BF00BF00BF16
:10423000FBF7F0FF824600BFFCF7EAF800BF364804
:104240000078401E3449087008460078D0B9FFF75E
:10425000B7FA3348008800280BDD00BFFCF7F2F8FE
:1042600000BF5046FBF7DAFF00BF00BFFFF76CFA54
:1042700011E000BFFCF7E6F800BF5046FBF7CEFFA9
:1042800000BF08E000BFFCF7DDF800BF5046FBF7B9
:10429000C5FF00BF00BF00BF3AE000BF00BF00BFC6
:1042A000FBF7B8FF824600BFFCF7B2F800BF1A4820
:1042B0000078401E1849087008460078D0B9FFF70A
:1042C0007FFA1748008800280BDD00BFFCF7BAF81A
:1042D00000BF5046FBF7A2FF00BF00BFFFF734FA54
:1042E00011E000BFFCF7AEF800BF5046FBF796FFA9
:1042F00000BF08E000BFFCF7A5F800BF5046FBF781
:104300008DFF00BF00BF00BF46F62D60288000BFB4
:1043100000BFBDE8FC870000C8000020200100208D
:104320008C00002010B50446204600F061FD94F892
:10433000360000F0040010B92046FFF761F910BD07
:1043400070B504460D46002600BF00BFFBF762FFB4
:10435000064600BFFCF75CF800BF0020288094F8F8
:10436000360008287ED2DFE800F004050607145660
:104370006A8000BF00BF00BF00BFFCF763F800BF4A
:104380003046FBF74BFF00BF00BF47F253102880B9
:104390008CE000BF48480078401C47490870084638
:1043A0000078012801D1FFF7FDF900BFFCF74AF8BA
:1043B00000BF3046FBF732FF00BF00BF00BF14F85C
:1043C0008A0F401E207014F88A0928B9002084F84A
:1043D00036002046FFF7A6FF00BF00BF00BFFBF777
:1043E00019FF064600BFFCF713F800BF32480078FB
:1043F000401E314908700846007808B9FFF7E0F917
:1044000000BFFCF71FF800BF3046FBF707FF00BFF7
:1044100000BF00BF4AE014F88A0F401E207014F855
:104420008A0910B9012084F8360000BFFCF70AF8A9
:1044300000BF3046FBF7F2FE00BF00BF36E014F8C5
:104440008A0F401E207014F88A0910B9022084F8DF
:10445000360000BFFBF7F6FF00BF3046FBF7DEFE7D
:1044600000BF00E015E000BF20E014F88A0F401EF6
:10447000207014F88A0910B9032084F8360000BFB0
:10448000FBF7E0FF00BF3046FBF7C8FE00BF00BFF0
:104490000CE000BFFBF7D6FF00BF3046FBF7BEFEC7
:1044A00000BF00BF46F62D60288070BD00BFFCF73E
:1044B00063FF00BFF9E70000C800002008B504480A
:1044C0000068FDF793FB69460020FDF77FFA08BD01
:1044D000200100202DE9F8430446884617461D4672
:1044E0004FF0000900BF00BF00BFFBF793FE8146FD
:1044F00000BFFBF78DFF00BFFB480078401CFA4966
:10450000087008460078012801D1FFF74BF900BF79
:10451000FBF798FF00BF4846FBF780FE00BF00BFD7
:1045200000BF0CB9F148046827640020288094F883
:10453000360008287AD2DFE800F00405FEFD060701
:10454000FCFB00BF00BF00BF0420012804D00228EC
:1045500043D004286BD184E0606CFF283CD100BFBD
:1045600000BF00BFFBF756FE814600BFFBF750FFC0
:1045700000BFDD480078401EDB490870084600781F
:10458000D0B9FFF71DF9DA48008800280BDD00BF1D
:10459000FBF758FF00BF4846FBF740FE00BF00BFD7
:1045A000FFF7D2F811E000BFFBF74CFF00BF484611
:1045B000FBF734FE00BF08E000BFFBF743FF00BF7E
:1045C0004846FBF72BFE00BF00BF00BF46F6C550B4
:1045D00028800020BDE8F88385E04FF6FF71606C0D
:1045E00088423DD100BF00BF00BFFBF713FE8146EC
:1045F00000BFFBF70DFF00BFBB480078401EBA4963
:10460000087008460078E0B9FFF7DAF8B848008883
:1046100000280DDD00BFFBF715FF00BF4846FBF784
:10462000FDFD00BF00BFFFF78FF813E0E2E159E0A6
:1046300000BFFBF707FF00BF4846FBF7EFFD00BFD9
:1046400008E000BFFBF7FEFE00BF4846FBF7E6FDB3
:1046500000BF00BF00BF46F6C55028800020B9E764
:1046600041E0606C401CD8BB00BF00BF00BFFBF73F
:10467000D1FD814600BFFBF7CBFE00BF9A48007812
:10468000401E9949087008460078D0B9FFF798F89D
:104690009748008800280BDD00BFFBF7D3FE00BF62
:1046A0004846FBF7BBFD00BF00BFFFF74DF811E028
:1046B00000BFFBF7C7FE00BF4846FBF7AFFD00BFDA
:1046C00008E000BFFBF7BEFE00BF4846FBF7A6FDB3
:1046D00000BF00BF00BF46F6C5502880002079E724
:1046E000FFE700E000BF00BF606C401C6064666CC8
:1046F00000BF00BF00BFFBF78DFD814600BFFBF789
:1047000087FE00BF78480078401E77490870084649
:104710000078F8B9FFF754F875480088002810DDD4
:1047200000BFFBF78FFE00BF4846FBF777FD03E0B5
:104730001EE01CE01AE018E000BF00BFFFF704F81D
:1047400011E000BFFBF77EFE00BF4846FBF766FDA9
:1047500000BF08E000BFFBF775FE00BF4846FBF74F
:104760005DFD00BF00BF00BF80E100BF00BF00BF14
:1047700094F8340007282CD100231A462146184605
:104780000097FEF7A2FD666C00BF00BF00BFFBF7FD
:1047900041FD814600BFFBF73BFE00BF5248007859
:1047A000401E514908700846007808B9FFF708F81C
:1047B00000BFFBF747FE00BF4846FBF72FFD00BFD9
:1047C00000BF00BF08F40040002801D1FCF7D4FD71
:1047D0000FE10420012804D0022842D0042872D11D
:1047E00089E0606CFF283BD100BF00BF00BFFBF732
:1047F00011FD814600BFFBF70BFE00BF3A48007871
:10480000401E3949087008460078D0B9FEF7D8FF35
:104810003748008800280BDD00BFFBF713FE00BF00
:104820004846FBF7FBFC00BF00BFFEF78DFF11E021
:1048300000BFFBF707FE00BF4846FBF7EFFC00BFD9
:1048400008E000BFFBF7FEFD00BF4846FBF7E6FCB3
:1048500000BF00BF00BF46F6C55028800020B9E663
:104860008BE04FF6FF71606C884243D100BF00BF00
:1048700000BFFBF7CFFC814600BFFBF7C9FD00BFBF
:1048800019480078401E1849087008460078D8B9C1
:10489000FEF796FF1648008800280BDD00BFFBF7E7
:1048A000D1FD00BF4846FBF7B9FC00BF00BFFEF7D3
:1048B0004BFF12E000BFFBF7C5FD00BF4846FBF70A
:1048C000ADFC00BF09E057E000BFFBF7BBFD00BF38
:1048D0004846FBF7A3FC00BF00BF00BF46F6C5502B
:1048E0002880002076E60000C8000020200100207B
:1048F0008C00002041E0606C401CD8BB00BF00BFB2
:1049000000BFFBF787FC814600BFFBF781FD00BFBE
:1049100058480078401E5749087008460078D0B9BA
:10492000FEF74EFF5448008800280BDD00BFFBF760
:1049300089FD00BF4846FBF771FC00BF00BFFEF7D2
:1049400003FF11E000BFFBF77DFD00BF4846FBF70A
:1049500065FC00BF08E000BFFBF774FD00BF4846E0
:10496000FBF75CFC00BF00BF00BF46F6C5502880C7
:1049700000202FE6FFE700E000BF00BF606C401C96
:104980006064666C00BF00BF00BFFBF743FC81465C
:1049900000BFFBF73DFD00BF36480078401E35499B
:1049A000087008460078D0B9FEF70AFF3248008840
:1049B00000280BDD00BFFBF745FD00BF4846FBF7B5
:1049C0002DFC00BF00BFFEF7BFFE11E000BFFBF7EC
:1049D00039FD00BF4846FBF721FC00BF08E000BFDF
:1049E000FBF730FD00BF4846FBF718FC00BF00BFD7
:1049F00000BF3BE000BF00BF00BFFBF70BFC8146E0
:104A000000BFFBF705FD00BF1A480078401E19499A
:104A1000087008460078D0B9FEF7D2FE1648008824
:104A200000280BDD00BFFBF70DFD00BF4846FBF77C
:104A3000F5FB00BF00BFFEF787FE11E000BFFBF7EC
:104A400001FD00BF4846FBF7E9FB00BF08E000BFDF
:104A5000FBF7F8FC00BF4846FBF7E0FB00BF00BFD8
:104A600000BF46F62D602880002600BF00BF3046FC
:104A7000B0E50000C80000208C00002070B504469E
:104A80000D46002600BF00BFFBF7C4FB064600BF73
:104A9000FBF7BEFC00BF0CB95A48046859480068CF
:104AA000844210D15848007800280CDD00BFFBF785
:104AB000C9FC00BF3046FBF7B1FB00BF00BF46F6A4
:104AC0006350288070BD0020288094F836000828A4
:104AD00073D2DFE800F0044252627374757600BF4F
:104AE00049480078401C4849087008460078012869
:104AF00001D1FEF757FE00BFFBF7A4FC00BF304614
:104B0000FBF78CFB00BF00BF00BF042084F8360019
:104B1000012084F88A002046FEF7E8FD00BF00BFB0
:104B200000BFFBF777FB064600BFFBF771FC00BF39
:104B300035480078401E344908700846007808B9A6
:104B4000FEF73EFE00BFFBF77DFC00BF3046FBF7E3
:104B500065FB00BF00BF00BF4FE0052084F83600B2
:104B6000012084F88A0000BFFBF76CFC00BF3046D0
:104B7000FBF754FB00BF00BF3FE0062084F836007F
:104B8000012084F88A0000BFFBF75CFC00BF3046C0
:104B9000FBF744FB00BF00BF2FE0072084F836007E
:104BA000012084F88A0000BFFBF74CFC00BF3046B0
:104BB000FBF734FB00BF00BF1FE011E000BF00BFE8
:104BC00000BF94F88A00401C84F88A0000BFFBF7FD
:104BD00039FC00BF3046FBF721FB00BF00BF0CE0F3
:104BE00000BFFBF72FFC00BF3046FBF717FB00BFF1
:104BF00000BF46F62D60288064E700BFFCF7BCFBD1
:104C000000BF5FE720010020C8000020002108E06D
:104C1000064A02EBC100002202608280C2804A1C68
:104C200091B2034A12889142F2DB7047F0180020DB
:104C3000505C00082DE9F04F0C4616461D46042E28
:104C40001ED1DFF8A091D9F80090A4EB0909A9F1D1
:104C5000010313F5803F0DD94FF00009C0F84C90C7
:104C6000C0F85090C0F81C9047F27E29A5F800903B
:104C7000BDE8F08FC46403F10109C0F850903FE033
:104C800084B3082E25D1D0F8489009EB0407DFF84B
:104C90005491D9F80090A7EB0909A9F10103A342A7
:104CA00001D2C76406E0DFF83C91D9F80090A14436
:104CB000C0F84C90DFF82CA1D0F84C90DAF800A0A6
:104CC000A9EB0A09C0F85090D0F84C90C0F8489071
:104CD00016E0DFF81091D9F80090A144C0F84C908C
:104CE00004650DE0FFE74FF00009C0F84C90C0F8F4
:104CF0005090C0F81C9047F27E29A5F80090B7E7C5
:104D0000DFF8E4A0BAF800A0D0F84C90B9FBFAFBA9
:104D10000AFB1B991FFA89F8DFF8D09009EBC8024B
:104D2000B2F80490B9F1000F0BD14FF00009C0F8B0
:104D30001490C0F8189010604FF00109A2F8049088
:104D40003EE0116834E0DFF89CA0D1F84C90DAF82E
:104D500000A0A9EB0A09C1F85090D0F85090D1F802
:104D600050A0D1450ED9D1F81490B9F1000F01D05F
:104D700049691DE04FF00009C0F814908161486155
:104D8000002115E0D1F81890B9F1000F07D14FF0CC
:104D90000009C0F8189041618861106007E0D1F8FF
:104DA00018C0C0F818C04161CCF814008861002117
:104DB0000029C8D1B2F8049009F10109A2F80490C1
:104DC000B2F80690B2F804A0D14503DAB2F8049024
:104DD000A2F80690C2614FF00009A5F8009000BF4C
:104DE00046E7000000010020505C0008F018002099
:104DF00010B5C269BAB1002404651468844205D1B3
:104E00004169116039B100248C6104E08169436912
:104E10004B6103B19961002444618461C461C4643D
:104E20009488641E948010BD002006E0054A02EBC1
:104E3000C0010022CA80421C90B2034A12889042EC
:104E4000F4DB7047F0180020505C00082DE9F05F9B
:104E50004FF0000B00BF00BF00BFFBF7DBF983463C
:104E600000BFFBF7D5FA00BF7A480078401C7949AB
:104E7000087008460078012801D1FEF793FC00BFB6
:104E8000FBF7E0FA00BF5846FBF7C8F900BF00BFC8
:104E900000BFFBF701FB05466F480068401C6E49E8
:104EA0000860084600686D490988B0FBF1F201FB13
:104EB00012001FFA80FA6A4800EBCA08D8F80040CE
:104EC000002782E0002C7FD0D4F8149094F83600AC
:104ED000082875D2DFE800F00408051B063D0750DE
:104EE00000BF00BF00BF6CE05B49E06C0968401A7E
:104EF00020655949E06C0968884206D1002084F891
:104F000036002046FFF70EFA00E0012759E052492B
:104F1000E06C0968401A20654F49E06C09688842D6
:104F200015D10020E065A4F86000FBF7B5FA206415
:104F30002046FEF791F92046FFF7F4F900203434BB
:104F4000A07003206070002004F8340900E00127FD
:104F500037E04149E06C0968401A20653E49E06C41
:104F60000968884206D1042084F836002046FFF7FD
:104F70003FFF00E0012724E03749E06C0968401A50
:104F800020653549E06C0968884217D10020E0654A
:104F9000A4F86000FBF780FA20642046FEF75CF975
:104FA0002046FFF725FF04203434A07003206070F2
:104FB000002004F8340902E006E001E0012700E0E7
:104FC00000BF00BF4C4600E00127002F3FF47AAF3E
:104FD000FBF762FA461B23480068B04201D2214821
:104FE000066000BF00BF00BFFBF714F9834600BF97
:104FF000FBF70EFA00BF17480078401E15490870ED
:1050000008460078D0B9FEF7DBFB17480088002877
:105010000BDD00BFFBF716FA00BF5846FBF7FEF8A2
:1050200000BF00BFFEF790FB11E000BFFBF70AFADC
:1050300000BF5846FBF7F2F800BF08E000BFFBF7DF
:1050400001FA00BF5846FBF7E9F800BF00BF00BFF8
:10505000BDE8F09FC800002000010020505C00085F
:10506000F0180020040100208C0000201CB500BFB7
:105070000EE001AB6A4600210846FCF7C3FDBDF80F
:10508000040028B903480078012801D1FFF7DEFEAB
:10509000EFE700008000002010B58AB00446002031
:1050A0001D4908601D490860FFF7B0FD1C480068F5
:1050B00020B947F2122020800AB010BD19480068BC
:1050C00019490968884203D247F213202080F3E788
:1050D000164800781F2803D347F211202080EBE701
:1050E0000B20002105910A46CDE9070406910D48E1
:1050F00000680F4909680A4B1B68CDE90131CDE909
:1051000003020A48007800230A4A0BA100900F48C6
:10511000FCF706FB00BFCFE70001002004010020E0
:10512000405C0008485C0008345C00083C5C0008F7
:10513000445C00086D50000875432F4F532D4949BA
:1051400049205469636B205461736B00E41F002095
:1051500070B58AB0044600203149086031480068C3
:1051600040B1314800682F490968B0FBF1F02F4980
:10517000086006E02C4800680A21B0FBF1F02B49DA
:1051800008602A4800682A49086000202949086008
:1051900029490860002508E0284800EBC5060020E2
:1051A000B080F0803060681C85B225480088854258
:1051B000F2DB2448006820B947F2473020800AB06B
:1051C00070BD2148006821490968884203D247F22E
:1051D00048302080F3E71E4800781F2803D347F2A9
:1051E00046302080EBE70B2000210591CDE9070434
:1051F0000691084614490968164A1268114B1B6843
:10520000CDE90132CDE90310114800780023124A9C
:1052100012A100901748FCF783FA00BFCFE7000007
:10522000080100205C5C0008385C000818010020C0
:105230001C0100201401002010010020781B002018
:10524000705C0008605C0008685C0008345C000862
:10525000585C0008645C00086D53000875432F4FCC
:10526000532D4949492054696D6572205461736B0F
:1052700000000000AC200020F0B50C46022680F8AB
:105280002A60012C05D12D4F466A3F683E44866155
:105290000CE0066A2EB9294F466A3F683E44866193
:1052A00004E0264F066A3F683E448661244F3F88EB
:1052B0008669B6FBF7FC07FB1C66B5B2214E06EB10
:1052C000C502166836B900260661466110600126DF
:1052D00096802CE0194F86693F68F61BC6611168FD
:1052E00020E0164F8E693F68F61BCE61C669CF6914
:1052F000BE4209D90E690EB1096913E000260661A4
:105300004161086100210DE04E692EB90026466119
:1053100001614861106004E04B69436101611861FB
:10532000486100210029DCD19688761C9680D688B9
:105330009788BE4201DA9688D680F0BD140100201D
:10534000705C0008781B0020002006E0054A02EB94
:10535000C0010022CA80421C90B2034A12889042C7
:10536000F4DB7047781B0020705C00081CB500BFA0
:1053700053E001AB6A4600210846FCF743FC01A854
:10538000FCF74EF8FBF788F8064624480068401CF6
:10539000224908600846006821490988B0FBF1F2FB
:1053A00001FB12001FFA80FA1E4800EBCA08D8F869
:1053B00000404FF0000B21E0F4B1D4F810901749F1
:1053C000A0690968884214D1204600F02FF8208D8A
:1053D000022804D101212046FFF74EFF02E00320FE
:1053E00084F82A00A56815B12046E168A8474C4614
:1053F00004E04FF0010B01E04FF0010BBBF1000F97
:10540000DAD0FBF749F8871B01A8FCF747F80648F4
:105410000068B84201D204480760AAE714010020DE
:10542000705C0008781B002010010020F0B5114EC0
:1054300036888569B5FBF6F706FB1755ACB20E4DFD
:1054400005EBC4021568854205D10169116039B1C7
:1054500000254D6104E0416903690B6103B15961A5
:10546000012580F82A5000250561456195886D1E4B
:105470009580F0BD705C0008781B002029B1064AB9
:1054800092690243044B9A6104E0034A92698243A1
:10549000014B9A61704700000010024030B50021B6
:1054A0000022002400232D4D6D6805F00C0121B170
:1054B000042905D0082923D105E0294D056022E003
:1054C000274D05601FE0254D6D6805F47012234DD2
:1054D0006D6805F48034022505EB92421CB9214D1C
:1054E000554305600BE01D4D6D6805F400351DB199
:1054F0001C4D5543056002E0194D5543056002E01F
:10550000174D056000BF00BF144D6D6805F0F00138
:105510000909154D6B5C0568DD4045600F4D6D68F0
:1055200005F4E061090A104D6B5C4568DD4085605B
:105530000A4D6D6805F46051C90A0B4D6B5C4568F6
:10554000DD40C560054D6D6805F44041890B074D90
:105550006B5CC568B5FBF3F5056130BD001002401A
:1055600000127A0000093D001400002024000020F1
:10557000704710B500F002F810BD00000CB5002017
:10558000019000903348006840F480303149086051
:1055900000BF3048006800F4003000900198401CC3
:1055A0000190009818B90198B0F5A06FF1D1294881
:1055B000006800F4003010B10120009001E00020EC
:1055C00000900098012843D12348006840F0100063
:1055D000214908600846006820F00300086008467A
:1055E000006840F0020008601A48406819494860A5
:1055F0000846406848600846406840F4806048605B
:105600000846406820F47C1048600846406840F432
:10561000E81048600846006840F08070086000BFED
:105620000C48006800F000700028F9D00948406874
:1056300020F00300074948600846406840F0020037
:10564000486000BF0348406800F00C000828F9D10A
:105650000CBD00000010024000200240042808D1C8
:105660004FF0E021096941F004014FF0E02211619F
:1056700007E04FF0E021096921F004014FF0E0223A
:105680001161704710B505480078012805D1FBF776
:10569000EBFDFCF7C1FEFBF7FDFD10BD8000002017
:1056A00010B51348006840F0010011490860084631
:1056B0004068104908400E494860084600680E4995
:1056C00008400B4908600846006820F48020086004
:1056D0000846406820F4FE0048604FF41F008860D0
:1056E000FFF747FF4FF000600449086010BD00005D
:1056F000001002400000FFF8FFFFF6FE08ED00E09A
:105700000EB50FE002A8082100230122CDE9001008
:1057100019461846FCF76AFD02AB00220121024837
:10572000FBF768FCEEE70000480700200EB51AE022
:1057300002A800214FF484730A46CDE9001003212A
:105740000948FBF70FF900200849086002A800216A
:1057500064230A46CDE900100846FCF747FD012006
:105760000349C1F89401E3E74807002094812142EE
:105770000080214210B58AB0044609AB00221CA16A
:105780001D48FBF77DF809A8032100220592CDE909
:1057900006210890104640210822184BCDE901321D
:1057A000CDE9031004200023154A16A100901848E3
:1057B000FBF7B6FF09A8032100220592CDE90621D7
:1057C0000890104640210822124BCDE90132CDE964
:1057D000031005200023104A10A100901248FBF787
:1057E0009FFF09A91148FCF7F1F80AB010BD0000AD
:1057F0004D79466C61677300480700204806002019
:10580000015700085461736B44656C6179000000B6
:1058100080050020800400202D5700085461736B20
:105820004C45443000000000B8030020280100204F
:1058300010B5FBF719FD40F225511E4800F04CF859
:1058400010B31C4800F004F9C4B21B48008800F4EF
:105850000040C8B91848008800F4804060B10A2CA4
:1058600003D000201449088020E01348008840F449
:1058700000401149088019E00D2C06D10E4800881F
:1058800040F480400C49088010E00B480088C0F3C9
:105890000D000A490C5408480088401C064908803D
:1058A00008460088C72801DD00200880FBF7F2FCCD
:1058B00010BD00000038014030000020F002002040
:1058C00021B1828942F40052828104E082894DF63E
:1058D000FF731A408281704770B50246002400238E
:1058E0000025002040F66A16B14200D100BFC1F386
:1058F000421501F01F03012606FA03F3012D02D120
:105900009689334006E0022D02D1168A334001E029
:10591000968A33400C12012606FA04F416883440A5
:1059200013B10CB1012000E0002070BDF0B50346BA
:10593000002400260025002040F66A17B94200D155
:1059400000BF1846C1F3421401F01F06012707FAF1
:1059500006F5012C01D10C3004E0022C01D11030ED
:1059600000E014301AB107682F43076002E00768AF
:10597000AF430760F0BD00002DE9F04786B0054653
:105980000E460024A24600BFA1460027B08900B100
:1059900000BF2F462C8A4CF6FF700440F088044369
:1059A0002C82AC894EF6F3100440B088318908434C
:1059B000718908430443AC81AC8A4FF6FF40044030
:1059C000B0890443AC8201A8FFF768FD1F488742F5
:1059D00002D1DDF810A001E0DDF80CA0A88900F4E8
:1059E000004040B10AEBCA0000EB0A1031684900E0
:1059F000B0FBF1F807E00AEBCA0000EB0A103168CF
:105A00008900B0FBF1F86420B8FBF0F00401200934
:105A1000642101FB1089A88900F4004040B13220C4
:105A200000EBC900B0FBF1F000F00700044308E010
:105A3000322000EB09106421B0FBF1F000F00F0000
:105A400004432C8106B0BDE8F08700000038014017
:105A500001468888C0F30800704700BFFEE7014692
:105A600000BF00207047000010B56FF00400FFF782
:105A7000F5FD144800681449B0FBF1F013490870B3
:105A8000104800681049B0FBF1F411480068C910D3
:105A9000B1FBF0F044430E4800684FF47A71B1FB5B
:105AA000F0F00C4908804FF0E020006940F002005F
:105AB0004FF0E021086108464461006940F00100B0
:105AC000086110BD0000002000127A0028000020AC
:105AD000385C00082A00002000B58BB0FAF734FCCF
