:020000040800F2
:1000000060060020B1010008ED0300088B03000822
:10001000E90300086B0200088D07000800000000DB
:10002000000000000000000000000000B90400080B
:100030006F0200080000000075040008A505000814
:10004000CB010008CB010008CB010008CB01000860
:10005000CB010008CB010008CB010008CB01000850
:10006000CB010008CB010008CB010008CB01000840
:10007000CB010008CB010008CB010008CB01000830
:10008000CB010008CB010008CB010008CB01000820
:10009000CB010008CB010008CB010008CB01000810
:1000A000CB010008CB010008CB010008CB01000800
:1000B00009060008CB010008CB010008CB010008AD
:1000C000CB010008CB010008CB010008CB010008E0
:1000D000CB010008CB010008CB010008CB010008D0
:1000E000CB010008CB010008CB010008CB010008C0
:1000F000CB010008CB010008CB010008CB010008B0
:10010000CB010008CB010008CB010008CB0100089F
:10011000CB010008CB010008CB010008CB0100088F
:10012000CB010008CB010008CB010008CB0100087F
:1001300000F002F800F02CF80AA090E8000C8244CD
:100140008344AAF10107DA4501D100F021F8AFF2AA
:10015000090EBAE80F0013F0010F18BFFB1A43F0A5
:100160000103184740060000500600000023002449
:1001700000250026103A28BF78C1FBD8520728BFB7
:1001800030C148BF0B6070471FB51FBD10B510BD13
:1001900000F031F81146FFF7F7FF00F0F9FA00F030
:1001A0004FF803B4FFF7F2FF03BC00F057F800006C
:1001B0000948804709480047FEE7FEE7FEE7FEE7FB
:1001C000FEE7FEE7FEE7FEE7FEE7FEE70448054937
:1001D000054A064B70470000A905000831010008D8
:1001E0006000002060060020600200206002002005
:1001F000704770477047754600F02CF8AE46050012
:100200006946534620F00700854618B020B5FFF731
:10021000DDFFBDE820404FF000064FF000074FF033
:1002200000084FF0000B21F00701AC46ACE8C00914
:10023000ACE8C009ACE8C009ACE8C0098D4670471D
:1002400010B50446AFF300802046BDE81040FFF72C
:10025000A8BF000000487047000000200149182096
:10026000ABBEFEE726000200704700BFFEE7704706
:100270002DE9F0410246002500260020002300243D
:10028000002791F803C00CF00F0591F803C00CF0A3
:10029000100CBCF1000F03D091F802C04CEA050528
:1002A00091F800C0BCF1000F31D0146800202BE0A1
:1002B0004FF0010C0CFA00F3B1F800C00CEA030691
:1002C0009E4220D183004FF00F0C0CFA03F7BC4381
:1002D00005FA03FC4CEA040491F803C0BCF1280FB2
:1002E00006D14FF0010C0CFA00FCC2F814C00AE071
:1002F00091F803C0BCF1480F05D14FF0010C0CFA86
:1003000000FCC2F810C0401C0828D1D31460B1F81A
:1003100000C0BCF1FF0F34DD546800202EE000F176
:10032000080C4FF0010808FA0CF3B1F800C00CEA11
:1003300003069E4221D183004FF00F0C0CFA03F705
:10034000BC4305FA03FC4CEA040491F803C0BCF179
:10035000280F05D100F1080C08FA0CF8C2F8148037
:1003600091F803C0BCF1480F07D100F1080C4FF021
:10037000010808FA0CF8C2F81080401C0828CED3F7
:100380005460BDE8F0810161704700BFFEE70000E6
:1003900008B50121482000F07FF810208DF80300F7
:1003A00003208DF802002020ADF8000069460C48BB
:1003B000FFF75EFF20210A48FFF7E5FF10208DF8C8
:1003C000030003208DF802002020ADF800006946EC
:1003D0000448FFF74DFF20210248FFF7D4FF08BD76
:1003E000000C01400018014000BFFEE7704700000C
:1003F00070B5002100230F22C47804B3154C246883
:1004000004F4E064C4F5E064210AC1F10403CA40C5
:10041000447804FA03F184781440214309010E4C16
:100420000678A155047804F01F050124AC40057836
:100430006D11AD0005F1E025C5F8004109E0047833
:1004400004F01F050124AC40044D0678761145F8F0
:10045000264070BD0CED00E000E400E080E100E02B
:1004600002490143024A1160704700000000FA058A
:100470000CED00E07047000029B1064AD269024342
:10048000044BDA6104E0034AD2698243014BDA612A
:10049000704700000010024029B1064A92690243E9
:1004A000044B9A6104E0034A92698243014B9A61CA
:1004B0007047000000100240704710B500F002F8CD
:1004C00010BD00000CB5002001900090334800687A
:1004D00040F480303149086000BF3048006800F4C3
:1004E000003000900198401C0190009818B90198C4
:1004F000B0F5A06FF1D12948006800F4003010B1C8
:100500000120009001E0002000900098012843D1D4
:100510002348006840F01000214908600846006840
:1005200020F0030008600846006840F00200086000
:100530001A484068194948600846406848600846BB
:10054000406840F4806048600846406820F47C10B1
:1005500048600846406840F4E81048600846006873
:1005600040F08070086000BF0C48006800F0007028
:100570000028F9D00948406820F003000749486086
:100580000846406840F00200486000BF03484068E9
:1005900000F00C000828F9D10CBD0000001002404A
:1005A000002002407047000010B51348006840F07A
:1005B00001001149086008464068104908400E498A
:1005C0004860084600680E4908400B490860084624
:1005D000006820F4802008600846406820F4FE008F
:1005E00048604FF41F008860FFF767FF4FF000601E
:1005F0000449086010BD0000001002400000FFF830
:10060000FFFFF6FE08ED00E010B50121880700F0BD
:1006100050F801280BD10648006808B9012000E015
:100620000020034908600121880700F033F810BD5D
:10063000940123427FB505460C4601210846FFF789
:100640001BFF0020ADF80A00ADF80600ADF8085019
:10065000ADF8044001A94FF0804000F045F84FF498
:10066000A060FFF7FDFE1C208DF8000001208DF832
:1006700003008DF801008DF802006846FFF7B8FE10
:1006800001221146900700F025F80121880700F0AB
:1006900004F87FBDCA430282704721B1028842F04C
:1006A0000102028004E002884FF6FE731A400280C5
:1006B000704730B50246002000230024158A05EA61
:1006C0000103958905EA010413B10CB1012000E092
:1006D000002030BD1AB183890B43838102E08389F6
:1006E0008B43838170470000002202881D4B984293
:1006F0000ED01D4B98420BD0B0F1804F08D01B4B51
:10070000984205D01A4B984202D01A4B984204D115
:100710004FF68F731A404B881A43174B984207D0F5
:10072000164B984204D04FF6FF431A40CB881A4329
:1007300002808B8883850B8803850A4B98420BD0F7
:10074000094B984208D00E4B984205D00D4B984269
:1007500002D00D4B984201D10B7A0386012383828C
:1007600070470000002C01400034014000040040AC
:1007700000080040000C0040001000400014004041
:1007800000400140004401400048014000BFFEE736
:10079000FFF7FEFD41F61F4141F28730FFF74AFFA8
:1007A00000BFFEE7B407000800000020600600005C
:0407B0006C010008D0
:0400000508000131BD
:00000001FF
