:020000040800F2
:1000000060070020E90100080D0D0008AB09000899
:10001000090D00088B0800081312000800000000FA
:10002000000000000000000000000000790E000841
:100030008F08000800000000810D00088D0F0008E7
:10004000030200080302000803020008030200087C
:10005000030200080302000803020008030200086C
:10006000030200080302000803020008030200085C
:10007000030200080302000803020008030200084C
:10008000030200080302000803020008030200083C
:10009000030200080302000803020008030200082C
:1000A000030200080302000803020008030200081C
:1000B000030200080302000803020008030200080C
:1000C00003020008030200080302000803020008FC
:1000D00003020008F10F00080302000803020008F1
:1000E00003020008030200080302000803020008DC
:1000F00003020008030200080302000803020008CC
:1001000003020008030200080302000803020008BB
:1001100003020008030200080302000803020008AB
:10012000030200080302000803020008030200089B
:1001300000F002F800F049F80AA090E8000C8244B0
:100140008344AAF10107DA4501D100F03EF8AFF28D
:10015000090EBAE80F0013F0010F18BFFB1A43F0A5
:100160000103184798130000B8130000103A24BF89
:1001700078C878C1FAD8520724BF30C830C144BF0C
:1001800004680C607047000000230024002500264E
:10019000103A28BF78C1FBD8520728BF30C148BFEA
:1001A0000B607047642900F0D980782900F0128133
:1001B000732900F02382002070471FB59DE80300DB
:1001C00000F054F91FBD10B510BD00F06EFA1146D5
:1001D000FFF7F3FF01F0A2F800F08CFA03B4FFF789
:1001E000F2FF03BC01F017F80948804709480047AF
:1001F000FEE7FEE7FEE7FEE7FEE7FEE7FEE7FEE7D7
:10020000FEE7FEE704480549054A064B7047000033
:10021000910F0008310100086001002060070020F4
:100220006003002060030020704770B5064600F0B0
:1002300001F9056806F10B0020F00704B4429CBFE9
:10024000002070BD2B466A68BAB11068A04210D376
:1002500004F1080188423CBF5068586007D35168D8
:10026000101941601168091B016058601460101D6D
:1002700070BD13465268002AE7D12146284600F097
:10028000E1F80028DED170BD0FB4044910B503AA0F
:10029000029800F0B7F910BC5DF814FB30000020A4
:1002A0002DE9F0410E460446002020622046E16818
:1002B000884730B3252805D0D4E901219047206A2A
:1002C000401CF2E7E168204600278847050018D067
:1002D000A5F14100192802D820354FF400673246B5
:1002E000294620462760FFF75DFF40B1012804D072
:1002F000F61D26F007060836D8E7361DD6E728464D
:10030000DAE7206ABDE8F08170B50C460546012A9F
:1003100005D02878800600D5EA69002302E0012391
:1003200005E05B1C934202D2E05C0028F9D1A86989
:10033000E618C01AA861286A184428622846AFF354
:10034000008004E0D5E9012114F8010B9047B44284
:10035000F8D32846AFF3008070BD00002DE9F041CE
:100360000646002410687529314616A510D0AFF353
:100370000080002802DA404213A507E031688A07AE
:1003800001D512A502E0490704D511A5012401E019
:10039000AFF3008000210A2206F1240709E0B0FB38
:1003A000F2FCB0FBF2F302FB1C003030785418462C
:1003B000491C0028F3D123462A463046BDE8F041C7
:1003C00000F0B1B8000000002D0000002B0000007C
:1003D0002000000070B504460D4621461068AFF3BA
:1003E00000802188090502D50F4A7A4402E00E4AAE
:1003F0007A440E32002104F1240305E000F00F06D8
:100400000009965D5E54491C0028F7D1207800232E
:10041000000704D5702D02D009B102231132204605
:10042000BDE8704000F07FB8E610000070477047EC
:1004300070477047004870470801002070477047B8
:100440007047704738B504460A4600206946AFF346
:100450000080002808BF38BD02460099204600F001
:10046000E7F8012038BD012000F018B9F8B5AFF366
:100470000080054600200C46102000BF0646A81943
:10048000A0420DD9324669460020AFF30080070034
:1004900008BF00F003F90098A04218BF0546C41930
:1004A000FFF7C8FF05600746F01D20F0070046195A
:1004B000284600F00AF8B44208BFF8BDA21B314636
:1004C0003868BDE8F84000F0B3B800210160C0E929
:1004D000011070471020704770B50446051FFFF7E4
:1004E000A9FF0068002C14BF446870BD002C18BF21
:1004F000AC423CBF20466468F8D301680A18AA429F
:1005000018BF456003D12A68054611440160286878
:100510004119A1421CBF6C6070BD616869602168AF
:100520000844286070BD2DE9F0470D469946924673
:10053000044600F124080168880604D5E06921F02A
:100540001001216000E00120A84201DD471B00E00E
:100550000027A1697A1902EB0900081AA061207826
:10056000C00602D42046AFF30080002608E0D4E99C
:1005700001211AF806009047206A401C761C206270
:100580004E45F4DB2078C0060AD52046AFF3008044
:1005900006E0D4E9012130209047206A401C206207
:1005A000381EA7F10107F4DC07E0D4E9012118F8AF
:1005B00005009047206A401C2062281EA5F1010515
:1005C000F3DC2046AFF300802078000602D502203D
:1005D000BDE8F0870120FBE710B5436913B1AFF325
:1005E000008001E0FFF790FE012010BD127800F1BD
:1005F00024010A7000224A700122EDE711684FF0D1
:10060000FF32E9E7074B70B50D467B4400F02FF849
:100610000446284600F03EF810B14FF0FF3070BDA0
:10062000204670BDF30C0000004870470001002018
:10063000034640688C46002818BF88423CBF0346EA
:100640004068F8D318681844884207D00CF10300BA
:1006500020F00700001D411A521A0146081D0A60C9
:10066000FFF73ABF01694A1C02610878704700B57C
:100670008FB0CDE901310021059105497944CDE9DB
:10068000031011466846FFF70BFE0FB000BD0000D7
:10069000E5FFFFFF007B00F08000704710B500F021
:1006A00037F8BDE8104000F02EB87546FFF7BCFFE4
:1006B000AE4605006946534620F00700854618B04F
:1006C00020B5FFF79FFDBDE820404FF000064FF03A
:1006D00000074FF000084FF0000B21F00701AC4677
:1006E000ACE8C009ACE8C009ACE8C009ACE8C00996
:1006F0008D46704710B50446AFF300802046BDE834
:100700001040FFF76BBD002801D000F084BD70479A
:1007100010B5012805D0002103A000F021F8012028
:1007200010BD09A1F8E7000053494752544D454D0B
:100730003A204F7574206F662068656170206D6582
:100740006D6F7279000000003A2048656170206D7D
:10075000656D6F727920636F727275707465640075
:1007600070B505460C460A2000E06D1C00F057FDF0
:1007700035B128780028F8D102E0641C00F04FFD64
:1007800014B120780028F8D1BDE870400A2000F0AC
:1007900046BD10B500F028F910BD70B504460D46F1
:1007A000164606E028466A1C95B200F008F804F8E0
:1007B000010B301EA6F101018EB2F3D170BD70B5F0
:1007C0000446002600F0B6F92546E11704EB116156
:1007D0000912A02202EB4101C8B200F083F900F037
:1007E000DFF9E11704EB11610912A4EB0121C8B292
:1007F00000F078F900F0D4F900F09CF9A12000F0A5
:1008000071F900F0CDF9002000F024F9064600F05F
:10081000ADF9304670BD70B504460D46164606E08B
:1008200014F8011B28466B1C9DB200F006F8301E20
:10083000A6F101018EB2F3D170BD70B504460E462B
:1008400000F078F92546E11704EB11610912A022A6
:1008500002EB4101C8B200F045F900F0A1F9E1173F
:1008600004EB11610912A4EB0121C8B200F03AF9BE
:1008700000F096F9304600F035F900F091F900F0FB
:1008800075F90A2000F0F0FC70BD00BFFEE770476C
:100890002DE9F04102460025002600200023002417
:1008A000002791F803C00CF00F0591F803C00CF07D
:1008B000100CBCF1000F03D091F802C04CEA050502
:1008C00091F800C0BCF1000F31D0146800202BE07B
:1008D0004FF0010C0CFA00F3B1F800C00CEA03066B
:1008E0009E4220D183004FF00F0C0CFA03F7BC435B
:1008F00005FA03FC4CEA040491F803C0BCF1280F8C
:1009000006D14FF0010C0CFA00FCC2F814C00AE04A
:1009100091F803C0BCF1480F05D14FF0010C0CFA5F
:1009200000FCC2F810C0401C0828D1D31460B1F8F4
:1009300000C0BCF1FF0F34DD546800202EE000F150
:10094000080C4FF0010808FA0CF3B1F800C00CEAEB
:1009500003069E4221D183004FF00F0C0CFA03F7DF
:10096000BC4305FA03FC4CEA040491F803C0BCF153
:10097000280F05D100F1080C08FA0CF8C2F8148011
:1009800091F803C0BCF1480F07D100F1080C4FF0FB
:10099000010808FA0CF8C2F81080401C0828CED3D1
:1009A0005460BDE8F0810161704700BFFEE70000C0
:1009B00010B500200A49086000F086F800200949B7
:1009C000C1F89C01022000F075FC01200449086078
:1009D000022000F06FFC00200249C1F8980110BD10
:1009E000988121420080214208B50121082000F0B1
:1009F000C9F9C020ADF8000010208DF803000320D5
:100A00008DF8020069460448FFF742FFC021024802
:100A1000FFF7C9FF08BD0000000C014010B5002021
:100A20000A49086000F050F801200949C1F89C010A
:100A3000022000F03FFC012004490860022000F081
:100A400039FC00200249C1F8980110BD988121426B
:100A50000080214270B50546002400F027F80026EA
:100A600015E000200F490860022000F023FC01205F
:100A70000D49C1F898016006040E0A487C380068E8
:100A800008B1601CC4B2012000F014FC761C082ED2
:100A9000E7DB15B9FFF7C2FF01E0FFF789FF20464A
:100AA00070BD000098812142008021420548006805
:100AB00020F07040034908600846006840F000409C
:100AC00008607047000C01400548006820F0704045
:100AD000034908600846006840F0405008607047CD
:100AE000000C014070B50446FFF7EEFF00200F49EF
:100AF0000860002516E0E0090C49091D0860600641
:100B0000040E022000F0D6FB01200949C1F898012B
:100B1000022000F0CFFB002004490860022000F012
:100B2000C9FB6D1C082DE6DB70BD000098812142D9
:100B30000080214210B5FFF7C7FF01200949086076
:100B40000949C1F89801042000F0B4FB00200549D0
:100B50000860042000F0AEFB00200349C1F89801B2
:100B600010BD00009C8121420080214210B5FFF79A
:100B7000ABFF0020084908600849C1F89C01042027
:100B800000F098FB0120044908600449C1F89C0169
:100B9000042000F08FFB10BD98812142008021428B
:100BA00010B50024FFF782FF01200E49086000F015
:100BB00081FB01200C49C1F8980100F07BFB07E0A4
:100BC000601CC4B2FA2C03DDFFF7D0FF012010BD7A
:100BD0000448803800680028F2D10249091F0860E3
:100BE00000BFF4E79C8121420080214208B5012129
:100BF000442000F0C7F80120ADF8000028208DF84F
:100C0000030003208DF8020069460848FFF740FE04
:100C10001820ADF8000048208DF8030003208DF85F
:100C2000020069460248FFF733FE08BD0008014094
:100C30000018014010B5044614B10120194908708C
:100C400018480078F8B11848006830B11648001FFD
:100C5000006810B115480068A8B10A2000F004FB34
:100C60000020104908701048006808B9012010BD24
:100C70000D48001F006808B90220F8E70B4800681B
:100C800008B10320F3E70848006848B10648001F90
:100C9000006828B10548006810B9012001490870B2
:100CA0000020E4E70000002010012342000121425F
:100CB00008B50121482000F065F810208DF80300E8
:100CC00003208DF802002020ADF8000069460C4892
:100CD000FFF7DEFD20210A48FFF765FE10208DF8A2
:100CE000030003208DF802002020ADF800006946C3
:100CF0000448FFF7CDFD20210248FFF754FE08BD50
:100D0000000C01400018014000BFFEE770470000E2
:100D100070B5002100230F22C47804B3154C246859
:100D200004F4E064C4F5E064210AC1F10403CA409C
:100D3000447804FA03F184781440214309010E4CED
:100D40000678A155047804F01F050124AC4005780D
:100D50006D11AD0005F1E025C5F8004109E004780A
:100D600004F01F050124AC40044D0678761145F8C7
:100D7000264070BD0CED00E000E400E080E100E002
:100D80007047000029B1064A92690243044B9A61F8
:100D900004E0034A92698243014B9A617047000064
:100DA0000010024030B500210022002400232D4D08
:100DB0006D6805F00C0121B1042905D0082923D163
:100DC00005E0294D056022E0274D05601FE0254D17
:100DD0006D6805F47012234D6D6805F480340225AA
:100DE00005EB92421CB9214D554305600BE01D4DAA
:100DF0006D6805F400351DB11C4D5543056002E0DA
:100E0000194D5543056002E0174D056000BF00BF56
:100E1000144D6D6805F0F0010909154D6B5C05680E
:100E2000DD4045600F4D6D6805F4E061090A104D25
:100E30006B5C4568DD4085600A4D6D6805F4605166
:100E4000C90A0B4D6B5C4568DD40C560054D6D689A
:100E500005F44041890B074D6B5CC568B5FBF3F5A4
:100E6000056130BD0010024000127A0000093D000B
:100E70001800002028000020704710B500F002F88C
:100E800010BD00000CB500200190009033480068B0
:100E900040F480303149086000BF3048006800F4F9
:100EA000003000900198401C0190009818B90198FA
:100EB000B0F5A06FF1D12948006800F4003010B1FE
:100EC0000120009001E0002000900098012843D10B
:100ED0002348006840F01000214908600846006877
:100EE00020F0030008600846006840F00200086037
:100EF0001A484068194948600846406848600846F2
:100F0000406840F4806048600846406820F47C10E7
:100F100048600846406840F4E810486008460068A9
:100F200040F08070086000BF0C48006800F000705E
:100F30000028F9D00948406820F0030007494860BC
:100F40000846406840F00200486000BF034840681F
:100F500000F00C000828F9D10CBD00000010024080
:100F600000200240042808D14FF0E021096941F037
:100F700004014FF0E022116107E04FF0E021096920
:100F800021F004014FF0E02211617047704700002A
:100F900010B51348006840F0010011490860084688
:100FA0004068104908400E494860084600680E49EC
:100FB00008400B4908600846006820F4802008605B
:100FC0000846406820F4FE0048604FF41F00886027
:100FD000FFF753FF4FF000600449086010BD0000A8
:100FE000001002400000FFF8FFFFF6FE08ED00E0F1
:100FF00010B540F225511D4800F04AF810B31B48C7
:1010000000F002F9C4B21A48008800F40040C8B9E0
:101010001748008800F4804060B10A2C03D00020FB
:101020001349088020E01248008840F4004010492D
:10103000088019E00D2C06D10D48008840F480404E
:101040000B49088010E00A480088C0F30D000949E8
:101050000C5407480088401C054908800846008851
:10106000C72801DD0020088010BD000000380140C5
:10107000340000203800002021B1828942F400525F
:10108000828104E082894DF6FF731A4082817047A5
:1010900070B50246002400230025002040F66A16A1
:1010A000B14200D100BFC1F3421501F01F03012678
:1010B00006FA03F3012D02D19689334006E0022D92
:1010C00002D1168A334001E0968A33400C12012681
:1010D00006FA04F41688344013B10CB1012000E084
:1010E000002070BDF0B50346002400260025002036
:1010F00040F66A17B94200D100BF1846C1F3421446
:1011000001F01F06012707FA06F5012C01D10C306A
:1011100004E0022C01D1103000E014301AB107684D
:101120002F43076002E00768AF430760F0BD00008F
:101130002DE9F04786B005460E460024A24600BFC2
:10114000A1460027B08900B100BF2F462C8A4CF67B
:10115000FF700440F08804432C82AC894EF6F310F3
:101160000440B08831890843718908430443AC8145
:10117000AC8A4FF6FF400440B0890443AC8201A81A
:10118000FFF710FE1F48874202D1DDF810A001E0F2
:10119000DDF80CA0A88900F4004040B10AEBCA00B9
:1011A00000EB0A1031684900B0FBF1F807E00AEBE8
:1011B000CA0000EB0A1031688900B0FBF1F8642026
:1011C000B8FBF0F004012009642101FB1089A88913
:1011D00000F4004040B1322000EBC900B0FBF1F058
:1011E00000F00700044308E0322000EB09106421FE
:1011F000B0FBF1F000F00F0004432C8106B0BDE815
:10120000F08700000038014001468888C0F30800DC
:10121000704700BFFEE7014600BF0020704700BFD7
:101220007047000010B56FF00400FFF79BFE0A48FE
:1012300000680A49B0FBF1F00949087008460078D7
:1012400000EB4001C1EBC0104FF6FF7101EAC00096
:101250000449088010BD00000400002000127A003C
:101260002C0000202E0000200146114A12884A431B
:101270004FF0E0235A6100229A611A46126942F047
:1012800001021A6100BF4FF0E022106900F0010274
:101290001AB100F48032002AF5D04FF0E022126932
:1012A00022F001024FF0E0231A6100229A61704798
:1012B0002E0000200146114A12784A434FF0E023E5
:1012C0005A6100229A611A46126942F001021A61BB
:1012D00000BF4FF0E022106900F001021AB100F4E3
:1012E0008032002AF5D04FF0E022126922F001028C
:1012F0004FF0E0231A6100229A6170472C00002011
:1013000000BF054A128802F04002002AF9D0C2B29A
:10131000014B1B1D1A807047003801401FB5FFF7B5
:1013200081FF4FF4E13000F085F8FFF7C1FCFFF7D3
:101330005DFCFFF72EFA18A30FCB8DE80F000D24EC
:101340000026A0464046FEF770FF074622E0002038
:10135000FFF770FC0546022D0CD12246314612A043
:10136000FEF792FFA2B2B1B26846FFF754FA19A095
:10137000FEF78AFF012D0DD1224631461CA0FEF753
:1013800083FFA2B2B1B23846FFF707FA394622A06E
:10139000FEF77AFFDBE7000048656C6C6F20576F43
:1013A000726C647E00000000537461727420777266
:1013B00069746520415432344330322040307825FE
:1013C00078282564206279746573292E2E2E0D0AE3
:1013D0000000000041543234433032207772697487
:1013E000652066696E6973686564210D0A0D0A00DF
:1013F00053746172742072656164204154323443C5
:101400003032204030782578282564206279746550
:1014100073292E2E2E0D0A005468652064617461B4
:10142000207265616465642069733A2025730D0A32
:101430000D0A000010B586B00446012144F20400F4
:10144000FFF7A0FC4FF40070ADF8140003208DF8F6
:10145000160018208DF8170005A91C48FFF718FA88
:101460004FF48060ADF8140004208DF8170005A932
:101470001648FFF70DFA25208DF8000003208DF89F
:1014800001008DF8020001208DF803006846FFF787
:101490003FFC01940020ADF80800ADF80A00ADF85B
:1014A0000C00ADF810000C20ADF80E0001A90848A2
:1014B000FFF73EFE012240F225510548FFF712FEDC
:1014C00001210348FFF7D8FD06B010BD0008014018
:1014D0000038014030313233343536373839414203
:1014E0004344454640305800303132333435363786
:1014F0003839616263646566403078001C15000805
:1015000000000020380000006C010008541500089D
:1015100038000020280700008801000801000000B2
:1015200000A24A04000000000000000001020304C1
:101530000607080900000000010203040102030479
:101540000607080902040608000000000000000069
:041550000000000097
:0400000508000131BD
:00000001FF
