:020000040800F2
:1000000060170020E9010008D9090008B3080008BA
:10001000D5090008930700085B10000800000000E5
:10002000000000000000000000000000C10C0008FB
:1000300097070008000000004D0A0008D50D0008D1
:10004000030200080302000803020008030200087C
:10005000030200080302000803020008030200086C
:10006000030200080302000803020008030200085C
:10007000030200080302000803020008030200084C
:10008000030200080302000803020008030200083C
:10009000030200080302000803020008030200082C
:1000A000030200080302000803020008030200081C
:1000B000030200080302000803020008030200080C
:1000C00003020008030200080302000803020008FC
:1000D00003020008390E00080302000803020008AA
:1000E00003020008030200080302000803020008DC
:1000F00003020008030200080302000803020008CC
:1001000003020008030200080302000803020008BB
:1001100003020008030200080302000803020008AB
:10012000030200080302000803020008030200089B
:1001300000F002F800F049F80AA090E8000C8244B0
:100140008344AAF10107DA4501D100F03EF8AFF28D
:10015000090EBAE80F0013F0010F18BFFB1A43F0A5
:10016000010318473414000054140000103A24BF4F
:1001700078C878C1FAD8520724BF30C830C144BF0C
:1001800004680C607047000000230024002500264E
:10019000103A28BF78C1FBD8520728BF30C148BFEA
:1001A0000B607047642900F0D980782900F0128133
:1001B000732900F02382002070471FB59DE80300DB
:1001C00000F054F91FBD10B510BD00F06EFA1146D5
:1001D000FFF7F3FF01F0F0F800F08CFA03B4FFF73B
:1001E000F2FF03BC01F08CF809488047094800473A
:1001F000FEE7FEE7FEE7FEE7FEE7FEE7FEE7FEE7D7
:10020000FEE7FEE704480549054A064B7047000033
:10021000D90D00083101000860110020601700208E
:100220006013002060130020704770B5064600F090
:1002300001F9056806F10B0020F00704B4429CBFE9
:10024000002070BD2B466A68BAB11068A04210D376
:1002500004F1080188423CBF5068586007D35168D8
:10026000101941601168091B016058601460101D6D
:1002700070BD13465268002AE7D12146284600F097
:10028000E1F80028DED170BD0FB4044910B503AA0F
:10029000029800F0B7F910BC5DF814FB30000020A4
:1002A0002DE9F0410E460446002020622046E16818
:1002B000884730B3252805D0D4E901219047206A2A
:1002C000401CF2E7E168204600278847050018D067
:1002D000A5F14100192802D820354FF400673246B5
:1002E000294620462760FFF75DFF40B1012804D072
:1002F000F61D26F007060836D8E7361DD6E728464D
:10030000DAE7206ABDE8F08170B50C460546012A9F
:1003100005D02878800600D5EA69002302E0012391
:1003200005E05B1C934202D2E05C0028F9D1A86989
:10033000E618C01AA861286A184428622846AFF354
:10034000008004E0D5E9012114F8010B9047B44284
:10035000F8D32846AFF3008070BD00002DE9F041CE
:100360000646002410687529314616A510D0AFF353
:100370000080002802DA404213A507E031688A07AE
:1003800001D512A502E0490704D511A5012401E019
:10039000AFF3008000210A2206F1240709E0B0FB38
:1003A000F2FCB0FBF2F302FB1C003030785418462C
:1003B000491C0028F3D123462A463046BDE8F041C7
:1003C00000F0B1B8000000002D0000002B0000007C
:1003D0002000000070B504460D4621461068AFF3BA
:1003E00000802188090502D50F4A7A4402E00E4AAE
:1003F0007A440E32002104F1240305E000F00F06D8
:100400000009965D5E54491C0028F7D1207800232E
:10041000000704D5702D02D009B102231132204605
:10042000BDE8704000F07FB882110000704770474F
:1004300070477047004870470811002070477047A8
:100440007047704738B504460A4600206946AFF346
:100450000080002808BF38BD02460099204600F001
:10046000E7F8012038BD012000F018B9F8B5AFF366
:100470000080054600200C46102000BF0646A81943
:10048000A0420DD9324669460020AFF30080070034
:1004900008BF00F003F90098A04218BF0546C41930
:1004A000FFF7C8FF05600746F01D20F0070046195A
:1004B000284600F00AF8B44208BFF8BDA21B314636
:1004C0003868BDE8F84000F0B3B800210160C0E929
:1004D000011070471020704770B50446051FFFF7E4
:1004E000A9FF0068002C14BF446870BD002C18BF21
:1004F000AC423CBF20466468F8D301680A18AA429F
:1005000018BF456003D12A68054611440160286878
:100510004119A1421CBF6C6070BD616869602168AF
:100520000844286070BD2DE9F0470D469946924673
:10053000044600F124080168880604D5E06921F02A
:100540001001216000E00120A84201DD471B00E00E
:100550000027A1697A1902EB0900081AA061207826
:10056000C00602D42046AFF30080002608E0D4E99C
:1005700001211AF806009047206A401C761C206270
:100580004E45F4DB2078C0060AD52046AFF3008044
:1005900006E0D4E9012130209047206A401C206207
:1005A000381EA7F10107F4DC07E0D4E9012118F8AF
:1005B00005009047206A401C2062281EA5F1010515
:1005C000F3DC2046AFF300802078000602D502203D
:1005D000BDE8F0870120FBE710B5436913B1AFF325
:1005E000008001E0FFF790FE012010BD127800F1BD
:1005F00024010A7000224A700122EDE711684FF0D1
:10060000FF32E9E7074B70B50D467B4400F02FF849
:100610000446284600F03EF810B14FF0FF3070BDA0
:10062000204670BD8F0D000000487047001100206B
:10063000034640688C46002818BF88423CBF0346EA
:100640004068F8D318681844884207D00CF10300BA
:1006500020F00700001D411A521A0146081D0A60C9
:10066000FFF73ABF01694A1C02610878704700B57C
:100670008FB0CDE901310021059105497944CDE9DB
:10068000031011466846FFF70BFE0FB000BD0000D7
:10069000E5FFFFFF007B00F08000704710B500F021
:1006A00037F8BDE8104000F02EB87546FFF7BCFFE4
:1006B000AE4605006946534620F00700854618B04F
:1006C00020B5FFF79FFDBDE820404FF000064FF03A
:1006D00000074FF000084FF0000B21F00701AC4677
:1006E000ACE8C009ACE8C009ACE8C009ACE8C00996
:1006F0008D46704710B50446AFF300802046BDE834
:100700001040FFF76BBD002801D000F0F9BD704725
:1007100010B5012805D0002103A000F021F8012028
:1007200010BD09A1F8E7000053494752544D454D0B
:100730003A204F7574206F662068656170206D6582
:100740006D6F7279000000003A2048656170206D7D
:10075000656D6F727920636F727275707465640075
:1007600070B505460C460A2000E06D1C00F0CCFD7B
:1007700035B128780028F8D102E0641C00F0C4FDEF
:1007800014B120780028F8D1BDE870400A2000F0AC
:10079000BBBD00BFFEE770472DE9F04102460025D2
:1007A0000026002000230024002791F803C00CF04D
:1007B0000F0591F803C00CF0100CBCF1000F03D032
:1007C00091F802C04CEA050591F800C0BCF1000F99
:1007D00031D0146800202BE04FF0010C0CFA00F32C
:1007E000B1F800C00CEA03069E4220D183004FF00E
:1007F0000F0C0CFA03F7BC4305FA03FC4CEA0404A3
:1008000091F803C0BCF1280F06D14FF0010C0CFA8F
:1008100000FCC2F814C00AE091F803C0BCF1480F14
:1008200005D14FF0010C0CFA00FCC2F810C0401CBE
:100830000828D1D31460B1F800C0BCF1FF0F34DD3B
:10084000546800202EE000F1080C4FF0010808FA6F
:100850000CF3B1F800C00CEA03069E4221D18300DC
:100860004FF00F0C0CFA03F7BC4305FA03FC4CEAFB
:10087000040491F803C0BCF1280F05D100F1080C65
:1008800008FA0CF8C2F8148091F803C0BCF1480FC4
:1008900007D100F1080C4FF0010808FA0CF8C2F873
:1008A0001080401C0828CED35460BDE8F08101615F
:1008B000704700BFFEE7000008B50121442000F0AA
:1008C000D7F80120ADF8000028208DF803000320A0
:1008D0008DF8020069460848FFF75EFF1820ADF862
:1008E000000048208DF8030003208DF802006946BF
:1008F0000248FFF751FF08BD000801400018014001
:1009000010B5044614B10120194908701848007840
:10091000F8B11848006830B11648001F006810B1DF
:1009200015480068A8B10A2000F012FD0020104907
:1009300008701048006808B9012010BD0D48001F5C
:10094000006808B90220F8E70B48006808B10320E6
:10095000F3E70848006848B10648001F006828B15E
:100960000548006810B90120014908700020E4E73B
:1009700000000020100123420001214208B501219E
:10098000482000F075F810208DF8030003208DF842
:1009900002002020ADF8000069460C48FFF7FCFE7D
:1009A00020210A48FFF783FF10208DF80300032061
:1009B0008DF802002020ADF8000069460448FFF7DA
:1009C000EBFE20210248FFF772FF08BD000C01403A
:1009D0000018014000BFFEE77047000070B500211D
:1009E00000230F22C47804B3154C246804F4E06497
:1009F000C4F5E064210AC1F10403CA40447804FA52
:100A000003F184781440214309010E4C0678A15566
:100A1000047804F01F050124AC4005786D11AD0089
:100A200005F1E025C5F8004109E0047804F01F0550
:100A30000124AC40044D0678761145F8264070BD7F
:100A40000CED00E000E400E080E100E07047000011
:100A500029B1064AD2690243044BDA6104E0034A31
:100A6000D2698243014BDA617047000000100240F6
:100A700029B1064A92690243044B9A6104E0034A91
:100A800092698243014B9A61704700000010024056
:100A900030B500210022002400232D4D6D6805F0A3
:100AA0000C0121B1042905D0082923D105E0294DE5
:100AB000056022E0274D05601FE0254D6D6805F4B7
:100AC0007012234D6D6805F48034022505EB9242C7
:100AD0001CB9214D554305600BE01D4D6D6805F4B3
:100AE00000351DB11C4D5543056002E0194D5543BD
:100AF000056002E0174D056000BF00BF144D6D6832
:100B000005F0F0010909154D6B5C0568DD40456095
:100B10000F4D6D6805F4E061090A104D6B5C456886
:100B2000DD4085600A4D6D6805F46051C90A0B4DC2
:100B30006B5C4568DD40C560054D6D6805F440415E
:100B4000890B074D6B5CC568B5FBF3F5056130BDDE
:100B50000010024000127A0000093D001800002039
:100B60002800002000B587B001210820FFF780FF92
:100B700001218803FFF76CFF4FF48050ADF8180097
:100B800010208DF81B0003208DF81A0006A92048BC
:100B9000FFF702FE4FF480511D48FFF788FE4FF427
:100BA0006040ADF8180018208DF81B0003208DF868
:100BB0001A0006A91648FFF7EFFD4FF460411448EC
:100BC000FFF775FE0020ADF810000120ADF80C0015
:100BD0000220ADF80A000720ADF814000020ADF89F
:100BE0000800ADF80400ADF812004FF48270ADF8C3
:100BF00006004FF40070ADF80E0001A9054800F0A2
:100C000041F80121034800F023F807B000BD0000BF
:100C1000000C01400038004010B5044600BF02211E
:100C20000A4800F021F80028F9D02146074800F0D2
:100C300027F800BF0121054800F016F80028F9D078
:100C4000024800F01AF8C0B210BD000000380040A1
:100C500021B1028842F04002028004E002884FF68F
:100C6000BF731A40028070470246002013890B4070
:100C70000BB1012000E000207047014688897047D1
:100C80008181704710B50022028802F441520B881E
:100C90004C8823438C882343CC8823430C892343EB
:100CA0004C8923438C892343CC8923431A430280F4
:100CB000838B4FF2FF74234083830B8A038210BD22
:100CC000704710B500F002F810BD00000CB5002010
:100CD000019000903348006840F48030314908604A
:100CE00000BF3048006800F4003000900198401CBC
:100CF0000190009818B90198B0F5A06FF1D129487A
:100D0000006800F4003010B10120009001E00020E4
:100D100000900098012843D12348006840F010005B
:100D2000214908600846006820F003000860084672
:100D3000006840F0020008601A484068194948609D
:100D40000846406848600846406840F48060486053
:100D50000846406820F47C1048600846406840F42B
:100D6000E81048600846006840F08070086000BFE6
:100D70000C48006800F000700028F9D0094840686D
:100D800020F00300074948600846406840F0020030
:100D9000486000BF0348406800F00C000828F9D103
:100DA0000CBD00000010024000200240042808D1C1
:100DB0004FF0E021096941F004014FF0E022116198
:100DC00007E04FF0E021096921F004014FF0E02233
:100DD000116170477047000010B51348006840F07B
:100DE00001001149086008464068104908400E4952
:100DF0004860084600680E4908400B4908600846EC
:100E0000006820F4802008600846406820F4FE0056
:100E100048604FF41F008860FFF753FF4FF00060F9
:100E20000449086010BD0000001002400000FFF8F7
:100E3000FFFFF6FE08ED00E010B540F225511D4819
:100E400000F04AF810B31B4800F002F9C4B21A4887
:100E5000008800F40040C8B91748008800F48040BA
:100E600060B10A2C03D000201349088020E012480A
:100E7000008840F400401049088019E00D2C06D18C
:100E80000D48008840F480400B49088010E00A4873
:100E90000088C0F30D0009490C5407480088401C25
:100EA0000549088008460088C72801DD0020088021
:100EB00010BD000000380140340000203810002030
:100EC00021B1828942F40052828104E082894DF688
:100ED000FF731A408281704770B5024600240023D8
:100EE0000025002040F66A16B14200D100BFC1F3D0
:100EF000421501F01F03012606FA03F3012D02D16A
:100F00009689334006E0022D02D1168A334001E073
:100F1000968A33400C12012606FA04F416883440EF
:100F200013B10CB1012000E0002070BDF0B5034604
:100F3000002400260025002040F66A17B94200D19F
:100F400000BF1846C1F3421401F01F06012707FA3B
:100F500006F5012C01D10C3004E0022C01D1103037
:100F600000E014301AB107682F43076002E00768F9
:100F7000AF430760F0BD00002DE9F04786B005469D
:100F80000E460024A24600BFA1460027B08900B14A
:100F900000BF2F462C8A4CF6FF700440F0880443B3
:100FA0002C82AC894EF6F3100440B0883189084396
:100FB000718908430443AC81AC8A4FF6FF4004407A
:100FC000B0890443AC8201A8FFF762FD1F48874245
:100FD00002D1DDF810A001E0DDF80CA0A88900F432
:100FE000004040B10AEBCA0000EB0A10316849002A
:100FF000B0FBF1F807E00AEBCA0000EB0A10316819
:101000008900B0FBF1F86420B8FBF0F0040120097E
:10101000642101FB1089A88900F4004040B132200E
:1010200000EBC900B0FBF1F000F00700044308E05A
:10103000322000EB09106421B0FBF1F000F00F004A
:1010400004432C8106B0BDE8F08700000038014061
:1010500001468888C0F30800704700BFFEE7000023
:1010600010B50446240300F0EDF800F087F80020E6
:101070000B4908602020FFF7CFFDC4F30740FFF7BE
:10108000CBFDC4F30720FFF7C7FDE0B2FFF7C4FDB7
:1010900001200449C1F8B00100F070F810BD000053
:1010A000B08121420080214210B5FFF75BFD00F0C6
:1010B00041F80149088010BD020000202DE9F041EF
:1010C00006460C46174600200E4908600320FFF72D
:1010D000A3FDC4F30740FFF79FFDC4F30720FFF70C
:1010E0009BFDE0B2FFF798FD002504E0FF20FFF72D
:1010F00093FD70556D1CBD42F8DB0120014908606D
:10110000BDE8F081B081214210B5002400200749DC
:1011100008600520FFF780FDFF20FFF77DFD0446F6
:1011200001200349C1F8B001204610BDB081214221
:101130000080214210B5002400200E490860902054
:10114000FFF76AFD0020FFF767FD0020FFF764FD51
:101150000020FFF761FDFF20FFF75EFD44EA002459
:10116000FF20FFF759FD044301200349C1F8B001F6
:10117000204610BDB08121420080214210B500BF41
:10118000FFF7C2FF00F001000028F9D110BD0000F8
:101190002DE9F04781460F4616464FEA1738C7F348
:1011A0000B0ACAF58054A64200DC344644E04FEAFC
:1011B00008314FF480522248FFF780FF002508E0F5
:1011C0000AEB05001E49085CFF2800D003E0681CFC
:1011D00085B2A542F4DB00BFA54216DA4046FFF710
:1011E0003FFF002507E019F8050005EB0A01144A46
:1011F0005054681C85B2A542F5DB4FEA08314FF424
:1012000080520F4800F02EF804E022463946484646
:1012100000F028F8A64200D10FE008F101084FF0D5
:10122000000AA1442744301B86B2B6F5805F02DD78
:101230004FF4805400E03446B9E700BFBDE8F087C2
:101240003800002010B50020044908600620FFF790
:10125000E3FC01200249C1F8B00110BDB081214278
:10126000008021422DE9F04107460E461446F0B2B7
:10127000C0F58075AC4200DC254612E02A463146B6
:10128000384600F013F8AC4200D10BE02F442E4456
:10129000601B84B2B4F5807F02DD4FF4807500E0FE
:1012A0002546EBE700BFBDE8F08100002DE9F041E5
:1012B00006460C461746FFF7C5FF00200F49086099
:1012C0000220FFF7A9FCC4F30740FFF7A5FCC4F315
:1012D0000720FFF7A1FCE0B2FFF79EFC002503E02A
:1012E000705DFFF799FC6D1CBD42F9DB01200349DD
:1012F0000860FFF743FFBDE8F0810000B0812142A4
:10130000014600BF0020704700BF704710B56FF066
:101310000400FFF74BFD0A4800680A49B0FBF1F0F2
:10132000094908700846007800EB4001C1EBC01085
:101330004FF6FF7101EAC0000449088010BD0000AB
:101340000400002000127A002C0000202E00002053
:101350000146114A12884A434FF0E0235A610022A5
:101360009A611A46126942F001021A6100BF4FF0F9
:10137000E022106900F001021AB100F48032002A64
:10138000F5D04FF0E022126922F001024FF0E02385
:101390001A6100229A6170472E00002000BF054AA2
:1013A000128802F04002002AF9D0C2B2014B1B1D84
:1013B0001A807047003801401FB5FFF7A7FF4FF4B0
:1013C000E13000F085F8FFF7D9FAFFF775FAFFF77B
:1013D0006BFE18A30FCB8DE80F000D244FF06408AF
:1013E00027463846FEF721FF064622E00020FFF799
:1013F00087FA0546022D0CD12246414611A0FEF780
:1014000043FFA2B241466846FFF7C2FE18A0FEF7AE
:101410003BFF012D0DD1224641461CA0FEF734FFB3
:10142000A2B241463046FFF749FE314621A0FEF701
:101430002BFFDBE748656C6C6F20576F726C647E26
:101440000000000053746172742077726974652023
:10145000573235513132382040307825782825648C
:10146000206279746573292E2E2E0D0A000000006B
:101470005732355131323820777269746520666988
:101480006E6973686564210D0A0D0A0053746172F8
:1014900074207265616420573235513132382040F2
:1014A00030782578282564206279746573292E2E7A
:1014B0002E0D0A00546865206461746120726561B4
:1014C0006465642069733A2025730D0A0D0A0000D3
:1014D00010B586B00446012144F20400FFF7C8FAB3
:1014E0004FF40070ADF8140003208DF8160018209A
:1014F0008DF8170005A91C48FFF74EF94FF48060DE
:10150000ADF8140004208DF8170005A91648FFF760
:1015100043F925208DF8000003208DF801008DF897
:10152000020001208DF803006846FFF757FA019486
:101530000020ADF80800ADF80A00ADF80C00ADF8D9
:1015400010000C20ADF80E0001A90848FFF714FDAB
:10155000012240F225510548FFF7E8FC012103482C
:10156000FFF7AEFC06B010BD000801400038014096
:1015700030313233343536373839414243444546C9
:1015800040305800303132333435363738396162C3
:101590006364656640307800B815000800000020DC
:1015A000380000006C010008F01500083800002029
:1015B0002817000088010008010017EF00A24A0464
:1015C00000000000000000000102030406070809F3
:1015D00000000000010203040102030406070809D9
:1015E00002040608000000000000000000000000E7
:0400000508000131BD
:00000001FF
