:020000040800F2
:10000000B8280020D5010008B50D0008390C0008FB
:10001000B10D00080B090008FF5C0008000000009B
:10002000000000000000000000000000F156000881
:10003000450A000800000000EB050008055800080C
:10004000EF010008EF010008EF010008EF010008D0
:10005000EF010008EF010008EF010008EF010008C0
:10006000EF010008EF010008EF010008EF010008B0
:10007000EF010008EF010008EF010008EF010008A0
:10008000EF010008EF010008EF010008EF01000890
:10009000EF010008EF010008EF010008EF01000880
:1000A000EF010008EF010008EF010008EF01000870
:1000B000EF010008EF010008EF010008EF01000860
:1000C000EF010008EF010008EF010008EF01000850
:1000D000EF010008CD5A0008EF010008EF01000809
:1000E000EF010008EF010008EF010008EF01000830
:1000F000EF010008EF010008EF010008EF01000820
:10010000EF010008EF010008EF010008EF0100080F
:10011000EF010008EF010008EF010008EF010008FF
:10012000EF010008EF010008EF010008EF010008EF
:1001300000F002F800F03FF80AA090E8000C8244BA
:100140008344AAF10107DA4501D100F034F8AFF297
:10015000090EBAE80F0013F0010F18BFFB1A43F0A5
:1001600001031847805F0000A05F0000103A24BF21
:1001700078C878C1FAD8520724BF30C830C144BF0C
:1001800004680C607047000000230024002500264E
:10019000103A28BF78C1FBD8520728BF30C148BFEA
:1001A0000B607047642900F08580002070471FB500
:1001B0001FBD10B510BD00F0CBF91146FFF7F7FFDA
:1001C00005F058FE00F0E9F903B4FFF7F2FF03BCB5
:1001D00005F09EFD0948804709480047FEE7FEE715
:1001E000FEE7FEE7FEE7FEE7FEE7FEE7FEE7FEE7E7
:1001F00004480549054A064B70470000215800088D
:1002000031010008B8220020B8280020B8240020BE
:10021000B824002072B6704762B67047EFF31080C2
:1002200072B6704780F31088704730BF704720BFA8
:100230007047B0FA80F0704790FAA0F0B0FA80F002
:10024000704790FAA0F07047704700000FB404495F
:1002500010B503AA029800F04DF910BC5DF814FB2C
:100260002C00002070B5044685690068C10601D5E0
:10027000302600E02026C00707D070BDD4E9012158
:1002800030469047206A401C20626D1EF6D570BD36
:1002900070B5044685690078C00707D170BDD4E900
:1002A000012120209047206A401C20626D1EF6D557
:1002B00070BD00002DE9F041064600241068752944
:1002C000314616A510D0AFF30080002802DA404274
:1002D00013A507E031688A0701D512A502E0490796
:1002E00004D511A5012401E0AFF3008000210A220A
:1002F00006F1240709E0B0FBF2FCB0FBF2F302FBCD
:100300001C00303078541846491C0028F3D123468D
:100310002A463046BDE8F04100F093B800000000E6
:100320002D0000002B000000200000002DE9F04708
:100330004FF0000A89460446C0F820A02046E16834
:100340008847002876D0252806D0D4E90121904797
:10035000206A401C2062F1E7E168204600258847BA
:10036000C4F81CA006460027C4F818A02A2E09D0FD
:10037000304605F0C6FC38B304EB8708303EC8F8B9
:10038000186019E059F8041B204604EB87029161BC
:10039000E1688847012F064618D1E069002820DA75
:1003A00025F020051DE0D8F8180000EB800006EBD2
:1003B00040003038C8F818002046E16888470646F3
:1003C00005F09FFC0028EED1012F0AD02E2E08D177
:1003D0002046E16888477F1C0646022F45F020052D
:1003E000C4DBA069002803DA404245F00105A061A2
:1003F000E80701D025F01005B6B1A6F14100192893
:1004000002D8203645F400654A463146204625602C
:100410004D46FFF7C7FE58B1012806D0ED1D25F067
:10042000070000F1080989E704E005F1040985E700
:1004300030468AE7206ABDE8F0877047704770470A
:1004400070472DE9F0470D4699469246044600F163
:1004500024080168880604D5E06921F010012160B4
:1004600000E00120A84201DD471B00E00027A16950
:100470007A1902EB0900081AA0612078C00602D49C
:100480002046FFF7EFFE002608E0D4E901211AF824
:1004900006009047206A401C761C20624E45F4DB23
:1004A0002078C0060AD52046FFF7DCFE06E0D4E936
:1004B000012130209047206A401C2062381EA7F19D
:1004C0000107F4DC07E0D4E9012118F805009047A2
:1004D000206A401C2062281EA5F10105F3DC20469D
:1004E000FFF7D6FE2078000602D50220BDE8F0878F
:1004F0000120FBE7074B70B50D467B4400F011F877
:100500000446284600F020F810B14FF0FF3070BDCF
:10051000204670BD5B59000001694A1C02610878E1
:10052000704700B58FB0CDE9013100210591054933
:100530007944CDE9031011466846FFF7F7FE0FB086
:1005400000BD0000E5FFFFFF007B00F0800070476A
:10055000754600F02BF8AE4605006946534620F07C
:100560000700854618B020B5FFF742FEBDE82040E1
:100570004FF000064FF000074FF000084FF0000B5F
:1005800021F00701AC46ACE8C009ACE8C009ACE812
:10059000C009ACE8C0098D46704710B50446AFF3FA
:1005A00000802046BDE81040FFF70EBE00487047AF
:1005B000582200201D484FF6FF710170002080F383
:1005C00009881B48016881F308881A484FF0805158
:1005D000016062B6FEE717484FF080510160704736
:1005E00014484FF080510160704772B6EFF30980F4
:1005F00028B1203880E8F00F0F490968086000B57D
:100600000E4880475DF804EB0D480E490A780270E9
:1006100009480D490A680260106890E8F00F203020
:1006200080F309884EF0040E62B6704722ED00E0B8
:100630005400002004ED00E00401002029250008FA
:10064000A2000020A30000200801002010B50446ED
:10065000072301222146094800F0D4F80121074868
:1006600000F031F900BF0221044800F08FF80128A2
:10067000F9D1024800F086F810BD0000003C0140AE
:1006800000B585B00121C80304F0A8FF0121C8030B
:1006900004F0B4FF00214FF4004004F0AFFF16480F
:1006A00000F038F8002000908DF804008DF8050067
:1006B00003904FF46020029001208DF810006946ED
:1006C0000D4800F077F801210B4800F017F80A48B0
:1006D00000F0F4F800BF084800F061F80028FAD1F3
:1006E000054800F0FBF800BF034800F041F800287F
:1006F000FAD105B000BD0000003C014021B1826884
:1007000042F00102826003E0826822F0010282600E
:100710007047000010B504461248844208D10121F8
:10072000401504F06BFF0021601504F067FF17E02F
:100730000D48844208D10121001504F05FFF00211B
:10074000201504F05BFF0BE00848844208D101212A
:10075000C80304F053FF00214FF4004004F04EFFA3
:1007600010BD00000024014000280140003C014071
:10077000014600208A6802F004020AB1012000E06C
:10078000002070470146C86C80B2704702460020C6
:1007900013680B400BB1012000E0002070470146B8
:1007A00000208A6802F008020AB1012000E000205F
:1007B0007047000030B502460020002350680F4CFF
:1007C00020400D790C6844EA05242043506090686D
:1007D0000B4C2040D1E902542C434D7944EA4504A6
:1007E00020439060D06A20F470000C7C641EE4B258
:1007F000234340EA0350D06230BD0000FFFEF0FF0B
:10080000FDF7F1FFF0B504460D4600200021092D4B
:1008100011DDE068A5F10A0606EB4607072606FA91
:1008200007F18843A5F10A0606EB460603FA06F12E
:100830000843E0600CE0206905EB4507072606FA4F
:1008400007F1884305EB450603FA06F108432061EA
:10085000072A0FDA606B561E06EB86071F2606FA7C
:1008600007F18843561E06EB860605FA06F1084393
:10087000606322E00D2A0FDA206BD61F06EB860795
:100880001F2606FA07F18843D61F06EB860605FAEF
:1008900006F10843206310E0E06AA2F10D0606EBC2
:1008A00086071F2606FA07F18843A2F10D0606EB1C
:1008B000860605FA06F10843E062F0BD816841F062
:1008C00008018160704721B1826842F4A002826011
:1008D00003E0826822F4A00282607047816841F0E0
:1008E00004018160704710B505F016FA00F008FAAF
:1008F000FFF7C6FE00F048FA00F0A0F94FF4E1302F
:1009000005F08CF800F02CF910BD00BFFEE70000E8
:1009100001460846044A1268904203D9024A126806
:10092000801A00E0002070474800002070B50025C4
:1009300000BFFFF773FC054600BF0648046800BF10
:100940002846FFF76FFC00BF2046FFF7E1FF064691
:10095000304670BD4C00002070B50025FFF7E6FF63
:10096000044600BFFFF75AFC054600BF00200449BB
:10097000086000BF2846FFF755FC00BF204670BD49
:100980004C00002070B5002500BFFFF747FC05466E
:1009900000BF0648046800BF2846FFF743FC00BFBD
:1009A0002046FFF7B5FF0646304670BD50000020D8
:1009B00010B509480088401C07490880074800888E
:1009C00018B900F039F80649086004480088401C4E
:1009D0000249088010BD00003C0000203E000020BD
:1009E0004000002010B50F480088401E0D490880C7
:1009F00008460088A0B900F01FF80B4908600846B7
:100A000000680A490968441A09480068A04201D2EE
:100A10000748046007480068A04201D20548046006
:100A200010BD00003E0000204400002040000020D7
:100A30004C00002050000020014948687047000029
:100A4000001000E070472DE9F04102460025002625
:100A5000002000230024002791F803C00CF00F05AC
:100A600091F803C00CF0100CBCF1000F03D091F80A
:100A700002C04CEA050591F800C0BCF1000F31D06E
:100A8000146800202BE04FF0010C0CFA00F3B1F8D1
:100A900000C00CEA03069E4220D183004FF00F0CE9
:100AA0000CFA03F7BC4305FA03FC4CEA040491F882
:100AB00003C0BCF1280F06D14FF0010C0CFA00FC6A
:100AC000C2F814C00AE091F803C0BCF1480F05D188
:100AD0004FF0010C0CFA00FCC2F810C0401C0828B2
:100AE000D1D31460B1F800C0BCF1FF0F34DD5468FD
:100AF00000202EE000F1080C4FF0010808FA0CF37A
:100B0000B1F800C00CEA03069E4221D183004FF0E9
:100B10000F0C0CFA03F7BC4305FA03FC4CEA04047F
:100B200091F803C0BCF1280F05D100F1080C08FAB8
:100B30000CF8C2F8148091F803C0BCF1480F07D13B
:100B400000F1080C4FF0010808FA0CF8C2F8108008
:100B5000401C0828CED35460BDE8F0810161704785
:100B600010B508A0FFF772FB0BA0FFF76FFB11A0F9
:100B7000FFF76CFB13A0FFF769FB18A0FFF766FBFC
:100B800010BD000041542B4347434C4153533D2279
:100B900042220D0A0000000041542B434744434FBA
:100BA0004E543D312C224950222C22434D4E455467
:100BB000220D0A0041542B43474154543D310D0A44
:100BC0000000000041542B434950435347503D31EE
:100BD0002C22434D4E4554220D0A000041542B4314
:100BE000495053544152543D22544350222C2231F7
:100BF00032302E37372E3230382E3331222C2231FC
:100C000030303031220D0A0070B504460D4605EB38
:100C10008501224601A0FFF719FB70BD4020256425
:100C2000206D733A2041542B43495053454E440D97
:100C30003E2533640D0A000000BFFEE708B5012120
:100C4000442004F0CBFC0120ADF8000028208DF8F2
:100C5000030003208DF8020069460848FFF7F3FE01
:100C60001820ADF8000048208DF8030003208DF80F
:100C7000020069460248FFF7E6FE08BD0008014091
:100C80000018014010B5044614B10120194908703C
:100C900018480078F8B11848006830B11648001FAD
:100CA000006810B115480068A8B10A2005F06CF87A
:100CB0000020104908701048006808B9012010BDD4
:100CC0000D48001F006808B90220F8E70B480068CB
:100CD00070B10320F3E70848006848B10648001FD8
:100CE000006828B10548006810B901200149087062
:100CF0000020E4E7320000201001234200012142DD
:100D000008B50121482004F069FC10208DF803008B
:100D100003208DF802002020ADF8000069460C4841
:100D2000FFF791FE20210A48FFF718FF10208DF8E9
:100D3000030003208DF802002020ADF80000694672
:100D40000448FFF780FE20210248FFF707FF08BD97
:100D5000000C01400018014070B50024002507E098
:100D60000620FFF773FC04440A2005F00DF86D1C03
:100D7000052DF5DB0520B4FBF0F46420604364210D
:100D8000A1EB1030C0B270BD08B50121802004F085
:100D900025FC00208DF803004FF48070ADF80000B2
:100DA00069460248FFF74FFE08BD0000001C0140E5
:100DB00000BFFEE77047000070B5002100230F223E
:100DC000C47804B3154C246804F4E064C4F5E0640A
:100DD000210AC1F10403CA40447804FA03F184787B
:100DE0001440214309010E4C0678A155047804F003
:100DF0001F050124AC4005786D11AD0005F1E0251B
:100E0000C5F8004109E0047804F01F050124AC4056
:100E1000044D0678761145F8264070BD0CED00E0D3
:100E200000E400E080E100E002490143024A116071
:100E3000704700000000FA050CED00E0704700006C
:100E40002DE9F04104460E4617461D464FF00008B6
:100E500030480078002804DD42F6E1602880BDE8D3
:100E6000F0811CB945F6C3502880F8E700BF00BFE9
:100E700000BFFFF7D3F9804600BFFFF799FD00BF21
:100E800025480078401C244908700846007801284D
:100E900001D102F00FFE00BFFFF7A4FD00BF4046E6
:100EA000FFF7C0F900BF00BF00BF1C4820606660AC
:100EB00027620020606204F1080002F0EDFB20468A
:100EC00001F062FE16480088401C1549088000BFEA
:100ED00000BF00BFFFF7A2F9804600BFFFF768FD23
:100EE00000BF0D480078401E0B4908700846007886
:100EF00008B902F0EDFD00BFFFF774FD00BF4046EA
:100F0000FFF790F900BF00BF00BF0020288000BF9E
:100F1000A5E700007C000020B4000020464C4147BB
:100F2000A00000202DE9F04F8BB00546884693467F
:100F30009946DDE9147400200190FE4800780028ED
:100F400006DD46F2AE10208000200BB0BDE8F08F29
:100F500025B945F6C35020800020F6E748F201018C
:100F6000A9EB0100894536D01ADC40F20111A9EB4A
:100F7000010089452BD00CDCB9F1010F23D0B9F168
:100F8000020F21D0B9F1040F1FD0B9F1080F2AD1F7
:100F90001CE001281CD003281BD0072823D119E00E
:100FA000B0F5807F1BD006DC012815D0032814D0B3
:100FB000072818D112E0A0F2011088B1022810D041
:100FC000062810D10EE000BF00BF00BF00BF00BF69
:100FD00000BF00BF00BF00BF00BF00BF00BF00BF19
:100FE00000BF00BF04E045F6256020800020ACE78C
:100FF00000BFD1492868884204D045F6C4502080FB
:101000000020A2E709F4807010B14FF0010A01E05E
:101010004FF0000A0FB10020386009F00F000A906D
:1010200000BF00BFFFF7FAF8019000BFFFF7C0FC58
:1010300000BF0A9801287CD002287BD0042802D067
:10104000082878D182E0286A00EA0806464519D1C6
:10105000BAF1010F02D1286AB0432862B74800688C
:10106000C0F884600FB1686A386000BFFFF7BAFC4F
:1010700000BF0198FFF7D6F800BF00BF0020208016
:10108000304662E709F4004068B100BFFFF7AAFCF0
:1010900000BF0198FFF7C6F800BF00BF46F2B010CE
:1010A0002080002051E7A648007800280DDD00BF11
:1010B000FFF798FC00BF0198FFF7B4F800BF00BF2E
:1010C00046F66350208000203FE700BF9C48007830
:1010D000401C9B49087008460078012801D102F0A5
:1010E000E9FC00BFFFF77EFC00BF0198FFF79AF80C
:1010F00000BF00BF00BF4B464246294602A8CDF8BC
:1011000000B001F021FD00BF00BF00BFFFF786F86F
:10111000019000BFFFF74CFC00BF89480078401EDB
:10112000874908700846007808B902F0D1FC00BF72
:1011300002E089E010E18DE1FFF754FC00BF019867
:10114000FFF770F800BF00BF00BF91E1286A00EA16
:101150000806CEB1BAF1010F02D1286AB043286265
:1011600076480068C0F884600FB1686A386000BFD4
:10117000FFF738FC00BF0198FFF754F800BF00BF2D
:10118000002020803046E0E609F4004068B100BF4E
:10119000FFF728FC00BF0198FFF744F800BF00BF2D
:1011A00046F2B01020800020CFE665480078002885
:1011B0000DDD00BFFFF716FC00BF0198FFF732F806
:1011C00000BF00BF46F6635020800020BDE600BF90
:1011D0005B480078401C5A4908700846007801288E
:1011E00001D102F067FC00BFFFF7FCFB00BF0198D4
:1011F000FFF718F800BF00BF00BF4B464246294624
:1012000002A8CDF800B001F09FFC00BF00BF00BFF6
:10121000FFF704F8019000BFFFF7CAFB00BF484882
:101220000078401E464908700846007808B902F068
:101230004FFC00BFFFF7D6FB00BF0198FEF7F2FF9F
:1012400000BF00BF00BF13E1286A28EA0006464538
:1012500019D1BAF1010F02D1286A30432862374808
:101260000068C0F884600FB1686A386000BFFFF79B
:10127000B9FB00BF0198FEF7D5FF00BF00BF0020FB
:101280002080304661E609F4004068B100BFFFF7F6
:10129000A9FB00BF0198FEF7C5FF00BF00BF46F2E3
:1012A000B0102080002050E62548007800280DDD91
:1012B00000BFFFF797FB00BF0198FEF7B3FF00BF29
:1012C00000BF46F66350208000203EE600BF1C4869
:1012D0000078401C1A49087008460078012801D19E
:1012E00002F0E8FB00BFFFF77DFB00BF0198FEF7AF
:1012F00099FF00BF00BF00BF4B464246294602A8E7
:10130000CDF800B001F020FC00BF00BF00BFFEF729
:1013100085FF019000BFFFF74BFB00BF0848007836
:10132000401E074908700846007808B902F0D0FB53
:1013300000BF07E07C000020464C4147040100202C
:10134000B4000020FFF74EFB00BF0198FEF76AFFD4
:1013500000BF00BF00BF8BE0286A28EA0006CEB1BC
:10136000BAF1010F02D1286A304328628F48006821
:10137000C0F884600FB1686A386000BFFFF732FBC5
:1013800000BF0198FEF74EFF00BF00BF0020208085
:101390003046DAE509F4004068B100BFFFF722FBF0
:1013A00000BF0198FEF73EFF00BF00BF46F2B0103D
:1013B00020800020C9E57E48007800280DDD00BFB0
:1013C000FFF710FB00BF0198FEF72CFF00BF00BF26
:1013D00046F6635020800020B7E500BF74480078CF
:1013E000401C7349087008460078012801D102F0BA
:1013F00061FB00BFFFF7F6FA00BF0198FEF712FF8E
:1014000000BF00BF00BF4B464246294602A8CDF8A8
:1014100000B001F099FB00BF00BF00BFFEF7FEFE69
:10142000019000BFFFF7C4FA00BF61480078401E7A
:101430005F4908700846007808B902F049FB00BF10
:10144000FFF7D0FA00BF0198FEF7ECFE00BF00BF27
:1014500000BF0DE000BFFFF7C5FA00BF0198FEF71F
:10146000E1FE00BF00BF45F62560208000206CE54E
:1014700000BF00F049FA00BF00BFFEF7CFFE0190A9
:1014800000BFFFF795FA00BF4848006890F83500A4
:1014900030B101280CD002282CD003283CD119E00F
:1014A0001FB142480068006C38600020208040E096
:1014B0001FB13E480068006C386000BFFFF792FA29
:1014C00000BF0198FEF7AEFE00BF00BF46F2A910B4
:1014D00020802EE00FB10020386000BFFFF782FAB5
:1014E00000BF0198FEF79EFE00BF00BF47F2D92063
:1014F00020801EE01FB12D480068006C386000BFDE
:10150000FFF770FA00BF0198FEF78CFE00BF00BF26
:1015100045F6C25020800CE000BFFFF763FA00BF21
:101520000198FEF77FFE00BF00BF46F62E602080C8
:1015300000BF00BF208808B1002006E51B480068F6
:10154000D0F88460BAF1010F22D10A9801280BD09B
:1015500002280AD0042802D008280AD100E000BFDF
:10156000286AB043286212E000BF286A304328622C
:101570000DE000BFFFF736FA00BF0198FEF752FEFC
:1015800000BF00BF45F6256020800020DDE400BFDD
:1015900000BFFFF727FA00BF0198FEF743FE00BF28
:1015A00000BF002020803046CFE40000040100206E
:1015B000B40000202DE9FF470546884617461C4623
:1015C00035B945F6C3502080002004B0BDE8F0874F
:1015D0004FB1012F08D0B7F5004F06D06FF400408F
:1015E000384420B902E000BF00BF00BF04E045F668
:1015F000256020800020E8E700BF13492868884262
:1016000004D045F6C45020800020DEE7FFF714FA2E
:1016100006460E48007800280BDD00231A462946AE
:101620000948CDE90087CDE9026401F099FC00206A
:10163000CBE733463A4641462846009401F0C8FAC3
:1016400081464846C1E70000464C41477C000020E7
:1016500010B50348006810B101480068804710BD0C
:101660006800002070B5044600F0AAF800203C494C
:1016700008703C4908703C4908703C4908603C4986
:1016800008603C4908703C4908703C4908703C4976
:1016900008603C4908603C4908603C4908703C4887
:1016A00000680A21B0FBF1F03A4908603A48006846
:1016B00058B13A48056845B13748066803E0761ED8
:1016C000002028602D1D002EF9D10020344908602B
:1016D0003449086034490860344908603449086076
:1016E00034490860344908603449087002F0CEF883
:1016F00002F0FCF8204601F05FFA208800B170BDCE
:10170000204601F057FE208800B1F8E7204602F09D
:101710000BFD208800B1F2E7204601F0B7FD2088DC
:1017200000B1ECE7204601F0E3FB208800B1E6E7DA
:10173000204603F061FD208800B1E0E7204602F07A
:1017400037FC208800B1DAE7204603F0B1FD20889D
:1017500000B1D4E701F042F9FFF770FB00BFCEE71C
:101760007C00002084000020B40000200401002040
:1017700008010020A2000020A3000020A4000020F7
:10178000A8000020AC000020B0000020BC00002019
:10179000345F0008B8000020045F0008005F000804
:1017A0005C00002060000020640000206800002031
:1017B0006C0000207000002074000020E200002077
:1017C0000A4A1168002002E0002204C1401C084AB5
:1017D00012689042F8D3054A1268054B1B6802EB69
:1017E0008302121F034B1A6070470000005F00085D
:1017F000045F00085400002008480078012800D049
:10180000704707480078FA2800DBF9E704480078B9
:10181000401C0349087000BFF2E70000840000206C
:101820007C00002010B500242E480078012800D04C
:1018300010BD00BFFEF7F2FC044600BF2A48007846
:1018400028B900BF2046FEF7EDFC00BFF0E72648B0
:101850000078401E2449087008460078002805DDFD
:1018600000BF2046FEF7DEFC00BFE1E71F4800781E
:10187000002805DD00BF2046FEF7D4FC00BFD7E7F7
:1018800001F0F0FF1A4908700846007800EB4000AC
:10189000184951F82000184908600846006817499F
:1018A0000968884205D100BF2046FEF7BBFC00BF97
:1018B000BEE711480068D0F89000401C0E49096846
:1018C000C1F890000E480068401C0D4908604FF0B8
:1018D00080500C49086000BF2046FEF7A3FC00BF03
:1018E00000BFA5E7840000207C000020B400002099
:1018F000A3000020801E0020080100200401002019
:10190000D800002004ED00E010B500242048007845
:10191000002800DD10BD1F480078002800DDF9E731
:1019200000BFFEF77BFC044600BF01F09BFF1A4995
:1019300008700846007800EB4000184951F8200074
:10194000174908600846006816490968884205D1A9
:1019500000BF2046FEF766FC00BFDBE710480068CA
:10196000D0F89000401C0E490968C1F890000E485C
:101970000068401C0C4908604FF080500B4908601B
:1019800000BF2046FEF74EFC00BF00BFC2E70000CC
:101990007C000020B4000020A3000020801E002056
:1019A0000801002004010020D800002004ED00E020
:1019B00070B5044600251A480078002803DD46F675
:1019C0006250208070BD17480078012803D045F68A
:1019D00089602080F6E714480078FA2803DB45F296
:1019E00009202080EEE700BF00BFFEF717FC054688
:1019F00000BFFEF7DDFF00BF0B480078401C0A491E
:101A0000087002F057F800BFFEF7ECFF00BF284651
:101A1000FEF708FC00BF00BF0020208000BFD1E718
:101A20007C00002084000020B400002070B5044633
:101A3000002523480078002803DD46F66550208005
:101A400070BD20480078012803D045F689602080C9
:101A5000F6E71D48007818B946F664502080EFE795
:101A600000BF00BFFEF7DAFB054600BFFEF7A0FF90
:101A700000BF15480078401E1349087008460078DA
:101A800000280CDD00BFFEF7ADFF00BF2846FEF7C3
:101A9000C9FB00BF00BF46F663502080D0E702F0CC
:101AA00017F800BFFEF79EFF00BF2846FEF7BAFBFF
:101AB00000BF00BFFFF728FF0020208000BFBFE766
:101AC0007C00002084000020B400002010B50446F3
:101AD00012480078E8B901F0C5FE114908700846BF
:101AE0000078104908700E48007800EB40000E495D
:101AF00051F820000D490860084600680C4908604C
:101B0000012006490870FEF755FD43F69920208014
:101B100002E045F68A60208010BD000084000020AD
:101B2000A3000020A2000020801E00200801002049
:101B3000040100202DE9F0410546002700BF00BF49
:101B4000FEF76CFB074600BFFEF732FF00BF002028
:101B500030490860304908803049088030490860C1
:101B600030490860304908603049086030490860F1
:101B70003049088100BFFEF735FF00BF3846FEF749
:101B800051FB00BF00BF00BF00BFFEF747FB074689
:101B900000BFFEF70DFF00BF2748046800BFFEF737
:101BA00021FF00BF3846FEF73DFB00BF00BF26E027
:101BB00000BF00BFFEF732FB074600BFFEF7F8FE8E
:101BC00000BF00207834E063206420602063A061BF
:101BD000A082E0826062A062FEF72EFF2062783C65
:101BE00004F164060020B081D4F8C04000BFFEF7C5
:101BF000F9FE00BF3846FEF715FB00BF00BF002C02
:101C0000D6D103F0C1F903F04FFC00202880BDE8D5
:101C1000F08100009800002092000020C000002009
:101C2000D4000020E8000020F40000208000002004
:101C3000AC000020741E0020DC00002010B503481A
:101C4000006810B101480068804710BD6C0000209A
:101C50002DE9FF4F87B004469046DDE91BA5DDE97D
:101C60001496179F0020039095480078002805DD02
:101C700047F24A1028800BB0BDE8F08F1CB947F23C
:101C8000AD102880F7E7B8F1000F03D147F24F10ED
:101C90002880F0E71EB946F62F602880EBE78948D8
:101CA0000068874203D246F630602880E3E7169842
:101CB000B84203D346F631602880DCE7B9F1200F43
:101CC00003D346F273202880D5E7B9F1000F06D17F
:101CD0007D48844203D046F273202880CBE7B9F1D7
:101CE0001F0F06D17948844203D046F27320288022
:101CF000C1E7204602F028FA002028800AF00100FF
:101D000090B10AF0020078B105960020069008E034
:101D10000021059801600598001D05900698401C5B
:101D200006900698B842F3D3169806EB800004900C
:101D3000CDE9007A32464046049B0A9900F094FBB4
:101D40000590C4F828800A98E0620898206284F818
:101D50003790059820600498A060199860651998DC
:101D600018B95B480068A06501E01998A0651A9849
:101D700060606662A763A4F83CA04FF0000B08E027
:101D8000002104F17C0040F82B100BF1010000F061
:101D9000FF0BBBF1000FF3D004F16400189901F0C0
:101DA00069FB204600F09EF800BF00BF00BFFEF7B1
:101DB00035FA039000BFFEF7FBFD00BF45480078F1
:101DC000401C4449087008460078012801D101F000
:101DD00071FE00BFFEF706FE00BF0398FEF722FA71
:101DE00000BF00BF00BF94F8370001F05BFD204644
:101DF00001F0C4FD204602F05DF937480088401C20
:101E00003549088035480078012837D000BF00BF29
:101E100000BFFEF703FA039000BFFEF7C9FD00BF45
:101E20002C480078401E2B49087008460078D0B92D
:101E300001F04EFE2A48008800280BDD00BFFEF7A7
:101E4000D1FD00BF0398FEF7EDF900BF00BF01F020
:101E500003FE11E000BFFEF7C5FD00BF0398FEF7CB
:101E6000E1F900BF08E000BFFEF7BCFD00BF03982A
:101E7000FEF7D8F900BF00BF00BFFCE600BF00BFFF
:101E800000BFFEF7CBF9039000BFFEF791FD00BF46
:101E900010480078401E0F4908700846007808B9BD
:101EA00001F016FE00BFFEF79DFD00BF0398FEF790
:101EB000B9F900BF00BF00BFFFF726FD00BFDAE69B
:101EC0007C000020305F0008AC1D0020E41C0020D6
:101ED000B8000020B4000020E000002084000020B2
:101EE0009000002010B504460348006818B1204651
:101EF00001490968884710BD5C00002070B50446A0
:101F00000D46002678480078002803DD47F24E1081
:101F1000288070BD7548844203D147F24C10288058
:101F2000F7E77348844203D147F24D102880F0E769
:101F30009CB900BF00BFFEF771F9064600BFFEF76F
:101F400037FD00BF6B48046800BFFEF74BFD00BFC4
:101F50003046FEF767F900BF00BF00BF00BF00BFFB
:101F6000FEF75CF9064600BFFEF722FD00BF62489F
:101F70000078401C6049087008460078012801D1AB
:101F800001F098FD00BFFEF72DFD00BF3046FEF7C3
:101F900049F900BF00BF00BF94F8360008282DD2D1
:101FA000DFE800F004090E10080A0F11204601F0C6
:101FB00025FD5EE05DE000BF204602F0C9FF58E06D
:101FC00000BF00BF00BF204602F0C2FF94F83400FB
:101FD000082810D2DFE800F004070508090A0B06FC
:101FE00000BF00BF08E000BF00BF00BF00BF204629
:101FF00001F08AFB00E000BF00BF3AE000BF00BF75
:1020000000BFFEF70BF9064600BFFEF7D1FC00BF8C
:1020100039480078401E3849087008460078D0B921
:1020200001F056FD3548008800280BDD00BFFEF7A3
:10203000D9FC00BF3046FEF7F5F800BF00BF01F045
:102040000BFD11E000BFFEF7CDFC00BF3046FEF7F0
:10205000E9F800BF08E000BFFEF7C4FC00BF30464F
:10206000FEF7E0F800BF00BF00BF46F62D602880F5
:102070004FE700BF04F1640001F0DAF9204600F0F8
:1020800041F8204602F02EF81D480088401E1C49E9
:102090000880204602F058F8FF2084F8360000BF80
:1020A00000BF00BFFEF7BAF8064600BFFEF780FC8F
:1020B00000BF11480078401E0F490870084600789C
:1020C00008B901F005FD00BFFEF78CFC00BF3046EB
:1020D000FEF7A8F800BF00BF00BF00202880FFF770
:1020E00013FC00BF15E700007C000020E41C00206A
:1020F000AC1D002004010020B4000020900000204E
:10210000E000002010B504460348006818B12046DE
:1021100001490968884710BD6000002010B50446D9
:102120000348006818B1204601490968884710BD76
:10213000640000202DE9F04780460E4614461D46F7
:102140004FF000098C480078002805DD46F2AE10FB
:1021500028800020BDE8F0871EB1B6F5004F02D1FF
:1021600000E000BF04E045F6256028800020F1E78C
:1021700000BF0CB10020206000BF00BFFEF74EF88A
:10218000814600BFFEF714FC00BF7C480068406C2D
:10219000B8B37A480068406C401E784909684864C2
:1021A00076480068476C1CB174480068006C206079
:1021B000FEF742FC71490968096C401A6F490968C9
:1021C000C1F8A4006D480068D0F8A8006B49096800
:1021D000D1F8A410884207D268480068D0F8A4005B
:1021E00066490968C1F8A80000BFFEF7FBFB00BF05
:1021F0004846FEF717F800BF00BF00202880384689
:10220000A8E7FFE706F4004068B100BFFEF7EAFB6D
:1022100000BF4846FEF706F800BF00BF46F2B01008
:102220002880002096E75648007800280DDD00BF82
:10223000FEF7D8FB00BF4846FDF7F4FF00BF00BF24
:1022400046F663502880002084E700BF4C480078A1
:10225000401C4B49087008460078012801D101F064
:1022600029FC00BFFEF7BEFB00BF4846FDF7DAFFC2
:1022700000BF00BF00BF434607220021084601F00F
:1022800083F900BF00BF00BFFDF7C8FF814600BF54
:10229000FEF78EFB00BF3A480078401E38490870B0
:1022A0000846007808B901F013FC00BFFEF79AFB5E
:1022B00000BF4846FDF7B6FF00BF00BF00BFFFF7F5
:1022C00023FB00BF00BFFDF7A9FF814600BFFEF75B
:1022D0006FFB00BF2948006890F8350020B1012845
:1022E00026D0032834D12CE0FCB124480068006CCF
:1022F0002060FEF7A1FB21490968096C401A1F49BB
:102300000968C1F8A4001D480068D0F8A8001B495E
:102310000968D1F8A410884207D218480068D0F89C
:10232000A40016490968C1F8A8000020288013E01D
:102330001CB112480068006C206046F2A910288089
:102340000AE00CB10020206047F2D920288003E089
:1023500046F62E60288000BF00BF08480068476C22
:1023600000BFFEF73FFB00BF4846FDF75BFF00BF25
:1023700000BF3846EEE600007C000020040100208B
:10238000B40000202DE9F04705460E4617461C46CE
:102390004FF0000A32480078002804DD47F2591057
:1023A0002080BDE8F0871EB946F2D5202080F8E7EE
:1023B0001FB946F2D5202080F3E700BF00BFFDF72C
:1023C0002DFF824600BFFEF7F3FA00BF0DB9254886
:1023D0000568286878B900BFFEF704FB00BF5046C7
:1023E000FDF720FF00BF00BF00203060386047F2DB
:1023F00052102080D5E795F83C0000F0010078B934
:1024000000BFFEF7EFFA00BF5046FDF70BFF00BF1D
:1024100000BF00203060386047F254102080C0E7D1
:1024200000BFFEF7DFFA00BF5046FDF7FBFE00BF1E
:1024300000BF4FF00008D5F8249003E009F104092B
:1024400008F10108D9F800000028F7D0C6F800808C
:10245000A86BA0EB080038600020208000BFA0E738
:102460007C00002004010020F0B50446DDE905569B
:1024700002EB85004FF0807C071F3846C7F800C08C
:10248000071F38463C60DFF89CC0071F3846C7F876
:1024900000C04FF0123C071F3846C7F800C04FF08D
:1024A000033C071F3846C7F800C04FF0023C071F27
:1024B0003846C7F800C0071F38463B60071F38463C
:1024C00039604FF0113C071F3846C7F800C04FF085
:1024D000103C071F3846C7F800C04FF0093C071FE3
:1024E0003846C7F800C04FF0083C071F3846C7F809
:1024F00000C04FF0073C071F3846C7F800C04FF038
:10250000063C071F3846C7F800C04FF0053C071FC0
:102510003846C7F800C04FF0043C071F3846C7F8DC
:1025200000C0F0BD1D46000870B52448006810B119
:10253000224800688047FEF77FFA0446204800687A
:1025400020490968884215D01D480068D0F89800D5
:10255000201A1B490968C1F8940019480068D0F88E
:102560009C0017490968D1F8941008441449096877
:10257000C1F89C0013480068C0F89840FEF7ECF9D9
:1025800005460F480068D0F8B400A84203D20C48B2
:102590000068C0F8B4500A480068D0F8B8000A498A
:1025A0000968884205D20848006805490968C1F8E9
:1025B000B80000200449086070BD000070000020D1
:1025C0000401002008010020B00000202DE9F041A6
:1025D00005460E46144600274D480078002804DDC5
:1025E00047F275202080BDE8F0814A480078002835
:1025F00003DD46F663502080F5E736B1022E05D0A4
:10260000042E0AD0082E09D101E000BF00BF1DB979
:1026100047F27E202080E6E704E003E045F62560EF
:102620002080E0E700BF00BF00BF00BFFDF7F6FD60
:10263000074600BFFEF7BCF900BF36480078401CD3
:102640003449087008460078012801D101F032FAB7
:1026500000BFFEF7C7F900BF3846FDF7E3FD00BF36
:1026600000BF00BF01202C49096881F836002346CD
:10267000324629462848006802F08CFB2088F0B1D9
:1026800000BF00BF00BFFDF7C9FD074600BFFEF752
:102690008FF900BF1F480078401E1E490870084689
:1026A000007808B901F014FA00BFFEF79BF900BFEB
:1026B0003846FDF7B7FD00BF00BF00BF93E71648DF
:1026C000006801F09BF900BF00BF00BFFDF7A6FD49
:1026D000074600BFFEF76CF900BF0E480078401EA9
:1026E0000C4908700846007808B901F0F1F900BFFC
:1026F000FEF778F900BF3846FDF794FD00BF00BF34
:1027000000BFFFF701F90020208000BF6BE7000049
:102710007C000020B4000020040100202DE9FF5FB0
:1027200005460E4617469846DDE90EA400200090A7
:1027300081480078002804DD47F275202080BDE83C
:10274000FF9F7E480078002803DD46F66350208016
:10275000F5E70AF00E0BBBF1000F09D0BBF1020F39
:1027600007D0BBF1040F10D0BBF1080F0ED101E070
:1027700000BF00BFB8F1000F06D12FB926B91DB9AF
:1027800047F27E202080DAE704E003E045F625608A
:102790002080D4E700BF2AF01E0008B1012000E02D
:1027A000002003900398012803D145F6256020807E
:1027B000C5E7CAF3001002900298C0B9B8F57A7F55
:1027C00003D347F27B202080B9E73B2F03DD47F29C
:1027D0007A202080B3E73B2E03DD47F2792020806A
:1027E000ADE7632D12DD47F278202080A7E742F2A3
:1027F0000F70864203DD47F2792020809FE7B5F510
:102800007A7F03DB47F27820208098E74C48D0F8A5
:1028100000904FF4FA70B0FBF9F0404400FB09F06F
:102820004FF47A71B0FBF1F14FF461606843C6EB8D
:10283000061200EB8200384400FB09100190019859
:10284000002873D000BF00BF00BFFDF7E7FC009079
:1028500000BFFEF7ADF800BF38480078401C37498C
:10286000087008460078012801D101F023F900BF63
:10287000FEF7B8F800BF0098FDF7D4FC00BF00BF1A
:1028800000BF01202F49096881F8360023465A46C7
:102890002C480199006802F07DFA2088F0B100BF51
:1028A00000BF00BFFDF7BAFC009000BFFEF780F844
:1028B00000BF22480078401E204908700846007872
:1028C00008B901F005F900BFFEF78CF800BF0098C9
:1028D000FDF7A8FC00BF00BF00BF30E71948006843
:1028E00001F08CF800BF00BF00BFFDF797FC00901F
:1028F00000BFFEF75DF800BF10480078401E0F498A
:1029000008700846007808B901F0E2F800BFFEF749
:1029100069F800BF0098FDF785FC00BF00BF00BF4D
:10292000FEF7F2FF0020208003E0FFE747F27E2061
:10293000208000BF03E700007C000020B4000020DE
:10294000345F00080401002070B50446002600BF73
:1029500000BFFDF763FC064600BFFEF729F800BF85
:102960000748056800BFFEF73DF800BF3046FDF799
:1029700059FC00BF00BF00202080284670BD000029
:10298000E400002010B586B000F01EF8FEF754F801
:10299000044605A800210091CDE9011403900748E1
:1029A000007800EB4000064A02EB800100231A4643
:1029B000044800F0D5FA06B010BD0000A2000020C7
:1029C000801E00205449434B10B50348006810B1E5
:1029D00001480068804710BD740000201F4A20494C
:1029E000204A214A2149224A2248234A234A244A8A
:1029F000244A254825482648264A2748274A284A5F
:102A00002848294829482A482A4A2B4A2B4A2C4830
:102A10002C482D482D482E482E482F482F4A304804
:102A20003048314A314832493248334A334A344ACD
:102A3000344A354A354A364A3648374A374A38489A
:102A40003848394A394A3A483A4A3B4A3B483C486E
:102A50003C4800BF00BF00BF70470000785F00081F
:102A6000E0600008795F00087A5F00087C5F00087A
:102A7000805F0008845F0008815F0008AC5F000889
:102A8000AD5F0008AE5F0008B05F0008B25F0008ED
:102A9000B45F0008B65F0008B85F0008D85F0008A0
:102AA000DC5F0008DE5F0008E05F0008E25F00080E
:102AB000E45F000810600008166000081760000856
:102AC000186000081A6000081C6000081E600008FA
:102AD000206000082260000824600008546000089C
:102AE0005A6000085C600008846000088A60000882
:102AF0008C600008906000089160000892600008F7
:102B000093600008946000089560000896600008D3
:102B100097600008986000089A6000089B600008B1
:102B20009C6000089E600008A0600008A16000088A
:102B3000A4600008D8600008D9600008DA600008C6
:102B4000DC600008DE6000082DE9F04106460F4613
:102B500014461D46DDF818800A480068C0F8804019
:102B600008480068A0F88850002006490968C1F8A4
:102B70008400434601223946304600F005FDBDE899
:102B8000F08100000401002009A1C1610021416120
:102B90000849096811B90021816105E00549096802
:102BA0008161044909684861024908607047000072
:102BB000200000009C0000200021034A1160034A0D
:102BC00011800180704700009C000020A0000020C0
:102BD0002DE9F04F85B00446894692469B46DDF8C4
:102BE00038800020009000BF00BFFDF717FB009069
:102BF00000BFFDF7DDFE00BFBAF1000F0AD0BAF149
:102C0000010F0DD0BAF5004F05D06FF400405044CD
:102C100060B906E000BF206A40EA0900206216E0C1
:102C200000BF206A20EA0900206210E000BFFDF723
:102C3000D9FE00BF0098FDF7F5FA00BF00BF45F6CA
:102C40002560A8F80000002005B0BDE8F08F00BFA7
:102C5000C4F824B004F1080001900198008968B913
:102C600000BFFDF7BFFE00BF0098FDF7DBFA00BF15
:102C700000BF0020A8F80000206AE5E700BF714807
:102C80000078401C6F49087008460078012801D17F
:102C900000F010FF00BFFDF7A5FE00BF0098FDF794
:102CA000C1FA00BF00BF00BF01980768BD6889E096
:102CB0007868029095F8880000F00F000390039860
:102CC000012821D002282ED0042802D0082836D18D
:102CD0000EE0206AD5F8801000EA0106D5F88000E1
:102CE000B04204D15A463146284600F0AFF863E0BE
:102CF000206AD5F8801000EA010626B15A4631460E
:102D0000284600F0A3F857E0D5F88000216A20EAB1
:102D10000106D5F88000B04204D15A463146284613
:102D200000F094F848E0D5F88000216A20EA010616
:102D300026B15A463146284600F088F83CE000BFEC
:102D400000BF00BFFDF76AFA009000BFFDF730FE3C
:102D500000BF3C480078401E3A4908700846007899
:102D6000D0B900F0B5FE3848008800280BDD00BF60
:102D7000FDF738FE00BF0098FDF754FA00BF00BF12
:102D800000F06AFE11E000BFFDF72CFE00BF0098C6
:102D9000FDF748FA00BF08E000BFFDF723FE00BFC3
:102DA0000098FDF73FFA00BF00BF00BF43F6FF20C9
:102DB000A8F80000002047E700BF029F0FB1BD68E0
:102DC00000E00025002D7FF473AF00BF00BF00BFFF
:102DD000FDF724FA009000BFFDF7EAFD00BF194897
:102DE0000078401E174908700846007808B900F0BE
:102DF0006FFE00BFFDF7F6FD00BF0098FDF712FA69
:102E000000BF00BF00BF0AF4004008B9FEF77CFD18
:102E100000BF00BFFDF702FA009000BFFDF7C8FD3C
:102E200000BF206A049000BFFDF7DCFD00BF0098E2
:102E3000FDF7F8F900BF00BF0020A8F800000498D3
:102E400002E70000B40000209000002070B50446A6
:102E50000E46154634342665002060702070E5600B
:102E6000A078343C082816D2DFE800F004050809F1
:102E70000706101100BF00BF00BF0DE000BF2046D5
:102E800001F000FB002084F8360005E000BF0420BC
:102E900084F8360000E000BF00BF204600F034FC9C
:102EA00070BD0000002400BF1DE000BF00BFFDF7A3
:102EB000B5F9044600BFFDF77BFD00BF0A48006876
:102EC000401C0949086009480068401C074908601F
:102ED00000BFFDF787FD00BF2046FDF7A3F900BF47
:102EE00000BFFEF7B5FBE0E778000020C40000203B
:102EF00010B58AB0044600200E4908600B2000215E
:102F00000591CDE90704069108460B4909680B4A6B
:102F100012680B4B1B68CDE90132CDE903101F206D
:102F20000023084A08A100900C48FEF791FE0AB061
:102F300010BD000078000020DC5E0008D85E0008AC
:102F4000D45E0008A52E000875432F4F532D494924
:102F5000492049646C65205461736B00E41C0020B7
:102F60002DE9F84F04460D4616461F46DDE90BAB2A
:102F7000DDF82890DDF834800020009000BF00BF0D
:102F8000FDF74CF9009000BFFDF712FD00BF2C4883
:102F900000882C49098888423EDA29480088401C6C
:102FA00027490880284800880988884203DA24488D
:102FB0000088254908802548006804602348006887
:102FC000856022480068C6602048006807821F4864
:102FD0000068C0F814901D480068A0F818A01B48AD
:102FE0000068C0F81CB019480068406817490860BC
:102FF000012017490881174808604860002000F048
:1030000051FC1548007818B113480078134908702E
:103010000020A8F8000008E011480088401C104972
:10302000088044F25360A8F8000000BFFDF7DAFC06
:1030300000BF0098FDF7F6F800BF00BFBDE8F88FAD
:1030400090000020E85E0008920000208800002028
:10305000801E0020AC1D0020A2000020A400002043
:10306000940000203EB5484800680068474A811A2D
:1030700090425FD00EDC4649084448B345490844B5
:10308000A0B145490844002840D0444908440028DC
:1030900077D11EE04248084480B3424908440028E2
:1030A00041D04149084400286BD110E002A8364DB8
:1030B00000902D68EB69344D2D682A8B324D2D68B8
:1030C0006969314D2D68A868FFF782FD5AE059E023
:1030D00058E002A92C480068C0692B4DCDE90001D9
:1030E0002D682B8B284D2D682A8A274D2D68E9687D
:1030F000254D2D68A86801F08FF843E0FFE72249CD
:103100000968886802A901F0CBF93BE01E4B1B68F7
:10311000DA691D4B1B68198B1B4B1B68986802AB47
:1031200001F088FA2EE018490968886802A901F0C0
:1031300055FD27E01D49097801EB41011C4A02EBCE
:10314000810000F0E3FC1048006802AB0021C26976
:10315000184801F06FFA18480068401E16490860C8
:103160000846006858B9154800680860FDF764FC17
:10317000044602AB22460021114801F05BFA01E04F
:10318000FFE700BF00BF3EBD8C0000205449434B09
:10319000ADBAB2BE0DF90BFAF2F8F7FF0006F6FF72
:1031A00000F7FDF700FFEFFF03FE0FFEA400002075
:1031B000801E0020C820002000010020FC0000200C
:1031C00090210020002700BF56E0002652E000BFFB
:1031D00000BFFDF723F8074600BFFDF7E9FB00BF7E
:1031E0002648008898B90020254908810860486071
:1031F00000F06AFB00BFFDF7F5FB00BF3846FDF7A6
:1032000011F800BF00BFFEF77FFB012632E000BFD0
:10321000FDF7E8FB00BF3846FDF704F800BF00BF2C
:10322000FDF70AFC0546FFF71DFFFDF705FC441BF3
:1032300014480068A04201D21248046000BF00BFD9
:10324000FCF7ECFF074600BFFDF7B2FB00BF0E48DE
:10325000006840680C49086008480088401E07491B
:10326000088000BFFDF7BEFB00BF3846FCF7DAFF61
:1032700000BF00BF002EAAD0A7E7000090000020EA
:10328000801E0020980000208C000020F0B589B03E
:1032900005460020314908803148006820B944F2D1
:1032A0005260288009B0F0BD2E480088022803DA59
:1032B00044F254602880F5E700202B490860284834
:1032C00004682646203600270CE0284820600020AD
:1032D000A060E06020826061208366602034203638
:1032E000781C87B21F4800888742EEDB203C1C48D0
:1032F000066866601E4806601E48066000201E497B
:1033000008801E4908801E48006818B944F25560BC
:103310002880C7E71B4800681B490968884203D218
:1033200044F256602880BDE7032000210591CDE9D5
:103330000705069113480068144A1268104B1B6871
:10334000CDE90301CDE9013200910B46104A11A1EC
:103350001748FEF77DFC00BFA4E7000094000020A2
:10336000E45E0008E85E0008980000204E4F4E45DD
:10337000880000208C000020900000209200002097
:10338000F05E0008F85E0008305F0008F45E000898
:10339000C531000875432F4F532D494949204953E2
:1033A00052205175657565205461736B00000000F3
:1033B000AC1D002070B501461A4D2D681DB945F2AF
:1033C0001E750D8070BD184D2D881DB945F21D75F7
:1033D0000D80F7E7134D28682A681032124D2D88AA
:1033E0006D1EACB2002308E0026000254560058137
:1033F000C560103010325D1CABB2A342F4DB002577
:10340000056045600581C560064D2D68074E356035
:10341000054D2D88B5800025F58035810D8000BFD4
:10342000D0E70000145F00080C5F0008741E002045
:1034300010B5014648894B89002B17DD0A680C4BF3
:103440001B6813600A4C4B6823602346DB884C8959
:103450001B1B074CE38023469B884C892344044C68
:10346000A38000234B818B810B604B6010BD00005B
:10347000741E00200181002242818281026042602C
:10348000704700002DE9F0410D46DDE90674B0F803
:103490000AC0B0F80880C44505DB46F2935CA4F886
:1034A00000C0BDE8F081DFF8DCC0BCF804C0BCF1AE
:1034B000000F04D145F21D7CA4F800C0F1E7DFF84D
:1034C000C4C0DCF80010DFF8BC80D1F800C0C8F838
:1034D00000C0C446BCF804C0ACF1010CA8F804C09C
:1034E000C446BCF806C00CF1010CA8F806C0C446DE
:1034F000BCF808C0B8F80680C44507DADFF884C015
:10350000BCF806C0DFF87C80A8F808C0B0F80AC094
:10351000BCF1000F0AD1016041604FF0010CA0F82E
:103520000AC04FF0000CC1F800C017E003F0100C07
:10353000BCF1000F07D10668316001604FF0000C4C
:10354000C1F800C004E0D0F804C0C1F800C0416078
:10355000B0F80AC00CF1010CA0F80AC0B0F80CC019
:10356000B0F80A80C44503DAB0F80AC0A0F80CC06D
:103570004D600A81CF604FF0000CA4F800C000BF7E
:103580008FE70000741E00202DE9F04105460C462F
:1035900016461F461548006880F83460002013491D
:1035A000096881F8350039461048006800F066FD6A
:1035B0006CB104F10808EC60012229460B48006850
:1035C00000F016F82946404600F06BF806E00020AF
:1035D00006490968C88705490968086303480168FE
:1035E000204600F019F8BDE8F08100000401002039
:1035F00010B5C287016300230AE000244C600C6010
:103600000C614C610C83CC61886020315C1CA3B2DE
:103610009342F2DB10BD000030B548B14568C1F8F7
:10362000C45000F10804226893681D6AC56113E064
:1036300091F83450022D02D0072D08D103E007A5E0
:10364000C1F8C45007E007A5C1F8C45003E008A5BD
:10365000C1F8C45000BF00BF30BD00005461736B9F
:10366000205100005461736B2053656D0000000011
:103670002000000030B507A5C1F8C45000F10804CF
:1036800022681AB193681D6AC56101E001A5C56190
:1036900030BD000020000000002101604160018178
:1036A0007047F0B58E6896F8375007893FB9012703
:1036B000078100274F600F600160416023E00789A8
:1036C0007F1C0781026806E0946894F83770AF4267
:1036D00000DD02E05268002AF6D100BF32B90027AF
:1036E0004F6043680B60596041600CE017682FB968
:1036F000116000270F604A60016004E013680B60EE
:103700004A6059601160F0BD2DE9F0410446256B17
:10371000E68F0AE0D5F80C8008F1080729463846FC
:1037200000F00AF82035701E86B2002EF2DC002070
:10373000E0872063BDE8F08110B50489012C03D136
:1037400000240460446011E00C6824B94A68002435
:10375000146002600AE04C6824B90B6800245C60C5
:10376000436003E00B684A685A6013600489641E72
:10377000048100244C600C6010BD2DE9F84306461E
:103780000C4617469846089D94F83600082850D2F3
:10379000DFE800F00405080906072B2C00BF00BF76
:1037A00000BF47E000BF94F83400032807D1434628
:1037B0003A4621463046009500F03FF803E0E765C1
:1037C000A4F86080256436B12046FFF79DFF2146AE
:1037D0003046FFF74FFF204600F054FE00203434FF
:1037E000A070607004F8340924E000BF94F834003D
:1037F000032807D143463A4621463046009500F05B
:103800001CF803E0E765A4F860802564204601F019
:103810009FFB36B12046FFF777FF21463046FFF782
:1038200029FF04203434A0700020607004F83409AB
:1038300000E000BF00BFBDE8F883F0B50446059E78
:10384000086BCD8F0AE0C768A74204D104614261CA
:103850000383C66104E020306F1EBDB2002DF2DC90
:1038600000BFF0BD70B50025074C03E005F1200056
:10387000C5B2241D20680028F8D02068FCF7D9FCC8
:103880002844C5B2284670BD58000020002004E03E
:103890000021034A42F82010401C0028F8D070474D
:1038A0005800002030B5420900F01F030121C3F188
:1038B0001F04A140034C54F822400C43014D45F82D
:1038C000224030BD5800002030B5420900F01F03EF
:1038D0000121C3F11F04A140034C54F822408C4342
:1038E000014D45F8224030BD5800002000210AE07B
:1038F00001EB4102054B03EB8200002202810260D2
:1039000042604A1CD1B22029F2D37047801E0020A9
:1039100010B5044694F83700FFF7C4FF94F8370059
:1039200005490978884203D1204600F027F802E0D3
:10393000204600F003F810BDA200002010B590F85A
:10394000373003EB43030C4C04EB83010B893BB989
:1039500001230B810023C36003610860486009E014
:103960000B895B1C0B810B68C360002303610A6831
:103970001061086010BD0000801E002010B590F896
:10398000373003EB43030B4C04EB83010B893BB94A
:1039900001230B810023C36003610860486008E0D5
:1039A0000B895B1C0B810023C3604A680261D060F5
:1039B000486010BD801E002010B501460C8924B15E
:1039C000012C03D0022C0CD101E000BF14E00868E8
:1039D0004A6802610024C4601461D0600A604860D3
:1039E0000AE008684A68C36800241C61C460026178
:1039F000D0600B60486000BF00BF10BD2DE9F041F2
:103A0000054695F8370000EB4000124901EB8004B1
:103A10002F69EE6887B946B9002020812060606078
:103A200095F83700FFF750FF0EE02089401E2081F7
:103A300000203061266007E02089401E2081FE6062
:103A40000EB9676000E0376100202861E860BDE8DA
:103A5000F0810000801E002010B5002400BFFCF79C
:103A6000DDFB044600BF00200D4908700D480E49DB
:103A7000086008460068D0F89000401C0968C1F84A
:103A800090000A480068401C084908604FF08050C8
:103A90000749086000BF2046FCF7C4FB00BF10BD0B
:103AA000A3000020AC1D002008010020D800002049
:103AB00004ED00E010B504480078012803D1FCF7BC
:103AC000BBFF0249086010BDB4000020A800002020
:103AD00010B50A48007880B9FCF7AEFF08490968BC
:103AE000441A08480068A04201D20648046006480B
:103AF0000068A04201D20448046010BDB400002058
:103B0000A8000020AC000020B000002070B50546E1
:103B1000002635480078012800D070BD00BF00BFE6
:103B2000FCF77CFB064600BFFCF742FF00BF2C6899
:103B30004CB900BFFCF756FF00BF3046FCF772FBE4
:103B400000BF00BFE9E72948844209D100BFFCF764
:103B500049FF00BF3046FCF765FB00BF00BFDCE754
:103B6000A06D10B1A06D401EA065A06D48B100BF52
:103B7000FCF738FF00BF3046FCF754FB00BF00BF26
:103B8000CBE72889022809DA00BFFCF72BFF00BF2A
:103B90003046FCF747FB00BF00BFBEE71448007883
:103BA000002809DD00BFFCF71DFF00BF3046FCF711
:103BB00039FB00BF00BFB0E72846FFF7FDFE2C68C9
:103BC000606D18B90B480068A06501E0606DA065E4
:103BD00000BFFCF707FF00BF3046FCF723FB00BF28
:103BE00000BF00BF99E70000BC000020E41C0020DB
:103BF000B4000020B800002086B00020009000BF74
:103C000006E0D9490968480001AA0021FEF7DEFC58
:103C1000D64800780128F4D101A8FDF78BFF0027D2
:103C2000D3480068D0490968884205D9D04800685F
:103C3000CD490968B0FBF1F727B9CD4800680A21E2
:103C4000B0FBF1F78EE1FCF7F7FE8246FCF79AFE37
:103C5000C849086000BF00BFFCF7E0FA009000BF51
:103C6000FCF7A6FE00BFC4480068C44908600020F5
:103C7000C149086000BFFCF7B5FE00BF0098FCF723
:103C8000D1FA00BF00BFBE480068BC49096888423D
:103C900048D9BB480068BB49884205D242F210703F
:103CA00003900120029023E0B5480068B64988429D
:103CB00005D24FF47A7003900A20029018E0B048C1
:103CC0000068B249884203D26420039002900FE05A
:103CD000AB480068AE49884205D20A2003904FF4F1
:103CE0007A70029004E00120039042F2107002907A
:103CF000A34801680298B1FBF0F9A049039809684C
:103D00004843B0FBF9F042F21071081AA14908804B
:103D1000A14800880988884208DA9E4800889E49A0
:103D2000088003E042F210709A490880FDF786FF90
:103D3000002500BF00BFFCF771FA009000BFFCF740
:103D400037FE00BF9548046800BFFCF74BFE00BF7C
:103D50000098FCF767FA00BF00BF72E000BF00BF29
:103D600000BFFCF75BFA009000BFFCF721FE00BF2C
:103D70008B480078401C8A49087008460078012862
:103D800001D1FFF797FE00BFFCF72CFE00BF0098A3
:103D9000FCF748FA00BF00BF00BF54F89C0F6060FA
:103DA000002044F89C0900BF00BF00BFFCF736FAB2
:103DB000009000BFFCF7FCFD00BF79480078401E72
:103DC0007749087008460078D0B9FFF781FE75483A
:103DD000008800280BDD00BFFCF704FE00BF009840
:103DE000FCF720FA00BF00BFFFF736FE11E000BF6E
:103DF000FCF7F8FD00BF0098FCF714FA00BF08E0DC
:103E000000BFFCF7EFFD00BF0098FCF70BFA00BF06
:103E100000BF00BFD4F8A000054400BF00BFFCF7FE
:103E2000FDF9009000BFFCF7C3FD00BFD4F8C0400F
:103E300000BFFCF7D7FD00BF0098FCF7F3F900BF07
:103E400000BF002C8AD145B34E48854205D242F2CC
:103E5000107005904FF0010B1BE04B48854205D2D6
:103E60004FF47A7005904FF00A0B12E047488542F4
:103E700003D26420059083460BE04548854204D276
:103E80000A2005904FF47A7B03E00120059042F26E
:103E9000107BB5FBFBF0049003E0002005900120AF
:103EA000049000BF00BFFCF7B9F9009000BFFCF719
:103EB0007FFD00BF3948046800BFFCF793FD00BFD9
:103EC0000098FCF7AFF900BF00BF2FE0D4F8A000C6
:103ED000059948430499B0FBF1F086B242F21070A4
:103EE000864200D90646A4F88C60B4F88E00B04231
:103EF00001DAA4F88E6001AB04F1AC02111D20467A
:103F0000FEF740FA00BF00BFFCF788F9009000BF41
:103F1000FCF74EFD00BFD4F8C04000BFFCF762FDC7
:103F200000BF0098FCF77EF900BF00BF002CCDD188
:103F30001D480078012805D100201B49087001A800
:103F4000FDF7F8FDFCF778FDA0EB0A0817480068BC
:103F5000404502D21548C0F8008001AA0021384629
:103F6000FEF734FB6FE600001C5F0008D000002065
:103F7000345F000880000020C4000020CC00002036
:103F8000C8000020801A060000093D00005A6202A5
:103F90000084D717BE000020C0000020DC000020F5
:103FA000B400002090000020BD000020D4000020BC
:103FB00010B58AB0044600201F4908601F490860F8
:103FC0001F4908601F4908701F4908701F48006892
:103FD00020B946F62B6020800AB010BD1C4800684E
:103FE0001C490968884203D246F62C602080F3E71A
:103FF000194800781F2803D346F62A602080EBE793
:10400000032000210591CDE90704069108461049D7
:104010000968124A12680D4B1B68CDE90132CDE9DF
:1040200003100D48007800230D4A0EA1009012489D
:10403000FDF70EFE00BFCFE7C4000020CC0000203B
:10404000C8000020D0000020BD000020205F000834
:10405000285F0008305F0008185F0008245F000830
:10406000F93B000875432F4F532D4949492053749C
:104070006174205461736B000020002038B5044641
:104080000D4685B16B4602222946204600F082FE8D
:10409000BDF8000018B9032084F8360006E00220BD
:1040A00084F8360002E0022084F836002046FFF74C
:1040B000A5FC38BD0021C0F8BC100949096819B930
:1040C0000021C0F8C01007E005490968C0F8C01019
:1040D00003490968C1F8BC00014908607047000045
:1040E000DC000020D0F8BC20D0F8C0104AB90D4B3D
:1040F000196011B10023C1F8BC300023C0F8C030F2
:104100000FE029B90023C2F8C030C0F8BC3008E085
:10411000C2F8C010C1F8BC200023C0F8C030C0F8FD
:10412000BC307047DC0000200021044A1160044AC2
:104130001180044A1160018070470000DC000020FB
:10414000E0000020D800002070B504460020206068
:10415000A0606060E06020616061A061E0612BA010
:10416000206200206062A062E0622063E087206439
:10417000E065A4F86000002104F16400FFF77AF91B
:10418000002044F8740F6060E060A0822061743CFD
:10419000002506E0002104F17C0040F82510681C91
:1041A000C5B2002DF6D0002034342061206760674E
:1041B000606084F85600E067A06720814FF00040FF
:1041C00060610020A061E06120626062A4F8580094
:1041D000A4F85A00E0652066FCF72EFC06466666E9
:1041E0000020A066C4F88000C4F8840020706070CD
:1041F000A0702020E0700020C4F88800C4F88C0073
:1042000004A0C4F89000343C70BD00003F546173BA
:104210006B000000200000002DE9FC4704460F461B
:1042200090469946DDE90A654FF0000A00BF00BFDD
:1042300000BFFBF7F3FF824600BFFCF7B9FB00BFEE
:104240008D480078401C8C49087008460078012889
:1042500001D1FFF72FFC00BFFCF7C4FB00BF5046A5
:10426000FBF7E0FF00BF00BF00BF0CB98348046844
:104270000020288094F8360008287CD2DFE800F07F
:104280000405484906074A4B00BF00BF00BF4B4624
:104290004246394604F16400CDE90065FFF7F2F8C3
:1042A00000BF00BF00BFFBF7B9FF824600BFFCF7AD
:1042B0007FFB00BF70480078401E6F4908700846B9
:1042C0000078D0B9FFF704FC6D48008800280BDDAA
:1042D00000BFFCF787FB00BF5046FBF7A3FF00BF02
:1042E00000BFFFF7B9FB11E000BFFCF77BFB00BF8D
:1042F0005046FBF797FF00BF08E000BFFCF772FBDA
:1043000000BF5046FBF78EFF00BF00BF00BFAFE00D
:1043100000BF00BF00BF94F8340002282CD14346F0
:104320003A46214600200096FFF727FA00BF00BF5B
:1043300000BFFBF773FF824600BFFCF739FB00BFED
:104340004D480078401E4C4908700846007808B96E
:10435000FFF7BEFB00BFFCF745FB00BF5046FBF775
:1043600061FF00BF00BF00BF09F40040002843D137
:10437000FDF7CAFA40E040E04B464246394604F1B8
:104380006400CDE90065FFF77DF800BF00BF00BF06
:10439000FBF744FF824600BFFCF70AFB00BF36482C
:1043A0000078401E3449087008460078D0B9FFF7FD
:1043B0008FFB3348008800280BDD00BFFCF712FBA1
:1043C00000BF5046FBF72EFF00BF00BFFFF744FBC6
:1043D00011E000BFFCF706FB00BF5046FBF722FFD1
:1043E00000BF08E000BFFCF7FDFA00BF5046FBF736
:1043F00019FF00BF00BF00BF3AE000BF00BF00BF11
:10440000FBF70CFF824600BFFCF7D2FA00BF1A4848
:104410000078401E1849087008460078D0B9FFF7A8
:1044200057FB1748008800280BDD00BFFCF7DAFABD
:1044300000BF5046FBF7F6FE00BF00BFFFF70CFBC6
:1044400011E000BFFCF7CEFA00BF5046FBF7EAFED2
:1044500000BF08E000BFFCF7C5FA00BF5046FBF7FD
:10446000E1FE00BF00BF00BF46F62D60288000BF00
:1044700000BFBDE8FC870000B4000020040100205C
:104480009000002010B50446204600F061FD94F82D
:10449000360000F0040010B92046FFF739FA10BDCD
:1044A00070B504460D46002600BF00BFFBF7B6FE00
:1044B000064600BFFCF77CFA00BF0020288094F875
:1044C000360008287ED2DFE800F0040506071456FF
:1044D0006A8000BF00BF00BF00BFFCF783FA00BFC7
:1044E0003046FBF79FFE00BF00BF47F25310288005
:1044F0008CE000BF48480078401C474908700846D7
:104500000078012801D1FFF7D5FA00BFFCF76AFA5D
:1045100000BF3046FBF786FE00BF00BF00BF14F8A7
:104520008A0F401E207014F88A0928B9002084F8E8
:1045300036002046FFF7A6FF00BF00BF00BFFBF715
:104540006DFE064600BFFCF733FA00BF3248007824
:10455000401E314908700846007808B9FFF7B8FADC
:1045600000BFFCF73FFA00BF3046FBF75BFE00BF21
:1045700000BF00BF4AE014F88A0F401E207014F8F4
:104580008A0910B9012084F8360000BFFCF72AFA26
:1045900000BF3046FBF746FE00BF00BF36E014F810
:1045A0008A0F401E207014F88A0910B9022084F87E
:1045B000360000BFFCF716FA00BF3046FBF732FEAC
:1045C00000BF00E015E000BF20E014F88A0F401E95
:1045D000207014F88A0910B9032084F8360000BF4F
:1045E000FCF700FA00BF3046FBF71CFE00BF00BF1F
:1045F0000CE000BFFCF7F6F900BF3046FBF712FEF7
:1046000000BF00BF46F62D60288070BD00BFFDF7DB
:104610007BF900BFF9E70000B400002008B50448AA
:104620000068FDF77BFD69460020FDF767FC08BDCB
:10463000040100202DE9F8430446884617461D462C
:104640004FF0000900BF00BF00BFFBF7E7FD814648
:1046500000BFFCF7ADF900BFFB480078401CFA49E9
:10466000087008460078012801D1FFF723FA00BF3F
:10467000FCF7B8F900BF4846FBF7D4FD00BF00BF08
:1046800000BF0CB9F148046827640020288094F822
:10469000360008287AD2DFE800F00405FEFD0607A0
:1046A000FCFB00BF00BF00BF0420012804D002288B
:1046B00043D004286BD184E0606CFF283CD100BF5C
:1046C00000BF00BFFBF7AAFD814600BFFCF770F9F1
:1046D00000BFDD480078401EDB49087008460078BE
:1046E000D0B9FFF7F5F9DA48008800280BDD00BFE4
:1046F000FCF778F900BF4846FBF794FD00BF00BF08
:10470000FFF7AAF911E000BFFCF76CF900BF4846BB
:10471000FBF788FD00BF08E000BFFCF763F900BFAE
:104720004846FBF77FFD00BF00BF00BF46F6C550FF
:1047300028800020BDE8F88385E04FF6FF71606CAB
:1047400088423DD100BF00BF00BFFBF767FD814637
:1047500000BFFCF72DF900BFBB480078401EBA49E6
:10476000087008460078E0B9FFF7B2F9B848008849
:1047700000280DDD00BFFCF735F900BF4846FBF708
:1047800051FD00BF00BFFFF767F913E0E2E159E018
:1047900000BFFCF727F900BF4846FBF743FD00BF09
:1047A00008E000BFFCF71EF900BF4846FBF73AFDE2
:1047B00000BF00BF00BF46F6C55028800020B9E703
:1047C00041E0606C401CD8BB00BF00BF00BFFBF7DE
:1047D00025FD814600BFFCF7EBF800BF9A48007842
:1047E000401E9949087008460078D0B9FFF770F963
:1047F0009748008800280BDD00BFFCF7F3F800BFE6
:104800004846FBF70FFD00BF00BFFFF725F911E099
:1048100000BFFCF7E7F800BF4846FBF703FD00BF09
:1048200008E000BFFCF7DEF800BF4846FBF7FAFCE3
:1048300000BF00BF00BF46F6C5502880002079E7C2
:10484000FFE700E000BF00BF606C401C6064666C66
:1048500000BF00BF00BFFBF7E1FC814600BFFCF7D3
:10486000A7F800BF78480078401E774908700846CE
:104870000078F8B9FFF72CF975480088002810DD9A
:1048800000BFFCF7AFF800BF4846FBF7CBFC03E0E6
:104890001EE01CE01AE018E000BF00BFFFF7DCF8E4
:1048A00011E000BFFCF79EF800BF4846FBF7BAFCDA
:1048B00000BF08E000BFFCF795F800BF4846FBF7D3
:1048C000B1FC00BF00BF00BF80E100BF00BF00BF60
:1048D00094F8340007282CD100231A4621461846A4
:1048E0000097FEF74AFF666C00BF00BF00BFFBF7F2
:1048F00095FC814600BFFCF75BF800BF524800788A
:10490000401E514908700846007808B9FFF7E0F8E2
:1049100000BFFCF767F800BF4846FBF783FC00BF09
:1049200000BF00BF08F40040002801D1FCF7ECFFF5
:104930000FE10420012804D0022842D0042872D1BB
:1049400089E0606CFF283BD100BF00BF00BFFBF7D0
:1049500065FC814600BFFCF72BF800BF3A480078A1
:10496000401E3949087008460078D0B9FFF7B0F802
:104970003748008800280BDD00BFFCF733F800BF84
:104980004846FBF74FFC00BF00BFFFF765F811E09A
:1049900000BFFCF727F800BF4846FBF743FC00BF09
:1049A00008E000BFFCF71EF800BF4846FBF73AFCE2
:1049B00000BF00BF00BF46F6C55028800020B9E602
:1049C0008BE04FF6FF71606C884243D100BF00BF9F
:1049D00000BFFBF723FC814600BFFBF7E9FF00BFE8
:1049E00019480078401E1849087008460078D8B960
:1049F000FFF76EF81648008800280BDD00BFFBF7B4
:104A0000F1FF00BF4846FBF70DFC00BF00BFFFF7FA
:104A100023F812E000BFFBF7E5FF00BF4846FBF7B5
:104A200001FC00BF09E057E000BFFBF7DBFF00BF60
:104A30004846FBF7F7FB00BF00BF00BF46F6C55076
:104A40002880002076E60000B40000200401002049
:104A50009000002041E0606C401CD8BB00BF00BF4C
:104A600000BFFBF7DBFB814600BFFBF7A1FF00BFE8
:104A700058480078401E5749087008460078D0B959
:104A8000FFF726F85448008800280BDD00BFFBF72D
:104A9000A9FF00BF4846FBF7C5FB00BF00BFFEF7FC
:104AA000DBFF11E000BFFBF79DFF00BF4846FBF7AF
:104AB000B9FB00BF08E000BFFBF794FF00BF48460A
:104AC000FBF7B0FB00BF00BF00BF46F6C550288013
:104AD00000202FE6FFE700E000BF00BF606C401C35
:104AE0006064666C00BF00BF00BFFBF797FB8146A8
:104AF00000BFFBF75DFF00BF36480078401E354918
:104B0000087008460078D0B9FEF7E2FF3248008806
:104B100000280BDD00BFFBF765FF00BF4846FBF731
:104B200081FB00BF00BFFEF797FF11E000BFFBF75E
:104B300059FF00BF4846FBF775FB00BF08E000BF08
:104B4000FBF750FF00BF4846FBF76CFB00BF00BF00
:104B500000BF3BE000BF00BF00BFFBF75FFB81462B
:104B600000BFFBF725FF00BF1A480078401E194917
:104B7000087008460078D0B9FEF7AAFF16480088EA
:104B800000280BDD00BFFBF72DFF00BF4846FBF7F9
:104B900049FB00BF00BFFEF75FFF11E000BFFBF75E
:104BA00021FF00BF4846FBF73DFB00BF08E000BF08
:104BB000FBF718FF00BF4846FBF734FB00BF00BF00
:104BC00000BF46F62D602880002600BF00BF30469B
:104BD000B0E50000B40000209000002070B504464D
:104BE0000D46002600BF00BFFBF718FB064600BFBE
:104BF000FBF7DEFE00BF0CB95A480468594800684C
:104C0000844210D15848007800280CDD00BFFBF723
:104C1000E9FE00BF3046FBF705FB00BF00BF46F6CC
:104C20006350288070BD0020288094F83600082842
:104C300073D2DFE800F0044252627374757600BFED
:104C400049480078401C4849087008460078012807
:104C500001D1FEF72FFF00BFFBF7C4FE00BF3046B7
:104C6000FBF7E0FA00BF00BF00BF042084F8360065
:104C7000012084F88A002046FEF7C0FE00BF00BF76
:104C800000BFFBF7CBFA064600BFFBF791FE00BF63
:104C900035480078401E344908700846007808B945
:104CA000FEF716FF00BFFBF79DFE00BF3046FBF787
:104CB000B9FA00BF00BF00BF4FE0052084F83600FE
:104CC000012084F88A0000BFFBF78CFE00BF30464D
:104CD000FBF7A8FA00BF00BF3FE0062084F83600CB
:104CE000012084F88A0000BFFBF77CFE00BF30463D
:104CF000FBF798FA00BF00BF2FE0072084F83600CA
:104D0000012084F88A0000BFFBF76CFE00BF30462C
:104D1000FBF788FA00BF00BF1FE011E000BF00BF33
:104D200000BF94F88A00401C84F88A0000BFFBF79B
:104D300059FE00BF3046FBF775FA00BF00BF0CE01C
:104D400000BFFBF74FFE00BF3046FBF76BFA00BF1A
:104D500000BF46F62D60288064E700BFFCF7D4FD55
:104D600000BF5FE704010020B4000020002108E03C
:104D7000064A02EBC100002202608280C2804A1C07
:104D800091B2034A12889142F2DB7047D419002095
:104D90004C5F00082DE9F04F0C4616461D46042EC8
:104DA0001ED1DFF8A091D9F80090A4EB0909A9F170
:104DB000010313F5803F0DD94FF00009C0F84C9066
:104DC000C0F85090C0F81C9047F27E29A5F80090DA
:104DD000BDE8F08FC46403F10109C0F850903FE0D2
:104DE00084B3082E25D1D0F8489009EB0407DFF8EA
:104DF0005491D9F80090A7EB0909A9F10103A34246
:104E000001D2C76406E0DFF83C91D9F80090A144D4
:104E1000C0F84C90DFF82CA1D0F84C90DAF800A044
:104E2000A9EB0A09C0F85090D0F84C90C0F848900F
:104E300016E0DFF81091D9F80090A144C0F84C902A
:104E400004650DE0FFE74FF00009C0F84C90C0F892
:104E50005090C0F81C9047F27E29A5F80090B7E763
:104E6000DFF8E4A0BAF800A0D0F84C90B9FBFAFB48
:104E70000AFB1B991FFA89F8DFF8D09009EBC802EA
:104E8000B2F80490B9F1000F0BD14FF00009C0F84F
:104E90001490C0F8189010604FF00109A2F8049027
:104EA0003EE0116834E0DFF89CA0D1F84C90DAF8CD
:104EB00000A0A9EB0A09C1F85090D0F85090D1F8A1
:104EC00050A0D1450ED9D1F81490B9F1000F01D0FE
:104ED00049691DE04FF00009C0F8149081614861F4
:104EE000002115E0D1F81890B9F1000F07D14FF06B
:104EF0000009C0F8189041618861106007E0D1F89E
:104F000018C0C0F818C04161CCF8140088610021B5
:104F10000029C8D1B2F8049009F10109A2F804905F
:104F2000B2F80690B2F804A0D14503DAB2F80490C2
:104F3000A2F80690C2614FF00009A5F8009000BFEA
:104F400046E70000E40000204C5F0008D419002070
:104F500010B5C269BAB1002404651468844205D151
:104F60004169116039B100248C6104E081694369B1
:104F70004B6103B19961002444618461C461C464DC
:104F80009488641E948010BD002006E0054A02EB60
:104F9000C0010022CA80421C90B2034A128890428B
:104FA000F4DB7047D41900204C5F00082DE9F05F56
:104FB0004FF0000B00BF00BF00BFFBF72FF9834687
:104FC00000BFFBF7F5FC00BF7A480078401C794928
:104FD000087008460078012801D1FEF76BFD00BF7C
:104FE000FBF700FD00BF5846FBF71CF900BF00BFF0
:104FF00000BFFBF721FD05466F480068401C6E4965
:105000000860084600686D490988B0FBF1F201FBB1
:1050100012001FFA80FA6A4800EBCA08D8F800406C
:10502000002782E0002C7FD0D4F8149094F836004A
:10503000082875D2DFE800F00408051B063D07507C
:1050400000BF00BF00BF6CE05B49E06C0968401A1C
:1050500020655949E06C0968884206D1002084F82F
:1050600036002046FFF70EFA00E0012759E05249CA
:10507000E06C0968401A20654F49E06C0968884275
:1050800015D10020E065A4F86000FBF7D5FC206492
:105090002046FEF739FB2046FFF7F4F900203434B0
:1050A000A07003206070002004F8340900E001279C
:1050B00037E04149E06C0968401A20653E49E06CE0
:1050C0000968884206D1042084F836002046FFF79C
:1050D0003FFF00E0012724E03749E06C0968401AEF
:1050E00020653549E06C0968884217D10020E065E9
:1050F000A4F86000FBF7A0FC20642046FEF704FB48
:105100002046FFF725FF04203434A0700320607090
:10511000002004F8340902E006E001E0012700E085
:1051200000BF00BF4C4600E00127002F3FF47AAFDC
:10513000FBF782FC461B23480068B04201D221489D
:10514000066000BF00BF00BFFBF768F8834600BFE2
:10515000FBF72EFC00BF17480078401E1549087069
:1051600008460078D0B9FEF7B3FC1748008800283D
:105170000BDD00BFFBF736FC00BF5846FBF752F8CB
:1051800000BF00BFFEF768FC11E000BFFBF72AFC80
:1051900000BF5846FBF746F800BF08E000BFFBF72A
:1051A00021FC00BF5846FBF73DF800BF00BF00BF21
:1051B000BDE8F09FB4000020E40000204C5F000830
:1051C000D4190020E8000020900000201CB500BF8A
:1051D0000EE001AB6A4600210846FCF7ABFFBDF8C4
:1051E000040028B903480078012801D1FFF7DEFE4A
:1051F000EFE700008400002010B58AB004460020CC
:105200001D4908601D490860FFF7B0FD1C48006893
:1052100020B947F2122020800AB010BD194800685A
:1052200019490968884203D247F213202080F3E726
:10523000164800781F2803D347F211202080EBE79F
:105240000B20002105910A46CDE9070406910D487F
:1052500000680F4909680A4B1B68CDE90131CDE9A7
:1052600003020A48007800230A4A0BA100900F4865
:10527000FCF7EEFC00BFCFE7E4000020E8000020D0
:105280003C5F0008445F0008305F0008385F00089A
:10529000405F0008CD51000875432F4F532D4949F9
:1052A00049205469636B205461736B00C82000204F
:1052B00070B58AB004460020314908603148006862
:1052C00040B1314800682F490968B0FBF1F02F491F
:1052D000086006E02C4800680A21B0FBF1F02B4979
:1052E00008602A4800682A490860002029490860A7
:1052F00029490860002508E0284800EBC506002081
:10530000B080F0803060681C85B2254800888542F6
:10531000F2DB2448006820B947F2473020800AB009
:1053200070BD2148006821490968884203D247F2CC
:1053300048302080F3E71E4800781F2803D347F247
:1053400046302080EBE70B2000210591CDE90704D2
:105350000691084614490968164A1268114B1B68E1
:10536000CDE90132CDE90310114800780023124A3B
:1053700012A100901748FCF76BFC00BFCFE70000BC
:10538000EC000020585F0008345F0008FC0000209B
:1053900000010020F8000020F40000205C1C002028
:1053A0006C5F00085C5F0008645F0008305F000805
:1053B000545F0008605F0008CD54000875432F4F0C
:1053C000532D4949492054696D6572205461736BAE
:1053D0000000000090210020F0B50C46022680F865
:1053E0002A60012C05D12D4F466A3F683E448661F4
:1053F0000CE0066A2EB9294F466A3F683E44866132
:1054000004E0264F066A3F683E448661244F3F8889
:105410008669B6FBF7FC07FB1C66B5B2214E06EBAE
:10542000C502166836B9002606614661106001267D
:1054300096802CE0194F86693F68F61BC66111689B
:1054400020E0164F8E693F68F61BCE61C669CF69B2
:10545000BE4209D90E690EB1096913E00026066142
:105460004161086100210DE04E692EB900264661B8
:1054700001614861106004E04B694361016118619A
:10548000486100210029DCD19688761C9680D68858
:105490009788BE4201DA9688D680F0BDF8000020D9
:1054A0006C5F00085C1C0020002006E0054A02EB4F
:1054B000C0010022CA80421C90B2034A1288904266
:1054C000F4DB70475C1C00206C5F00081CB500BF5B
:1054D00053E001AB6A4600210846FCF72BFE01A809
:1054E000FCF766FAFBF7A8FA064624480068401C59
:1054F000224908600846006821490988B0FBF1F29A
:1055000001FB12001FFA80FA1E4800EBCA08D8F807
:1055100000404FF0000B21E0F4B1D4F8109017498F
:10552000A0690968884214D1204600F02FF8208D28
:10553000022804D101212046FFF74EFF02E003209C
:1055400084F82A00A56815B12046E168A8474C46B2
:1055500004E04FF0010B01E04FF0010BBBF1000F35
:10556000DAD0FBF769FA871B01A8FCF75FFA064857
:105570000068B84201D204480760AAE7F80000209A
:105580006C5F00085C1C0020F4000020F0B5114E98
:1055900036888569B5FBF6F706FB1755ACB20E4D9C
:1055A00005EBC4021568854205D10169116039B166
:1055B00000254D6104E0416903690B6103B1596144
:1055C000012580F82A5000250561456195886D1EEA
:1055D0009580F0BD6C5F00085C1C002029B1064A74
:1055E00092690243044B9A6104E0034A9269824340
:1055F000014B9A61704700000010024029B1064A31
:10560000D2680243044BDA6004E0034AD268824362
:10561000014BDA60704700000010024030B50021F5
:105620000022002400232D4D6D6805F00C0121B1EE
:10563000042905D0082923D105E0294D056022E081
:10564000274D05601FE0254D6D6805F47012234D50
:105650006D6805F48034022505EB92421CB9214D9A
:10566000554305600BE01D4D6D6805F400351DB117
:105670001C4D5543056002E0194D5543056002E09D
:10568000174D056000BF00BF144D6D6805F0F001B7
:105690000909154D6B5C0568DD4045600F4D6D686F
:1056A00005F4E061090A104D6B5C4568DD408560DA
:1056B0000A4D6D6805F46051C90A0B4D6B5C456875
:1056C000DD40C560054D6D6805F44041890B074D0F
:1056D0006B5CC568B5FBF3F5056130BD0010024099
:1056E00000127A0000093D00140000202400002070
:1056F000704710B500F002F810BD00000CB5002096
:10570000019000903348006840F4803031490860CF
:1057100000BF3048006800F4003000900198401C41
:105720000190009818B90198B0F5A06FF1D12948FF
:10573000006800F4003010B10120009001E000206A
:1057400000900098012843D12348006840F01000E1
:10575000214908600846006820F0030008600846F8
:10576000006840F0020008601A4840681949486023
:105770000846406848600846406840F480604860D9
:105780000846406820F47C1048600846406840F4B1
:10579000E81048600846006840F08070086000BF6C
:1057A0000C48006800F000700028F9D009484068F3
:1057B00020F00300074948600846406840F00200B6
:1057C000486000BF0348406800F00C000828F9D189
:1057D0000CBD00000010024000200240042808D147
:1057E0004FF0E021096941F004014FF0E02211611E
:1057F00007E04FF0E021096921F004014FF0E022B9
:105800001161704710B505480078012805D1FBF7F4
:10581000F3FFFDF7B7F8FCF705F810BD8400002092
:1058200010B51348006840F00100114908600846AF
:105830004068104908400E494860084600680E4913
:1058400008400B4908600846006820F48020086082
:105850000846406820F4FE0048604FF41F0088604E
:10586000FFF747FF4FF000600449086010BD0000DB
:10587000001002400000FFF8FFFFF6FE08ED00E018
:105880000EB50FE002A8082100230122CDE9001087
:1058900019461846FCF742FF02AB002201210248DC
:1058A000FBF788FEEEE700002C0800200EB513E0A1
:1058B00002A800210A230A46CDE900100846FCF799
:1058C0002DFF0020FBF7DEF9012805D102AB0022F5
:1058D00002210248FBF76EFEEAE700002C080020D8
:1058E0000EB515E002A800214FF484730A46CDE9F5
:1058F000001007210748FBF715FB02A8FDF724F865
:105900000546FBF729FA044629462046FBF77CF9B1
:10591000E8E700002C08002010B58AB0044609AB67
:10592000002227A12948FBF78BFA09A803210022AE
:105930000592CDE906210890104640210822244B0B
:10594000CDE90132CDE9031005200023214A22A12F
:1059500000902448FCF77CF909A803210022059255
:10596000CDE9062108901046402108221E4BCDE9C2
:105970000132CDE90310042000231C4A1CA1009031
:105980001E48FCF765F909A8032100220592CDE91C
:1059900006210890104640210822194BCDE901321A
:1059A000CDE9031006200023164A17A100901948DC
:1059B000FCF74EF909A91848FCF7A0FA0AB010BD87
:1059C00053616D706C65466C616700002C080020A7
:1059D0009C030020815800085461736B4379636C09
:1059E00065000000D402002064050020AD580008C6
:1059F0005461736B4669656C640000009C04002070
:105A00002C070020E15800085461736B53616D70DE
:105A10006C650000640600200C01002010B586B003
:105A20000446012144F20400FFF7D8FD4FF4007052
:105A3000ADF8140018208DF8170001208DF816001D
:105A400005A92048FAF7FFFF4FF48060ADF8140075
:105A500004208DF8170001208DF8160005A91948BB
:105A6000FAF7F1FF01940020ADF810000C20ADF81A
:105A70000E000020ADF80C00ADF80A00ADF80800EB
:105A800001A9114800F0CAF84FF4A060FBF7CCF967
:105A900025208DF8000001208DF803008DF801000D
:105AA0008DF802006846FBF787F9012240F2255184
:105AB000054800F08DF80121034800F053F806B0C6
:105AC00010BD0000000801400038014038B5FBF768
:105AD00093FE40F22551204800F050F8002838D0BD
