:020000040800F2
:1000000050070020CD010008FD040008D9030008B6
:10001000F9040008B50200087F070008000000008E
:1000200000000000000000000000000021050008A2
:10003000B902000800000000FF04000835060008AF
:10004000E7010008E7010008E7010008E7010008F0
:10005000E7010008E7010008E7010008E7010008E0
:10006000E7010008E7010008E7010008E7010008D0
:10007000E7010008E7010008E7010008E7010008C0
:10008000E7010008E7010008E7010008E7010008B0
:10009000E7010008E7010008E7010008E7010008A0
:1000A000E7010008E7010008E7010008E701000890
:1000B000E7010008E7010008E7010008E701000880
:1000C000E7010008E7010008E7010008E701000870
:1000D000E701000899060008E7010008E7010008A9
:1000E000E7010008E7010008E7010008E701000850
:1000F000E7010008E7010008E7010008E701000840
:10010000E7010008E7010008E7010008E70100082F
:10011000E7010008E7010008E7010008E70100081F
:10012000E7010008E7010008E7010008E70100080F
:1001300000F002F800F03AF80AA090E8000C8244BF
:100140008344AAF10107DA4501D100F02FF8AFF29C
:10015000090EBAE80F0013F0010F18BFFB1A43F0A5
:10016000010318472807000048070000103A24BF81
:1001700078C878C1FAD8520724BF30C830C144BF0C
:1001800004680C607047000000230024002500264E
:10019000103A28BF78C1FBD8520728BF30C148BFEA
:1001A0000B6070471FB51FBD10B510BD00F033F8D0
:1001B0001146FFF7F7FF00F031FB00F051F803B4F0
:1001C000FFF7F2FF03BC00F0DCFA000009488047AB
:1001D00009480047FEE7FEE7FEE7FEE7FEE7FEE729
:1001E000FEE7FEE7FEE7FEE704480549054A064B41
:1001F0007047000039060008310100085001002056
:100200005007002050030020500300207047704723
:10021000704770477047754600F02CF8AE460500F1
:100220006946534620F00700854618B020B5FFF711
:10023000DBFFBDE820404FF000064FF000074FF015
:1002400000084FF0000B21F00701AC46ACE8C009F4
:10025000ACE8C009ACE8C009ACE8C0098D467047FD
:1002600010B50446AFF300802046BDE81040FFF70C
:10027000A6BF000000487047EC00002008B501212F
:10028000082000F03DF94FF48070ADF80000102018
:100290008DF8030003208DF802006946044800F041
:1002A0000CF84FF48071024800F092F808BD00008D
:1002B000000C014000BFFEE770472DE9F041024607
:1002C00000250026002000230024002791F803C009
:1002D0000CF00F0591F803C00CF0100CBCF1000FEE
:1002E00003D091F802C04CEA050591F800C0BCF1BA
:1002F000000F31D0146800202BE04FF0010C0CFAF5
:1003000000F3B1F800C00CEA03069E4220D183003E
:100310004FF00F0C0CFA03F7BC4305FA03FC4CEA50
:10032000040491F803C0BCF1280F06D14FF0010C72
:100330000CFA00FCC2F814C00AE091F803C0BCF14A
:10034000480F05D14FF0010C0CFA00FCC2F810C0A8
:10035000401C0828D1D31460B1F800C0BCF1FF0FD5
:1003600034DD546800202EE000F1080C4FF0010845
:1003700008FA0CF3B1F800C00CEA03069E4221D142
:1003800083004FF00F0C0CFA03F7BC4305FA03FC93
:100390004CEA040491F803C0BCF1280F05D100F128
:1003A000080C08FA0CF8C2F8148091F803C0BCF1EC
:1003B000480F07D100F1080C4FF0010808FA0CF8BB
:1003C000C2F81080401C0828CED35460BDE8F081EC
:1003D000416170470161704700BFFEE708B5012128
:1003E000442000F08DF80120ADF8000028208DF8A1
:1003F000030003208DF8020069460848FFF75DFFFF
:100400001820ADF8000048208DF8030003208DF877
:10041000020069460248FFF750FF08BD000801408E
:100420000018014010B5044614B1012019490870A4
:1004300018480078F8B11848006830B11648001F15
:10044000006810B115480068A8B10A2000F0C0F992
:100450000020104908701048006808B9012010BD3C
:100460000D48001F006808B90220F8E70B48006833
:1004700008B10320F3E70848006848B10648001FA8
:10048000006828B10548006810B9012001490870CA
:100490000020E4E700000020100123420001214277
:1004A00008B50121482000F02BF810208DF803003A
:1004B00003208DF802002020ADF8000069460C48AA
:1004C000FFF7FBFE20210A48FFF784FF10208DF87C
:1004D000030003208DF802002020ADF800006946DB
:1004E0000448FFF7EAFE20210248FFF773FF08BD2A
:1004F000000C01400018014000BFFEE77047704744
:1005000029B1064A92690243044B9A6104E0034A06
:1005100092698243014B9A617047000000100240CB
:10052000704710B500F002F810BD00000CB50020B7
:10053000019000903348006840F4803031490860F1
:1005400000BF3048006800F4003000900198401C63
:100550000190009818B90198B0F5A06FF1D1294821
:10056000006800F4003010B10120009001E000208C
:1005700000900098012843D12348006840F0100003
:10058000214908600846006820F00300086008461A
:10059000006840F0020008601A4840681949486045
:1005A0000846406848600846406840F480604860FB
:1005B0000846406820F47C1048600846406840F4D3
:1005C000E81048600846006840F08070086000BF8E
:1005D0000C48006800F000700028F9D00948406815
:1005E00020F00300074948600846406840F00200D8
:1005F000486000BF0348406800F00C000828F9D1AB
:100600000CBD00000010024000200240042808D168
:100610004FF0E021096941F004014FF0E02211613F
:1006200007E04FF0E021096921F004014FF0E022DA
:10063000116170477047000010B51348006840F022
:1006400001001149086008464068104908400E49F9
:100650004860084600680E4908400B490860084693
:10066000006820F4802008600846406820F4FE00FE
:1006700048604FF41F008860FFF753FF4FF00060A1
:100680000449086010BD0000001002400000FFF89F
:10069000FFFFF6FE08ED00E010B540F225511D48C1
:1006A00000F03EF810B31B4800F064F8C4B21A48DA
:1006B000008800F40040C8B91748008800F4804062
:1006C00060B10A2C03D000201349088020E01248B2
:1006D000008840F400401049088019E00D2C06D134
:1006E0000D48008840F480400B49088010E00A481B
:1006F0000088C0F30D0009490C5407480088401CCD
:100700000549088008460088C72801DD00200880C8
:1007100010BD00000038014020000020240000200F
:1007200070B50246002400230025002040F66A161A
:10073000B14200D100BFC1F3421501F01F030126F1
:1007400006FA03F3012D02D19689334006E0022D0B
:1007500002D1168A334001E0968A33400C120126FA
:1007600006FA04F41688344013B10CB1012000E0FD
:10077000002070BD01468888C0F30800704700BFA4
:10078000FEE7014600BF00207047000010B56FF083
:100790000400FFF73BFF0A4800680A49B0FBF1F08C
:1007A000094908700846007800EB4001C1EBC01011
:1007B0004FF6FF7101EAC0000449088010BD000037
:1007C0000400002000127A00180000201A00002007
:1007D0000146114A12884A434FF0E0235A61002231
:1007E0009A611A46126942F001021A6100BF4FF085
:1007F000E022106900F001021AB100F48032002AF0
:10080000F5D04FF0E022126922F001024FF0E02310
:100810001A6100229A6170471A000020FFF7B6FFA4
:10082000FFF73EFEFFF72AFDFFF7D8FD28E0002086
:10083000FFF7F8FD04461CB3012C15D0022C0AD09A
:10084000032C1CD10F48006808B9012000E00020EB
:100850000C49086013E00C48006808B9012000E06A
:100860000020094908600AE006480C38006808B909
:10087000012000E0002003490C39086000BF00BFE0
:10088000D5E70000A081214294012342AC08000872
:1008900000000020240000006C010008D0080008BF
:1008A000240000202C07000088010008010000003F
:1008B00000A24A040000000000000000010203043E
:1008C000060708090000000000000000000000000A
:0400000508000131BD
:00000001FF
