:020000040800F2
:1000000060070020D5010008F50900083B09000839
:10001000F10900081B0800081B0F00080000000081
:10002000000000000000000000000000810B00083C
:100030001F08000800000000690A0008950C00086D
:10004000EF010008EF010008EF010008EF010008D0
:10005000EF010008EF010008EF010008EF010008C0
:10006000EF010008EF010008EF010008EF010008B0
:10007000EF010008EF010008EF010008EF010008A0
:10008000EF010008EF010008EF010008EF01000890
:10009000EF010008EF010008EF010008EF01000880
:1000A000EF010008EF010008EF010008EF01000870
:1000B000EF010008EF010008EF010008EF01000860
:1000C000EF010008EF010008EF010008EF01000850
:1000D000EF010008F90C0008EF010008EF0100082B
:1000E000EF010008EF010008EF010008EF01000830
:1000F000EF010008EF010008EF010008EF01000820
:10010000EF010008EF010008EF010008EF0100080F
:10011000EF010008EF010008EF010008EF010008FF
:10012000EF010008EF010008EF010008EF010008EF
:1001300000F002F800F03FF80AA090E8000C8244BA
:100140008344AAF10107DA4501D100F034F8AFF297
:10015000090EBAE80F0013F0010F18BFFB1A43F0A5
:1001600001031847900F0000B00F0000103A24BFA1
:1001700078C878C1FAD8520724BF30C830C144BF0C
:1001800004680C607047000000230024002500264E
:10019000103A28BF78C1FBD8520728BF30C148BFEA
:1001A0000B607047752900F06B80002070471FB509
:1001B0001FBD10B510BD00F0B1F91146FFF7F7FFF4
:1001C00000F00EFF00F0CFF903B4FFF7F2FF03BC1D
:1001D00000F0ACFE0948804709480047FEE7FEE70B
:1001E000FEE7FEE7FEE7FEE7FEE7FEE7FEE7FEE7E7
:1001F00004480549054A064B70470000990C000861
:100200003101000860010020600700206003002029
:1002100060030020704700000FB4044910B503AA22
:10022000029800F04DF910BC5DF814FB2C00002082
:1002300070B5044685690068C10601D5302600E026
:100240002026C00707D070BDD4E901213046904771
:10025000206A401C20626D1EF6D570BD70B5044644
:1002600085690078C00707D170BDD4E9012120203D
:100270009047206A401C20626D1EF6D570BD0000BC
:100280002DE9F0410646002410687529314616A56F
:1002900010D0AFF30080002802DA404213A507E037
:1002A00031688A0701D512A502E0490704D511A5D6
:1002B000012401E0AFF3008000210A2206F12407A7
:1002C00009E0B0FBF2FCB0FBF2F302FB1C003030A3
:1002D00078541846491C0028F3D123462A46304654
:1002E000BDE8F04100F093B8000000002D000000D0
:1002F0002B000000200000002DE9F0474FF0000A1D
:1003000089460446C0F820A02046E16888470028B6
:1003100076D0252806D0D4E901219047206A401CD8
:100320002062F1E7E168204600258847C4F81CA058
:1003300006460027C4F818A02A2E09D0304600F03F
:10034000EEFD38B304EB8708303EC8F8186019E0BA
:1003500059F8041B204604EB87029161E168884745
:10036000012F064618D1E069002820DA25F0200583
:100370001DE0D8F8180000EB800006EB4000303894
:10038000C8F818002046E1688847064600F0C7FD17
:100390000028EED1012F0AD02E2E08D12046E16888
:1003A00088477F1C0646022F45F02005C4DBA06964
:1003B000002803DA404245F00105A061E80701D0BA
:1003C00025F01005B6B1A6F14100192802D8203653
:1003D00045F400654A463146204625604D46FFF704
:1003E000E1FE58B1012806D0ED1D25F0070000F10F
:1003F000080989E704E005F1040985E730468AE742
:10040000206ABDE8F08770477047704770472DE954
:10041000F0470D4699469246044600F124080168CB
:10042000880604D5E06921F01001216000E0012078
:10043000A84201DD471B00E00027A1697A1902EB01
:100440000900081AA0612078C00602D42046FFF7F0
:10045000EFFE002608E0D4E901211AF806009047D3
:10046000206A401C761C20624E45F4DB2078C006D2
:100470000AD52046FFF7DCFE06E0D4E90121302052
:100480009047206A401C2062381EA7F10107F4DC67
:1004900007E0D4E9012118F805009047206A401CC4
:1004A0002062281EA5F10105F3DC2046FFF7D6FEE9
:1004B0002078000602D50220BDE8F0870120FBE786
:1004C000074B70B50D467B4400F011F804462846F2
:1004D00000F020F810B14FF0FF3070BD204670BD25
:1004E000FB0A000001694A1C02610878704700B5E8
:1004F0008FB0CDE901310021059105497944CDE95D
:10050000031011466846FFF7F7FE0FB000BD00006C
:10051000E5FFFFFF007B00F080007047754600F0AC
:100520002BF8AE4605006946534620F00700854685
:1005300018B020B5FFF75CFEBDE820404FF0000684
:100540004FF000074FF000084FF0000B21F00701BB
:10055000AC46ACE8C009ACE8C009ACE8C009ACE8FE
:10056000C0098D46704710B50446AFF300802046A1
:10057000BDE81040FFF728BE00487047FC0000208F
:1005800010B50446072301222146094800F0D4F89B
:100590000121074800F031F900BF0221044800F0B2
:1005A0008FF80128F9D1024800F086F810BD00004C
:1005B000003C014000B585B00121C80300F056FAA7
:1005C0000121C80300F062FA00214FF4004000F05E
:1005D0005DFA164800F038F8002000908DF804000D
:1005E0008DF8050003904FF46020029001208DF8F3
:1005F000100069460D4800F077F801210B4800F023
:1006000017F80A4800F0F4F800BF084800F061F855
:100610000028FAD1054800F0FBF800BF034800F0BD
:1006200041F80028FAD105B000BD0000003C0140AF
:1006300021B1826842F00102826003E0826822F008
:10064000010282607047000010B5044612488442DF
:1006500008D10121401500F019FA0021601500F0C1
:1006600015FA17E00D48844208D10121001500F069
:100670000DFA0021201500F009FA0BE00848844229
:1006800008D10121C80300F001FA00214FF4004015
:1006900000F0FCF910BD00000024014000280140DA
:1006A000003C0140014600208A6802F004020AB1C1
:1006B000012000E0002070470146C86C80B27047FE
:1006C0000246002013680B400BB1012000E000201F
:1006D0007047014600208A6802F008020AB1012032
:1006E00000E000207047000030B5024600200023E3
:1006F00050680F4C20400D790C6844EA05242043D3
:10070000506090680B4C2040D1E902542C434D7945
:1007100044EA450420439060D06A20F470000C7CC9
:10072000641EE4B2234340EA0350D06230BD0000AF
:10073000FFFEF0FFFDF7F1FFF0B504460D46002087
:100740000021092D11DDE068A5F10A0606EB460738
:10075000072606FA07F18843A5F10A0606EB4606C6
:1007600003FA06F10843E0600CE0206905EB450759
:10077000072606FA07F1884305EB450603FA06F15A
:1007800008432061072A0FDA606B561E06EB8607C6
:100790001F2606FA07F18843561E06EB860605FA61
:1007A00006F10843606322E00D2A0FDA206BD61FA2
:1007B00006EB86071F2606FA07F18843D61F06EBCD
:1007C000860605FA06F10843206310E0E06AA2F10C
:1007D0000D0606EB86071F2606FA07F18843A2F1ED
:1007E0000D0606EB860605FA06F10843E062F0BD49
:1007F000816841F008018160704721B1826842F44C
:10080000A002826003E0826822F4A0028260704746
:10081000816841F004018160704700BFFEE77047C6
:100820002DE9F04102460025002600200023002487
:10083000002791F803C00CF00F0591F803C00CF0ED
:10084000100CBCF1000F03D091F802C04CEA050572
:1008500091F800C0BCF1000F31D0146800202BE0EB
:100860004FF0010C0CFA00F3B1F800C00CEA0306DB
:100870009E4220D183004FF00F0C0CFA03F7BC43CB
:1008800005FA03FC4CEA040491F803C0BCF1280FFC
:1008900006D14FF0010C0CFA00FCC2F814C00AE0BB
:1008A00091F803C0BCF1480F05D14FF0010C0CFAD0
:1008B00000FCC2F810C0401C0828D1D31460B1F865
:1008C00000C0BCF1FF0F34DD546800202EE000F1C1
:1008D000080C4FF0010808FA0CF3B1F800C00CEA5C
:1008E00003069E4221D183004FF00F0C0CFA03F750
:1008F000BC4305FA03FC4CEA040491F803C0BCF1C4
:10090000280F05D100F1080C08FA0CF8C2F8148081
:1009100091F803C0BCF1480F07D100F1080C4FF06B
:10092000010808FA0CF8C2F81080401C0828CED341
:100930005460BDE8F0810161704700BFFEE7000030
:1009400008B50121482000F091F810208DF803002F
:1009500003208DF802002020ADF8000069460C4805
:10096000FFF75EFF20210A48FFF7E5FF10208DF812
:10097000030003208DF802002020ADF80000694636
:100980000448FFF74DFF20210248FFF7D4FF08BDC0
:10099000000C01400018014070B50024002507E05C
:1009A0000620FFF7EDFD04440A2000F0E5FA6D1C77
:1009B000052DF5DB0520B4FBF0F4642060436421D1
:1009C000A1EB1030C0B270BD08B50121802000F04D
:1009D0004DF800208DF803004FF48070ADF8000052
:1009E00069460248FFF71CFF08BD0000001C0140DB
:1009F00000BFFEE77047000070B5002100230F2202
:100A0000C47804B3154C246804F4E064C4F5E064CD
:100A1000210AC1F10403CA40447804FA03F184783E
:100A20001440214309010E4C0678A155047804F0C6
:100A30001F050124AC4005786D11AD0005F1E025DE
:100A4000C5F8004109E0047804F01F050124AC401A
:100A5000044D0678761145F8264070BD0CED00E097
:100A600000E400E080E100E07047000029B1064AA0
:100A700092690243044B9A6104E0034A92698243FB
:100A8000014B9A61704700000010024029B1064AEC
:100A9000D2680243044BDA6004E0034AD26882431E
:100AA000014BDA60704700000010024030B50021B1
:100AB0000022002400232D4D6D6805F00C0121B1AA
:100AC000042905D0082923D105E0294D056022E03D
:100AD000274D05601FE0254D6D6805F47012234D0C
:100AE0006D6805F48034022505EB92421CB9214D56
:100AF000554305600BE01D4D6D6805F400351DB1D3
:100B00001C4D5543056002E0194D5543056002E058
:100B1000174D056000BF00BF144D6D6805F0F00172
:100B20000909154D6B5C0568DD4045600F4D6D682A
:100B300005F4E061090A104D6B5C4568DD40856095
:100B40000A4D6D6805F46051C90A0B4D6B5C456830
:100B5000DD40C560054D6D6805F44041890B074DCA
:100B60006B5CC568B5FBF3F5056130BD0010024054
:100B700000127A0000093D0014000020240000202B
:100B8000704710B500F002F810BD00000CB5002051
:100B9000019000903348006840F48030314908608B
:100BA00000BF3048006800F4003000900198401CFD
:100BB0000190009818B90198B0F5A06FF1D12948BB
:100BC000006800F4003010B10120009001E0002026
:100BD00000900098012843D12348006840F010009D
:100BE000214908600846006820F0030008600846B4
:100BF000006840F0020008601A48406819494860DF
:100C00000846406848600846406840F48060486094
:100C10000846406820F47C1048600846406840F46C
:100C2000E81048600846006840F08070086000BF27
:100C30000C48006800F000700028F9D009484068AE
:100C400020F00300074948600846406840F0020071
:100C5000486000BF0348406800F00C000828F9D144
:100C60000CBD00000010024000200240042808D102
:100C70004FF0E021096941F004014FF0E0221161D9
:100C800007E04FF0E021096921F004014FF0E02274
:100C9000116170477047000010B51348006840F0BC
:100CA00001001149086008464068104908400E4993
:100CB0004860084600680E4908400B49086008462D
:100CC000006820F4802008600846406820F4FE0098
:100CD00048604FF41F008860FFF753FF4FF000603B
:100CE0000449086010BD0000001002400000FFF839
:100CF000FFFFF6FE08ED00E010B540F225511D485B
:100D000000F04AF810B31B4800F002F9C4B21A48C8
:100D1000008800F40040C8B91748008800F48040FB
:100D200060B10A2C03D000201349088020E012484B
:100D3000008840F400401049088019E00D2C06D1CD
:100D40000D48008840F480400B49088010E00A48B4
:100D50000088C0F30D0009490C5407480088401C66
:100D60000549088008460088C72801DD0020088062
:100D700010BD000000380140300000203400002089
:100D800021B1828942F40052828104E082894DF6C9
:100D9000FF731A408281704770B502460024002319
:100DA0000025002040F66A16B14200D100BFC1F311
:100DB000421501F01F03012606FA03F3012D02D1AB
:100DC0009689334006E0022D02D1168A334001E0B5
:100DD000968A33400C12012606FA04F41688344031
:100DE00013B10CB1012000E0002070BDF0B5034646
:100DF000002400260025002040F66A17B94200D1E1
:100E000000BF1846C1F3421401F01F06012707FA7C
:100E100006F5012C01D10C3004E0022C01D1103078
:100E200000E014301AB107682F43076002E007683A
:100E3000AF430760F0BD00002DE9F04786B00546DE
:100E40000E460024A24600BFA1460027B08900B18B
:100E500000BF2F462C8A4CF6FF700440F0880443F4
:100E60002C82AC894EF6F3100440B08831890843D7
:100E7000718908430443AC81AC8A4FF6FF400440BB
:100E8000B0890443AC8201A8FFF710FE1F488742D7
:100E900002D1DDF810A001E0DDF80CA0A88900F473
:100EA000004040B10AEBCA0000EB0A10316849006B
:100EB000B0FBF1F807E00AEBCA0000EB0A1031685A
:100EC0008900B0FBF1F86420B8FBF0F004012009C0
:100ED000642101FB1089A88900F4004040B1322050
:100EE00000EBC900B0FBF1F000F00700044308E09C
:100EF000322000EB09106421B0FBF1F000F00F008C
:100F000004432C8106B0BDE8F087000000380140A2
:100F100001468888C0F30800704700BFFEE73038FC
:100F20000A2801D20120704700207047014600BF07
:100F30000020704710B56FF00400FFF797FE0A48D5
:100F400000680A49B0FBF1F00949087008460078CA
:100F500000EB4001C1EBC0104FF6FF7101EAC00089
:100F60000449088010BD00000000002000127A0033
:100F7000280000202A0000200146114A12884A4316
:100F80004FF0E0235A6100229A611A46126942F03A
:100F900001021A6100BF4FF0E022106900F0010267
:100FA0001AB100F48032002AF5D04FF0E022126925
:100FB00022F001024FF0E0231A6100229A6170478B
:100FC0002A00002000BF054A128802F04002002AD1
:100FD000F9D0C2B2014B1B1D1A8070470038014086
:100FE000FFF7A8FF4FF4E13000F034F8FFF7A8FC5A
:100FF000FFF7E0FAFFF7E8FC002415E0FFF7CCFC70
:1010000005462A46214609A0FFF706F91048006860
:1010100008B9012000E000200D4908604FF47A7003
:10102000FFF7AAFF601CC4B2E8E700004025337553
:10103000733A204E6F772074686520627269676822
:10104000746E6573732069732025752E0D0A000078
:101050009481214210B586B00446012144F2040077
:10106000FFF704FD4FF40070ADF8140003208DF875
:10107000160018208DF8170005A91C48FFF7D0FBB3
:101080004FF48060ADF8140004208DF8170005A916
:101090001648FFF7C5FB25208DF8000003208DF8CA
:1010A00001008DF8020001208DF803006846FFF76B
:1010B000A3FC01940020ADF80800ADF80A00ADF8DB
:1010C0000C00ADF810000C20ADF80E0001A9084886
:1010D000FFF7B2FE012240F225510548FFF786FED8
:1010E00001210348FFF74CFE06B010BD0008014087
:1010F00000380140141100080000002034000000F6
:101100006C01000848110008340000202C07000082
:101110008801000800A24A0400000000000000004E
:10112000010203040607080900000000010203048D
:101130000102030406070809020406080000000073
:081140000000000000000000A7
:0400000508000131BD
:00000001FF
