:020000040800F2
:1000000080070020CD010008C50700080906000888
:100010000D0600087D0200082F0D000800000000FA
:10002000000000000000000000000000910800082F
:1000300081020008000000004D080008250A0008A1
:10004000E7010008E7010008E7010008E7010008F0
:10005000E7010008E7010008E7010008E7010008E0
:10006000E7010008E7010008E7010008E7010008D0
:10007000E7010008E7010008E7010008E7010008C0
:10008000E7010008E7010008E7010008E7010008B0
:10009000E7010008E7010008E70100088502000801
:1000A000E7010008E7010008E7010008E701000890
:1000B000890A0008E10A0008E7010008E7010008D2
:1000C000E7010008E7010008E7010008E701000870
:1000D000E7010008490C0008E7010008E7010008F3
:1000E000E7010008E7010008E7010008E701000850
:1000F000E7010008E7010008E7010008E701000840
:10010000E7010008E7010008E7010008E70100082F
:10011000E7010008E7010008210B0008E7010008DB
:10012000E7010008E7010008E7010008E70100080F
:1001300000F002F800F03AF80AA090E8000C8244BF
:100140008344AAF10107DA4501D100F02FF8AFF29C
:10015000090EBAE80F0013F0010F18BFFB1A43F0A5
:1001600001031847B8120000D8120000103A24BF4B
:1001700078C878C1FAD8520724BF30C830C144BF0C
:1001800004680C607047000000230024002500264E
:10019000103A28BF78C1FBD8520728BF30C148BFEA
:1001A0000B6070471FB51FBD10B510BD00F033F8D0
:1001B0001146FFF7F7FF00F02FFE00F051F803B4EF
:1001C000FFF7F2FF03BC00F0B4FD000009488047D0
:1001D00009480047FEE7FEE7FEE7FEE7FEE7FEE729
:1001E000FEE7FEE7FEE7FEE704480549054A064B41
:1001F00070470000290A0008310100088001002032
:100200008007002080030020800300207047704793
:10021000704770477047754600F02CF8AE460500F1
:100220006946534620F00700854618B020B5FFF711
:10023000DBFFBDE820404FF000064FF000074FF015
:1002400000084FF0000B21F00701AC46ACE8C009F4
:10025000ACE8C009ACE8C009ACE8C0098D467047FD
:1002600010B50446AFF300802046BDE81040FFF70C
:10027000A6BF0000004870472001002000BFFEE735
:100280007047000010B50848006840420649086001
:10029000422000F0BDF9802000F008F84FF4807093
:1002A00000F004F810BD00000800002001490860BB
:1002B0007047000014040140002123498279002A7C
:1002C0003AD00A46126803689A430B461A600A1D20
:1002D000126803689A430B1D1A60027911440A6878
:1002E00003681A430A60184A0832126803689A437E
:1002F000154B08331A601A1D126803689A43124B93
:100300000C331A604279102A0ED11A1F1268036842
:100310001A430D4B08331A601A1D126803681A43FA
:10032000094B0C331A600DE00749427911440A6801
:1003300003681A430A6005E0027911440A680368F9
:100340009A430A60704700000004014030B5002263
:100350008B071C0F0F2303FA04F20B4B8C1053F87E
:1003600024309343084C8D1044F8253023468C10DC
:1003700053F824308C07240F00FA04F42343024C72
:100380008D1044F8253030BD080001402DE9F041C2
:10039000024600250026002000230024002791F8B3
:1003A00003C00CF00F0591F803C00CF0100CBCF169
:1003B000000F03D091F802C04CEA050591F800C087
:1003C000BCF1000F31D0146800202BE04FF0010C7D
:1003D0000CFA00F3B1F800C00CEA03069E4220D1EB
:1003E00083004FF00F0C0CFA03F7BC4305FA03FC33
:1003F0004CEA040491F803C0BCF1280F06D14FF079
:10040000010C0CFA00FCC2F814C00AE091F803C019
:10041000BCF1480F05D14FF0010C0CFA00FCC2F8FA
:1004200010C0401C0828D1D31460B1F800C0BCF142
:10043000FF0F34DD546800202EE000F1080C4FF06F
:10044000010808FA0CF3B1F800C00CEA03069E425A
:1004500021D183004FF00F0C0CFA03F7BC4305FACF
:1004600003FC4CEA040491F803C0BCF1280F05D149
:1004700000F1080C08FA0CF8C2F8148091F803C0D7
:10048000BCF1480F07D100F1080C4FF0010808FA41
:100490000CF8C2F81080401C0828CED35460BDE888
:1004A000F081416170470161704700002DE9F0471C
:1004B00000BF012022490860142000F087FC0020C2
:1004C0002049C1F8940100BF1D487C38006800280D
:1004D000FAD000211C4800F063FB00201B49088073
:1004E0000121194800F033FB00BF15487C38006833
:1004F0000128FAD00021144800F029FB1348008895
:100500004FF47A7100FB01FA0F4800F02CFB824493
:1005100000210D4800F044FB504600F0FBFD06466C
:100520000B4A0C4B00F046FE804600224FF0804301
:1005300000F098FC04460D4620462946BDE8F087A9
:1005400094012142000021420010004034000020AC
:100550009CC420B07268A13F00B585B00121042081
:1005600000F086F92020ADF8100003208DF812006D
:1005700010208DF8130004A92148FFF707FF402041
:10058000ADF8100003208DF8120004208DF8130040
:1005900004A91B48FFF7FAFE60211948FFF781FF05
:1005A0000121102000F054F940F2E730ADF80800C6
:1005B0004720ADF804000020ADF80A00ADF80600B1
:1005C00001A9104800F0EEFA4FF4A06000F034F9F1
:1005D00036208DF8000001208DF801008DF8020012
:1005E0008DF80300684600F0EFF801221146054837
:1005F00000F0CDFA0021034800F0A9FA05B000BDD3
:10060000000801400010004000BFFEE700BFFEE709
:1006100010B50446412C04D10F210548FFF741FFD6
:1006200005E0422C03D1F0210148FFF73AFF10BD4D
:100630000010014030B585B005460C460121102060
:1006400000F016F910208DF8130001208DF812002B
:10065000FF20ADF8100004A92248FFF797FEFF2104
:100660002048FFF71EFF0121032000F0F1F80020D1
:10067000ADF80A00ADF80600ADF80850ADF804403A
:1006800001A94FF0804000F08DFA01A9164800F052
:1006900089FA1C208DF8000001208DF803008DF8E8
:1006A000010002208DF80200684600F08DF81D2040
:1006B0008DF80000684600F087F801221146900787
:1006C00000F065FA01221146074800F060FA0121A6
:1006D000880700F03CFA0121034800F038FA05B021
:1006E00030BD0000001001400004004010B5044679
:1006F000412C0CD10F211548FFF7D3FE1448154AA1
:10070000126830F812101148FFF7CDFE11E0422CAC
:100710000FD1F0210D48FFF7C4FE0D480D4A1268B5
:1007200030F812004FF6FF7202EA00110748FFF797
:10073000BAFE08490968481CC11700EB5171C9107D
:10074000A0EBC101034A116010BD00000010014080
:100750001C0000203000002010B50446412C0CD1B4
:100760000F211548FFF79DFE1448154A126830F80E
:1007700012101148FFF797FE11E0422C0FD1F02123
:100780000D48FFF78EFE0D480D4A126830F8120032
:100790004FF6FF7202EA00110748FFF784FE08498E
:1007A0000968481CC11700EB5171C910A0EBC101C9
:1007B000034A116010BD0000001001400C00002031
:1007C0002C0000207047000070B5002100230F228C
:1007D000C47804B3154C246804F4E064C4F5E06400
:1007E000210AC1F10403CA40447804FA03F1847871
:1007F0001440214309010E4C0678A155047804F0F9
:100800001F050124AC4005786D11AD0005F1E02510
:10081000C5F8004109E0047804F01F050124AC404C
:10082000044D0678761145F8264070BD0CED00E0C9
:1008300000E400E080E100E002490143024A116067
:10084000704700000000FA050CED00E07047000062
:1008500029B1064AD2690243044BDA6104E0034A33
:10086000D2698243014BDA617047000000100240F8
:1008700029B1064A92690243044B9A6104E0034A93
:1008800092698243014B9A61704700000010024058
:10089000704710B500F002F810BD00000CB5002044
:1008A000019000903348006840F48030314908607E
:1008B00000BF3048006800F4003000900198401CF0
:1008C0000190009818B90198B0F5A06FF1D12948AE
:1008D000006800F4003010B10120009001E0002019
:1008E00000900098012843D12348006840F0100090
:1008F000214908600846006820F0030008600846A7
:10090000006840F0020008601A48406819494860D1
:100910000846406848600846406840F48060486087
:100920000846406820F47C1048600846406840F45F
:10093000E81048600846006840F08070086000BF1A
:100940000C48006800F000700028F9D009484068A1
:1009500020F00300074948600846406840F0020064
:10096000486000BF0348406800F00C000828F9D137
:100970000CBD000000100240002002401FB5012104
:100980000520FFF775FF4FF4C070ADF80C00022092
:100990008DF80E0048208DF80F0003A91648FFF7C8
:1009A000F5FC07210020FFF7D1FC08210020FFF70C
:1009B000CDFC8020019001208DF80A0000208DF8E8
:1009C00008000C208DF8090001A8FFF775FC4FF412
:1009D0008070019001A8FFF76FFC17208DF80000D0
:1009E00001208DF803008DF8010000208DF8020031
:1009F0006846FFF7E9FE1FBD00080140042808D142
:100A00004FF0E021096941F004014FF0E02211614B
:100A100007E04FF0E021096921F004014FF0E022E6
:100A2000116170477047000010B51348006840F02E
:100A300001001149086008464068104908400E4905
:100A40004860084600680E4908400B49086008469F
:100A5000006820F4802008600846406820F4FE000A
:100A600048604FF41F008860FFF713FF4FF00060ED
:100A70000449086010BD0000001002400000FFF8AB
:100A8000FFFFF6FE08ED00E010B50121880700F039
:100A90006DF801281CD100220E4B0F4903C900F04C
:100AA00087FC03D24120FFF757FE0DE000220B4BDD
:100AB000094903C900F042FB03D24120FFF716FEAB
:100AC00002E04120FFF7A4FD0121880700F03CF877
:100AD00010BD000000002440000000200000144071
:100AE00010B501210C4800F041F8012812D10B4843
:100AF0000068012803D14220FFF72EFE06E00748D8
:100B00000068401C10B94220FFF7F0FD01210248A7
:100B100000F01AF810BD000000040040080000209A
:100B200010B50121064800F021F840B10121044828
:100B300000F00AF803480088401C0249088010BDF4
:100B40000010004034000020CA430282704721B1E7
:100B5000028842F00102028004E002884FF6FE7330
:100B60001A40028070470146888C704730B50246B3
:100B7000002000230024158A05EA0103958905EA6F
:100B8000010413B10CB1012000E0002030BD1AB106
:100B900083890B43838102E083898B438381704780
:100BA00081847047002202881D4B98420ED01D4B55
:100BB00098420BD0B0F1804F08D01B4B984205D023
:100BC0001A4B984202D01A4B984204D14FF68F73B9
:100BD0001A404B881A43174B984207D0164B98423D
:100BE00004D04FF6FF431A40CB881A4302808B880B
:100BF00083850B8803850A4B98420BD0094B98429A
:100C000008D00E4B984205D00D4B984202D00D4BA8
:100C1000984201D10B7A038601238382704700003A
:100C2000002C014000340140000400400008004056
:100C3000000C004000100040001400400040014043
:100C4000004401400048014010B540F225511D48C4
:100C500000F03EF810B31B4800F064F8C4B21A4824
:100C6000008800F40040C8B91748008800F48040AC
:100C700060B10A2C03D000201349088020E01248FC
:100C8000008840F400401049088019E00D2C06D17E
:100C90000D48008840F480400B49088010E00A4865
:100CA0000088C0F30D0009490C5407480088401C17
:100CB0000549088008460088C72801DD0020088013
:100CC00010BD0000003801405400002058000020F2
:100CD00070B50246002400230025002040F66A1665
:100CE000B14200D100BFC1F3421501F01F0301263C
:100CF00006FA03F3012D02D19689334006E0022D56
:100D000002D1168A334001E0968A33400C12012644
:100D100006FA04F41688344013B10CB1012000E047
:100D2000002070BD01468888C0F30800704700BFEE
:100D3000FEE7014600BF00207047000010B56FF0CD
:100D40000400FFF75BFE0A4800680A49B0FBF1F0B7
:100D5000094908700846007800EB4001C1EBC0105B
:100D60004FF6FF7101EAC0000449088010BD000081
:100D70003800002000127A004C0000204E000020B5
:100D80000146114A12884A434FF0E0235A6100227B
:100D90009A611A46126942F001021A6100BF4FF0CF
:100DA000E022106900F001021AB100F48032002A3A
:100DB000F5D04FF0E022126922F001024FF0E0235B
:100DC0001A6100229A6170474E0000200146114AC4
:100DD00012784A434FF0E0235A6100229A611A4682
:100DE000126942F001021A6100BF4FF0E02210695F
:100DF00000F001021AB100F48032002AF5D04FF061
:100E0000E022126922F001024FF0E0231A61002271
:100E10009A6170474C0000204FF4A060FFF70CFD72
:100E2000FFF78CFF472141F28730FFF703FCFFF704
:100E300093FBFFF7A3FD06E0FFF738FB024A03C26E
:100E4000C820FFF79DFFF7E700000020491058BFBA
:100E5000C1F140415B1058BFC3F140438B42EFF3F7
:100E6000008070472DE9C04130B4DFF8A0C23CEAF1
:100E7000111418BF3CEA131400F0EC8081EA03055A
:100E80001CEA111444EAD57418BF1CEA131500F0CB
:100E9000C780A4EB05044FF0004545EAC12145EAAF
:100EA000C32341EA505143EA525304F17F749942FB
:100EB00004F500344FEAC0204FEAC22208BF904236
:100EC00000F09C804FEA13650FF24016765D4FEA02
:100ED000134506FB05F7C7F1807706FB07F74FEAD6
:100EE000D737A7FB03687642C8F58038A7FB06CE44
:100EF00038BFA8F1010807FB08E64FF0000EA6FB7B
:100F0000028CE6FB03CEDCF1000CCEF1004E38BFC4
:100F1000AEF1010EA6FB0C584FF000074FF0000594
:100F2000E6FB0E87A1FB08C6A0FB07CE16EB0E065C
:100F300045F10005E1FB076515F1E04E7EBFA4F524
:100F400080345FEA46066D4116F1800745F10005E1
:100F50004FEA17274FEA066647EA0567A6F1DE461D
:100F6000B6F1805F4FEA15251FD9384624F0010CF1
:100F700005EBC471BCF1FE6F01EB0C1102D8F0BCA3
:100F8000BDE8008124425CBF01F5801E9EEAC47F5B
:100F900002D4F0BCBDE80081244238D4F0BCA1F1F9
:100FA000C041BDE8004100F0FDB94FEAD22242EA5B
:100FB00043524FEAD323A7FB02864FEAD02040EAF0
:100FC000415007FB03661EEA0E0F4FEAD12105FBD5
:100FD000026658BFA6EB0056B6EB00564FEA520E1B
:100FE0004EEAC37E18EB0E0E56EB530EBDD518EB32
:100FF00002085E417F1C55F10005B6E74FF48015ED
:101000004FF000074FF000064FF00008ADE7F0BCCE
:101010004FF0000001F1C04101F00041BDE8008146
:1010200011EA0C1F0CEA131500D00CE013EA0C1F98
:1010300000F025804FF00000F0BC81EA030101F0D0
:101040000041BDE80081F0BCBDE8004181EA030138
:1010500000F0A8B9F0BCBDE8004170B500F054F94B
:10106000097EFC3E00F007B881EA03014FF0000062
:1010700001F00041704781EA030100F093B9F0BC30
:10108000BDE800414FF0000021497047FFFDFBF92A
:10109000F7F5F4F2F0EEEDEBE9E8E6E4E3E1E0DEAB
:1010A000DDDBDAD8D7D5D4D3D1D0CFCDCCCBCAC81D
:1010B000C7C6C5C4C2C1C0BFBEBDBCBBBAB9B8B744
:1010C000B6B5B4B3B2B1B0AFAEADACABAAA9A8A837
:1010D000A7A6A5A4A3A3A2A1A09F9F9E9D9C9C9B05
:1010E0009A999998979796959594939392919190B0
:1010F0008F8F8E8E8D8C8C8B8B8A89898888878741
:101100008685858484838382828181800000FF07B5
:101110000000F87FB0FA80F310FA03F10AD0C3F1AF
:101120001D0303F580634FEA41504FEA035202EB7F
:10113000D12170474FF000007047000051EA030CC6
:1011400017D41CF5801F58BFBCF5801F00F1068026
:10115000994218BF704708BF9042704707D711F5F2
:10116000801F58BF13F5801F19D4994270478942D8
:1011700070471CF5801F08D5BCF5801FF7D58B4242
:1011800018BF704708BF824270474FF4001C1CEB29
:10119000410F38BF1CEB430F01D28B42704770B533
:1011A00000F0B2F8922449004FF000514FF0805304
:1011B000FFF74CBEDFF848C170B51CEA111E1EBF18
:1011C0001CEA13159EEA0C0F95EA0C0F00F06F80D5
:1011D00081EA030423EA4C134EEAD47E21EA4C113F
:1011E00041F4801143F48013AE44A1FB024CA0FBF8
:1011F0000365AEF17F7E361955EB0C05A1FB034C60
:101200004CF10003A0FB021C16EB0C06654153F1E8
:101210000003094218BF46F0010613F4007F0BD10A
:101220004FEA03314FEA0530340341EA155140EAF1
:1012300016506FF003020AE04FEAC3214FEAC520BF
:10124000F40241EA555140EA56506FF0020202EBB7
:101250002E4201EB025585EACE710AD05FEA440CBA
:1012600018BF24F0004450F1000041F1000120EAD1
:10127000D47040F2FE7C624500D270BDA84214BF1B
:101280004FF080444FF04044002E08BF0024BEF1D0
:10129000806FA8BFA1F1C041BDE8704080F282809C
:1012A0004FF0000001F1C04101F0004170479EEA9B
:1012B0000C0F0CEA131518BF95EA0C0F06D04FF06F
:1012C000000081EA030E0EF0004170BD00F01CF832
:1012D0008900013E00F007B800F009B84FEA430C5E
:1012E0005FEA5C5C08D081EA030100F05BB84FEA7A
:1012F000410C5FEA5C5CF6D14FF000000149704799
:101300000000FF070000F87F0EF1020E2EF0030E22
:101310005EF8046B364205D4012A43EB030515F54C
:10132000001F12D8012841EB010C1CF5001F0CD83E
:101330000ED14FEAD17C15F5001F0CEB4C0C0CF1D3
:10134000020C08BF4CEBD37C04E04FF0080C01E02A
:101350004FEAD37C0CEB4C0526FA05F606F007069F
:10136000B6F1040C06D20EEB860CBDE870404CF0D2
:10137000010C6047DFE80CF0090B02024FF000415E
:101380004FF00000A1F5002170BD1946104601285C
:1013900051EB010418BFD4F5001484BF002001F004
:1013A000004170BD0808A0F500114FEA31017047F7
:1013B00053EA010C17D41CF5801F58BFBCF5801FE1
:1013C00000F106808B4218BF704708BF8242704709
:1013D00007D713F5801F58BF11F5801F19D48B4212
:1013E00070479B4270471CF5801F08D5BCF5801FD5
:1013F000F7D5994218BF704708BF904270474FF425
:10140000001C1CEB430F38BF1CEB410F01D299426B
:1014100070470FB40CBC03BCFFF7C1BE3C140008FE
:1014200000000020580000006C010008941400081F
:101430005800002028070000880100080000000074
:10144000000000000100000001000300020006008F
:1014500004000C0008000900090008000C0004004A
:101460000600020003000100000000000000000070
:101470000000000000A24A0400000000000000007C
:101480000102030406070809000000000000000034
:041490000000000058
:0400000508000131BD
:00000001FF
