:020000040800F2
:1000000068070020ED010008C11400088D140008E5
:10001000BD140008711300088B1F000800000000C9
:100020000000000000000000000000006116000851
:100030007513000800000000491500087517000836
:10004000070200080702000807020008070200086C
:10005000070200080702000807020008070200085C
:10006000070200080702000807020008070200084C
:10007000070200080702000807020008070200083C
:10008000070200080702000807020008070200082C
:10009000070200080702000807020008070200081C
:1000A000070200080702000807020008070200080C
:1000B00007020008070200080702000807020008FC
:1000C00007020008070200080702000807020008EC
:1000D00007020008691D000807020008070200085F
:1000E00007020008070200080702000807020008CC
:1000F00007020008070200080702000807020008BC
:100100000702000807020008A51A000807020008F5
:10011000070200080702000807020008070200089B
:10012000070200080702000807020008070200088B
:1001300000F002F800F04AF80AA090E8000C8244AF
:100140008344AAF10107DA4501D100F03FF8AFF28C
:10015000090EBAE80F0013F0010F18BFFB1A43F0A5
:10016000010318472C2500004C250000103A24BF3D
:1001700078C878C1FAD8520724BF30C830C144BF0C
:1001800004680C607047000000230024002500264E
:10019000103A28BF78C1FBD8520728BF30C148BFEA
:1001A0000B607047662902F02682642900F04C80BB
:1001B000002070471FB500F089FB040000200021DB
:1001C00001F0D2FFE0601FBD10B510BD00F09AFC39
:1001D0001146FFF7EFFF01F029FF00F0B8FC03B470
:1001E000FFF7F2FF03BC01F0EDFE00000948804775
:1001F00009480047FEE7FEE7FEE7FEE7FEE7FEE709
:10020000FEE7FEE7FEE7FEE704480549054A064B20
:1002100070470000791700083101000868010020CC
:100220006807002068030020680300207047000072
:100230000FB4044910B503AA029800F035FB10BCB6
:100240005DF814FB340000202DE9F041064600243F
:1002500010687529314616A510D0AFF3008000282C
:1002600002DA404213A507E031688A0701D512A5DA
:1002700002E0490704D511A5012401E0AFF3008095
:1002800000210A2206F1240709E0B0FBF2FCB0FBD2
:10029000F2F302FB1C00303078541846491C002849
:1002A000F3D123462A463046BDE8F04100F093B82A
:1002B000000000002D0000002B00000020000000C6
:1002C0002DE9F0474FF0000A89460446C0F820A007
:1002D0002046E1688847002876D0252806D0D4E952
:1002E00001219047206A401C2062F1E7E168204626
:1002F00000258847C4F81CA006460027C4F818A0AB
:100300002A2E09D0304601F056FE38B304EB870898
:10031000303EC8F8186019E059F8041B204604EB79
:1003200087029161E1688847012F064618D1E0698C
:10033000002820DA25F020051DE0D8F8180000EB91
:10034000800006EB40003038C8F818002046E1680D
:100350008847064601F02FFE0028EED1012F0AD073
:100360002E2E08D12046E16888477F1C0646022FC2
:1003700045F02005C4DBA069002803DA404245F0BF
:100380000105A061E80701D025F01005B6B1A6F17E
:100390004100192802D8203645F400654A46314606
:1003A000204625604D46FFF7FDFE58B1012806D0D6
:1003B000ED1D25F0070000F1080989E704E005F1CB
:1003C000040985E730468AE7206ABDE8F087704770
:1003D0007047704770472DE9F0470D4699469246A1
:1003E000044600F124080168880604D5E06921F07C
:1003F0001001216000E00120A84201DD471B00E060
:100400000027A1697A1902EB0900081AA061207877
:10041000C00602D42046AFF30080002608E0D4E9ED
:1004200001211AF806009047206A401C761C2062C1
:100430004E45F4DB2078C0060AD52046AFF3008095
:1004400006E0D4E9012130209047206A401C206258
:10045000381EA7F10107F4DC07E0D4E9012118F800
:1004600005009047206A401C2062281EA5F1010566
:10047000F3DC2046AFF300802078000602D502208E
:10048000BDE8F0870120FBE770472DE9FF4F0C46E0
:100490001E464FF0FF378BB0D2E90001DDF86080D7
:1004A0000A908A46C1F30A5505B93D46002108461F
:1004B0004FF00000BAF1000F00F4400005DA00EB45
:1004C00080004FF4400101EA50004FEA9059B9F121
:1004D000010F00DDB9460A9850EA4A000ED044F6F2
:1004E0001050A5F2FF3545432F14B8F1000F1ED070
:1004F0007542291E1EDDC9F100021CE0B8F1010F92
:100500004FF0000001D0302103E0F24305E0215418
:10051000401CB042FBDB30460022002121540B99E5
:10052000C1F80880C1E900200FB0BDE8F08FBD1B05
:100530006D1CDEE74A4600DA694206A800F068FA58
:1005400006AB93E8070003AB83E8070050460A991F
:1005500000F046FB8DE80700A0F500501F38009022
:100560000398002D0ADD42F21F014A460844002389
:1005700003A90390684600F0AFFD09E0A0F5005024
:100580004A461F38002303A90390684600F0B9FDCE
:100590008DE807000004000C03D04FF0FF30410845
:1005A00000E01046B8F1000F03D00022009215467B
:1005B0001EE0751E05D400F08DF9303262556D1EB7
:1005C000F9D5B3460122084302D000227F1C04E083
:1005D0002078302801D100227F1E002A099784D07C
:1005E0001DE0112D07DA00F075F9303262556D1CEF
:1005F00050EA0102F5D1084302D00098C8B10EE0DC
:100600000021681E05E0235C625C63542254401E96
:10061000491C8142F7DBAB46A81B401E0990002015
:1006200004F80B000B98099AC0F80880C0E9002B69
:100630007AE711264FF0000857E72DE9F04F88467A
:100640000446D21D22F0070191B0D1E90001CDE9A5
:100650000A0101F09CFC02460B98C00F01D02D202E
:1006600007E02068810701D52B2002E0202101EA64
:10067000C000032A099001D0072A05DB0346414642
:10068000204600F085F90BE12078800601D5E0696D
:1006900000E00620B8F1650F814606D0B8F1660F7C
:1006A00018D0B8F1670F70D131E00020B9F1110F07
:1006B000009001DB112301E009F101030AAA01A95D
:1006C0000CA8FFF7E2FEDDE90C70002609F1010538
:1006D000834647E001204B4600904FF000470AAAAE
:1006E00001A90CA8FFF7D1FEDDE90DB00C995D461C
:1006F000002610B909F101000D18B9EB050003D46B
:10070000C0F1FF3609F10105A5EB09002BE0B9F1B5
:10071000010F01DA4FF001090020B9F1110F00902B
:10072000484601DD112300E003460AAA01A90CA8EE
:10073000FFF7ABFEDDE90C704D46002683462078BE
:1007400000070AD4AB4500DA5D4601A8012D04DD9F
:10075000411911F8011C302907D04F4502DA17F171
:10076000040F04DA012082460FE06D1EEEE7002F31
:1007700002DCED1B3E4403E0781CA84200DD7D1C3A
:10078000B81B00F1010A4FF000472078000703D49E
:10079000AA4501DB4FF0FF3A0021B7F1004F0DF100
:1007A00043088DF8431024D002202B23002F01DAB8
:1007B0007F422D230A21021EA0F1010000DC5FB15F
:1007C00097FBF1FC97FBF1F201FB1C7C17460CF147
:1007D000300C08F801CDEEE7A8F101000370218884
:1007E000090501D5452100E06521A0F1010800F8C7
:1007F000011C09980FA9A1EB0807FF1D00B10120FA
:10080000411901EBEA70A1693844081A401EA06141
:100810002078C00602D42046AFF30080099828B1A2
:10082000D4E901219047206A401C20622078C0064C
:1008300022D52046AFF300801EE0002E04DBB34536
:1008400002DD01A8805D00E03020D4E9012190475D
:10085000206A401C2062761CAAF101005FEA000AAF
:100860000AD100F033F8C0680168405CD4E9012186
:100870009047206A401C2062281EA5F10105DCDC9F
:1008800007E0D4E9012118F8010B9047206A401CC9
:100890002062381EA7F10107F3DC2046AFF3008089
:1008A000032011B041E60000074B70B50D467B44B4
:1008B00000F05BF80446284600F01CF910B14FF038
:1008C000FF3070BD204670BD5F17000000487047C4
:1008D0002401002030B5B0F10A024FEA900E71F108
:1008E00000034EEA817EB0EB0E0061EB91014FEA0E
:1008F000101E4EEA017E10EB0E0041EB11114FEA83
:10090000102E4EEA016E10EB0E0041EB11214FEA62
:10091000104E4EEA014E10EB0E0041EB1141401813
:1009200041F100014FEAD00040EA41704FEAD101A5
:1009300010EB80054FEA810444EA907444EB010413
:100940006D1944EB0404521BA3414FF0000348BF50
:100950000A3200D530BD401C41F1000130BD00001D
:1009600001694A1C02610878704700B58FB0CDE973
:1009700001310021059105497944CDE90310114663
:100980006846FFF79DFC0FB000BD0000E5FFFFFFCC
:100990002DE9F0411F46044603260168072A01F4A9
:1009A000006004DB08B116A505E016A503E008B158
:1009B00015A500E015A521F010002060A069C01E5B
:1009C000A0610FB1401EA0612046AFF300804FB17F
:1009D000D4E9012138469047206A401C2062C01C9F
:1009E000206206E0206AFAE7D4E9012115F8010B3C
:1009F0009047761EF8D22046AFF30080BDE8F08124
:100A00004E414E006E616E00494E4600696E6600B2
:100A10002DE9F047814616468AB0354878440DC81E
:100A20008DE80D0032487844801C03AC0DC884E882
:100A30000D0041F69B300844372190FBF1F290FB0A
:100A4000F1F5A5F1800501FB12041B3C02D56442BF
:100A5000012000E00020DFF898A080460027FA443B
:100A6000AAF1BE0A0EE0E0070AD03246684607EB5C
:100A7000470101230AEB810100F043FB8DE80700E9
:100A800064107F1C002CEED1194F7F44AE3F19E05B
:100A9000E80715D007EB04100DF1180A90E80E00D6
:100AA0008AE80E00C068F04201D1981908903246D9
:100AB000012306A903A800F024FB03AB83E8070089
:100AC0006D10641C002DE3D14FF0010332466946DE
:100AD000B8F1000F03A802D000F0FEFA01E000F028
:100AE00010FBC9E90001C9F808200AB0BDE8F08789
:100AF000581C0000007B00F08000704700487047E1
:100B0000040100207546FFF7F9FFAE46050069466F
:100B1000534620F00700854618B020B5FFF774FB58
:100B2000BDE820404FF000064FF000074FF00008EE
:100B30004FF0000B21F00701AC46ACE8C009ACE86F
:100B4000C009ACE8C009ACE8C0098D46704710B5D3
:100B50000446AFF300802046BDE81040FFF73FBBDE
:100B60004FF0013C50F8042B51F8043B9A4221D13C
:100B7000A2EB0C03934313EACC1317D150F8042BC8
:100B800051F8043B9A4215D1A2EB0C03934313EAAC
:100B9000CC130BD150F8042B51F8043B9A4209D1E5
:100BA000A2EB0C03934313EACC13DBD04FF000000D
:100BB000704700BFD01A01BAB1FA81F101F01801F3
:100BC00022FA01F0CB40C1F12001DBB2C0B2C01A61
:100BD0002CFA01F3D11A914311EAC311E6D17047FF
:100BE0005FEA400C08BF91F0000F4FEA8C234FEAF8
:100BF000C12243EA51514FEA1C5018BF00F5F040A2
:100C00004FEA300018BF41F000415FEA6C5C00F031
:100C10002980BCF1FF3F08BF40F080407047130CB3
:100C200006BF12044FF0100C4FF0000C130E04BF5F
:100C300012020CF1080C130F04BF12010CF1040C8A
:100C4000930F04BF92000CF1020CD30F04BF5200AB
:100C50000CF1010C11464FF00002A0F11F00A0EBB7
:100C60000C00704711F0004F08BF704731F0004191
:100C70003FF4D5AF0B0C06BF09044FF0100C4FF03A
:100C8000000C0B0E04BF09020CF1080C0B0F04BF83
:100C900009010CF1040C8B0F04BF89000CF1020C4C
:100CA000CB0F04BF49000CF1010CCCF12003A0EBE9
:100CB0000C0022FA03F302FA0CF241EA030100F1FC
:100CC0000100704720F07F4C80EA030023F07F474B
:100CD000ACEB070303F57C5300F0004003F1FF0386
:100CE0002DE980494FEA154B09B44FEA144325EA30
:100CF0000B4E24EA03480FF2042606EB132749089B
:100D00003E785FEA320203FB0667C7F5000707FB80
:100D100006F64FEA54374FEAD64606F1020607FBBD
:100D2000066CCCF1005C4FEA1C472CEA074C07FB31
:100D300006F40CFB06F504EB15464FEA961634BF95
:100D400000204FF000404FEAD13706FB07FC4FEA86
:100D50001C4C0CFB0BF7D21B03FB0CF761EB0701E0
:100D60000CFB0EF7B0EB074072EB17420CFB08F7D9
:100D700034BFA2EB0742B2EB074261EB17414FEAE7
:100D80000C444FEA910706FB07FC4FEA1C4C0CFB96
:100D90000BF7B0EBC74072EB573203FB0CF734BFD5
:100DA000A2EBC742B2EBC74261EB57310CFB0EF727
:100DB000B0EBC70072EB57720CFB08F734BFA2EB25
:100DC000C702B2EBC70261EB5771039F4FEA816123
:100DD00041EA921104EBCC044FEAD1374FEA826228
:100DE00006FB07FC42EA90124FEA80604FEA1C4C77
:100DF0000CFB0BF7D21B03FB0CF761EB07010CFBA1
:100E00000EF7B0EB074072EB17420CFB08F734BF4C
:100E1000A2EB0742B2EB074261EB17414FEA8C5558
:100E20004FEA910704EB9C2406FB07FC4FEA1C4C9D
:100E30000CFB0BF7B0EBC74072EB573203FB0CF720
:100E400034BFA2EBC742B2EBC74261EB57310CFB98
:100E50000EF7B0EBC70072EB57720CFB08F734BF0C
:100E6000A2EBC702B2EBC70261EB577115EB4C2541
:100E70004FEA816141EA92114FEA82624FEAD1372B
:100E800042EA901206FB07FC44F100044FEA80603E
:100E90004FEA1C4C0CFB0BF7D21B03FB0CF761EB6E
:100EA00007010CFB0EF7B0EB074072EB17420CFB8F
:100EB00008F734BFA2EB0742B2EB074261EB1741E0
:100EC00015EB1C154FEA813141EA92414FEA82321B
:100ED00042EA90424FEA80304FEA0C7644F1000437
:100EE00048EA03434EEA0B484FF0000EB2EB080C01
:100EF00071EB030724BF624639464EEB0E0E4FF0EE
:100F0000000B0018524149414BEB0B0BB2EB080CA4
:100F100071EB03077BF1000B24BF624639464EEBB1
:100F20000E0E4FF0000B0018524149414BEB0B0BDA
:100F3000B2EB080C71EB03077BF1000B24BF624698
:100F400039464EEB0E0E51EA020718BF46F0010675
:100F500016EB0E7655F1000254F1000103D5BDE801
:100F60008901BDE80088BDE88901BDE80048B619DF
:100F7000524141EB0101A3F10103704780807F7E64
:100F80007D7C7B7A797877767675747372717170FF
:100F90006F6E6E6D6C6C6B6A6A69686867666665B1
:100FA0006464636362616160605F5F5E5E5D5D5C3F
:100FB0005C5B5B5A5A5959585857575656555555B0
:100FC0005454535352525251515050504F4F4F4E10
:100FD0004E4D4D4D4C4C4C4B4B4B4A4A4A4949495E
:100FE00048484847474747464646454545444444A0
:100FF000444343434342424242414141002B9C46C9
:1010000030D477002BD01CB54FEA370703B44FF02C
:1010100010004FF01001BAF1000F06D0BCF1000F24
:10102000DCBF40F0080040F008014FF000000FBCAA
:10103000BDE810400BF1010BBBF1010F08BF5FEAE7
:10104000170722BF12F1010211F101014FF0004117
:1010500043F1000300F0004043EA00007047F9D379
:101060005708D0E746EA064613F1400F4FEA164606
:101070001FDD13F1200FDFBF16430A460021203386
:101080005B42BED0C3F1200746EA064602FA07F7E4
:101090004FEA164646EA0706C3F1200722FA03F292
:1010A00001FA07F721FA03F14FF0000342EA0702C1
:1010B000A7E746EA020646EA06464FEA164646EA29
:1010C0000106BCBF46EA0646360C4FF000034FF05F
:1010D00000024FF0000194E72DE9804C9A469346B8
:1010E00070B491E8380007C831EA400C48BF34EAD0
:1010F000430C03D5FFF7E6FDFFF780FFF0BCBDE82A
:10110000008C2DE9804C9A46934670B491E83800E3
:1011100007C810F0804F08BF13F0804F03D100F0D4
:1011200005F8FFF76BFFF0BCBDE8008C20F07F47AF
:1011300080EA030023F07F4C07EB0C03A3F57C53FC
:1011400000F00040A3F1FE0392F0000F00F0B38026
:1011500095F0000F00F077802DE901494FEA11402A
:101160004FEA144621EA004800FB06FC24EA064741
:1011700008FB06F607FB08F800FB07F718EB064824
:101180004CEB164C4FEA124B18EB07484FEA15464A
:101190004CEB174022EA0B4E0BFB06FC25EA0647F8
:1011A0000EFB06F607FB0EFE0BFB07F71EEB064ECB
:1011B0004CEB164C4FF000061EEB074E4CEB174B5A
:1011C00018EB0B0840F1000018EB0E0B58EB000871
:1011D00040F100008F1A4FF000013CBFC943661B6D
:1011E00014BFB5EB040C00213CBFC943F61B4FEA0A
:1011F00017444EEA8E0E27EA04454FEA1C4704FBCB
:1012000007622CEA074C05FB07F70CFB05F604FB0D
:101210000CFC16EB074642EB174216EB0C4642EB72
:101220001C421BEB060658EB0202414146EA9E06B1
:1012300001D5BDE80189B619524141EB0101A3F185
:101240000103BDE801894FEA14454FEA114724EA3A
:10125000054621EA074C05FB07F406FB07F70CFBE4
:1012600006F105FB0CFC11EB074144EB17444FEA78
:10127000124711EB0C4144EB1C4422EA074C05FBDE
:1012800007F206FB07F70CFB06F605FB0CFC16EB5A
:10129000074642EB174216EB0C4642EB1C456A1818
:1012A00054F1000148BF7047B619524141EB0101AA
:1012B000A3F10103704795F0000F37D04FEA1142B8
:1012C0004FEA144721EA024624EA074C02FB07F1E1
:1012D00006FB07F70CFB06F402FB0CFC14EB0744BF
:1012E00041EB17414FEA154714EB0C4441EB1C410D
:1012F00025EA074C02FB07F506FB07F70CFB06F691
:1013000002FB0CFC16EB074645EB174516EB0C46AB
:1013100045EB1C42121951F1000148BF7047B61944
:10132000524141EB0101A3F1010370474FEA14451B
:101330004FEA114724EA054621EA074C05FB07F16D
:1013400006FB07F70CFB06F24FF0000605FB0CFC52
:1013500012EB074241EB174112EB0C4251EB1C41DF
:1013600048BF7047921841EB0101A3F10103704798
:1013700000BFFEE770472DE9F04102460025002638
:10138000002000230024002791F803C00CF00F0573
:1013900091F803C00CF0100CBCF1000F03D091F8D1
:1013A00002C04CEA050591F800C0BCF1000F31D035
:1013B000146800202BE04FF0010C0CFA00F3B1F898
:1013C00000C00CEA03069E4220D183004FF00F0CB0
:1013D0000CFA03F7BC4305FA03FC4CEA040491F849
:1013E00003C0BCF1280F06D14FF0010C0CFA00FC31
:1013F000C2F814C00AE091F803C0BCF1480F05D14F
:101400004FF0010C0CFA00FCC2F810C0401C082878
:10141000D1D31460B1F800C0BCF1FF0F34DD5468C3
:1014200000202EE000F1080C4FF0010808FA0CF340
:10143000B1F800C00CEA03069E4221D183004FF0B0
:101440000F0C0CFA03F7BC4305FA03FC4CEA040446
:1014500091F803C0BCF1280F05D100F1080C08FA7F
:101460000CF8C2F8148091F803C0BCF1480F07D102
:1014700000F1080C4FF0010808FA0CF8C2F81080CF
:10148000401C0828CED35460BDE8F08100BFFEE7C1
:1014900008B50121042000F069F80120ADF8000032
:1014A00028208DF8030002208DF8020069460248CA
:1014B000FFF761FF08BD00000008014000BFFEE724
:1014C0007047000070B5002100230F22C47804B3D8
:1014D000154C246804F4E064C4F5E064210AC1F109
:1014E0000403CA40447804FA03F184781440214389
:1014F00009010E4C0678A155047804F01F0501245B
:10150000AC4005786D11AD0005F1E025C5F800414E
:1015100009E0047804F01F050124AC40044D06786E
:10152000761145F8264070BD0CED00E000E400E0C7
:1015300080E100E002490143024A11607047000067
:101540000000FA050CED00E07047000029B1064AE2
:10155000D2690243044BDA6104E0034AD269824350
:10156000014BDA61704700000010024029B1064AC1
:1015700092690243044B9A6104E0034A92698243F0
:10158000014B9A61704700000010024030B5002105
:101590000022002400232D4D6D6805F00C0121B1BF
:1015A000042905D0082923D105E0294D056022E052
:1015B000274D05601FE0254D6D6805F47012234D21
:1015C0006D6805F48034022505EB92421CB9214D6B
:1015D000554305600BE01D4D6D6805F400351DB1E8
:1015E0001C4D5543056002E0194D5543056002E06E
:1015F000174D056000BF00BF144D6D6805F0F00188
:101600000909154D6B5C0568DD4045600F4D6D683F
:1016100005F4E061090A104D6B5C4568DD408560AA
:101620000A4D6D6805F46051C90A0B4D6B5C456845
:10163000DD40C560054D6D6805F44041890B074DDF
:101640006B5CC568B5FBF3F5056130BD0010024069
:1016500000127A0000093D001C0000202C00002030
:10166000704710B500F002F810BD00000CB5002066
:10167000019000903348006840F4803031490860A0
:1016800000BF3048006800F4003000900198401C12
:101690000190009818B90198B0F5A06FF1D12948D0
:1016A000006800F4003010B10120009001E000203B
:1016B00000900098012843D12348006840F01000B2
:1016C000214908600846006820F0030008600846C9
:1016D000006840F0020008601A48406819494860F4
:1016E0000846406848600846406840F480604860AA
:1016F0000846406820F47C1048600846406840F482
:10170000E81048600846006840F08070086000BF3C
:101710000C48006800F000700028F9D009484068C3
:1017200020F00300074948600846406840F0020086
:10173000486000BF0348406800F00C000828F9D159
:101740000CBD00000010024000200240042808D117
:101750004FF0E021096941F004014FF0E0221161EE
:1017600007E04FF0E021096921F004014FF0E02289
:10177000116170477047000010B51348006840F0D1
:1017800001001149086008464068104908400E49A8
:101790004860084600680E4908400B490860084642
:1017A000006820F4802008600846406820F4FE00AD
:1017B00048604FF41F008860FFF753FF4FF0006050
:1017C0000449086010BD0000001002400000FFF84E
:1017D000FFFFF6FE08ED00E0F0B50C4615460022CE
:1017E0000021068C4FF6FE773E400684028B018C6A
:1017F0004FF60C7632407E1C06EA03162E43324327
:10180000104EB0420ED0104EB0420BD0B0F1804F0F
:1018100008D00E4EB04205D00D4EB04202D00D4E53
:10182000B04206D14FF6FD76314044F00106314317
:1018300005E04FF6F576314044F00106314302836E
:101840000184F0BD002C0140003401400004004040
:1018500000080040000C0040F0B50C461546002280
:1018600000210026078C4FF6EF7C07EA0C0707845F
:10187000028B018C4FF6FF7707EA041640F6FF470C
:101880003A404FF6FF7707EA03373A434FF6FF77C0
:1018900007EA05273A43114FB8420ED0104FB8421D
:1018A0000BD0B0F1804F08D00E4FB84205D00E4F8C
:1018B000B84202D00D4FB84206D14FF6DF7739401B
:1018C00046F01007394305E04FF65F77394044F0A2
:1018D0001007394302830184F0BD0000002C014051
:1018E000003401400004004000080040000C0040AB
:1018F000F0B50C461546002200210026078C4FF655
:10190000FF6C07EA0C070784828B018C4FF6FF7788
:1019100007EA04264FF60C773A404FF6FF7707EABE
:1019200003172F433A43114FB8420ED0104FB8421D
:101930000BD0B0F1804F08D00E4FB84205D00E4FFB
:10194000B84202D00D4FB84206D14FF6FF5739408A
:1019500046F48077394305E04FF2FF57394044F4AD
:101960008077394382830184F0BD0000002C014060
:10197000003401400004004000080040000C00401A
:10198000F0B50C461546002200210026078C4EF6C5
:10199000FF7C07EA0C070784828B018C4FF6FF77E8
:1019A00007EA043640F6FF473A404FF6FF7707EA6A
:1019B00005273A434FF6FF7707EA03373A43114FBB
:1019C000B8420ED0104FB8420BD0B0F1804F08D0C3
:1019D0000E4FB84205D00E4FB84202D00D4FB8425C
:1019E00006D14DF6FF77394046F48057394305E07C
:1019F00047F6FF57394044F48057394382830184C6
:101A0000F0BD0000002C0140003401400004004003
:101A100000080040000C004030B587B005460C4679
:101A200001210820FFF792FDADF81450ADF81040E9
:101A30000020ADF81600ADF8120004A9184800F017
:101A400041F90020ADF80000ADF802000120ADF82A
:101A500004000020ADF80600ADF808006946104803
:101A600000F09AF84FF4A060FFF764FD32208DF883
:101A70000C0002208DF80D0000208DF80E000120D2
:101A80008DF80F0003A8FFF71DFD01220321044874
:101A900000F0D8F80121024800F05DF807B030BD31
:101AA000000C004010B525480078002841D10121E4
:101AB000234800F05FF8012813D12248007880B154
:101AC00021480078FF2807D101201C4908704FF6F3
:101AD000FF701E49088004E01B480078401C1A492A
:101AE00008700221164800F045F8012821D1154858
:101AF000007860B1012011490870114800F037F8F2
:101B00001249088000210E4800F0A5F811E00020DD
:101B10000A4908700C4908700C49088000210848DF
:101B200000F0A2F80120074908700221044800F0E3
:101B300092F80321024800F00BF810BD00000020CD
:101B4000000C0040010000200200002004000020E2
:101B5000CA430282704721B1028842F0010202802A
:101B600004E002884FF6FE731A4002807047014677
:101B7000888E704730B50246002000230024158A65
:101B800005EA0103958905EA010413B10CB10120AE
:101B900000E0002030BD000070B505460C4624482A
:101BA00085420ED0234885420BD0B5F1804F08D036
:101BB0002148854205D02148854202D020488542EF
:101BC00000D100E000BF208850B92389A288618835
:101BD0002846FFF701FEE188284600F047F825E097
:101BE000208804280AD12389A28861882846FFF723
:101BF00033FEE188284600F042F817E020880828E4
:101C00000AD12389A28861882846FFF771FEE188FE
:101C1000284600F041F809E02389A2886188284617
:101C2000FFF7AEFEE188284600F03FF870BD0000E7
:101C3000002C014000340140000400400008004036
:101C4000000C00401AB183890B43838102E0838931
:101C50008B43838170470A460021018C4FF6FD7348
:101C6000194011430184704781847047028B4FF6FD
:101C7000F3731A400283028B0A4302837047028B7C
:101C80004FF2FF331A400283028B4FF6FF7303EAD1
:101C900001231A4302837047828B4FF6F3731A4075
:101CA0008283828B0A4382837047828B4FF2FF3399
:101CB0001A408283828B4FF6FF7303EA01231A4393
:101CC00082837047002202881D4B98420ED01D4B24
:101CD00098420BD0B0F1804F08D01B4B984205D0F2
:101CE0001A4B984202D01A4B984204D14FF68F7388
:101CF0001A404B881A43174B984207D0164B98420C
:101D000004D04FF6FF431A40CB881A4302808B88D9
:101D100083850B8803850A4B98420BD0094B984268
:101D200008D00E4B984205D00D4B984202D00D4B77
:101D3000984201D10B7A0386012383827047000009
:101D4000002C014000340140000400400008004025
:101D5000000C004000100040001400400040014012
:101D6000004401400048014010B540F225511D4893
:101D700000F04AF810B31B4800F002F9C4B21A4848
:101D8000008800F40040C8B91748008800F480407B
:101D900060B10A2C03D000201349088020E01248CB
:101DA000008840F400401049088019E00D2C06D14D
:101DB0000D48008840F480400B49088010E00A4834
:101DC0000088C0F30D0009490C5407480088401CE6
:101DD0000549088008460088C72801DD00200880E2
:101DE00010BD000000380140380000203C000020F9
:101DF00021B1828942F40052828104E082894DF649
:101E0000FF731A408281704770B502460024002398
:101E10000025002040F66A16B14200D100BFC1F390
:101E2000421501F01F03012606FA03F3012D02D12A
:101E30009689334006E0022D02D1168A334001E034
:101E4000968A33400C12012606FA04F416883440B0
:101E500013B10CB1012000E0002070BDF0B50346C5
:101E6000002400260025002040F66A17B94200D160
:101E700000BF1846C1F3421401F01F06012707FAFC
:101E800006F5012C01D10C3004E0022C01D11030F8
:101E900000E014301AB107682F43076002E00768BA
:101EA000AF430760F0BD00002DE9F04786B005465E
:101EB0000E460024A24600BFA1460027B08900B10B
:101EC00000BF2F462C8A4CF6FF700440F088044374
:101ED0002C82AC894EF6F3100440B0883189084357
:101EE000718908430443AC81AC8A4FF6FF4004403B
:101EF000B0890443AC8201A8FFF748FB1F48874222
:101F000002D1DDF810A001E0DDF80CA0A88900F4F2
:101F1000004040B10AEBCA0000EB0A1031684900EA
:101F2000B0FBF1F807E00AEBCA0000EB0A103168D9
:101F30008900B0FBF1F86420B8FBF0F0040120093F
:101F4000642101FB1089A88900F4004040B13220CF
:101F500000EBC900B0FBF1F000F00700044308E01B
:101F6000322000EB09106421B0FBF1F000F00F000B
:101F700004432C8106B0BDE8F08700000038014022
:101F800001468888C0F30800704700BFFEE749009B
:101F900050EAC12018BF04204A0D18BF40F00100CC
:101FA00040F2FF72B2EB515F08BF40F0020001281F
:101FB00008BF0520704730380A2801D20120704739
:101FC00000207047014600BF0020704710B56FF039
:101FD0000400FFF7BBFB0A4800680A49B0FBF1F0B8
:101FE000094908700846007800EB4001C1EBC010B9
:101FF0004FF6FF7101EAC0000449088010BD0000DF
:102000000800002000127A0030000020320000207A
:1020100000BF054A128802F04002002AF9D0C2B27D
:10202000014B1B1D1A8070470038014008B5FFF7AF
:10203000CDFF4FF4E13000F047F847214FF6FF7035
:10204000FFF7EAFCFFF724FA002421E011480078AA
:10205000F0B1114800781149098801EB004420468D
:1020600000F070FA814600F041FA074600220C4B5E
:1020700000F090F805462A460B460AA00094FEF7A9
:10208000D7F80020034908700E490870024908700B
:10209000DCE7000000000020020000200400002017
:1020A00080842E415072657373204B45595F5550A3
:1020B0003A20252E32662073202825642075732946
:1020C0000D0A00000100002010B586B00446012171
:1020D00044F20400FFF74AFA4FF40070ADF8140020
:1020E00003208DF8160018208DF8170005A91C484C
:1020F000FFF741F94FF48060ADF8140004208DF82B
:10210000170005A91648FFF736F925208DF80000BD
:1021100003208DF801008DF8020001208DF80300E6
:102120006846FFF7CFF901940020ADF80800ADF83C
:102130000A00ADF80C00ADF810000C20ADF80E0050
:1021400001A90848FFF7B0FE012240F225510548D9
:10215000FFF784FE01210348FFF74AFE06B010BDD9
:10216000000801400038014010B500290AD0087865
:10217000002807D005487844FEF7F2FC002801D07B
:10218000002010BD0248784410BD00003A05000050
:10219000320500002DE9C04130B4DFF8A0C23CEAAE
:1021A000111418BF3CEA131400F0EC8081EA030517
:1021B0001CEA111444EAD57418BF1CEA131500F088
:1021C000C780A4EB05044FF0004545EAC12145EA6C
:1021D000C32341EA505143EA525304F17F749942B8
:1021E00004F500344FEAC0204FEAC22208BF9042F3
:1021F00000F09C804FEA13650FF24016765D4FEABF
:10220000134506FB05F7C7F1807706FB07F74FEA92
:10221000D737A7FB03687642C8F58038A7FB06CE00
:1022200038BFA8F1010807FB08E64FF0000EA6FB37
:10223000028CE6FB03CEDCF1000CCEF1004E38BF81
:10224000AEF1010EA6FB0C584FF000074FF0000551
:10225000E6FB0E87A1FB08C6A0FB07CE16EB0E0619
:1022600045F10005E1FB076515F1E04E7EBFA4F5E1
:1022700080345FEA46066D4116F1800745F100059E
:102280004FEA17274FEA066647EA0567A6F1DE46DA
:10229000B6F1805F4FEA15251FD9384624F0010CAE
:1022A00005EBC471BCF1FE6F01EB0C1102D8F0BC60
:1022B000BDE8008124425CBF01F5801E9EEAC47F18
:1022C00002D4F0BCBDE80081244238D4F0BCA1F1B6
:1022D000C041BDE8004100F003B94FEAD22242EA12
:1022E00043524FEAD323A7FB02864FEAD02040EAAD
:1022F000415007FB03661EEA0E0F4FEAD12105FB92
:10230000026658BFA6EB0056B6EB00564FEA520ED7
:102310004EEAC37E18EB0E0E56EB530EBDD518EBEE
:1023200002085E417F1C55F10005B6E74FF48015A9
:102330004FF000074FF000064FF00008ADE7F0BC8B
:102340004FF0000001F1C04101F00041BDE8008103
:1023500011EA0C1F0CEA131500D00CE013EA0C1F55
:1023600000F025804FF00000F0BC81EA030101F08D
:102370000041BDE80081F0BCBDE8004181EA0301F5
:1023800000F0AEB8F0BCBDE8004170B500F05AF8FE
:10239000097EFC3E00F007B881EA03014FF000001F
:1023A00001F00041704781EA030100F099B8F0BCE8
:1023B000BDE800414FF0000021497047FFFDFBF9E7
:1023C000F7F5F4F2F0EEEDEBE9E8E6E4E3E1E0DE68
:1023D000DDDBDAD8D7D5D4D3D1D0CFCDCCCBCAC8DA
:1023E000C7C6C5C4C2C1C0BFBEBDBCBBBAB9B8B701
:1023F000B6B5B4B3B2B1B0AFAEADACABAAA9A8A8F4
:10240000A7A6A5A4A3A3A2A1A09F9F9E9D9C9C9BC1
:102410009A9999989797969595949393929191906C
:102420008F8F8E8E8D8C8C8B8B8A898988888787FD
:102430008685858484838382828181800000FF0772
:102440000000F87F0EF1020E2EF0030E5EF8046B12
:10245000364205D4012A43EB030515F5001F12D8B7
:10246000012841EB010C1CF5001F0CD80ED14FEADE
:10247000D17C15F5001F0CEB4C0C0CF1020C08BFC5
:102480004CEBD37C04E04FF0080C01E04FEAD37C26
:102490000CEB4C0526FA05F606F00706B6F1040C1F
:1024A00006D20EEB860CBDE870404CF0010C604784
:1024B000DFE80CF0090B02024FF000414FF0000082
:1024C000A1F5002170BD19461046012851EB010409
:1024D00018BFD4F5001484BF002001F0004170BD86
:1024E0000808A0F500114FEA3101704743004FEA98
:1024F000D30C4FEA3C0C43401FBF40070CF1605126
:1025000013F0FE4F70471CF0006F03D100200CF059
:10251000004170470CF0004343EA507010B540EAA8
:10252000CC0000F022F800BF000000924FEA00014A
:10253000FFF7D6BF4FF000414FF00000A1F500219A
:1025400070470000B0FA80F310FA03F2C3F19D0364
:102550000AD0D90501EB1220530638BF704700F1AD
:10256000010008BF20F0010070470EF1020E2EF0AE
:10257000030E5EF8044B244204D44FEA4102B2F148
:102580007F4F11D84FEA4003B3F17F4F0CD80ED1E3
:102590004FEAD07CB2F17F4F0CEB4C0C0CF1020CEB
:1025A00008BF4CEBD17C04E04FF0080C01E04FEA8F
:1025B000D17C0CEB4C0324FA03F404F00704B4F1CF
:1025C000040C06D20EEB840CBDE810404CF0010C5C
:1025D0006047DFE80CF0070802024FF00040A0F56A
:1025E000800010BD0846420018BFD2F1807288BF3B
:1025F00000F0004010BDFEF720B8000002400000CF
:10260000000000A00000000005400000000000C81D
:10261000000000000C4000000000409C0000000092
:10262000194000000020BCBE000000003440000043
:10263000BFC91B8E00000004B5400000504BCFD036
:102640006607E2CF010000006C4100003E8251AA03
:10265000DFEEA73401000000D9420000DCB5A0E2A3
:102660003A301F97FFFFFFFFB4450000FD25A0C8CB
:10267000E9A3C14FFFFFFFFFFF3F00000000008004
:1026800000000000FF3F000000000080000000008C
:10269000CC260008000000203C0000006C0100086F
:1026A000082700083C0000202C07000088010008D3
:1026B0001C00000043000000F8FFFFFF0C000000BA
:1026C0000E0000000F0000002E00000000000000BF
:1026D0000000000000A24A0400000000000000000A
:1026E00001020304060708090000000001020304B8
:1026F000010203040607080902040608000000009E
:082700000000000000000000D1
:0400000508000131BD
:00000001FF
