:020000040800F2
:10000000500B0020CD010008E1050008550500084F
:10001000DD0500087D0200087710000800000000E0
:10002000000000000000000000000000010B0008BC
:100030008102000800000000690A0008150C000891
:10004000E7010008E7010008E7010008E7010008F0
:10005000E7010008E7010008E7010008E7010008E0
:10006000E7010008E7010008E7010008E7010008D0
:10007000E7010008E7010008E7010008E7010008C0
:10008000E7010008E7010008E7010008E7010008B0
:10009000E7010008E7010008E7010008E7010008A0
:1000A000E7010008E7010008E7010008E701000890
:1000B000E7010008E7010008E7010008E701000880
:1000C000E7010008E7010008E7010008E701000870
:1000D000E7010008910F0008E7010008E7010008A8
:1000E000E7010008E7010008E7010008E701000850
:1000F000E7010008E7010008E7010008E701000840
:10010000E7010008E7010008E7010008E70100082F
:10011000E7010008E7010008790C0008E701000882
:10012000E7010008E7010008E7010008E70100080F
:1001300000F002F800F03AF80AA090E8000C8244BF
:100140008344AAF10107DA4501D100F02FF8AFF29C
:10015000090EBAE80F0013F0010F18BFFB1A43F0A5
:1001600001031847C0200000E0200000103A24BF1F
:1001700078C878C1FAD8520724BF30C830C144BF0C
:1001800004680C607047000000230024002500264E
:10019000103A28BF78C1FBD8520728BF30C148BFEA
:1001A0000B6070471FB51FBD10B510BD00F033F8D0
:1001B0001146FFF7F7FF00F0D3FF00F051F803B44A
:1001C000FFF7F2FF03BC00F058FF0000094880472A
:1001D00009480047FEE7FEE7FEE7FEE7FEE7FEE729
:1001E000FEE7FEE7FEE7FEE704480549054A064B41
:1001F00070470000190C000831010008500500206C
:10020000500B002050070020500700207047704717
:10021000704770477047754600F02CF8AE460500F1
:100220006946534620F00700854618B020B5FFF711
:10023000DBFFBDE820404FF000064FF000074FF015
:1002400000084FF0000B21F00701AC46ACE8C009F4
:10025000ACE8C009ACE8C009ACE8C0098D467047FD
:1002600010B50446AFF300802046BDE81040FFF70C
:10027000A6BF000000487047EC04002000BFFEE766
:1002800070472DE9F041024600250026002000239A
:100290000024002791F803C00CF00F0591F803C06B
:1002A0000CF0100CBCF1000F03D091F802C04CEA26
:1002B000050591F800C0BCF1000F31D01468002092
:1002C0002BE04FF0010C0CFA00F3B1F800C00CEA7F
:1002D00003069E4220D183004FF00F0C0CFA03F767
:1002E000BC4305FA03FC4CEA040491F803C0BCF1DA
:1002F000280F06D14FF0010C0CFA00FCC2F814C014
:100300000AE091F803C0BCF1480F05D14FF0010C91
:100310000CFA00FCC2F810C0401C0828D1D31460AD
:10032000B1F800C0BCF1FF0F34DD546800202EE0AE
:1003300000F1080C4FF0010808FA0CF3B1F800C006
:100340000CEA03069E4221D183004FF00F0C0CFAF9
:1003500003F7BC4305FA03FC4CEA040491F803C01C
:10036000BCF1280F05D100F1080C08FA0CF8C2F80E
:10037000148091F803C0BCF1480F07D100F1080CBC
:100380004FF0010808FA0CF8C2F81080401C082849
:10039000CED35460BDE8F081416170470161704780
:1003A0002DE9FC5F4FF0000A00210C460D468B46FC
:1003B0004DE001202D490860142000F0ABFE002024
:1003C0002B49C1F8800100BF28487C38006800280C
:1003D000FAD00021274800F086FD00202649088039
:1003E0000121244800F062FC00BF20487C380068EE
:1003F0000128FAD000211F4800F058FC1E48008850
:100400004FF47A7100FB01FA1A4800F04FFD824464
:100410000021184800F067FD322000F055FE5046DC
:1004200001F095F90646154A154B01F0A3F98046EF
:1004300000224FF0804301F005F822462B46CDE91B
:10044000000100F057FF04460D460BF1010BBBF114
:10045000050FAEDB00220B4B2046294600F0F2FFD1
:1004600004460D4620462946BDE8FC9F8081214276
:100470000080214200100040020000209CC420B0F7
:100480007268A13F0000144000B585B0012108202A
:1004900000F016FB0120ADF8040003208DF80600E3
:1004A00010208DF8070001A92848FFF7EAFE022076
:1004B000ADF8040003208DF8060004208DF8070035
:1004C00001A92248FFF7DDFE01212048FFF764FF64
:1004D00002211E48FFF760FF0121102000F0D0FA32
:1004E0004FF0804000F0EEFB40F2E730ADF80C003A
:1004F0004720ADF808000020ADF80E00ADF80A0066
:1005000002A9134800F0F2FC0121114800F0C8FBD9
:10051000012211460E4800F0DDFC4FF4A06000F00F
:1005200099F836208DF8000000208DF80100012098
:100530008DF802008DF80300684600F053F80021A2
:10054000034800F0B3FB05B000BD0000000C014003
:100550000010004000BFFEE708B50121402000F078
:10056000AFFA1820ADF8000048208DF803000320F2
:100570008DF8020069460248FFF783FE08BD0000BF
:100580000018014010B513480078B8B1124800684F
:1005900018B11148001D006880B90A2000F094FDD0
:1005A00000200C4908700C48006808B9012010BDF3
:1005B0000948001D006808B90220F8E706480068ED
:1005C00030B10548001D006810B1012001490870D4
:1005D0000020ECE7000000200C01234200BFFEE7F2
:1005E0007047000070B5002100230F22C47804B3C7
:1005F000154C246804F4E064C4F5E064210AC1F1F8
:100600000403CA40447804FA03F184781440214377
:1006100009010E4C0678A155047804F01F05012449
:10062000AC4005786D11AD0005F1E025C5F800413D
:1006300009E0047804F01F050124AC40044D06785D
:10064000761145F8264070BD0CED00E000E400E0B6
:1006500080E100E002490143024A11607047000056
:100660000000FA050CED00E000B500200CE00021D0
:1006700006E00022074B03EBC1031A544A1CD1B217
:100680008029F6DB411CC8B20828F0DB00F0E4F852
:1006900000BD000024000020F0B515467F2801DCD5
:1006A0003F2900DDF0BD0C46CF1701EB5777FF1057
:1006B000C7F10707FAB2CF1701EB5777FF10A1EB8D
:1006C000C707FEB2C6F107070124BC40E3B24DB133
:1006D0000A4C04EBC004A45C1C43084F07EBC007A2
:1006E000BC5408E0054C04EBC004A45C9C43034FDD
:1006F00007EBC007BC5400BFD4E700002400002073
:100700002DE9F04706460F4690469946DDF820A0B1
:1007100034460CE03D4606E0524629462046FFF7A7
:10072000BBFF681CC5B24D45F6DD601CC4B2444534
:10073000F0DD00F091F8BDE8F087000008B5012178
:10074000202000F0BDF9F820ADF8000010208DF851
:10075000030003208DF8020069463C48FFF791FD35
:10076000F8213A48FFF71AFE002039490860642052
:1007700000F0AAFC01203749C1F890010021AE2009
:1007800000F044F90021D52000F040F9002180203C
:1007900000F03CF90021A82000F038F900213F20AA
:1007A00000F034F90021D32000F030F90021084690
:1007B00000F02CF90021402000F028F900218D20C4
:1007C00000F024F90021142000F020F9002120205D
:1007D00000F01CF90021022000F018F90021A120EE
:1007E00000F014F90021C02000F010F90021DA20F7
:1007F00000F00CF90021122000F008F900218120FE
:1008000000F004F90021EF2000F000F90021D920C8
:1008100000F0FCF80021F12000F0F8F80021DB20C6
:1008200000F0F4F80021302000F0F0F80021A420BE
:1008300000F0ECF80021A62000F0E8F80021AF203D
:1008400000F0E4F8FFF710FF08BD000000140140BD
:10085000908122420080224230B500241CE004F145
:10086000B001C8B2002100F0D1F80021084600F024
:10087000CDF80021102000F0C9F8002508E0084953
:1008800001EBC501085D012100F0C0F8681CC5B28C
:10089000802DF4DB601CC4B2082CE0DB30BD00000E
:1008A000240000202DE9F04F07460C461546A146CE
:1008B0004FF0100AA5F12000C5B200262DE019481E
:1008C00000EB051010F806804FF0000B1FE008F059
:1008D000800028B1012221463846FFF7DDFE04E002
:1008E000002221463846FFF7D7FE4FEA48604FEA1C
:1008F0001068601CC4B2A4EB0900504503D14C46FB
:10090000781CC7B206E00BF1010000F0FF0BBBF151
:10091000080FDCDB00BF701CC6B25645CFDBBDE85C
:10092000F08F0000321C00082DE9FF4F074691466A
:100930001D464FF0000A1026002433E0281B401EFD
:10094000C1B20A2000F091F8B9FBF0F00A21B0FB27
:10095000F1F201FB1208BAF1000F13D1681EA04298
:1009600010DDB8F1000F0BD1B34606EBDB71491077
:1009700001FB0471C8B220220199FFF793FF0FE039
:100980004FF0010AB34606EBDB71491001FB04711D
:10099000C8B208F13001CAB20199FFF783FF00BF66
:1009A000601CC4B2AC42C9DBFFF756FFBDE8FF8F45
:1009B000F0B506460F46154610241DE004EBD47131
:1009C0004910C1F18001B14202DA00263819C7B2DC
:1009D000C4F14000B84203DA00270026FFF744FEC6
:1009E0002A7839463046FFF75DFF204604EBD07188
:1009F00006EB6101CEB26D1C28787E2802DC2878D7
:100A00002028DBDAFFF728FFF0BD000010B5002238
:100A1000134B1A60134AC2F89411002216E0002307
:100A20000F4C0C34236000F080031BB10123241D04
:100A3000236003E000230A4C103423600123084C98
:100A40000C3423604306180E531CDAB2082AE6DB86
:100A50000122034B08331A60024BC3F88C2110BDEE
:100A60008C81224200802242704710B5024601204C
:100A700000E050430B1EA1F10104E1B2F9D110BD19
:100A800029B1064AD2690243044BDA6104E0034A01
:100A9000D2698243014BDA617047000000100240C6
:100AA00029B1064A12690243044B1A6104E0034A61
:100AB00012698243014B1A61704700000010024026
:100AC00029B1064A92690243044B9A6104E0034A41
:100AD00092698243014B9A61704700000010024006
:100AE00029B1064AD2680243044BDA6004E0034AA3
:100AF000D2688243014BDA60704700000010024068
:100B0000704710B500F002F810BD00000CB50020D1
:100B1000019000903348006840F48030314908600B
:100B200000BF3048006800F4003000900198401C7D
:100B30000190009818B90198B0F5A06FF1D129483B
:100B4000006800F4003010B10120009001E00020A6
:100B500000900098012843D12348006840F010001D
:100B6000214908600846006820F003000860084634
:100B7000006840F0020008601A484068194948605F
:100B80000846406848600846406840F48060486015
:100B90000846406820F47C1048600846406840F4ED
:100BA000E81048600846006840F08070086000BFA8
:100BB0000C48006800F000700028F9D0094840682F
:100BC00020F00300074948600846406840F00200F2
:100BD000486000BF0348406800F00C000828F9D1C5
:100BE0000CBD00000010024000200240042808D183
:100BF0004FF0E021096941F004014FF0E02211615A
:100C000007E04FF0E021096921F004014FF0E022F4
:100C1000116170477047000010B51348006840F03C
:100C200001001149086008464068104908400E4913
:100C30004860084600680E4908400B4908600846AD
:100C4000006820F4802008600846406820F4FE0018
:100C500048604FF41F008860FFF753FF4FF00060BB
:100C60000449086010BD0000001002400000FFF8B9
:100C7000FFFFF6FE08ED00E010B50121064800F088
:100C800018F940B10121044800F00DF8034800882C
:100C9000401C0249088010BD0010004002000020E6
:100CA000CA4302827047CA430282704721B1028858
:100CB00042F00102028004E002884FF6FE731A40FF
:100CC0000280704710B504466848844208D101216B
:100CD000C014FFF705FF0021E014FFF701FFC4E097
:100CE000B4F1804F08D101210846FFF7D9FE002159
:100CF0000120FFF7D5FEB8E05D48844208D101210C
:100D00000220FFF7CDFE00210220FFF7C9FEACE074
:100D10005848844208D101210420FFF7C1FE002178
:100D20000420FFF7BDFEA0E05348844208D1012112
:100D30000820FFF7B5FE00210820FFF7B1FE94E080
:100D40004E48844208D101211020FFF7A9FE00215E
:100D50001020FFF7A5FE88E04948844208D1012110
:100D60002020FFF79DFE00212020FFF799FE7CE068
:100D70004448844208D101214014FFF7B1FE00210C
:100D80006014FFF7ADFE70E03F48844209D10121B5
:100D9000C804FFF7A5FE00214FF40020FFF7A0FED6
:100DA00063E03A48844209D101210805FFF798FE23
:100DB00000214FF48010FFF793FE56E03448844240
:100DC00009D101214805FFF78BFE00214FF40010E7
:100DD000FFF786FE49E02F48844208D101214020D8
:100DE000FFF75EFE00214020FFF75AFE3DE02A4853
:100DF000844208D101218020FFF752FE002180208B
:100E0000FFF74EFE31E02548844208D101218015CC
:100E1000FFF746FE0021A015FFF742FE25E020481F
:100E2000844209D101210804FFF75AFE00214FF442
:100E30008030FFF755FE18E01A48844209D101219D
:100E40004804FFF74DFE00214FF40030FFF748FE45
:100E50000BE01548844208D101218804FFF740FEC9
:100E600000214FF48020FFF73BFE10BD002C014015
:100E70000004004000080040000C0040001000404A
:100E80000014004000340140004C0140005001407B
:100E90000054014000180040001C004000200040A9
:100EA0000040014000440140004801400146888C58
:100EB000704730B50246002000230024158A05EA59
:100EC0000103958905EA010413B10CB1012000E08A
:100ED000002030BD1AB183890B43838102E08389EE
:100EE0008B43838170478184704700000022028811
:100EF0001D4B98420ED01D4B98420BD0B0F1804F45
:100F000008D01B4B984205D01A4B984202D01A4B7E
:100F1000984204D14FF68F731A404B881A43174BEF
:100F2000984207D0164B984204D04FF6FF431A4020
:100F3000CB881A4302808B8883850B8803850A4BF4
:100F400098420BD0094B984208D00E4B984205D0DE
:100F50000D4B984202D00D4B984201D10B7A03867B
:100F60000123838270470000002C014000340140BF
:100F70000004004000080040000C00400010004049
:100F8000001400400040014000440140004801407E
:100F900010B540F225511D4800F03EF810B31B4833
:100FA00000F064F8C4B21A48008800F40040C8B9E0
:100FB0001748008800F4804060B10A2C03D000205C
:100FC0001349088020E01248008840F4004010498E
:100FD000088019E00D2C06D10D48008840F48040AF
:100FE0000B49088010E00A480088C0F30D00094949
:100FF0000C5407480088401C0549088008460088B2
:10100000C72801DD0020088010BD00000038014025
:10101000200000202404002070B502460024002394
:101020000025002040F66A16B14200D100BFC1F38E
:10103000421501F01F03012606FA03F3012D02D128
:101040009689334006E0022D02D1168A334001E032
:10105000968A33400C12012606FA04F416883440AE
:1010600013B10CB1012000E0002070BD014688885A
:10107000C0F30800704700BFFEE7014600BF002034
:101080007047000010B56FF00400FFF7AFFD0A488D
:1010900000680A49B0FBF1F0094908700846007879
:1010A00000EB4001C1EBC0104FF6FF7101EAC00038
:1010B0000449088010BD00000400002000127A00DE
:1010C000180000201A0000200146114A12884A43E5
:1010D0004FF0E0235A6100229A611A46126942F0E9
:1010E00001021A6100BF4FF0E022106900F0010216
:1010F0001AB100F48032002AF5D04FF0E0221269D4
:1011000022F001024FF0E0231A6100229A61704739
:101110001A0000200146114A12784A434FF0E0239A
:101120005A6100229A611A46126942F001021A615C
:1011300000BF4FF0E022106900F001021AB100F484
:101140008032002AF5D04FF0E022126922F001022D
:101150004FF0E0231A6100229A61704718000020C6
:1011600008B5FFF78FFFFFF7E9FAFFF7F5F9FFF78B
:101170008BF94FF0010A9AE0FFF704FAC6B2012E8C
:1011800002D0022E62D12AE0FFF76EFA00241CE0A2
:1011900025464FF000090FE005EB0510444BC2183F
:1011A0004FEA0970010E0020FFF702FC681CC5B26F
:1011B00009F1010000F0FF09201D8542ECDB4FF42E
:1011C0007A70FFF781FF601CC4B20B2CE0DB642057
:1011D000FFF77AFFFFF748FA4FF0010A66E0FFF7E2
:1011E00043FA002428E0002522E0274604EBD770CC
:1011F0004010A4EB4000C0B205F1200C0CF0FF033E
:101200004FEA450C0CF1400C0CF0FF02C5F11F0C2D
:101210000CF0FF014FEA450CCCF13F0C00900CF0B4
:10122000FF00FFF76DFA0120FFF74EFF681CC5B203
:10123000202DDADB601CC4B20A2CD4DB6420FFF75B
:1012400043FFFFF711FA4FF0010A2FE0BAF1000F48
:101250001CD0FFF709FA17A200210846FFF7A8FBE8
:1012600018A210210020FFF7A3FB1BA220210020C1
:10127000FFF79EFB1BA230210020FFF799FB1CA269
:1012800030217020FFF794FB4FF0000AFFF788F839
:10129000074600F02FFA834603235A463021502098
:1012A000FFF742FB6420FFF70FFF00BF00BF63E7BB
:1012B000441B00084B657920313A204C79726963F0
:1012C000000000004B657920323A20416E696D6163
:1012D00074696F6E00000000556C747261736F6EFC
:1012E0006963000044697374616E63653A200000AD
:1012F000636D000010B591EA030F48BF83F000430F
:1013000000F13E83841A71EB030C05D2121943EBF2
:101310000C03001B61EB0C01DFF824E14FEA1154D0
:10132000A4EB135C1EEA430F18BF9EEA445F73D020
:1013300023EA0E03DCF1200E21EA045143F480136A
:1013400032D322FA0CFE10EB0E0023FA0CFE41EB16
:101350000E01CCF1200E03FA0EFE10EB0E0051F13F
:101360000001B1F5801FCCF1200E32D201EB045107
:1013700012FA0EF2BDE8104058BF7047401C38BF4B
:101380005FEA420218BF7047002814BF20F0010036
:1013900041F100014FEA410313F5001F38BF7047C8
:1013A000A1F1C04100F0DEBA012A43EB0302ACF127
:1013B000200CDCF11F0E32BF4FF0000E23FA0CF3AD
:1013C00010EB030041EB0451B4EB115FD0D0A1EB63
:1013D000045101F5801149085FEA300001EB045126
:1013E0000ED350F1000038BF12FA0EFE08D1BDE84E
:1013F0001040C9E7401C38BF5FEA4202CAD1C3E7C8
:10140000BDE810404FEA410313F5001F38BF704795
:10141000A1F1C04100F0A6BA9EEA445F08D011EAEB
:101420005E0FBDE8104004BF01F00041002070478E
:10143000BDE8104070B500F047FA00BF64FBBE3E47
:101440000000E0FF2DE9C04130B4DFF8A0C23CEA63
:10145000111418BF3CEA131400F0EC8081EA030574
:101460001CEA111444EAD57418BF1CEA131500F0E5
:10147000C780A4EB05044FF0004545EAC12145EAC9
:10148000C32341EA505143EA525304F17F74994215
:1014900004F500344FEAC0204FEAC22208BF904250
:1014A00000F09C804FEA13650FF24016765D4FEA1C
:1014B000134506FB05F7C7F1807706FB07F74FEAF0
:1014C000D737A7FB03687642C8F58038A7FB06CE5E
:1014D00038BFA8F1010807FB08E64FF0000EA6FB95
:1014E000028CE6FB03CEDCF1000CCEF1004E38BFDF
:1014F000AEF1010EA6FB0C584FF000074FF00005AF
:10150000E6FB0E87A1FB08C6A0FB07CE16EB0E0676
:1015100045F10005E1FB076515F1E04E7EBFA4F53E
:1015200080345FEA46066D4116F1800745F10005FB
:101530004FEA17274FEA066647EA0567A6F1DE4637
:10154000B6F1805F4FEA15251FD9384624F0010C0B
:1015500005EBC471BCF1FE6F01EB0C1102D8F0BCBD
:10156000BDE8008124425CBF01F5801E9EEAC47F75
:1015700002D4F0BCBDE80081244238D4F0BCA1F113
:10158000C041BDE8004100F0EDB94FEAD22242EA85
:1015900043524FEAD323A7FB02864FEAD02040EA0A
:1015A000415007FB03661EEA0E0F4FEAD12105FBEF
:1015B000026658BFA6EB0056B6EB00564FEA520E35
:1015C0004EEAC37E18EB0E0E56EB530EBDD518EB4C
:1015D00002085E417F1C55F10005B6E74FF4801507
:1015E0004FF000074FF000064FF00008ADE7F0BCE9
:1015F0004FF0000001F1C04101F00041BDE8008161
:1016000011EA0C1F0CEA131500D00CE013EA0C1FB2
:1016100000F025804FF00000F0BC81EA030101F0EA
:101620000041BDE80081F0BCBDE8004181EA030152
:1016300000F098B9F0BCBDE8004170B500F044F985
:10164000097EFC3E00F007B881EA03014FF000007C
:1016500001F00041704781EA030100F083B9F0BC5A
:10166000BDE800414FF0000021497047FFFDFBF944
:10167000F7F5F4F2F0EEEDEBE9E8E6E4E3E1E0DEC5
:10168000DDDBDAD8D7D5D4D3D1D0CFCDCCCBCAC837
:10169000C7C6C5C4C2C1C0BFBEBDBCBBBAB9B8B75E
:1016A000B6B5B4B3B2B1B0AFAEADACABAAA9A8A851
:1016B000A7A6A5A4A3A3A2A1A09F9F9E9D9C9C9B1F
:1016C0009A999998979796959594939392919190CA
:1016D0008F8F8E8E8D8C8C8B8B8A8989888887875B
:1016E0008685858484838382828181800000FF07D0
:1016F0000000F87F4FEA1153A3F58063D3F11E0376
:10170000A8BFD3F1200C08DB4FF0004242EAC1220F
:1017100052EA505232FA03F0704709420BD4102BB0
:10172000C4BF0020704703F5787CBCF1FF3F05D0B3
:101730004FF0FF3070474FF00000704770B500F079
:10174000C3F800BF4992248000207047F0E7B0FA48
:1017500080F310FA03F10AD0C3F11D0303F580638F
:101760004FEA41504FEA035202EBD12170474FF04C
:1017700000007047DFF848C170B51CEA111E1EBF9B
:101780001CEA13159EEA0C0F95EA0C0F00F06F800F
:1017900081EA030423EA4C134EEAD47E21EA4C1179
:1017A00041F4801143F48013AE44A1FB024CA0FB32
:1017B0000365AEF17F7E361955EB0C05A1FB034C9A
:1017C0004CF10003A0FB021C16EB0C06654153F123
:1017D0000003094218BF46F0010613F4007F0BD145
:1017E0004FEA03314FEA0530340341EA155140EA2C
:1017F00016506FF003020AE04FEAC3214FEAC520FA
:10180000F40241EA555140EA56506FF0020202EBF1
:101810002E4201EB025585EACE710AD05FEA440CF4
:1018200018BF24F0004450F1000041F1000120EA0B
:10183000D47040F2FE7C624500D270BDA84214BF55
:101840004FF080444FF04044002E08BF0024BEF10A
:10185000806FA8BFA1F1C041BDE8704080F28280D6
:101860004FF0000001F1C04101F0004170479EEAD5
:101870000C0F0CEA131518BF95EA0C0F06D04FF0A9
:10188000000081EA030E0EF0004170BD00F01CF86C
:101890008900013E00F007B800F009B84FEA430C98
:1018A0005FEA5C5C08D081EA030100F05BB84FEAB4
:1018B000410C5FEA5C5CF6D14FF0000001497047D3
:1018C0000000FF070000F87F0EF1020E2EF0030E5D
:1018D0005EF8046B364205D4012A43EB030515F587
:1018E000001F12D8012841EB010C1CF5001F0CD879
:1018F0000ED14FEAD17C15F5001F0CEB4C0C0CF10E
:10190000020C08BF4CEBD37C04E04FF0080C01E064
:101910004FEAD37C0CEB4C0526FA05F606F00706D9
:10192000B6F1040C06D20EEB860CBDE870404CF00C
:10193000010C6047DFE80CF0090B02024FF0004198
:101940004FF00000A1F5002170BD19461046012896
:1019500051EB010418BFD4F5001484BF002001F03E
:10196000004170BD0808A0F500114FEA3101704731
:1019700010B591EA030F48BF83F000433FF5C2ACB6
:10198000841A71EB030C07D212198CF0004C43EB54
:101990000C03001B61EB0C01DFF8A4E14FEA1154CA
:1019A000A4EB135C1EEA430F18BF9EEA445F00F0ED
:1019B000B08023EA6E03524221EA0451C3EB6E0366
:1019C00038BF5B1EDCF1200E25D322FA0CFE10EB93
:1019D0000E0043FA0CFE41EB0E01CCF1200E03FA8F
:1019E0000EFE10EB0E0051F10001CCF1200E29D4B7
:1019F00012FA0EF201EB0451BDE8104058BF7047D7
:101A0000401C1CBFB2F1004F704700280CBF491C9E
:101A100020F00100704712EB020E43EB030218BFE7
:101A20004FF0010E4EEA4202ACF1200CDCF11E0E2A
:101A300054D943FA0CFE10EB0E0051F1FF31CCF1FA
:101A40001E0ED5D50EF1010E12FA0EFE404141EBED
:101A5000010101EB445C5FEA5C5C10D910EBDE70C5
:101A600001EB045138BFBEF1004FBDE8104018BF74
:101A7000704700280CBF491C20F00100704730D28D
:101A80004FEAD42C11F5001124F400641BD0B1FAF4
:101A900081F20B3AA41AA41ED2F12003914030FA2D
:101AA00003F31943904001EBCC71002C01EB04517E
:101AB000BDE81040A8BF704701F1C0414FF00000E1
:101AC00001F000417047B0FA80F310FA03F100D141
:101AD00010BDE41A173C4805C90AE4E701EB0451BC
:101AE00010BD491001EB0451BDE810404FEA300031
:101AF00002E04FF0000170474A0008BF0042F8D0F2
:101B0000B2F5001F28BF704701F000414FF0000000
:101B100070479EEA445F07D011EA5E0FBDE81040AF
:101B200004BF002100207047BDE8104070B5FFF7EA
:101B3000CBFE00BF40DFF63E83F000411046704709
:101B40000000E0FF4C6174656C79204927766520C0
:101B50006265656E0049277665206265656E2020A6
:101B60002020202020006C6F73696E6720736C65E5
:101B700065702020202000447265616D696E6720C9
:101B800061626F7574202000746865207468696EE6
:101B900067732020202020200074686174207765FE
:101BA00020636F756C642062650042757420626109
:101BB00062792C20202020202020004927766520D3
:101BC0006265656E2C202020202020004927766544
:101BD000206265656E202020202020200070726128
:101BE00079696E672068617264202020200053614B
:101BF0006964206E6F206D6F726520202020006365
:101C00006F756E74696E6720646F6C6C61727300BF
:101C10005765276C6C206265202020202020202022
:101C200000636F756E74696E6720737461727320E0
:101C30002000000000000000000000000000000084
:101C400000000000000000001FCC000C000000009D
:101C50000000000008003000600008003000600054
:101C60000000022003FC1E20022003FC1E20022094
:101C7000000000000E1811043FFF10840C780000D3
:101C800000000F0010840F3800C007781884007817
:101C9000000000780F8410C411240E9800E4008422
:101CA000000808006800700000000000000000004C
:101CB000000000000000000007E0181820044002A7
:101CC0000000000040022004181807E00000000097
:101CD00000000240024001800FF0018002400240FB
:101CE00000000080008000800FF8008000800080ED
:101CF00000000001000D000E0000000000000000C8
:101D000000000000008000800080008000800080D3
:101D100000800000000C000C00000000000000002B
:101D20000000000000060018006001800600180096
:101D30002000000007F0080810041004080807F04D
:101D400000000000080408041FFC00040004000058
:101D5000000000000E0C10141024104411840E0C0E
:101D6000000000000C1810041104110412880C70FB
:101D70000000000000E00320042408241FFC0024CD
:101D8000000000001F9810841104110410881070C6
:101D90000000000007F00888110411041888007082
:101DA000000000001C00100010FC13001C001000BC
:101DB000000000000E3811441084108411440E38C5
:101DC000000000000700088C10441044088807F049
:101DD0000000000000000000030C030C00000000E5
:101DE00000000000000000010106000000000000EB
:101DF00000000000008001400220041008081004C8
:101E000000000220022002200220022002200220E4
:101E100000000000100408080410022001400080A7
:101E2000000000000E001200100C106C10800F005B
:101E3000000003E00C1813E4142417C4082807D08A
:101E400000000004003C03C41C40074000E4001CE8
:101E5000000410041FFC1104110411040E8800700A
:101E6000000003E00C1810041004100410081C10EB
:101E7000000010041FFC100410041004080807F0F0
:101E8000000010041FFC1104110417C410040818EA
:101E9000000010041FFC1104110017C010000800FE
:101EA000000003E00C181004100410441C780040DB
:101EB000000010041FFC10840080008010841FFCB0
:101EC00010040000100410041FFC10041004000093
:101ED000000000030001100110011FFE100010009F
:101EE000000010041FFC110403801464181C10046B
:101EF000000010041FFC1004000400040004000C87
:101F0000000010041FFC1F0000FC1F001FFC100439
:101F1000000010041FFC0C04030000E010181FFC5C
:101F2000100007F00808100410041004080807F057
:101F3000000010041FFC10841080108010800F001F
:101F4000000007F0081810241024101C080A07F2DB
:101F5000000010041FFC1104110011C011300E0C00
:101F6000000400000E1C11041084108410441C385E
:101F700000001800100010041FFC100410001800CE
:101F8000000010001FF810040004000410041FF8E3
:101F9000100010001E0011E0001C007013801C00D7
:101FA00010001FC0103C00E01F0000E0103C1FC0EC
:101FB00000001004180C163401C001C01634180CAF
:101FC000100410001C00130400FC13041C0010007B
:101FD00000000804101C1064108413041C04101862
:101FE00000000000000000007FFE400240024002AE
:101FF0000000000030000C0003800060001C0003A3
:10200000000000004002400240027FFE000000008D
:1020100000000000000020004000400040002000C0
:1020200000000001000100010001000100010001A9
:1020300000010000400040002000000000000000FF
:10204000000000000098012401440144014400FC08
:10205000000410001FFC00880104010400880070C7
:1020600000000000007000880104010401040088E1
:1020700000000000007000880104010411081FFC2A
:102080000004000000F8014401440144014400C878
:1020900000000000010401040FFC110411041100F0
:1020A0001800000000D601290129012901C90106F3
:1020B000000010041FFC008401000100010400FC6A
:1020C000000400000104190419FC000400040000CD
:1020D00000000000000300010101190119FE0000C9
:1020E000000010041FFC0024004001B4010C010496
:1020F00000000000100410041FFC00040004000095
:102100000000010401FC0104010001FC01040100C4
:1021100000FC010401FC008401000100010400FC3A
:102120000004000000F8010401040104010400F8A7
:102130000000010101FF0085010401040088007016
:10214000000000000070008801040104010501FF87
:1021500000010104010401FC00840104010001806C
:102160000000000000CC0124012401240124019876
:10217000000000000100010007F801040104000054
:102180000000010001F8000400040004010801FC43
:102190000004010001800170000C0010016001804A
:1021A000010001F0010C003001C00030010C01F011
:1021B000010000000104018C00740170018C010415
:1021C0000000010101810171000E00180160018011
:1021D000010000000184010C013401440184010C60
:1021E0000000000000000000000001003EFC400272
:1021F00040020000000000000000FFFF000000009F
:1022000000000000400240023EFC0100000000000F
:1022100000000000600080008000400040002000BE
:1022200020000000442200080000002024000000DC
:102230006C01000868220008240000202C0B00001C
:10224000880100080100000000A24A04000000000C
:102250000000000001020304060708090000000056
:08226000000000000000000076
:0400000508000131BD
:00000001FF
